{"abi":[{"type":"constructor","inputs":[{"name":"_asset","type":"address","internalType":"contract IERC20"},{"name":"_initialRewarder","type":"address","internalType":"address"},{"name":"_owner","type":"address","internalType":"address"}],"stateMutability":"nonpayable"},{"type":"function","name":"DEFAULT_ADMIN_ROLE","inputs":[],"outputs":[{"name":"","type":"bytes32","internalType":"bytes32"}],"stateMutability":"view"},{"type":"function","name":"DOMAIN_SEPARATOR","inputs":[],"outputs":[{"name":"","type":"bytes32","internalType":"bytes32"}],"stateMutability":"view"},{"type":"function","name":"acceptAdmin","inputs":[],"outputs":[],"stateMutability":"nonpayable"},{"type":"function","name":"addToBlacklist","inputs":[{"name":"target","type":"address","internalType":"address"},{"name":"isFullBlacklisting","type":"bool","internalType":"bool"}],"outputs":[],"stateMutability":"nonpayable"},{"type":"function","name":"allowance","inputs":[{"name":"owner","type":"address","internalType":"address"},{"name":"spender","type":"address","internalType":"address"}],"outputs":[{"name":"","type":"uint256","internalType":"uint256"}],"stateMutability":"view"},{"type":"function","name":"approve","inputs":[{"name":"spender","type":"address","internalType":"address"},{"name":"amount","type":"uint256","internalType":"uint256"}],"outputs":[{"name":"","type":"bool","internalType":"bool"}],"stateMutability":"nonpayable"},{"type":"function","name":"asset","inputs":[],"outputs":[{"name":"","type":"address","internalType":"address"}],"stateMutability":"view"},{"type":"function","name":"balanceOf","inputs":[{"name":"account","type":"address","internalType":"address"}],"outputs":[{"name":"","type":"uint256","internalType":"uint256"}],"stateMutability":"view"},{"type":"function","name":"convertToAssets","inputs":[{"name":"shares","type":"uint256","internalType":"uint256"}],"outputs":[{"name":"","type":"uint256","internalType":"uint256"}],"stateMutability":"view"},{"type":"function","name":"convertToShares","inputs":[{"name":"assets","type":"uint256","internalType":"uint256"}],"outputs":[{"name":"","type":"uint256","internalType":"uint256"}],"stateMutability":"view"},{"type":"function","name":"decimals","inputs":[],"outputs":[{"name":"","type":"uint8","internalType":"uint8"}],"stateMutability":"pure"},{"type":"function","name":"decreaseAllowance","inputs":[{"name":"spender","type":"address","internalType":"address"},{"name":"subtractedValue","type":"uint256","internalType":"uint256"}],"outputs":[{"name":"","type":"bool","internalType":"bool"}],"stateMutability":"nonpayable"},{"type":"function","name":"deposit","inputs":[{"name":"assets","type":"uint256","internalType":"uint256"},{"name":"receiver","type":"address","internalType":"address"}],"outputs":[{"name":"","type":"uint256","internalType":"uint256"}],"stateMutability":"nonpayable"},{"type":"function","name":"eip712Domain","inputs":[],"outputs":[{"name":"fields","type":"bytes1","internalType":"bytes1"},{"name":"name","type":"string","internalType":"string"},{"name":"version","type":"string","internalType":"string"},{"name":"chainId","type":"uint256","internalType":"uint256"},{"name":"verifyingContract","type":"address","internalType":"address"},{"name":"salt","type":"bytes32","internalType":"bytes32"},{"name":"extensions","type":"uint256[]","internalType":"uint256[]"}],"stateMutability":"view"},{"type":"function","name":"getRoleAdmin","inputs":[{"name":"role","type":"bytes32","internalType":"bytes32"}],"outputs":[{"name":"","type":"bytes32","internalType":"bytes32"}],"stateMutability":"view"},{"type":"function","name":"getUnvestedAmount","inputs":[],"outputs":[{"name":"","type":"uint256","internalType":"uint256"}],"stateMutability":"view"},{"type":"function","name":"grantRole","inputs":[{"name":"role","type":"bytes32","internalType":"bytes32"},{"name":"account","type":"address","internalType":"address"}],"outputs":[],"stateMutability":"nonpayable"},{"type":"function","name":"hasRole","inputs":[{"name":"role","type":"bytes32","internalType":"bytes32"},{"name":"account","type":"address","internalType":"address"}],"outputs":[{"name":"","type":"bool","internalType":"bool"}],"stateMutability":"view"},{"type":"function","name":"increaseAllowance","inputs":[{"name":"spender","type":"address","internalType":"address"},{"name":"addedValue","type":"uint256","internalType":"uint256"}],"outputs":[{"name":"","type":"bool","internalType":"bool"}],"stateMutability":"nonpayable"},{"type":"function","name":"lastDistributionTimestamp","inputs":[],"outputs":[{"name":"","type":"uint256","internalType":"uint256"}],"stateMutability":"view"},{"type":"function","name":"maxDeposit","inputs":[{"name":"","type":"address","internalType":"address"}],"outputs":[{"name":"","type":"uint256","internalType":"uint256"}],"stateMutability":"view"},{"type":"function","name":"maxMint","inputs":[{"name":"","type":"address","internalType":"address"}],"outputs":[{"name":"","type":"uint256","internalType":"uint256"}],"stateMutability":"view"},{"type":"function","name":"maxRedeem","inputs":[{"name":"owner","type":"address","internalType":"address"}],"outputs":[{"name":"","type":"uint256","internalType":"uint256"}],"stateMutability":"view"},{"type":"function","name":"maxWithdraw","inputs":[{"name":"owner","type":"address","internalType":"address"}],"outputs":[{"name":"","type":"uint256","internalType":"uint256"}],"stateMutability":"view"},{"type":"function","name":"mint","inputs":[{"name":"shares","type":"uint256","internalType":"uint256"},{"name":"receiver","type":"address","internalType":"address"}],"outputs":[{"name":"","type":"uint256","internalType":"uint256"}],"stateMutability":"nonpayable"},{"type":"function","name":"name","inputs":[],"outputs":[{"name":"","type":"string","internalType":"string"}],"stateMutability":"view"},{"type":"function","name":"nonces","inputs":[{"name":"owner","type":"address","internalType":"address"}],"outputs":[{"name":"","type":"uint256","internalType":"uint256"}],"stateMutability":"view"},{"type":"function","name":"owner","inputs":[],"outputs":[{"name":"","type":"address","internalType":"address"}],"stateMutability":"view"},{"type":"function","name":"permit","inputs":[{"name":"owner","type":"address","internalType":"address"},{"name":"spender","type":"address","internalType":"address"},{"name":"value","type":"uint256","internalType":"uint256"},{"name":"deadline","type":"uint256","internalType":"uint256"},{"name":"v","type":"uint8","internalType":"uint8"},{"name":"r","type":"bytes32","internalType":"bytes32"},{"name":"s","type":"bytes32","internalType":"bytes32"}],"outputs":[],"stateMutability":"nonpayable"},{"type":"function","name":"previewDeposit","inputs":[{"name":"assets","type":"uint256","internalType":"uint256"}],"outputs":[{"name":"","type":"uint256","internalType":"uint256"}],"stateMutability":"view"},{"type":"function","name":"previewMint","inputs":[{"name":"shares","type":"uint256","internalType":"uint256"}],"outputs":[{"name":"","type":"uint256","internalType":"uint256"}],"stateMutability":"view"},{"type":"function","name":"previewRedeem","inputs":[{"name":"shares","type":"uint256","internalType":"uint256"}],"outputs":[{"name":"","type":"uint256","internalType":"uint256"}],"stateMutability":"view"},{"type":"function","name":"previewWithdraw","inputs":[{"name":"assets","type":"uint256","internalType":"uint256"}],"outputs":[{"name":"","type":"uint256","internalType":"uint256"}],"stateMutability":"view"},{"type":"function","name":"redeem","inputs":[{"name":"shares","type":"uint256","internalType":"uint256"},{"name":"receiver","type":"address","internalType":"address"},{"name":"owner","type":"address","internalType":"address"}],"outputs":[{"name":"","type":"uint256","internalType":"uint256"}],"stateMutability":"nonpayable"},{"type":"function","name":"redistributeLockedAmount","inputs":[{"name":"from","type":"address","internalType":"address"},{"name":"to","type":"address","internalType":"address"}],"outputs":[],"stateMutability":"nonpayable"},{"type":"function","name":"removeFromBlacklist","inputs":[{"name":"target","type":"address","internalType":"address"},{"name":"isFullBlacklisting","type":"bool","internalType":"bool"}],"outputs":[],"stateMutability":"nonpayable"},{"type":"function","name":"renounceRole","inputs":[{"name":"","type":"bytes32","internalType":"bytes32"},{"name":"","type":"address","internalType":"address"}],"outputs":[],"stateMutability":"nonpayable"},{"type":"function","name":"rescueTokens","inputs":[{"name":"token","type":"address","internalType":"address"},{"name":"amount","type":"uint256","internalType":"uint256"},{"name":"to","type":"address","internalType":"address"}],"outputs":[],"stateMutability":"nonpayable"},{"type":"function","name":"revokeRole","inputs":[{"name":"role","type":"bytes32","internalType":"bytes32"},{"name":"account","type":"address","internalType":"address"}],"outputs":[],"stateMutability":"nonpayable"},{"type":"function","name":"supportsInterface","inputs":[{"name":"interfaceId","type":"bytes4","internalType":"bytes4"}],"outputs":[{"name":"","type":"bool","internalType":"bool"}],"stateMutability":"view"},{"type":"function","name":"symbol","inputs":[],"outputs":[{"name":"","type":"string","internalType":"string"}],"stateMutability":"view"},{"type":"function","name":"totalAssets","inputs":[],"outputs":[{"name":"","type":"uint256","internalType":"uint256"}],"stateMutability":"view"},{"type":"function","name":"totalSupply","inputs":[],"outputs":[{"name":"","type":"uint256","internalType":"uint256"}],"stateMutability":"view"},{"type":"function","name":"transfer","inputs":[{"name":"to","type":"address","internalType":"address"},{"name":"amount","type":"uint256","internalType":"uint256"}],"outputs":[{"name":"","type":"bool","internalType":"bool"}],"stateMutability":"nonpayable"},{"type":"function","name":"transferAdmin","inputs":[{"name":"newAdmin","type":"address","internalType":"address"}],"outputs":[],"stateMutability":"nonpayable"},{"type":"function","name":"transferFrom","inputs":[{"name":"from","type":"address","internalType":"address"},{"name":"to","type":"address","internalType":"address"},{"name":"amount","type":"uint256","internalType":"uint256"}],"outputs":[{"name":"","type":"bool","internalType":"bool"}],"stateMutability":"nonpayable"},{"type":"function","name":"transferInRewards","inputs":[{"name":"amount","type":"uint256","internalType":"uint256"}],"outputs":[],"stateMutability":"nonpayable"},{"type":"function","name":"vestingAmount","inputs":[],"outputs":[{"name":"","type":"uint256","internalType":"uint256"}],"stateMutability":"view"},{"type":"function","name":"withdraw","inputs":[{"name":"assets","type":"uint256","internalType":"uint256"},{"name":"receiver","type":"address","internalType":"address"},{"name":"owner","type":"address","internalType":"address"}],"outputs":[{"name":"","type":"uint256","internalType":"uint256"}],"stateMutability":"nonpayable"},{"type":"event","name":"AdminTransferRequested","inputs":[{"name":"oldAdmin","type":"address","indexed":true,"internalType":"address"},{"name":"newAdmin","type":"address","indexed":true,"internalType":"address"}],"anonymous":false},{"type":"event","name":"AdminTransferred","inputs":[{"name":"oldAdmin","type":"address","indexed":true,"internalType":"address"},{"name":"newAdmin","type":"address","indexed":true,"internalType":"address"}],"anonymous":false},{"type":"event","name":"Approval","inputs":[{"name":"owner","type":"address","indexed":true,"internalType":"address"},{"name":"spender","type":"address","indexed":true,"internalType":"address"},{"name":"value","type":"uint256","indexed":false,"internalType":"uint256"}],"anonymous":false},{"type":"event","name":"Deposit","inputs":[{"name":"sender","type":"address","indexed":true,"internalType":"address"},{"name":"owner","type":"address","indexed":true,"internalType":"address"},{"name":"assets","type":"uint256","indexed":false,"internalType":"uint256"},{"name":"shares","type":"uint256","indexed":false,"internalType":"uint256"}],"anonymous":false},{"type":"event","name":"EIP712DomainChanged","inputs":[],"anonymous":false},{"type":"event","name":"LockedAmountRedistributed","inputs":[{"name":"from","type":"address","indexed":true,"internalType":"address"},{"name":"to","type":"address","indexed":true,"internalType":"address"},{"name":"amount","type":"uint256","indexed":false,"internalType":"uint256"}],"anonymous":false},{"type":"event","name":"RewardsReceived","inputs":[{"name":"amount","type":"uint256","indexed":true,"internalType":"uint256"},{"name":"newVestingUSDeAmount","type":"uint256","indexed":false,"internalType":"uint256"}],"anonymous":false},{"type":"event","name":"RoleAdminChanged","inputs":[{"name":"role","type":"bytes32","indexed":true,"internalType":"bytes32"},{"name":"previousAdminRole","type":"bytes32","indexed":true,"internalType":"bytes32"},{"name":"newAdminRole","type":"bytes32","indexed":true,"internalType":"bytes32"}],"anonymous":false},{"type":"event","name":"RoleGranted","inputs":[{"name":"role","type":"bytes32","indexed":true,"internalType":"bytes32"},{"name":"account","type":"address","indexed":true,"internalType":"address"},{"name":"sender","type":"address","indexed":true,"internalType":"address"}],"anonymous":false},{"type":"event","name":"RoleRevoked","inputs":[{"name":"role","type":"bytes32","indexed":true,"internalType":"bytes32"},{"name":"account","type":"address","indexed":true,"internalType":"address"},{"name":"sender","type":"address","indexed":true,"internalType":"address"}],"anonymous":false},{"type":"event","name":"Transfer","inputs":[{"name":"from","type":"address","indexed":true,"internalType":"address"},{"name":"to","type":"address","indexed":true,"internalType":"address"},{"name":"value","type":"uint256","indexed":false,"internalType":"uint256"}],"anonymous":false},{"type":"event","name":"Withdraw","inputs":[{"name":"sender","type":"address","indexed":true,"internalType":"address"},{"name":"receiver","type":"address","indexed":true,"internalType":"address"},{"name":"owner","type":"address","indexed":true,"internalType":"address"},{"name":"assets","type":"uint256","indexed":false,"internalType":"uint256"},{"name":"shares","type":"uint256","indexed":false,"internalType":"uint256"}],"anonymous":false},{"type":"error","name":"CantBlacklistOwner","inputs":[]},{"type":"error","name":"InvalidAdminChange","inputs":[]},{"type":"error","name":"InvalidAmount","inputs":[]},{"type":"error","name":"InvalidShortString","inputs":[]},{"type":"error","name":"InvalidToken","inputs":[]},{"type":"error","name":"InvalidZeroAddress","inputs":[]},{"type":"error","name":"MinSharesViolation","inputs":[]},{"type":"error","name":"NotPendingAdmin","inputs":[]},{"type":"error","name":"OperationNotAllowed","inputs":[]},{"type":"error","name":"SlippageExceeded","inputs":[]},{"type":"error","name":"StillVesting","inputs":[]},{"type":"error","name":"StringTooLong","inputs":[{"name":"str","type":"string","internalType":"string"}]}],"bytecode":{"object":"0x6101a06040523480156200001257600080fd5b50604051620069ff380380620069ff833981810160405281019062000038919062000a2c565b826040518060400160405280600681526020017f7374555344650000000000000000000000000000000000000000000000000000815250806040518060400160405280600181526020017f31000000000000000000000000000000000000000000000000000000000000008152506040518060400160405280600b81526020017f5374616b656420555344650000000000000000000000000000000000000000008152506040518060400160405280600681526020017f7374555344650000000000000000000000000000000000000000000000000000815250600160038190555081600790816200012b919062000d02565b5080600890816200013d919062000d02565b505050620001566009836200038760201b90919060201c565b610120818152505062000174600a826200038760201b90919060201c565b6101408181525050818051906020012060e08181525050808051906020012061010081815250504660a08181525050620001b3620003df60201b60201c565b608081815250503073ffffffffffffffffffffffffffffffffffffffff1660c08173ffffffffffffffffffffffffffffffffffffffff168152505050505060008062000205836200043c60201b60201c565b91509150816200021757601262000219565b805b60ff166101808160ff16815250508273ffffffffffffffffffffffffffffffffffffffff166101608173ffffffffffffffffffffffffffffffffffffffff1681525050505050600073ffffffffffffffffffffffffffffffffffffffff168173ffffffffffffffffffffffffffffffffffffffff161480620002c75750600073ffffffffffffffffffffffffffffffffffffffff168273ffffffffffffffffffffffffffffffffffffffff16145b80620002ff5750600073ffffffffffffffffffffffffffffffffffffffff168373ffffffffffffffffffffffffffffffffffffffff16145b1562000337576040517ff6b2911f00000000000000000000000000000000000000000000000000000000815260040160405180910390fd5b620003697fbeec13769b5f410b0584f69811bfd923818456d5edcf426b0e31cf90eed7a3f6836200057660201b60201c565b6200037e6000801b826200057660201b60201c565b50505062001096565b6000602083511015620003ad57620003a583620006b160201b60201c565b9050620003d9565b82620003bf836200071e60201b60201c565b6000019081620003d0919062000d02565b5060ff60001b90505b92915050565b60007f8b73c3c69bb8fe3d512ecc4cf759cc79239f7b179b0ffacaa9a75d522b39400f60e0516101005146306040516020016200042195949392919062000e26565b60405160208183030381529060405280519060200120905090565b6000806000808473ffffffffffffffffffffffffffffffffffffffff1663313ce56760e01b604051602401604051602081830303815290604052907bffffffffffffffffffffffffffffffffffffffffffffffffffffffff19166020820180517bffffffffffffffffffffffffffffffffffffffffffffffffffffffff8381831617835250505050604051620004d3919062000efc565b600060405180830381855afa9150503d806000811462000510576040519150601f19603f3d011682016040523d82523d6000602084013e62000515565b606091505b50915091508180156200052a57506020815110155b15620005675760008180602001905181019062000548919062000f46565b905060ff8016811162000565576001819450945050505062000571565b505b6000809350935050505b915091565b6000801b82036200069b578073ffffffffffffffffffffffffffffffffffffffff16600160009054906101000a900473ffffffffffffffffffffffffffffffffffffffff1673ffffffffffffffffffffffffffffffffffffffff167ff8ccb027dfcd135e000e9d45e6cc2d662578a8825d4c45b5e32e0adf67e79ec660405160405180910390a3620006346000801b600160009054906101000a900473ffffffffffffffffffffffffffffffffffffffff166200072860201b60201c565b80600160006101000a81548173ffffffffffffffffffffffffffffffffffffffff021916908373ffffffffffffffffffffffffffffffffffffffff160217905550600260006101000a81549073ffffffffffffffffffffffffffffffffffffffff02191690555b620006ad82826200081a60201b60201c565b5050565b600080829050601f815111156200070157826040517f305a27a9000000000000000000000000000000000000000000000000000000008152600401620006f8919062000fdb565b60405180910390fd5b8051816200070f9062001026565b60001c1760001b915050919050565b6000819050919050565b6200073a82826200090b60201b60201c565b156200081657600080600084815260200190815260200160002060000160008373ffffffffffffffffffffffffffffffffffffffff1673ffffffffffffffffffffffffffffffffffffffff16815260200190815260200160002060006101000a81548160ff021916908315150217905550620007bb6200097560201b60201c565b73ffffffffffffffffffffffffffffffffffffffff168173ffffffffffffffffffffffffffffffffffffffff16837ff6391f5c32d9c69d2a47ea670b442974b53935d1edc7fd64eb21e047a839171b60405160405180910390a45b5050565b6200082c82826200090b60201b60201c565b6200090757600160008084815260200190815260200160002060000160008373ffffffffffffffffffffffffffffffffffffffff1673ffffffffffffffffffffffffffffffffffffffff16815260200190815260200160002060006101000a81548160ff021916908315150217905550620008ac6200097560201b60201c565b73ffffffffffffffffffffffffffffffffffffffff168173ffffffffffffffffffffffffffffffffffffffff16837f2f8788117e7eff1d82e926ec794901d17c78024a50270940304540a733656f0d60405160405180910390a45b5050565b600080600084815260200190815260200160002060000160008373ffffffffffffffffffffffffffffffffffffffff1673ffffffffffffffffffffffffffffffffffffffff16815260200190815260200160002060009054906101000a900460ff16905092915050565b600033905090565b600080fd5b600073ffffffffffffffffffffffffffffffffffffffff82169050919050565b6000620009af8262000982565b9050919050565b6000620009c382620009a2565b9050919050565b620009d581620009b6565b8114620009e157600080fd5b50565b600081519050620009f581620009ca565b92915050565b62000a0681620009a2565b811462000a1257600080fd5b50565b60008151905062000a2681620009fb565b92915050565b60008060006060848603121562000a485762000a476200097d565b5b600062000a5886828701620009e4565b935050602062000a6b8682870162000a15565b925050604062000a7e8682870162000a15565b9150509250925092565b600081519050919050565b7f4e487b7100000000000000000000000000000000000000000000000000000000600052604160045260246000fd5b7f4e487b7100000000000000000000000000000000000000000000000000000000600052602260045260246000fd5b6000600282049050600182168062000b0a57607f821691505b60208210810362000b205762000b1f62000ac2565b5b50919050565b60008190508160005260206000209050919050565b60006020601f8301049050919050565b600082821b905092915050565b60006008830262000b8a7fffffffffffffffffffffffffffffffffffffffffffffffffffffffffffffffff8262000b4b565b62000b96868362000b4b565b95508019841693508086168417925050509392505050565b6000819050919050565b6000819050919050565b600062000be362000bdd62000bd78462000bae565b62000bb8565b62000bae565b9050919050565b6000819050919050565b62000bff8362000bc2565b62000c1762000c0e8262000bea565b84845462000b58565b825550505050565b600090565b62000c2e62000c1f565b62000c3b81848462000bf4565b505050565b5b8181101562000c635762000c5760008262000c24565b60018101905062000c41565b5050565b601f82111562000cb25762000c7c8162000b26565b62000c878462000b3b565b8101602085101562000c97578190505b62000caf62000ca68562000b3b565b83018262000c40565b50505b505050565b600082821c905092915050565b600062000cd76000198460080262000cb7565b1980831691505092915050565b600062000cf2838362000cc4565b9150826002028217905092915050565b62000d0d8262000a88565b67ffffffffffffffff81111562000d295762000d2862000a93565b5b62000d35825462000af1565b62000d4282828562000c67565b600060209050601f83116001811462000d7a576000841562000d65578287015190505b62000d71858262000ce4565b86555062000de1565b601f19841662000d8a8662000b26565b60005b8281101562000db45784890151825560018201915060208501945060208101905062000d8d565b8683101562000dd4578489015162000dd0601f89168262000cc4565b8355505b6001600288020188555050505b505050505050565b6000819050919050565b62000dfe8162000de9565b82525050565b62000e0f8162000bae565b82525050565b62000e2081620009a2565b82525050565b600060a08201905062000e3d600083018862000df3565b62000e4c602083018762000df3565b62000e5b604083018662000df3565b62000e6a606083018562000e04565b62000e79608083018462000e15565b9695505050505050565b600081519050919050565b600081905092915050565b60005b8381101562000eb957808201518184015260208101905062000e9c565b60008484015250505050565b600062000ed28262000e83565b62000ede818562000e8e565b935062000ef081856020860162000e99565b80840191505092915050565b600062000f0a828462000ec5565b915081905092915050565b62000f208162000bae565b811462000f2c57600080fd5b50565b60008151905062000f408162000f15565b92915050565b60006020828403121562000f5f5762000f5e6200097d565b5b600062000f6f8482850162000f2f565b91505092915050565b600082825260208201905092915050565b6000601f19601f8301169050919050565b600062000fa78262000a88565b62000fb3818562000f78565b935062000fc581856020860162000e99565b62000fd08162000f89565b840191505092915050565b6000602082019050818103600083015262000ff7818462000f9a565b905092915050565b6000819050602082019050919050565b60006200101d825162000de9565b80915050919050565b6000620010338262000e83565b826200103f8462000fff565b90506200104c816200100f565b925060208210156200108f576200108a7fffffffffffffffffffffffffffffffffffffffffffffffffffffffffffffffff8360200360080262000b4b565b831692505b5050919050565b60805160a05160c05160e05161010051610120516101405161016051610180516158ed620011126000396000505060008181610db0015281816131bc0152613441015260006110d30152600061109f01526000613167015260006131460152600061244f015260006124a5015260006124ce01526158ed6000f3fe608060405234801561001057600080fd5b50600436106102ba5760003560e01c806384b0196e11610182578063ba087652116100e9578063d505accf116100a2578063dd62ed3e1161007c578063dd62ed3e14610983578063e7c2a608146109b3578063ef8b30f7146109d1578063f298f42c14610a01576102ba565b8063d505accf1461091b578063d547741f14610937578063d905777e14610953576102ba565b8063ba08765214610823578063c336a08414610853578063c63d75b61461086f578063c6e6f5921461089f578063c80ef110146108cf578063ce96cb77146108eb576102ba565b8063a217fddf1161013b578063a217fddf14610729578063a457c2d714610747578063a9059cbb14610777578063b37fd190146107a7578063b3d7f6b9146107c3578063b460af94146107f3576102ba565b806384b0196e1461064d5780638da5cb5b1461067157806391d148541461068f57806394bf804d146106bf57806395d89b41146106ef578063a0776b821461070d576102ba565b80632f2ff15d11610226578063402d267d116101df578063402d267d146105415780634cdad506146105715780636e553f65146105a157806370a08231146105d157806375829def146106015780637ecebe001461061d576102ba565b80632f2ff15d1461047f578063313ce5671461049b5780633644e515146104b957806336568abe146104d757806338d52e0f146104f35780633950935114610511576102ba565b80630a28a477116102785780630a28a477146103a95780630e18b681146103d957806318160ddd146103e3578063209509331461040157806323b872dd1461041f578063248a9ca31461044f576102ba565b8062728f76146102bf57806301e1d114146102dd57806301ffc9a7146102fb57806306fdde031461032b57806307a2d13a14610349578063095ea7b314610379575b600080fd5b6102c7610a1d565b6040516102d49190613d3b565b60405180910390f35b6102e5610a23565b6040516102f29190613d3b565b60405180910390f35b61031560048036038101906103109190613db3565b610abd565b6040516103229190613dfb565b60405180910390f35b610333610b37565b6040516103409190613ea6565b60405180910390f35b610363600480360381019061035e9190613ef4565b610bc9565b6040516103709190613d3b565b60405180910390f35b610393600480360381019061038e9190613f7f565b610bdd565b6040516103a09190613dfb565b60405180910390f35b6103c360048036038101906103be9190613ef4565b610c00565b6040516103d09190613d3b565b60405180910390f35b6103e1610c14565b005b6103eb610caa565b6040516103f89190613d3b565b60405180910390f35b610409610cb4565b6040516104169190613d3b565b60405180910390f35b61043960048036038101906104349190613fbf565b610cba565b6040516104469190613dfb565b60405180910390f35b61046960048036038101906104649190614048565b610ce9565b6040516104769190614084565b60405180910390f35b6104996004803603810190610494919061409f565b610d08565b005b6104a3610d62565b6040516104b091906140fb565b60405180910390f35b6104c1610d6b565b6040516104ce9190614084565b60405180910390f35b6104f160048036038101906104ec919061409f565b610d7a565b005b6104fb610dac565b6040516105089190614125565b60405180910390f35b61052b60048036038101906105269190613f7f565b610dd4565b6040516105389190613dfb565b60405180910390f35b61055b60048036038101906105569190614140565b610e0b565b6040516105689190613d3b565b60405180910390f35b61058b60048036038101906105869190613ef4565b610e35565b6040516105989190613d3b565b60405180910390f35b6105bb60048036038101906105b6919061416d565b610e49565b6040516105c89190613d3b565b60405180910390f35b6105eb60048036038101906105e69190614140565b610ec0565b6040516105f89190613d3b565b60405180910390f35b61061b60048036038101906106169190614140565b610f09565b005b61063760048036038101906106329190614140565b61103c565b6040516106449190613d3b565b60405180910390f35b61065561108c565b60405161066897969594939291906142a6565b60405180910390f35b61067961118e565b6040516106869190614125565b60405180910390f35b6106a960048036038101906106a4919061409f565b6111b8565b6040516106b69190613dfb565b60405180910390f35b6106d960048036038101906106d4919061416d565b611222565b6040516106e69190613d3b565b60405180910390f35b6106f7611299565b6040516107049190613ea6565b60405180910390f35b6107276004803603810190610722919061432a565b61132b565b005b610731611492565b60405161073e9190614084565b60405180910390f35b610761600480360381019061075c9190613f7f565b611499565b60405161076e9190613dfb565b60405180910390f35b610791600480360381019061078c9190613f7f565b611510565b60405161079e9190613dfb565b60405180910390f35b6107c160048036038101906107bc919061436a565b611533565b005b6107dd60048036038101906107d89190613ef4565b6115dd565b6040516107ea9190613d3b565b60405180910390f35b61080d600480360381019061080891906143bd565b6115f1565b60405161081a9190613d3b565b60405180910390f35b61083d600480360381019061083891906143bd565b61166a565b60405161084a9190613d3b565b60405180910390f35b61086d6004803603810190610868919061443c565b6116e3565b005b61088960048036038101906108849190614140565b6117dc565b6040516108969190613d3b565b60405180910390f35b6108b960048036038101906108b49190613ef4565b611806565b6040516108c69190613d3b565b60405180910390f35b6108e960048036038101906108e49190613ef4565b61181a565b005b61090560048036038101906109009190614140565b611968565b6040516109129190613d3b565b60405180910390f35b610935600480360381019061093091906144a8565b611984565b005b610951600480360381019061094c919061409f565b611ac6565b005b61096d60048036038101906109689190614140565b611b20565b60405161097a9190613d3b565b60405180910390f35b61099d6004803603810190610998919061432a565b611b32565b6040516109aa9190613d3b565b60405180910390f35b6109bb611bb9565b6040516109c89190613d3b565b60405180910390f35b6109eb60048036038101906109e69190613ef4565b611c0e565b6040516109f89190613d3b565b60405180910390f35b610a1b6004803603810190610a16919061443c565b611c22565b005b600d5481565b6000610a2d611bb9565b610a35610dac565b73ffffffffffffffffffffffffffffffffffffffff166370a08231306040518263ffffffff1660e01b8152600401610a6d9190614125565b602060405180830381865afa158015610a8a573d6000803e3d6000fd5b505050506040513d601f19601f82011682018060405250810190610aae919061455f565b610ab891906145bb565b905090565b60007f7965db0b000000000000000000000000000000000000000000000000000000007bffffffffffffffffffffffffffffffffffffffffffffffffffffffff1916827bffffffffffffffffffffffffffffffffffffffffffffffffffffffff19161480610b305750610b2f82611d1b565b5b9050919050565b606060078054610b469061461e565b80601f0160208091040260200160405190810160405280929190818152602001828054610b729061461e565b8015610bbf5780601f10610b9457610100808354040283529160200191610bbf565b820191906000526020600020905b815481529060010190602001808311610ba257829003601f168201915b5050505050905090565b6000610bd6826000611d85565b9050919050565b600080610be8611dde565b9050610bf5818585611de6565b600191505092915050565b6000610c0d826001611faf565b9050919050565b600260009054906101000a900473ffffffffffffffffffffffffffffffffffffffff1673ffffffffffffffffffffffffffffffffffffffff163373ffffffffffffffffffffffffffffffffffffffff1614610c9b576040517f058d9a1b00000000000000000000000000000000000000000000000000000000815260040160405180910390fd5b610ca86000801b33612008565b565b6000600654905090565b600e5481565b600080610cc5611dde565b9050610cd2858285612132565b610cdd8585856121be565b60019150509392505050565b6000806000838152602001908152602001600020600101549050919050565b6000801b610d1581612437565b826000801b8103610d52576040517f6317a0fa00000000000000000000000000000000000000000000000000000000815260040160405180910390fd5b610d5c8484612008565b50505050565b60006012905090565b6000610d7561244b565b905090565b6040517ff50a3b5200000000000000000000000000000000000000000000000000000000815260040160405180910390fd5b60007f0000000000000000000000000000000000000000000000000000000000000000905090565b600080610ddf611dde565b9050610e00818585610df18589611b32565b610dfb919061464f565b611de6565b600191505092915050565b60007fffffffffffffffffffffffffffffffffffffffffffffffffffffffffffffffff9050919050565b6000610e42826000611d85565b9050919050565b6000610e5482610e0b565b831115610e96576040517f08c379a0000000000000000000000000000000000000000000000000000000008152600401610e8d906146cf565b60405180910390fd5b6000610ea184611c0e565b9050610eb6610eae611dde565b848684612502565b8091505092915050565b6000600460008373ffffffffffffffffffffffffffffffffffffffff1673ffffffffffffffffffffffffffffffffffffffff168152602001908152602001600020549050919050565b6000801b610f1681612437565b3373ffffffffffffffffffffffffffffffffffffffff168273ffffffffffffffffffffffffffffffffffffffff1603610f7b576040517f6317a0fa00000000000000000000000000000000000000000000000000000000815260040160405180910390fd5b81600260006101000a81548173ffffffffffffffffffffffffffffffffffffffff021916908373ffffffffffffffffffffffffffffffffffffffff1602179055508173ffffffffffffffffffffffffffffffffffffffff16600160009054906101000a900473ffffffffffffffffffffffffffffffffffffffff1673ffffffffffffffffffffffffffffffffffffffff167fefdcbba819467e00b0262c12892dda980bac68580b72178e57a162368b80876660405160405180910390a35050565b6000611085600b60008473ffffffffffffffffffffffffffffffffffffffff1673ffffffffffffffffffffffffffffffffffffffff168152602001908152602001600020612636565b9050919050565b6000606080600080600060606110cc60097f000000000000000000000000000000000000000000000000000000000000000061264490919063ffffffff16565b611100600a7f000000000000000000000000000000000000000000000000000000000000000061264490919063ffffffff16565b46306000801b600067ffffffffffffffff811115611121576111206146ef565b5b60405190808252806020026020018201604052801561114f5781602001602082028036833780820191505090505b507f0f00000000000000000000000000000000000000000000000000000000000000959493929190965096509650965096509650965090919293949596565b6000600160009054906101000a900473ffffffffffffffffffffffffffffffffffffffff16905090565b600080600084815260200190815260200160002060000160008373ffffffffffffffffffffffffffffffffffffffff1673ffffffffffffffffffffffffffffffffffffffff16815260200190815260200160002060009054906101000a900460ff16905092915050565b600061122d826117dc565b83111561126f576040517f08c379a00000000000000000000000000000000000000000000000000000000081526004016112669061476a565b60405180910390fd5b600061127a846115dd565b905061128f611287611dde565b848387612502565b8091505092915050565b6060600880546112a89061461e565b80601f01602080910402602001604051908101604052809291908181526020018280546112d49061461e565b80156113215780601f106112f657610100808354040283529160200191611321565b820191906000526020600020905b81548152906001019060200180831161130457829003601f168201915b5050505050905090565b6000801b61133881612437565b6113627f0a4af4bcc1942295207d9f047442ebdae6170a6e324850f758b14cf99b65c3bd846111b8565b801561139557506113937f0a4af4bcc1942295207d9f047442ebdae6170a6e324850f758b14cf99b65c3bd836111b8565b155b1561145b5760006113a584610ec0565b90506113b184826126f4565b600073ffffffffffffffffffffffffffffffffffffffff168373ffffffffffffffffffffffffffffffffffffffff16146113f0576113ef83826128c3565b5b8273ffffffffffffffffffffffffffffffffffffffff168473ffffffffffffffffffffffffffffffffffffffff167fb8ef21f2b52f8ca740012254a6b10f17d2fd6e589f97ebf401fde0e8b92189378360405161144d9190613d3b565b60405180910390a35061148d565b6040517ff50a3b5200000000000000000000000000000000000000000000000000000000815260040160405180910390fd5b505050565b6000801b81565b6000806114a4611dde565b905060006114b28286611b32565b9050838110156114f7576040517f08c379a00000000000000000000000000000000000000000000000000000000081526004016114ee906147fc565b60405180910390fd5b6115048286868403611de6565b60019250505092915050565b60008061151b611dde565b90506115288185856121be565b600191505092915050565b6000801b61154081612437565b611548610dac565b73ffffffffffffffffffffffffffffffffffffffff168473ffffffffffffffffffffffffffffffffffffffff16036115ac576040517fc1ab6dc100000000000000000000000000000000000000000000000000000000815260040160405180910390fd5b6115d782848673ffffffffffffffffffffffffffffffffffffffff16612a1a9092919063ffffffff16565b50505050565b60006115ea826001611d85565b9050919050565b60006115fc82611968565b84111561163e576040517f08c379a000000000000000000000000000000000000000000000000000000000815260040161163590614868565b60405180910390fd5b600061164985610c00565b905061165f611656611dde565b85858885612aa0565b809150509392505050565b600061167582611b20565b8411156116b7576040517f08c379a00000000000000000000000000000000000000000000000000000000081526004016116ae906148d4565b60405180910390fd5b60006116c285610e35565b90506116d86116cf611dde565b85858489612aa0565b809150509392505050565b7ff988e4fb62b8e14f4820fed03192306ddf4d7dbfa215595ba1c6ba4b76b369ee61170d81612437565b8261171661118e565b73ffffffffffffffffffffffffffffffffffffffff168173ffffffffffffffffffffffffffffffffffffffff160361177a576040517ffe7c574000000000000000000000000000000000000000000000000000000000815260040160405180910390fd5b6000836117a7577f8f7080408a06296c6347c87c115ad99669141ae35eae974c12dff8bd01680cb66117c9565b7f0a4af4bcc1942295207d9f047442ebdae6170a6e324850f758b14cf99b65c3bd5b90506117d58186612bd6565b5050505050565b60007fffffffffffffffffffffffffffffffffffffffffffffffffffffffffffffffff9050919050565b6000611813826000611faf565b9050919050565b611822612cb7565b7fbeec13769b5f410b0584f69811bfd923818456d5edcf426b0e31cf90eed7a3f661184c81612437565b8160008103611887576040517f2c5211c600000000000000000000000000000000000000000000000000000000815260040160405180910390fd5b6000611891611bb9565b11156118c9576040517f010133de00000000000000000000000000000000000000000000000000000000815260040160405180910390fd5b60006118d3611bb9565b846118de919061464f565b905080600d8190555042600e819055506119223330866118fc610dac565b73ffffffffffffffffffffffffffffffffffffffff16612d06909392919063ffffffff16565b837f61cb44cbea389abb97c617c7d16a62235c51f27da3406d3ec3c9ac87c0d0c826826040516119529190613d3b565b60405180910390a2505050611965612d8f565b50565b600061197d61197683610ec0565b6000611d85565b9050919050565b834211156119c7576040517f08c379a00000000000000000000000000000000000000000000000000000000081526004016119be90614940565b60405180910390fd5b60007f6e71edae12b1b97f4d1f60370fef10105fa2faae0126114a169c64845d6126c98888886119f68c612d99565b89604051602001611a0c96959493929190614960565b6040516020818303038152906040528051906020012090506000611a2f82612df7565b90506000611a3f82878787612e11565b90508973ffffffffffffffffffffffffffffffffffffffff168173ffffffffffffffffffffffffffffffffffffffff1614611aaf576040517f08c379a0000000000000000000000000000000000000000000000000000000008152600401611aa690614a0d565b60405180910390fd5b611aba8a8a8a611de6565b50505050505050505050565b6000801b611ad381612437565b826000801b8103611b10576040517f6317a0fa00000000000000000000000000000000000000000000000000000000815260040160405180910390fd5b611b1a8484612bd6565b50505050565b6000611b2b82610ec0565b9050919050565b6000600560008473ffffffffffffffffffffffffffffffffffffffff1673ffffffffffffffffffffffffffffffffffffffff16815260200190815260200160002060008373ffffffffffffffffffffffffffffffffffffffff1673ffffffffffffffffffffffffffffffffffffffff16815260200190815260200160002054905092915050565b600080600e5442611bca91906145bb565b90506170808110611bdf576000915050611c0b565b617080600d5482617080611bf391906145bb565b611bfd9190614a2d565b611c079190614a9e565b9150505b90565b6000611c1b826000611faf565b9050919050565b7ff988e4fb62b8e14f4820fed03192306ddf4d7dbfa215595ba1c6ba4b76b369ee611c4c81612437565b82611c5561118e565b73ffffffffffffffffffffffffffffffffffffffff168173ffffffffffffffffffffffffffffffffffffffff1603611cb9576040517ffe7c574000000000000000000000000000000000000000000000000000000000815260040160405180910390fd5b600083611ce6577f8f7080408a06296c6347c87c115ad99669141ae35eae974c12dff8bd01680cb6611d08565b7f0a4af4bcc1942295207d9f047442ebdae6170a6e324850f758b14cf99b65c3bd5b9050611d148186612008565b5050505050565b60007f01ffc9a7000000000000000000000000000000000000000000000000000000007bffffffffffffffffffffffffffffffffffffffffffffffffffffffff1916827bffffffffffffffffffffffffffffffffffffffffffffffffffffffff1916149050919050565b6000611dd66001611d94610a23565b611d9e919061464f565b611da6612e3c565b600a611db29190614c02565b611dba610caa565b611dc4919061464f565b8486612e41909392919063ffffffff16565b905092915050565b600033905090565b600073ffffffffffffffffffffffffffffffffffffffff168373ffffffffffffffffffffffffffffffffffffffff1603611e55576040517f08c379a0000000000000000000000000000000000000000000000000000000008152600401611e4c90614cbf565b60405180910390fd5b600073ffffffffffffffffffffffffffffffffffffffff168273ffffffffffffffffffffffffffffffffffffffff1603611ec4576040517f08c379a0000000000000000000000000000000000000000000000000000000008152600401611ebb90614d51565b60405180910390fd5b80600560008573ffffffffffffffffffffffffffffffffffffffff1673ffffffffffffffffffffffffffffffffffffffff16815260200190815260200160002060008473ffffffffffffffffffffffffffffffffffffffff1673ffffffffffffffffffffffffffffffffffffffff168152602001908152602001600020819055508173ffffffffffffffffffffffffffffffffffffffff168373ffffffffffffffffffffffffffffffffffffffff167f8c5be1e5ebec7d5bd14f71427d1e84f3dd0314c0f7b2291e5b200ac8c7c3b92583604051611fa29190613d3b565b60405180910390a3505050565b6000612000611fbc612e3c565b600a611fc89190614c02565b611fd0610caa565b611fda919061464f565b6001611fe4610a23565b611fee919061464f565b8486612e41909392919063ffffffff16565b905092915050565b6000801b8203612124578073ffffffffffffffffffffffffffffffffffffffff16600160009054906101000a900473ffffffffffffffffffffffffffffffffffffffff1673ffffffffffffffffffffffffffffffffffffffff167ff8ccb027dfcd135e000e9d45e6cc2d662578a8825d4c45b5e32e0adf67e79ec660405160405180910390a36120bd6000801b600160009054906101000a900473ffffffffffffffffffffffffffffffffffffffff16612bd6565b80600160006101000a81548173ffffffffffffffffffffffffffffffffffffffff021916908373ffffffffffffffffffffffffffffffffffffffff160217905550600260006101000a81549073ffffffffffffffffffffffffffffffffffffffff02191690555b61212e8282612eb7565b5050565b600061213e8484611b32565b90507fffffffffffffffffffffffffffffffffffffffffffffffffffffffffffffffff81146121b857818110156121aa576040517f08c379a00000000000000000000000000000000000000000000000000000000081526004016121a190614dbd565b60405180910390fd5b6121b78484848403611de6565b5b50505050565b600073ffffffffffffffffffffffffffffffffffffffff168373ffffffffffffffffffffffffffffffffffffffff160361222d576040517f08c379a000000000000000000000000000000000000000000000000000000000815260040161222490614e4f565b60405180910390fd5b600073ffffffffffffffffffffffffffffffffffffffff168273ffffffffffffffffffffffffffffffffffffffff160361229c576040517f08c379a000000000000000000000000000000000000000000000000000000000815260040161229390614ee1565b60405180910390fd5b6122a7838383612f97565b6000600460008573ffffffffffffffffffffffffffffffffffffffff1673ffffffffffffffffffffffffffffffffffffffff1681526020019081526020016000205490508181101561232e576040517f08c379a000000000000000000000000000000000000000000000000000000000815260040161232590614f73565b60405180910390fd5b818103600460008673ffffffffffffffffffffffffffffffffffffffff1673ffffffffffffffffffffffffffffffffffffffff1681526020019081526020016000208190555081600460008573ffffffffffffffffffffffffffffffffffffffff1673ffffffffffffffffffffffffffffffffffffffff168152602001908152602001600020600082825401925050819055508273ffffffffffffffffffffffffffffffffffffffff168473ffffffffffffffffffffffffffffffffffffffff167fddf252ad1be2c89b69c2b068fc378daa952ba7f163c4a11628f55a4df523b3ef8460405161241e9190613d3b565b60405180910390a3612431848484613097565b50505050565b61244881612443611dde565b61309c565b50565b60007f000000000000000000000000000000000000000000000000000000000000000073ffffffffffffffffffffffffffffffffffffffff163073ffffffffffffffffffffffffffffffffffffffff161480156124c757507f000000000000000000000000000000000000000000000000000000000000000046145b156124f4577f000000000000000000000000000000000000000000000000000000000000000090506124ff565b6124fc613121565b90505b90565b61250a612cb7565b8160008103612545576040517f2c5211c600000000000000000000000000000000000000000000000000000000815260040160405180910390fd5b8160008103612580576040517f2c5211c600000000000000000000000000000000000000000000000000000000815260040160405180910390fd5b6125aa7f8f7080408a06296c6347c87c115ad99669141ae35eae974c12dff8bd01680cb6876111b8565b806125db57506125da7f8f7080408a06296c6347c87c115ad99669141ae35eae974c12dff8bd01680cb6866111b8565b5b15612612576040517ff50a3b5200000000000000000000000000000000000000000000000000000000815260040160405180910390fd5b61261e868686866131b7565b61262661325a565b5050612630612d8f565b50505050565b600081600001549050919050565b606060ff60001b83146126615761265a836132b7565b90506126ee565b81805461266d9061461e565b80601f01602080910402602001604051908101604052809291908181526020018280546126999061461e565b80156126e65780601f106126bb576101008083540402835291602001916126e6565b820191906000526020600020905b8154815290600101906020018083116126c957829003601f168201915b505050505090505b92915050565b600073ffffffffffffffffffffffffffffffffffffffff168273ffffffffffffffffffffffffffffffffffffffff1603612763576040517f08c379a000000000000000000000000000000000000000000000000000000000815260040161275a90615005565b60405180910390fd5b61276f82600083612f97565b6000600460008473ffffffffffffffffffffffffffffffffffffffff1673ffffffffffffffffffffffffffffffffffffffff168152602001908152602001600020549050818110156127f6576040517f08c379a00000000000000000000000000000000000000000000000000000000081526004016127ed90615097565b60405180910390fd5b818103600460008573ffffffffffffffffffffffffffffffffffffffff1673ffffffffffffffffffffffffffffffffffffffff1681526020019081526020016000208190555081600660008282540392505081905550600073ffffffffffffffffffffffffffffffffffffffff168373ffffffffffffffffffffffffffffffffffffffff167fddf252ad1be2c89b69c2b068fc378daa952ba7f163c4a11628f55a4df523b3ef846040516128aa9190613d3b565b60405180910390a36128be83600084613097565b505050565b600073ffffffffffffffffffffffffffffffffffffffff168273ffffffffffffffffffffffffffffffffffffffff1603612932576040517f08c379a000000000000000000000000000000000000000000000000000000000815260040161292990615103565b60405180910390fd5b61293e60008383612f97565b8060066000828254612950919061464f565b9250508190555080600460008473ffffffffffffffffffffffffffffffffffffffff1673ffffffffffffffffffffffffffffffffffffffff168152602001908152602001600020600082825401925050819055508173ffffffffffffffffffffffffffffffffffffffff16600073ffffffffffffffffffffffffffffffffffffffff167fddf252ad1be2c89b69c2b068fc378daa952ba7f163c4a11628f55a4df523b3ef83604051612a029190613d3b565b60405180910390a3612a1660008383613097565b5050565b612a9b8363a9059cbb60e01b8484604051602401612a39929190615123565b604051602081830303815290604052907bffffffffffffffffffffffffffffffffffffffffffffffffffffffff19166020820180517bffffffffffffffffffffffffffffffffffffffffffffffffffffffff838183161783525050505061332b565b505050565b612aa8612cb7565b8160008103612ae3576040517f2c5211c600000000000000000000000000000000000000000000000000000000815260040160405180910390fd5b8160008103612b1e576040517f2c5211c600000000000000000000000000000000000000000000000000000000815260040160405180910390fd5b612b487f0a4af4bcc1942295207d9f047442ebdae6170a6e324850f758b14cf99b65c3bd886111b8565b80612b795750612b787f0a4af4bcc1942295207d9f047442ebdae6170a6e324850f758b14cf99b65c3bd876111b8565b5b15612bb0576040517ff50a3b5200000000000000000000000000000000000000000000000000000000815260040160405180910390fd5b612bbd87878787876133f3565b612bc561325a565b5050612bcf612d8f565b5050505050565b612be082826111b8565b15612cb357600080600084815260200190815260200160002060000160008373ffffffffffffffffffffffffffffffffffffffff1673ffffffffffffffffffffffffffffffffffffffff16815260200190815260200160002060006101000a81548160ff021916908315150217905550612c58611dde565b73ffffffffffffffffffffffffffffffffffffffff168173ffffffffffffffffffffffffffffffffffffffff16837ff6391f5c32d9c69d2a47ea670b442974b53935d1edc7fd64eb21e047a839171b60405160405180910390a45b5050565b600260035403612cfc576040517f08c379a0000000000000000000000000000000000000000000000000000000008152600401612cf390615198565b60405180910390fd5b6002600381905550565b612d89846323b872dd60e01b858585604051602401612d27939291906151b8565b604051602081830303815290604052907bffffffffffffffffffffffffffffffffffffffffffffffffffffffff19166020820180517bffffffffffffffffffffffffffffffffffffffffffffffffffffffff838183161783525050505061332b565b50505050565b6001600381905550565b600080600b60008473ffffffffffffffffffffffffffffffffffffffff1673ffffffffffffffffffffffffffffffffffffffff1681526020019081526020016000209050612de681612636565b9150612df1816134ec565b50919050565b6000612e0a612e0461244b565b83613502565b9050919050565b6000806000612e2287878787613543565b91509150612e2f81613625565b8192505050949350505050565b600090565b600080612e4f86868661378b565b905060016002811115612e6557612e646151ef565b5b836002811115612e7857612e776151ef565b5b148015612e96575060008480612e9157612e90614a6f565b5b868809115b15612eab57600181612ea8919061464f565b90505b80915050949350505050565b612ec182826111b8565b612f9357600160008084815260200190815260200160002060000160008373ffffffffffffffffffffffffffffffffffffffff1673ffffffffffffffffffffffffffffffffffffffff16815260200190815260200160002060006101000a81548160ff021916908315150217905550612f38611dde565b73ffffffffffffffffffffffffffffffffffffffff168173ffffffffffffffffffffffffffffffffffffffff16837f2f8788117e7eff1d82e926ec794901d17c78024a50270940304540a733656f0d60405160405180910390a45b5050565b612fc17f0a4af4bcc1942295207d9f047442ebdae6170a6e324850f758b14cf99b65c3bd846111b8565b8015612ffa5750600073ffffffffffffffffffffffffffffffffffffffff168273ffffffffffffffffffffffffffffffffffffffff1614155b15613031576040517ff50a3b5200000000000000000000000000000000000000000000000000000000815260040160405180910390fd5b61305b7f0a4af4bcc1942295207d9f047442ebdae6170a6e324850f758b14cf99b65c3bd836111b8565b15613092576040517ff50a3b5200000000000000000000000000000000000000000000000000000000815260040160405180910390fd5b505050565b505050565b6130a682826111b8565b61311d576130b38161389c565b6130c18360001c60206138c9565b6040516020016130d29291906152f2565b6040516020818303038152906040526040517f08c379a00000000000000000000000000000000000000000000000000000000081526004016131149190613ea6565b60405180910390fd5b5050565b60007f8b73c3c69bb8fe3d512ecc4cf759cc79239f7b179b0ffacaa9a75d522b39400f7f00000000000000000000000000000000000000000000000000000000000000007f0000000000000000000000000000000000000000000000000000000000000000463060405160200161319c95949392919061532c565b60405160208183030381529060405280519060200120905090565b6131e37f0000000000000000000000000000000000000000000000000000000000000000853085612d06565b6131ed83826128c3565b8273ffffffffffffffffffffffffffffffffffffffff168473ffffffffffffffffffffffffffffffffffffffff167fdcbc1c05240f31ff3ad067ef1ee35ce4997762752e3a095284754544f4c709d7848460405161324c92919061537f565b60405180910390a350505050565b6000613264610caa565b905060008111801561327d5750670de0b6b3a764000081105b156132b4576040517fb4b836aa00000000000000000000000000000000000000000000000000000000815260040160405180910390fd5b50565b606060006132c483613b05565b90506000602067ffffffffffffffff8111156132e3576132e26146ef565b5b6040519080825280601f01601f1916602001820160405280156133155781602001600182028036833780820191505090505b5090508181528360208201528092505050919050565b600061338d826040518060400160405280602081526020017f5361666545524332303a206c6f772d6c6576656c2063616c6c206661696c65648152508573ffffffffffffffffffffffffffffffffffffffff16613b559092919063ffffffff16565b90506000815114806133af5750808060200190518101906133ae91906153bd565b5b6133ee576040517f08c379a00000000000000000000000000000000000000000000000000000000081526004016133e59061545c565b60405180910390fd5b505050565b8273ffffffffffffffffffffffffffffffffffffffff168573ffffffffffffffffffffffffffffffffffffffff161461343257613431838683612132565b5b61343c83826126f4565b6134677f00000000000000000000000000000000000000000000000000000000000000008584612a1a565b8273ffffffffffffffffffffffffffffffffffffffff168473ffffffffffffffffffffffffffffffffffffffff168673ffffffffffffffffffffffffffffffffffffffff167ffbde797d201c681b91056529119e0b02407c7bb96a4a2c75c01fc9667232c8db85856040516134dd92919061537f565b60405180910390a45050505050565b6001816000016000828254019250508190555050565b60006040517f190100000000000000000000000000000000000000000000000000000000000081528360028201528260228201526042812091505092915050565b6000807f7fffffffffffffffffffffffffffffff5d576e7357a4501ddfe92f46681b20a08360001c111561357e57600060039150915061361c565b6000600187878787604051600081526020016040526040516135a3949392919061547c565b6020604051602081039080840390855afa1580156135c5573d6000803e3d6000fd5b505050602060405103519050600073ffffffffffffffffffffffffffffffffffffffff168173ffffffffffffffffffffffffffffffffffffffff16036136135760006001925092505061361c565b80600092509250505b94509492505050565b60006004811115613639576136386151ef565b5b81600481111561364c5761364b6151ef565b5b03156137885760016004811115613666576136656151ef565b5b816004811115613679576136786151ef565b5b036136b9576040517f08c379a00000000000000000000000000000000000000000000000000000000081526004016136b09061550d565b60405180910390fd5b600260048111156136cd576136cc6151ef565b5b8160048111156136e0576136df6151ef565b5b03613720576040517f08c379a000000000000000000000000000000000000000000000000000000000815260040161371790615579565b60405180910390fd5b60036004811115613734576137336151ef565b5b816004811115613747576137466151ef565b5b03613787576040517f08c379a000000000000000000000000000000000000000000000000000000000815260040161377e9061560b565b60405180910390fd5b5b50565b60008060008019858709858702925082811083820303915050600081036137c6578382816137bc576137bb614a6f565b5b0492505050613895565b808411613808576040517f08c379a00000000000000000000000000000000000000000000000000000000081526004016137ff90615677565b60405180910390fd5b60008486880990508281118203915080830392506000600186190186169050808604955080840493506001818260000304019050808302841793506000600287600302189050808702600203810290508087026002038102905080870260020381029050808702600203810290508087026002038102905080870260020381029050808502955050505050505b9392505050565b60606138c28273ffffffffffffffffffffffffffffffffffffffff16601460ff166138c9565b9050919050565b6060600060028360026138dc9190614a2d565b6138e6919061464f565b67ffffffffffffffff8111156138ff576138fe6146ef565b5b6040519080825280601f01601f1916602001820160405280156139315781602001600182028036833780820191505090505b5090507f30000000000000000000000000000000000000000000000000000000000000008160008151811061396957613968615697565b5b60200101907effffffffffffffffffffffffffffffffffffffffffffffffffffffffffffff1916908160001a9053507f7800000000000000000000000000000000000000000000000000000000000000816001815181106139cd576139cc615697565b5b60200101907effffffffffffffffffffffffffffffffffffffffffffffffffffffffffffff1916908160001a90535060006001846002613a0d9190614a2d565b613a17919061464f565b90505b6001811115613ab7577f3031323334353637383961626364656600000000000000000000000000000000600f861660108110613a5957613a58615697565b5b1a60f81b828281518110613a7057613a6f615697565b5b60200101907effffffffffffffffffffffffffffffffffffffffffffffffffffffffffffff1916908160001a905350600485901c945080613ab0906156c6565b9050613a1a565b5060008414613afb576040517f08c379a0000000000000000000000000000000000000000000000000000000008152600401613af29061573b565b60405180910390fd5b8091505092915050565b60008060ff8360001c169050601f811115613b4c576040517fb3512b0c00000000000000000000000000000000000000000000000000000000815260040160405180910390fd5b80915050919050565b6060613b648484600085613b6d565b90509392505050565b606082471015613bb2576040517f08c379a0000000000000000000000000000000000000000000000000000000008152600401613ba9906157cd565b60405180910390fd5b6000808673ffffffffffffffffffffffffffffffffffffffff168587604051613bdb9190615834565b60006040518083038185875af1925050503d8060008114613c18576040519150601f19603f3d011682016040523d82523d6000602084013e613c1d565b606091505b5091509150613c2e87838387613c3a565b92505050949350505050565b60608315613c9c576000835103613c9457613c5485613caf565b613c93576040517f08c379a0000000000000000000000000000000000000000000000000000000008152600401613c8a90615897565b60405180910390fd5b5b829050613ca7565b613ca68383613cd2565b5b949350505050565b6000808273ffffffffffffffffffffffffffffffffffffffff163b119050919050565b600082511115613ce55781518083602001fd5b806040517f08c379a0000000000000000000000000000000000000000000000000000000008152600401613d199190613ea6565b60405180910390fd5b6000819050919050565b613d3581613d22565b82525050565b6000602082019050613d506000830184613d2c565b92915050565b600080fd5b60007fffffffff0000000000000000000000000000000000000000000000000000000082169050919050565b613d9081613d5b565b8114613d9b57600080fd5b50565b600081359050613dad81613d87565b92915050565b600060208284031215613dc957613dc8613d56565b5b6000613dd784828501613d9e565b91505092915050565b60008115159050919050565b613df581613de0565b82525050565b6000602082019050613e106000830184613dec565b92915050565b600081519050919050565b600082825260208201905092915050565b60005b83811015613e50578082015181840152602081019050613e35565b60008484015250505050565b6000601f19601f8301169050919050565b6000613e7882613e16565b613e828185613e21565b9350613e92818560208601613e32565b613e9b81613e5c565b840191505092915050565b60006020820190508181036000830152613ec08184613e6d565b905092915050565b613ed181613d22565b8114613edc57600080fd5b50565b600081359050613eee81613ec8565b92915050565b600060208284031215613f0a57613f09613d56565b5b6000613f1884828501613edf565b91505092915050565b600073ffffffffffffffffffffffffffffffffffffffff82169050919050565b6000613f4c82613f21565b9050919050565b613f5c81613f41565b8114613f6757600080fd5b50565b600081359050613f7981613f53565b92915050565b60008060408385031215613f9657613f95613d56565b5b6000613fa485828601613f6a565b9250506020613fb585828601613edf565b9150509250929050565b600080600060608486031215613fd857613fd7613d56565b5b6000613fe686828701613f6a565b9350506020613ff786828701613f6a565b925050604061400886828701613edf565b9150509250925092565b6000819050919050565b61402581614012565b811461403057600080fd5b50565b6000813590506140428161401c565b92915050565b60006020828403121561405e5761405d613d56565b5b600061406c84828501614033565b91505092915050565b61407e81614012565b82525050565b60006020820190506140996000830184614075565b92915050565b600080604083850312156140b6576140b5613d56565b5b60006140c485828601614033565b92505060206140d585828601613f6a565b9150509250929050565b600060ff82169050919050565b6140f5816140df565b82525050565b600060208201905061411060008301846140ec565b92915050565b61411f81613f41565b82525050565b600060208201905061413a6000830184614116565b92915050565b60006020828403121561415657614155613d56565b5b600061416484828501613f6a565b91505092915050565b6000806040838503121561418457614183613d56565b5b600061419285828601613edf565b92505060206141a385828601613f6a565b9150509250929050565b60007fff0000000000000000000000000000000000000000000000000000000000000082169050919050565b6141e2816141ad565b82525050565b600081519050919050565b600082825260208201905092915050565b6000819050602082019050919050565b61421d81613d22565b82525050565b600061422f8383614214565b60208301905092915050565b6000602082019050919050565b6000614253826141e8565b61425d81856141f3565b935061426883614204565b8060005b838110156142995781516142808882614223565b975061428b8361423b565b92505060018101905061426c565b5085935050505092915050565b600060e0820190506142bb600083018a6141d9565b81810360208301526142cd8189613e6d565b905081810360408301526142e18188613e6d565b90506142f06060830187613d2c565b6142fd6080830186614116565b61430a60a0830185614075565b81810360c083015261431c8184614248565b905098975050505050505050565b6000806040838503121561434157614340613d56565b5b600061434f85828601613f6a565b925050602061436085828601613f6a565b9150509250929050565b60008060006060848603121561438357614382613d56565b5b600061439186828701613f6a565b93505060206143a286828701613edf565b92505060406143b386828701613f6a565b9150509250925092565b6000806000606084860312156143d6576143d5613d56565b5b60006143e486828701613edf565b93505060206143f586828701613f6a565b925050604061440686828701613f6a565b9150509250925092565b61441981613de0565b811461442457600080fd5b50565b60008135905061443681614410565b92915050565b6000806040838503121561445357614452613d56565b5b600061446185828601613f6a565b925050602061447285828601614427565b9150509250929050565b614485816140df565b811461449057600080fd5b50565b6000813590506144a28161447c565b92915050565b600080600080600080600060e0888a0312156144c7576144c6613d56565b5b60006144d58a828b01613f6a565b97505060206144e68a828b01613f6a565b96505060406144f78a828b01613edf565b95505060606145088a828b01613edf565b94505060806145198a828b01614493565b93505060a061452a8a828b01614033565b92505060c061453b8a828b01614033565b91505092959891949750929550565b60008151905061455981613ec8565b92915050565b60006020828403121561457557614574613d56565b5b60006145838482850161454a565b91505092915050565b7f4e487b7100000000000000000000000000000000000000000000000000000000600052601160045260246000fd5b60006145c682613d22565b91506145d183613d22565b92508282039050818111156145e9576145e861458c565b5b92915050565b7f4e487b7100000000000000000000000000000000000000000000000000000000600052602260045260246000fd5b6000600282049050600182168061463657607f821691505b602082108103614649576146486145ef565b5b50919050565b600061465a82613d22565b915061466583613d22565b925082820190508082111561467d5761467c61458c565b5b92915050565b7f455243343632363a206465706f736974206d6f7265207468616e206d61780000600082015250565b60006146b9601e83613e21565b91506146c482614683565b602082019050919050565b600060208201905081810360008301526146e8816146ac565b9050919050565b7f4e487b7100000000000000000000000000000000000000000000000000000000600052604160045260246000fd5b7f455243343632363a206d696e74206d6f7265207468616e206d61780000000000600082015250565b6000614754601b83613e21565b915061475f8261471e565b602082019050919050565b6000602082019050818103600083015261478381614747565b9050919050565b7f45524332303a2064656372656173656420616c6c6f77616e63652062656c6f7760008201527f207a65726f000000000000000000000000000000000000000000000000000000602082015250565b60006147e6602583613e21565b91506147f18261478a565b604082019050919050565b60006020820190508181036000830152614815816147d9565b9050919050565b7f455243343632363a207769746864726177206d6f7265207468616e206d617800600082015250565b6000614852601f83613e21565b915061485d8261481c565b602082019050919050565b6000602082019050818103600083015261488181614845565b9050919050565b7f455243343632363a2072656465656d206d6f7265207468616e206d6178000000600082015250565b60006148be601d83613e21565b91506148c982614888565b602082019050919050565b600060208201905081810360008301526148ed816148b1565b9050919050565b7f45524332305065726d69743a206578706972656420646561646c696e65000000600082015250565b600061492a601d83613e21565b9150614935826148f4565b602082019050919050565b600060208201905081810360008301526149598161491d565b9050919050565b600060c0820190506149756000830189614075565b6149826020830188614116565b61498f6040830187614116565b61499c6060830186613d2c565b6149a96080830185613d2c565b6149b660a0830184613d2c565b979650505050505050565b7f45524332305065726d69743a20696e76616c6964207369676e61747572650000600082015250565b60006149f7601e83613e21565b9150614a02826149c1565b602082019050919050565b60006020820190508181036000830152614a26816149ea565b9050919050565b6000614a3882613d22565b9150614a4383613d22565b9250828202614a5181613d22565b91508282048414831517614a6857614a6761458c565b5b5092915050565b7f4e487b7100000000000000000000000000000000000000000000000000000000600052601260045260246000fd5b6000614aa982613d22565b9150614ab483613d22565b925082614ac457614ac3614a6f565b5b828204905092915050565b60008160011c9050919050565b6000808291508390505b6001851115614b2657808604811115614b0257614b0161458c565b5b6001851615614b115780820291505b8081029050614b1f85614acf565b9450614ae6565b94509492505050565b600082614b3f5760019050614bfb565b81614b4d5760009050614bfb565b8160018114614b635760028114614b6d57614b9c565b6001915050614bfb565b60ff841115614b7f57614b7e61458c565b5b8360020a915084821115614b9657614b9561458c565b5b50614bfb565b5060208310610133831016604e8410600b8410161715614bd15782820a905083811115614bcc57614bcb61458c565b5b614bfb565b614bde8484846001614adc565b92509050818404811115614bf557614bf461458c565b5b81810290505b9392505050565b6000614c0d82613d22565b9150614c18836140df565b9250614c457fffffffffffffffffffffffffffffffffffffffffffffffffffffffffffffffff8484614b2f565b905092915050565b7f45524332303a20617070726f76652066726f6d20746865207a65726f2061646460008201527f7265737300000000000000000000000000000000000000000000000000000000602082015250565b6000614ca9602483613e21565b9150614cb482614c4d565b604082019050919050565b60006020820190508181036000830152614cd881614c9c565b9050919050565b7f45524332303a20617070726f766520746f20746865207a65726f20616464726560008201527f7373000000000000000000000000000000000000000000000000000000000000602082015250565b6000614d3b602283613e21565b9150614d4682614cdf565b604082019050919050565b60006020820190508181036000830152614d6a81614d2e565b9050919050565b7f45524332303a20696e73756666696369656e7420616c6c6f77616e6365000000600082015250565b6000614da7601d83613e21565b9150614db282614d71565b602082019050919050565b60006020820190508181036000830152614dd681614d9a565b9050919050565b7f45524332303a207472616e736665722066726f6d20746865207a65726f20616460008201527f6472657373000000000000000000000000000000000000000000000000000000602082015250565b6000614e39602583613e21565b9150614e4482614ddd565b604082019050919050565b60006020820190508181036000830152614e6881614e2c565b9050919050565b7f45524332303a207472616e7366657220746f20746865207a65726f206164647260008201527f6573730000000000000000000000000000000000000000000000000000000000602082015250565b6000614ecb602383613e21565b9150614ed682614e6f565b604082019050919050565b60006020820190508181036000830152614efa81614ebe565b9050919050565b7f45524332303a207472616e7366657220616d6f756e742065786365656473206260008201527f616c616e63650000000000000000000000000000000000000000000000000000602082015250565b6000614f5d602683613e21565b9150614f6882614f01565b604082019050919050565b60006020820190508181036000830152614f8c81614f50565b9050919050565b7f45524332303a206275726e2066726f6d20746865207a65726f2061646472657360008201527f7300000000000000000000000000000000000000000000000000000000000000602082015250565b6000614fef602183613e21565b9150614ffa82614f93565b604082019050919050565b6000602082019050818103600083015261501e81614fe2565b9050919050565b7f45524332303a206275726e20616d6f756e7420657863656564732062616c616e60008201527f6365000000000000000000000000000000000000000000000000000000000000602082015250565b6000615081602283613e21565b915061508c82615025565b604082019050919050565b600060208201905081810360008301526150b081615074565b9050919050565b7f45524332303a206d696e7420746f20746865207a65726f206164647265737300600082015250565b60006150ed601f83613e21565b91506150f8826150b7565b602082019050919050565b6000602082019050818103600083015261511c816150e0565b9050919050565b60006040820190506151386000830185614116565b6151456020830184613d2c565b9392505050565b7f5265656e7472616e637947756172643a207265656e7472616e742063616c6c00600082015250565b6000615182601f83613e21565b915061518d8261514c565b602082019050919050565b600060208201905081810360008301526151b181615175565b9050919050565b60006060820190506151cd6000830186614116565b6151da6020830185614116565b6151e76040830184613d2c565b949350505050565b7f4e487b7100000000000000000000000000000000000000000000000000000000600052602160045260246000fd5b600081905092915050565b7f416363657373436f6e74726f6c3a206163636f756e7420000000000000000000600082015250565b600061525f60178361521e565b915061526a82615229565b601782019050919050565b600061528082613e16565b61528a818561521e565b935061529a818560208601613e32565b80840191505092915050565b7f206973206d697373696e6720726f6c6520000000000000000000000000000000600082015250565b60006152dc60118361521e565b91506152e7826152a6565b601182019050919050565b60006152fd82615252565b91506153098285615275565b9150615314826152cf565b91506153208284615275565b91508190509392505050565b600060a0820190506153416000830188614075565b61534e6020830187614075565b61535b6040830186614075565b6153686060830185613d2c565b6153756080830184614116565b9695505050505050565b60006040820190506153946000830185613d2c565b6153a16020830184613d2c565b9392505050565b6000815190506153b781614410565b92915050565b6000602082840312156153d3576153d2613d56565b5b60006153e1848285016153a8565b91505092915050565b7f5361666545524332303a204552433230206f7065726174696f6e20646964206e60008201527f6f74207375636365656400000000000000000000000000000000000000000000602082015250565b6000615446602a83613e21565b9150615451826153ea565b604082019050919050565b6000602082019050818103600083015261547581615439565b9050919050565b60006080820190506154916000830187614075565b61549e60208301866140ec565b6154ab6040830185614075565b6154b86060830184614075565b95945050505050565b7f45434453413a20696e76616c6964207369676e61747572650000000000000000600082015250565b60006154f7601883613e21565b9150615502826154c1565b602082019050919050565b60006020820190508181036000830152615526816154ea565b9050919050565b7f45434453413a20696e76616c6964207369676e6174757265206c656e67746800600082015250565b6000615563601f83613e21565b915061556e8261552d565b602082019050919050565b6000602082019050818103600083015261559281615556565b9050919050565b7f45434453413a20696e76616c6964207369676e6174757265202773272076616c60008201527f7565000000000000000000000000000000000000000000000000000000000000602082015250565b60006155f5602283613e21565b915061560082615599565b604082019050919050565b60006020820190508181036000830152615624816155e8565b9050919050565b7f4d6174683a206d756c446976206f766572666c6f770000000000000000000000600082015250565b6000615661601583613e21565b915061566c8261562b565b602082019050919050565b6000602082019050818103600083015261569081615654565b9050919050565b7f4e487b7100000000000000000000000000000000000000000000000000000000600052603260045260246000fd5b60006156d182613d22565b9150600082036156e4576156e361458c565b5b600182039050919050565b7f537472696e67733a20686578206c656e67746820696e73756666696369656e74600082015250565b6000615725602083613e21565b9150615730826156ef565b602082019050919050565b6000602082019050818103600083015261575481615718565b9050919050565b7f416464726573733a20696e73756666696369656e742062616c616e636520666f60008201527f722063616c6c0000000000000000000000000000000000000000000000000000602082015250565b60006157b7602683613e21565b91506157c28261575b565b604082019050919050565b600060208201905081810360008301526157e6816157aa565b9050919050565b600081519050919050565b600081905092915050565b600061580e826157ed565b61581881856157f8565b9350615828818560208601613e32565b80840191505092915050565b60006158408284615803565b915081905092915050565b7f416464726573733a2063616c6c20746f206e6f6e2d636f6e7472616374000000600082015250565b6000615881601d83613e21565b915061588c8261584b565b602082019050919050565b600060208201905081810360008301526158b081615874565b905091905056fea2646970667358221220cc6415a86b9d3a0573eccb7d67b7dce7c570a9fba5090db68542ffa4e35d134764736f6c63430008130033","linkReferences":{}},"methodIdentifiers":{"DEFAULT_ADMIN_ROLE()":"a217fddf","DOMAIN_SEPARATOR()":"3644e515","acceptAdmin()":"0e18b681","addToBlacklist(address,bool)":"f298f42c","allowance(address,address)":"dd62ed3e","approve(address,uint256)":"095ea7b3","asset()":"38d52e0f","balanceOf(address)":"70a08231","convertToAssets(uint256)":"07a2d13a","convertToShares(uint256)":"c6e6f592","decimals()":"313ce567","decreaseAllowance(address,uint256)":"a457c2d7","deposit(uint256,address)":"6e553f65","eip712Domain()":"84b0196e","getRoleAdmin(bytes32)":"248a9ca3","getUnvestedAmount()":"e7c2a608","grantRole(bytes32,address)":"2f2ff15d","hasRole(bytes32,address)":"91d14854","increaseAllowance(address,uint256)":"39509351","lastDistributionTimestamp()":"20950933","maxDeposit(address)":"402d267d","maxMint(address)":"c63d75b6","maxRedeem(address)":"d905777e","maxWithdraw(address)":"ce96cb77","mint(uint256,address)":"94bf804d","name()":"06fdde03","nonces(address)":"7ecebe00","owner()":"8da5cb5b","permit(address,address,uint256,uint256,uint8,bytes32,bytes32)":"d505accf","previewDeposit(uint256)":"ef8b30f7","previewMint(uint256)":"b3d7f6b9","previewRedeem(uint256)":"4cdad506","previewWithdraw(uint256)":"0a28a477","redeem(uint256,address,address)":"ba087652","redistributeLockedAmount(address,address)":"a0776b82","removeFromBlacklist(address,bool)":"c336a084","renounceRole(bytes32,address)":"36568abe","rescueTokens(address,uint256,address)":"b37fd190","revokeRole(bytes32,address)":"d547741f","supportsInterface(bytes4)":"01ffc9a7","symbol()":"95d89b41","totalAssets()":"01e1d114","totalSupply()":"18160ddd","transfer(address,uint256)":"a9059cbb","transferAdmin(address)":"75829def","transferFrom(address,address,uint256)":"23b872dd","transferInRewards(uint256)":"c80ef110","vestingAmount()":"00728f76","withdraw(uint256,address,address)":"b460af94"},"id":61}