{"abi":[{"type":"constructor","inputs":[{"name":"_registry","type":"address","internalType":"address"},{"name":"_implementation","type":"address","internalType":"address"},{"name":"_cortexNFT","type":"address","internalType":"address"},{"name":"_targetChainId","type":"uint256","internalType":"uint256"}],"stateMutability":"nonpayable"},{"type":"function","name":"cortexNFT","inputs":[],"outputs":[{"name":"","type":"address","internalType":"address"}],"stateMutability":"view"},{"type":"function","name":"defaultImplementation","inputs":[],"outputs":[{"name":"","type":"address","internalType":"address"}],"stateMutability":"view"},{"type":"function","name":"deploySponsoredTbaBatch","inputs":[{"name":"erc4337Implementation","type":"address","internalType":"address"},{"name":"startTokenId","type":"uint256","internalType":"uint256"},{"name":"amount","type":"uint256","internalType":"uint256"},{"name":"salt","type":"bytes32","internalType":"bytes32"}],"outputs":[],"stateMutability":"nonpayable"},{"type":"function","name":"deployTbaBatch","inputs":[{"name":"startTokenId","type":"uint256","internalType":"uint256"},{"name":"amount","type":"uint256","internalType":"uint256"},{"name":"salt","type":"bytes32","internalType":"bytes32"}],"outputs":[],"stateMutability":"nonpayable"},{"type":"function","name":"paymaster","inputs":[],"outputs":[{"name":"","type":"address","internalType":"address"}],"stateMutability":"view"},{"type":"function","name":"predictTba","inputs":[{"name":"tokenId","type":"uint256","internalType":"uint256"},{"name":"salt","type":"bytes32","internalType":"bytes32"}],"outputs":[{"name":"","type":"address","internalType":"address"}],"stateMutability":"view"},{"type":"function","name":"registry","inputs":[],"outputs":[{"name":"","type":"address","internalType":"contract IERC6551Registry"}],"stateMutability":"view"},{"type":"function","name":"setPaymaster","inputs":[{"name":"_paymaster","type":"address","internalType":"address"}],"outputs":[],"stateMutability":"nonpayable"},{"type":"function","name":"targetChainId","inputs":[],"outputs":[{"name":"","type":"uint256","internalType":"uint256"}],"stateMutability":"view"}],"bytecode":{"object":"0x610100604052348015610010575f5ffd5b50604051610d1d380380610d1d83398181016040528101906100329190610170565b8373ffffffffffffffffffffffffffffffffffffffff1660808173ffffffffffffffffffffffffffffffffffffffff16815250508273ffffffffffffffffffffffffffffffffffffffff1660a08173ffffffffffffffffffffffffffffffffffffffff16815250508173ffffffffffffffffffffffffffffffffffffffff1660c08173ffffffffffffffffffffffffffffffffffffffff16815250508060e08181525050505050506101d4565b5f5ffd5b5f73ffffffffffffffffffffffffffffffffffffffff82169050919050565b5f61010c826100e3565b9050919050565b61011c81610102565b8114610126575f5ffd5b50565b5f8151905061013781610113565b92915050565b5f819050919050565b61014f8161013d565b8114610159575f5ffd5b50565b5f8151905061016a81610146565b92915050565b5f5f5f5f60808587031215610188576101876100df565b5b5f61019587828801610129565b94505060206101a687828801610129565b93505060406101b787828801610129565b92505060606101c88782880161015c565b91505092959194509250565b60805160a05160c05160e051610ac96102545f395f81816101b1015281816102ca0152818161046501526105cf01525f818161023b015281816102eb0152818161048601526105f001525f81816102a80152818161054c01526105ad01525f818161026c015281816104270152818161052801526105710152610ac95ff3fe608060405234801561000f575f5ffd5b5060043610610091575f3560e01c806341a3a2fa1161006457806341a3a2fa1461010b57806360433037146101275780637b10399914610143578063b39c459314610161578063feb0bb5d1461017f57610091565b8063146ffb261461009557806316e4cbf9146100b35780632a97fa77146100d15780632c53e5e5146100ed575b5f5ffd5b61009d6101af565b6040516100aa919061068f565b60405180910390f35b6100bb6101d3565b6040516100c891906106e7565b60405180910390f35b6100eb60048036038101906100e6919061072e565b6101f7565b005b6100f5610239565b60405161010291906106e7565b60405180910390f35b610125600480360381019061012091906107b6565b61025d565b005b610141600480360381019061013c9190610806565b61038a565b005b61014b610526565b60405161015891906108c5565b60405180910390f35b61016961054a565b60405161017691906106e7565b60405180910390f35b610199600480360381019061019491906108de565b61056e565b6040516101a691906106e7565b60405180910390f35b7f000000000000000000000000000000000000000000000000000000000000000081565b5f5f9054906101000a900473ffffffffffffffffffffffffffffffffffffffff1681565b805f5f6101000a81548173ffffffffffffffffffffffffffffffffffffffff021916908373ffffffffffffffffffffffffffffffffffffffff16021790555050565b7f000000000000000000000000000000000000000000000000000000000000000081565b5f5f90505b82811015610384577f000000000000000000000000000000000000000000000000000000000000000073ffffffffffffffffffffffffffffffffffffffff16638a54c52f7f0000000000000000000000000000000000000000000000000000000000000000847f00000000000000000000000000000000000000000000000000000000000000007f0000000000000000000000000000000000000000000000000000000000000000868a6103169190610949565b6040518663ffffffff1660e01b815260040161033695949392919061098b565b6020604051808303815f875af1158015610352573d5f5f3e3d5ffd5b505050506040513d601f19601f8201168201806040525081019061037691906109f0565b508080600101915050610262565b50505050565b5f73ffffffffffffffffffffffffffffffffffffffff165f5f9054906101000a900473ffffffffffffffffffffffffffffffffffffffff1673ffffffffffffffffffffffffffffffffffffffff1603610418576040517f08c379a000000000000000000000000000000000000000000000000000000000815260040161040f90610a75565b60405180910390fd5b5f5f90505b8281101561051f577f000000000000000000000000000000000000000000000000000000000000000073ffffffffffffffffffffffffffffffffffffffff16638a54c52f86847f00000000000000000000000000000000000000000000000000000000000000007f0000000000000000000000000000000000000000000000000000000000000000868a6104b19190610949565b6040518663ffffffff1660e01b81526004016104d195949392919061098b565b6020604051808303815f875af11580156104ed573d5f5f3e3d5ffd5b505050506040513d601f19601f8201168201806040525081019061051191906109f0565b50808060010191505061041d565b5050505050565b7f000000000000000000000000000000000000000000000000000000000000000081565b7f000000000000000000000000000000000000000000000000000000000000000081565b5f7f000000000000000000000000000000000000000000000000000000000000000073ffffffffffffffffffffffffffffffffffffffff1663246a00217f0000000000000000000000000000000000000000000000000000000000000000847f00000000000000000000000000000000000000000000000000000000000000007f0000000000000000000000000000000000000000000000000000000000000000886040518663ffffffff1660e01b815260040161063095949392919061098b565b602060405180830381865afa15801561064b573d5f5f3e3d5ffd5b505050506040513d601f19601f8201168201806040525081019061066f91906109f0565b905092915050565b5f819050919050565b61068981610677565b82525050565b5f6020820190506106a25f830184610680565b92915050565b5f73ffffffffffffffffffffffffffffffffffffffff82169050919050565b5f6106d1826106a8565b9050919050565b6106e1816106c7565b82525050565b5f6020820190506106fa5f8301846106d8565b92915050565b5f5ffd5b61070d816106c7565b8114610717575f5ffd5b50565b5f8135905061072881610704565b92915050565b5f6020828403121561074357610742610700565b5b5f6107508482850161071a565b91505092915050565b61076281610677565b811461076c575f5ffd5b50565b5f8135905061077d81610759565b92915050565b5f819050919050565b61079581610783565b811461079f575f5ffd5b50565b5f813590506107b08161078c565b92915050565b5f5f5f606084860312156107cd576107cc610700565b5b5f6107da8682870161076f565b93505060206107eb8682870161076f565b92505060406107fc868287016107a2565b9150509250925092565b5f5f5f5f6080858703121561081e5761081d610700565b5b5f61082b8782880161071a565b945050602061083c8782880161076f565b935050604061084d8782880161076f565b925050606061085e878288016107a2565b91505092959194509250565b5f819050919050565b5f61088d610888610883846106a8565b61086a565b6106a8565b9050919050565b5f61089e82610873565b9050919050565b5f6108af82610894565b9050919050565b6108bf816108a5565b82525050565b5f6020820190506108d85f8301846108b6565b92915050565b5f5f604083850312156108f4576108f3610700565b5b5f6109018582860161076f565b9250506020610912858286016107a2565b9150509250929050565b7f4e487b71000000000000000000000000000000000000000000000000000000005f52601160045260245ffd5b5f61095382610677565b915061095e83610677565b92508282019050808211156109765761097561091c565b5b92915050565b61098581610783565b82525050565b5f60a08201905061099e5f8301886106d8565b6109ab602083018761097c565b6109b86040830186610680565b6109c560608301856106d8565b6109d26080830184610680565b9695505050505050565b5f815190506109ea81610704565b92915050565b5f60208284031215610a0557610a04610700565b5b5f610a12848285016109dc565b91505092915050565b5f82825260208201905092915050565b7f434f525445583a205061796d6173746572206e6f7420636f6e666967757265645f82015250565b5f610a5f602083610a1b565b9150610a6a82610a2b565b602082019050919050565b5f6020820190508181035f830152610a8c81610a53565b905091905056fea26469706673582212203dafab30cdcd4c53fb492bd414937622c3900d8aad9cf33dd1aa726045a1f30464736f6c63430008210033","linkReferences":{}},"methodIdentifiers":{"cortexNFT()":"2c53e5e5","defaultImplementation()":"b39c4593","deploySponsoredTbaBatch(address,uint256,uint256,bytes32)":"60433037","deployTbaBatch(uint256,uint256,bytes32)":"41a3a2fa","paymaster()":"16e4cbf9","predictTba(uint256,bytes32)":"feb0bb5d","registry()":"7b103999","setPaymaster(address)":"2a97fa77","targetChainId()":"146ffb26"},"id":0}