{"abi":[{"type":"constructor","inputs":[{"name":"_asset","type":"address","internalType":"contract IERC20"},{"name":"initialRewarder","type":"address","internalType":"address"},{"name":"owner","type":"address","internalType":"address"}],"stateMutability":"nonpayable"},{"type":"function","name":"DEFAULT_ADMIN_ROLE","inputs":[],"outputs":[{"name":"","type":"bytes32","internalType":"bytes32"}],"stateMutability":"view"},{"type":"function","name":"DOMAIN_SEPARATOR","inputs":[],"outputs":[{"name":"","type":"bytes32","internalType":"bytes32"}],"stateMutability":"view"},{"type":"function","name":"MAX_COOLDOWN_DURATION","inputs":[],"outputs":[{"name":"","type":"uint24","internalType":"uint24"}],"stateMutability":"view"},{"type":"function","name":"acceptAdmin","inputs":[],"outputs":[],"stateMutability":"nonpayable"},{"type":"function","name":"addToBlacklist","inputs":[{"name":"target","type":"address","internalType":"address"},{"name":"isFullBlacklisting","type":"bool","internalType":"bool"}],"outputs":[],"stateMutability":"nonpayable"},{"type":"function","name":"allowance","inputs":[{"name":"owner","type":"address","internalType":"address"},{"name":"spender","type":"address","internalType":"address"}],"outputs":[{"name":"","type":"uint256","internalType":"uint256"}],"stateMutability":"view"},{"type":"function","name":"approve","inputs":[{"name":"spender","type":"address","internalType":"address"},{"name":"amount","type":"uint256","internalType":"uint256"}],"outputs":[{"name":"","type":"bool","internalType":"bool"}],"stateMutability":"nonpayable"},{"type":"function","name":"asset","inputs":[],"outputs":[{"name":"","type":"address","internalType":"address"}],"stateMutability":"view"},{"type":"function","name":"balanceOf","inputs":[{"name":"account","type":"address","internalType":"address"}],"outputs":[{"name":"","type":"uint256","internalType":"uint256"}],"stateMutability":"view"},{"type":"function","name":"convertToAssets","inputs":[{"name":"shares","type":"uint256","internalType":"uint256"}],"outputs":[{"name":"","type":"uint256","internalType":"uint256"}],"stateMutability":"view"},{"type":"function","name":"convertToShares","inputs":[{"name":"assets","type":"uint256","internalType":"uint256"}],"outputs":[{"name":"","type":"uint256","internalType":"uint256"}],"stateMutability":"view"},{"type":"function","name":"cooldownAssets","inputs":[{"name":"assets","type":"uint256","internalType":"uint256"},{"name":"owner","type":"address","internalType":"address"}],"outputs":[{"name":"","type":"uint256","internalType":"uint256"}],"stateMutability":"nonpayable"},{"type":"function","name":"cooldownDuration","inputs":[],"outputs":[{"name":"","type":"uint24","internalType":"uint24"}],"stateMutability":"view"},{"type":"function","name":"cooldownShares","inputs":[{"name":"shares","type":"uint256","internalType":"uint256"},{"name":"owner","type":"address","internalType":"address"}],"outputs":[{"name":"","type":"uint256","internalType":"uint256"}],"stateMutability":"nonpayable"},{"type":"function","name":"cooldowns","inputs":[{"name":"","type":"address","internalType":"address"}],"outputs":[{"name":"cooldownEnd","type":"uint104","internalType":"uint104"},{"name":"underlyingAmount","type":"uint256","internalType":"uint256"}],"stateMutability":"view"},{"type":"function","name":"decimals","inputs":[],"outputs":[{"name":"","type":"uint8","internalType":"uint8"}],"stateMutability":"pure"},{"type":"function","name":"decreaseAllowance","inputs":[{"name":"spender","type":"address","internalType":"address"},{"name":"subtractedValue","type":"uint256","internalType":"uint256"}],"outputs":[{"name":"","type":"bool","internalType":"bool"}],"stateMutability":"nonpayable"},{"type":"function","name":"deposit","inputs":[{"name":"assets","type":"uint256","internalType":"uint256"},{"name":"receiver","type":"address","internalType":"address"}],"outputs":[{"name":"","type":"uint256","internalType":"uint256"}],"stateMutability":"nonpayable"},{"type":"function","name":"eip712Domain","inputs":[],"outputs":[{"name":"fields","type":"bytes1","internalType":"bytes1"},{"name":"name","type":"string","internalType":"string"},{"name":"version","type":"string","internalType":"string"},{"name":"chainId","type":"uint256","internalType":"uint256"},{"name":"verifyingContract","type":"address","internalType":"address"},{"name":"salt","type":"bytes32","internalType":"bytes32"},{"name":"extensions","type":"uint256[]","internalType":"uint256[]"}],"stateMutability":"view"},{"type":"function","name":"getRoleAdmin","inputs":[{"name":"role","type":"bytes32","internalType":"bytes32"}],"outputs":[{"name":"","type":"bytes32","internalType":"bytes32"}],"stateMutability":"view"},{"type":"function","name":"getUnvestedAmount","inputs":[],"outputs":[{"name":"","type":"uint256","internalType":"uint256"}],"stateMutability":"view"},{"type":"function","name":"grantRole","inputs":[{"name":"role","type":"bytes32","internalType":"bytes32"},{"name":"account","type":"address","internalType":"address"}],"outputs":[],"stateMutability":"nonpayable"},{"type":"function","name":"hasRole","inputs":[{"name":"role","type":"bytes32","internalType":"bytes32"},{"name":"account","type":"address","internalType":"address"}],"outputs":[{"name":"","type":"bool","internalType":"bool"}],"stateMutability":"view"},{"type":"function","name":"increaseAllowance","inputs":[{"name":"spender","type":"address","internalType":"address"},{"name":"addedValue","type":"uint256","internalType":"uint256"}],"outputs":[{"name":"","type":"bool","internalType":"bool"}],"stateMutability":"nonpayable"},{"type":"function","name":"lastDistributionTimestamp","inputs":[],"outputs":[{"name":"","type":"uint256","internalType":"uint256"}],"stateMutability":"view"},{"type":"function","name":"maxDeposit","inputs":[{"name":"","type":"address","internalType":"address"}],"outputs":[{"name":"","type":"uint256","internalType":"uint256"}],"stateMutability":"view"},{"type":"function","name":"maxMint","inputs":[{"name":"","type":"address","internalType":"address"}],"outputs":[{"name":"","type":"uint256","internalType":"uint256"}],"stateMutability":"view"},{"type":"function","name":"maxRedeem","inputs":[{"name":"owner","type":"address","internalType":"address"}],"outputs":[{"name":"","type":"uint256","internalType":"uint256"}],"stateMutability":"view"},{"type":"function","name":"maxWithdraw","inputs":[{"name":"owner","type":"address","internalType":"address"}],"outputs":[{"name":"","type":"uint256","internalType":"uint256"}],"stateMutability":"view"},{"type":"function","name":"mint","inputs":[{"name":"shares","type":"uint256","internalType":"uint256"},{"name":"receiver","type":"address","internalType":"address"}],"outputs":[{"name":"","type":"uint256","internalType":"uint256"}],"stateMutability":"nonpayable"},{"type":"function","name":"name","inputs":[],"outputs":[{"name":"","type":"string","internalType":"string"}],"stateMutability":"view"},{"type":"function","name":"nonces","inputs":[{"name":"owner","type":"address","internalType":"address"}],"outputs":[{"name":"","type":"uint256","internalType":"uint256"}],"stateMutability":"view"},{"type":"function","name":"owner","inputs":[],"outputs":[{"name":"","type":"address","internalType":"address"}],"stateMutability":"view"},{"type":"function","name":"permit","inputs":[{"name":"owner","type":"address","internalType":"address"},{"name":"spender","type":"address","internalType":"address"},{"name":"value","type":"uint256","internalType":"uint256"},{"name":"deadline","type":"uint256","internalType":"uint256"},{"name":"v","type":"uint8","internalType":"uint8"},{"name":"r","type":"bytes32","internalType":"bytes32"},{"name":"s","type":"bytes32","internalType":"bytes32"}],"outputs":[],"stateMutability":"nonpayable"},{"type":"function","name":"previewDeposit","inputs":[{"name":"assets","type":"uint256","internalType":"uint256"}],"outputs":[{"name":"","type":"uint256","internalType":"uint256"}],"stateMutability":"view"},{"type":"function","name":"previewMint","inputs":[{"name":"shares","type":"uint256","internalType":"uint256"}],"outputs":[{"name":"","type":"uint256","internalType":"uint256"}],"stateMutability":"view"},{"type":"function","name":"previewRedeem","inputs":[{"name":"shares","type":"uint256","internalType":"uint256"}],"outputs":[{"name":"","type":"uint256","internalType":"uint256"}],"stateMutability":"view"},{"type":"function","name":"previewWithdraw","inputs":[{"name":"assets","type":"uint256","internalType":"uint256"}],"outputs":[{"name":"","type":"uint256","internalType":"uint256"}],"stateMutability":"view"},{"type":"function","name":"redeem","inputs":[{"name":"shares","type":"uint256","internalType":"uint256"},{"name":"receiver","type":"address","internalType":"address"},{"name":"owner","type":"address","internalType":"address"}],"outputs":[{"name":"","type":"uint256","internalType":"uint256"}],"stateMutability":"nonpayable"},{"type":"function","name":"redistributeLockedAmount","inputs":[{"name":"from","type":"address","internalType":"address"},{"name":"to","type":"address","internalType":"address"}],"outputs":[],"stateMutability":"nonpayable"},{"type":"function","name":"removeFromBlacklist","inputs":[{"name":"target","type":"address","internalType":"address"},{"name":"isFullBlacklisting","type":"bool","internalType":"bool"}],"outputs":[],"stateMutability":"nonpayable"},{"type":"function","name":"renounceRole","inputs":[{"name":"","type":"bytes32","internalType":"bytes32"},{"name":"","type":"address","internalType":"address"}],"outputs":[],"stateMutability":"nonpayable"},{"type":"function","name":"rescueTokens","inputs":[{"name":"token","type":"address","internalType":"address"},{"name":"amount","type":"uint256","internalType":"uint256"},{"name":"to","type":"address","internalType":"address"}],"outputs":[],"stateMutability":"nonpayable"},{"type":"function","name":"revokeRole","inputs":[{"name":"role","type":"bytes32","internalType":"bytes32"},{"name":"account","type":"address","internalType":"address"}],"outputs":[],"stateMutability":"nonpayable"},{"type":"function","name":"setCooldownDuration","inputs":[{"name":"duration","type":"uint24","internalType":"uint24"}],"outputs":[],"stateMutability":"nonpayable"},{"type":"function","name":"silo","inputs":[],"outputs":[{"name":"","type":"address","internalType":"contract USDeSilo"}],"stateMutability":"view"},{"type":"function","name":"supportsInterface","inputs":[{"name":"interfaceId","type":"bytes4","internalType":"bytes4"}],"outputs":[{"name":"","type":"bool","internalType":"bool"}],"stateMutability":"view"},{"type":"function","name":"symbol","inputs":[],"outputs":[{"name":"","type":"string","internalType":"string"}],"stateMutability":"view"},{"type":"function","name":"totalAssets","inputs":[],"outputs":[{"name":"","type":"uint256","internalType":"uint256"}],"stateMutability":"view"},{"type":"function","name":"totalSupply","inputs":[],"outputs":[{"name":"","type":"uint256","internalType":"uint256"}],"stateMutability":"view"},{"type":"function","name":"transfer","inputs":[{"name":"to","type":"address","internalType":"address"},{"name":"amount","type":"uint256","internalType":"uint256"}],"outputs":[{"name":"","type":"bool","internalType":"bool"}],"stateMutability":"nonpayable"},{"type":"function","name":"transferAdmin","inputs":[{"name":"newAdmin","type":"address","internalType":"address"}],"outputs":[],"stateMutability":"nonpayable"},{"type":"function","name":"transferFrom","inputs":[{"name":"from","type":"address","internalType":"address"},{"name":"to","type":"address","internalType":"address"},{"name":"amount","type":"uint256","internalType":"uint256"}],"outputs":[{"name":"","type":"bool","internalType":"bool"}],"stateMutability":"nonpayable"},{"type":"function","name":"transferInRewards","inputs":[{"name":"amount","type":"uint256","internalType":"uint256"}],"outputs":[],"stateMutability":"nonpayable"},{"type":"function","name":"unstake","inputs":[{"name":"receiver","type":"address","internalType":"address"}],"outputs":[],"stateMutability":"nonpayable"},{"type":"function","name":"vestingAmount","inputs":[],"outputs":[{"name":"","type":"uint256","internalType":"uint256"}],"stateMutability":"view"},{"type":"function","name":"withdraw","inputs":[{"name":"assets","type":"uint256","internalType":"uint256"},{"name":"receiver","type":"address","internalType":"address"},{"name":"owner","type":"address","internalType":"address"}],"outputs":[{"name":"","type":"uint256","internalType":"uint256"}],"stateMutability":"nonpayable"},{"type":"event","name":"AdminTransferRequested","inputs":[{"name":"oldAdmin","type":"address","indexed":true,"internalType":"address"},{"name":"newAdmin","type":"address","indexed":true,"internalType":"address"}],"anonymous":false},{"type":"event","name":"AdminTransferred","inputs":[{"name":"oldAdmin","type":"address","indexed":true,"internalType":"address"},{"name":"newAdmin","type":"address","indexed":true,"internalType":"address"}],"anonymous":false},{"type":"event","name":"Approval","inputs":[{"name":"owner","type":"address","indexed":true,"internalType":"address"},{"name":"spender","type":"address","indexed":true,"internalType":"address"},{"name":"value","type":"uint256","indexed":false,"internalType":"uint256"}],"anonymous":false},{"type":"event","name":"CooldownDurationUpdated","inputs":[{"name":"previousDuration","type":"uint24","indexed":false,"internalType":"uint24"},{"name":"newDuration","type":"uint24","indexed":false,"internalType":"uint24"}],"anonymous":false},{"type":"event","name":"Deposit","inputs":[{"name":"sender","type":"address","indexed":true,"internalType":"address"},{"name":"owner","type":"address","indexed":true,"internalType":"address"},{"name":"assets","type":"uint256","indexed":false,"internalType":"uint256"},{"name":"shares","type":"uint256","indexed":false,"internalType":"uint256"}],"anonymous":false},{"type":"event","name":"EIP712DomainChanged","inputs":[],"anonymous":false},{"type":"event","name":"LockedAmountRedistributed","inputs":[{"name":"from","type":"address","indexed":true,"internalType":"address"},{"name":"to","type":"address","indexed":true,"internalType":"address"},{"name":"amount","type":"uint256","indexed":false,"internalType":"uint256"}],"anonymous":false},{"type":"event","name":"RewardsReceived","inputs":[{"name":"amount","type":"uint256","indexed":true,"internalType":"uint256"},{"name":"newVestingUSDeAmount","type":"uint256","indexed":false,"internalType":"uint256"}],"anonymous":false},{"type":"event","name":"RoleAdminChanged","inputs":[{"name":"role","type":"bytes32","indexed":true,"internalType":"bytes32"},{"name":"previousAdminRole","type":"bytes32","indexed":true,"internalType":"bytes32"},{"name":"newAdminRole","type":"bytes32","indexed":true,"internalType":"bytes32"}],"anonymous":false},{"type":"event","name":"RoleGranted","inputs":[{"name":"role","type":"bytes32","indexed":true,"internalType":"bytes32"},{"name":"account","type":"address","indexed":true,"internalType":"address"},{"name":"sender","type":"address","indexed":true,"internalType":"address"}],"anonymous":false},{"type":"event","name":"RoleRevoked","inputs":[{"name":"role","type":"bytes32","indexed":true,"internalType":"bytes32"},{"name":"account","type":"address","indexed":true,"internalType":"address"},{"name":"sender","type":"address","indexed":true,"internalType":"address"}],"anonymous":false},{"type":"event","name":"SiloUpdated","inputs":[{"name":"previousSilo","type":"address","indexed":false,"internalType":"address"},{"name":"newSilo","type":"address","indexed":false,"internalType":"address"}],"anonymous":false},{"type":"event","name":"Transfer","inputs":[{"name":"from","type":"address","indexed":true,"internalType":"address"},{"name":"to","type":"address","indexed":true,"internalType":"address"},{"name":"value","type":"uint256","indexed":false,"internalType":"uint256"}],"anonymous":false},{"type":"event","name":"Withdraw","inputs":[{"name":"sender","type":"address","indexed":true,"internalType":"address"},{"name":"receiver","type":"address","indexed":true,"internalType":"address"},{"name":"owner","type":"address","indexed":true,"internalType":"address"},{"name":"assets","type":"uint256","indexed":false,"internalType":"uint256"},{"name":"shares","type":"uint256","indexed":false,"internalType":"uint256"}],"anonymous":false},{"type":"error","name":"CantBlacklistOwner","inputs":[]},{"type":"error","name":"ExcessiveRedeemAmount","inputs":[]},{"type":"error","name":"ExcessiveWithdrawAmount","inputs":[]},{"type":"error","name":"InvalidAdminChange","inputs":[]},{"type":"error","name":"InvalidAmount","inputs":[]},{"type":"error","name":"InvalidCooldown","inputs":[]},{"type":"error","name":"InvalidShortString","inputs":[]},{"type":"error","name":"InvalidToken","inputs":[]},{"type":"error","name":"InvalidZeroAddress","inputs":[]},{"type":"error","name":"MinSharesViolation","inputs":[]},{"type":"error","name":"NotPendingAdmin","inputs":[]},{"type":"error","name":"OperationNotAllowed","inputs":[]},{"type":"error","name":"SlippageExceeded","inputs":[]},{"type":"error","name":"StillVesting","inputs":[]},{"type":"error","name":"StringTooLong","inputs":[{"name":"str","type":"string","internalType":"string"}]}],"bytecode":{"object":"0x6101a06040526276a700601060146101000a81548162ffffff021916908362ffffff1602179055503480156200003457600080fd5b5060405162007ab638038062007ab683398181016040528101906200005a919062000b0d565b828282826040518060400160405280600681526020017f7374555344650000000000000000000000000000000000000000000000000000815250806040518060400160405280600181526020017f31000000000000000000000000000000000000000000000000000000000000008152506040518060400160405280600b81526020017f5374616b656420555344650000000000000000000000000000000000000000008152506040518060400160405280600681526020017f73745553446500000000000000000000000000000000000000000000000000008152506001600381905550816007908162000150919062000de3565b50806008908162000162919062000de3565b5050506200017b6009836200045a60201b90919060201c565b610120818152505062000199600a826200045a60201b90919060201c565b6101408181525050818051906020012060e08181525050808051906020012061010081815250504660a08181525050620001d8620004b260201b60201c565b608081815250503073ffffffffffffffffffffffffffffffffffffffff1660c08173ffffffffffffffffffffffffffffffffffffffff16815250505050506000806200022a836200050f60201b60201c565b91509150816200023c5760126200023e565b805b60ff166101808160ff16815250508273ffffffffffffffffffffffffffffffffffffffff166101608173ffffffffffffffffffffffffffffffffffffffff1681525050505050600073ffffffffffffffffffffffffffffffffffffffff168173ffffffffffffffffffffffffffffffffffffffff161480620002ec5750600073ffffffffffffffffffffffffffffffffffffffff168273ffffffffffffffffffffffffffffffffffffffff16145b80620003245750600073ffffffffffffffffffffffffffffffffffffffff168373ffffffffffffffffffffffffffffffffffffffff16145b156200035c576040517ff6b2911f00000000000000000000000000000000000000000000000000000000815260040160405180910390fd5b6200038e7fbeec13769b5f410b0584f69811bfd923818456d5edcf426b0e31cf90eed7a3f6836200064960201b60201c565b620003a36000801b826200064960201b60201c565b5050503083604051620003b69062000a50565b620003c392919062000edb565b604051809103906000f080158015620003e0573d6000803e3d6000fd5b50601060006101000a81548173ffffffffffffffffffffffffffffffffffffffff021916908373ffffffffffffffffffffffffffffffffffffffff160217905550601060149054906101000a900462ffffff16601060176101000a81548162ffffff021916908362ffffff160217905550505050620011a4565b6000602083511015620004805762000478836200078460201b60201c565b9050620004ac565b826200049283620007f160201b60201c565b6000019081620004a3919062000de3565b5060ff60001b90505b92915050565b60007f8b73c3c69bb8fe3d512ecc4cf759cc79239f7b179b0ffacaa9a75d522b39400f60e051610100514630604051602001620004f495949392919062000f34565b60405160208183030381529060405280519060200120905090565b6000806000808473ffffffffffffffffffffffffffffffffffffffff1663313ce56760e01b604051602401604051602081830303815290604052907bffffffffffffffffffffffffffffffffffffffffffffffffffffffff19166020820180517bffffffffffffffffffffffffffffffffffffffffffffffffffffffff8381831617835250505050604051620005a691906200100a565b600060405180830381855afa9150503d8060008114620005e3576040519150601f19603f3d011682016040523d82523d6000602084013e620005e8565b606091505b5091509150818015620005fd57506020815110155b156200063a576000818060200190518101906200061b919062001054565b905060ff8016811162000638576001819450945050505062000644565b505b6000809350935050505b915091565b6000801b82036200076e578073ffffffffffffffffffffffffffffffffffffffff16600160009054906101000a900473ffffffffffffffffffffffffffffffffffffffff1673ffffffffffffffffffffffffffffffffffffffff167ff8ccb027dfcd135e000e9d45e6cc2d662578a8825d4c45b5e32e0adf67e79ec660405160405180910390a3620007076000801b600160009054906101000a900473ffffffffffffffffffffffffffffffffffffffff16620007fb60201b60201c565b80600160006101000a81548173ffffffffffffffffffffffffffffffffffffffff021916908373ffffffffffffffffffffffffffffffffffffffff160217905550600260006101000a81549073ffffffffffffffffffffffffffffffffffffffff02191690555b620007808282620008ed60201b60201c565b5050565b600080829050601f81511115620007d457826040517f305a27a9000000000000000000000000000000000000000000000000000000008152600401620007cb9190620010e9565b60405180910390fd5b805181620007e29062001134565b60001c1760001b915050919050565b6000819050919050565b6200080d8282620009de60201b60201c565b15620008e957600080600084815260200190815260200160002060000160008373ffffffffffffffffffffffffffffffffffffffff1673ffffffffffffffffffffffffffffffffffffffff16815260200190815260200160002060006101000a81548160ff0219169083151502179055506200088e62000a4860201b60201c565b73ffffffffffffffffffffffffffffffffffffffff168173ffffffffffffffffffffffffffffffffffffffff16837ff6391f5c32d9c69d2a47ea670b442974b53935d1edc7fd64eb21e047a839171b60405160405180910390a45b5050565b620008ff8282620009de60201b60201c565b620009da57600160008084815260200190815260200160002060000160008373ffffffffffffffffffffffffffffffffffffffff1673ffffffffffffffffffffffffffffffffffffffff16815260200190815260200160002060006101000a81548160ff0219169083151502179055506200097f62000a4860201b60201c565b73ffffffffffffffffffffffffffffffffffffffff168173ffffffffffffffffffffffffffffffffffffffff16837f2f8788117e7eff1d82e926ec794901d17c78024a50270940304540a733656f0d60405160405180910390a45b5050565b600080600084815260200190815260200160002060000160008373ffffffffffffffffffffffffffffffffffffffff1673ffffffffffffffffffffffffffffffffffffffff16815260200190815260200160002060009054906101000a900460ff16905092915050565b600033905090565b610496806200762083390190565b600080fd5b600073ffffffffffffffffffffffffffffffffffffffff82169050919050565b600062000a908262000a63565b9050919050565b600062000aa48262000a83565b9050919050565b62000ab68162000a97565b811462000ac257600080fd5b50565b60008151905062000ad68162000aab565b92915050565b62000ae78162000a83565b811462000af357600080fd5b50565b60008151905062000b078162000adc565b92915050565b60008060006060848603121562000b295762000b2862000a5e565b5b600062000b398682870162000ac5565b935050602062000b4c8682870162000af6565b925050604062000b5f8682870162000af6565b9150509250925092565b600081519050919050565b7f4e487b7100000000000000000000000000000000000000000000000000000000600052604160045260246000fd5b7f4e487b7100000000000000000000000000000000000000000000000000000000600052602260045260246000fd5b6000600282049050600182168062000beb57607f821691505b60208210810362000c015762000c0062000ba3565b5b50919050565b60008190508160005260206000209050919050565b60006020601f8301049050919050565b600082821b905092915050565b60006008830262000c6b7fffffffffffffffffffffffffffffffffffffffffffffffffffffffffffffffff8262000c2c565b62000c77868362000c2c565b95508019841693508086168417925050509392505050565b6000819050919050565b6000819050919050565b600062000cc462000cbe62000cb88462000c8f565b62000c99565b62000c8f565b9050919050565b6000819050919050565b62000ce08362000ca3565b62000cf862000cef8262000ccb565b84845462000c39565b825550505050565b600090565b62000d0f62000d00565b62000d1c81848462000cd5565b505050565b5b8181101562000d445762000d3860008262000d05565b60018101905062000d22565b5050565b601f82111562000d935762000d5d8162000c07565b62000d688462000c1c565b8101602085101562000d78578190505b62000d9062000d878562000c1c565b83018262000d21565b50505b505050565b600082821c905092915050565b600062000db86000198460080262000d98565b1980831691505092915050565b600062000dd3838362000da5565b9150826002028217905092915050565b62000dee8262000b69565b67ffffffffffffffff81111562000e0a5762000e0962000b74565b5b62000e16825462000bd2565b62000e2382828562000d48565b600060209050601f83116001811462000e5b576000841562000e46578287015190505b62000e52858262000dc5565b86555062000ec2565b601f19841662000e6b8662000c07565b60005b8281101562000e955784890151825560018201915060208501945060208101905062000e6e565b8683101562000eb5578489015162000eb1601f89168262000da5565b8355505b6001600288020188555050505b505050505050565b62000ed58162000a83565b82525050565b600060408201905062000ef2600083018562000eca565b62000f01602083018462000eca565b9392505050565b6000819050919050565b62000f1d8162000f08565b82525050565b62000f2e8162000c8f565b82525050565b600060a08201905062000f4b600083018862000f12565b62000f5a602083018762000f12565b62000f69604083018662000f12565b62000f78606083018562000f23565b62000f87608083018462000eca565b9695505050505050565b600081519050919050565b600081905092915050565b60005b8381101562000fc757808201518184015260208101905062000faa565b60008484015250505050565b600062000fe08262000f91565b62000fec818562000f9c565b935062000ffe81856020860162000fa7565b80840191505092915050565b600062001018828462000fd3565b915081905092915050565b6200102e8162000c8f565b81146200103a57600080fd5b50565b6000815190506200104e8162001023565b92915050565b6000602082840312156200106d576200106c62000a5e565b5b60006200107d848285016200103d565b91505092915050565b600082825260208201905092915050565b6000601f19601f8301169050919050565b6000620010b58262000b69565b620010c1818562001086565b9350620010d381856020860162000fa7565b620010de8162001097565b840191505092915050565b60006020820190508181036000830152620011058184620010a8565b905092915050565b6000819050602082019050919050565b60006200112b825162000f08565b80915050919050565b6000620011418262000f91565b826200114d846200110d565b90506200115a816200111d565b925060208210156200119d57620011987fffffffffffffffffffffffffffffffffffffffffffffffffffffffffffffffff8360200360080262000c2c565b831692505b5050919050565b60805160a05160c05160e051610100516101205161014051610160516101805161640062001220600039600050506000818161100201528181613b080152613cc501526000611325015260006112f101526000613ab301526000613a9201526000612ca901526000612cff01526000612d2801526164006000f3fe608060405234801561001057600080fd5b50600436106103825760003560e01c80638da5cb5b116101de578063c63d75b61161010f578063d547741f116100ad578063eb3beb291161007c578063eb3beb2914610b82578063ef8b30f714610ba0578063f2888dbb14610bd0578063f298f42c14610bec57610382565b8063d547741f14610ae8578063d905777e14610b04578063dd62ed3e14610b34578063e7c2a60814610b6457610382565b8063ce23eb3c116100e9578063ce23eb3c14610a50578063ce96cb7714610a6c578063d505accf14610a9c578063d50655b014610ab857610382565b8063c63d75b6146109d4578063c6e6f59214610a04578063c80ef11014610a3457610382565b8063a457c2d71161017c578063b3d7f6b911610156578063b3d7f6b914610928578063b460af9414610958578063ba08765214610988578063c336a084146109b857610382565b8063a457c2d7146108ac578063a9059cbb146108dc578063b37fd1901461090c57610382565b806395d89b41116101b857806395d89b4114610824578063a0776b8214610842578063a217fddf1461085e578063a2af49001461087c57610382565b80638da5cb5b146107a657806391d14854146107c457806394bf804d146107f457610382565b80632f2ff15d116102b8578063402d267d1161025657806370a082311161023057806370a082311461070657806375829def146107365780637ecebe001461075257806384b0196e1461078257610382565b8063402d267d146106765780634cdad506146106a65780636e553f65146106d657610382565b80633644e515116102925780633644e515146105ee57806336568abe1461060c57806338d52e0f14610628578063395093511461064657610382565b80632f2ff15d14610596578063313ce567146105b257806335269315146105d057610382565b80630a28a477116103255780631e9049cf116102ff5780631e9049cf146104fa578063209509331461051857806323b872dd14610536578063248a9ca31461056657610382565b80630a28a477146104a25780630e18b681146104d257806318160ddd146104dc57610382565b806301ffc9a71161036157806301ffc9a7146103f457806306fdde031461042457806307a2d13a14610442578063095ea7b31461047257610382565b8062728f761461038757806301320fe2146103a557806301e1d114146103d6575b600080fd5b61038f610c08565b60405161039c9190614687565b60405180910390f35b6103bf60048036038101906103ba9190614705565b610c0e565b6040516103cd92919061475a565b60405180910390f35b6103de610c4b565b6040516103eb9190614687565b60405180910390f35b61040e600480360381019061040991906147db565b610ce5565b60405161041b9190614823565b60405180910390f35b61042c610d5f565b60405161043991906148ce565b60405180910390f35b61045c6004803603810190610457919061491c565b610df1565b6040516104699190614687565b60405180910390f35b61048c60048036038101906104879190614949565b610e05565b6040516104999190614823565b60405180910390f35b6104bc60048036038101906104b7919061491c565b610e28565b6040516104c99190614687565b60405180910390f35b6104da610e3c565b005b6104e4610ed2565b6040516104f19190614687565b60405180910390f35b610502610edc565b60405161050f91906149a7565b60405180910390f35b610520610ef1565b60405161052d9190614687565b60405180910390f35b610550600480360381019061054b91906149c2565b610ef7565b60405161055d9190614823565b60405180910390f35b610580600480360381019061057b9190614a4b565b610f26565b60405161058d9190614a87565b60405180910390f35b6105b060048036038101906105ab9190614aa2565b610f45565b005b6105ba610f9f565b6040516105c79190614afe565b60405180910390f35b6105d8610fa8565b6040516105e591906149a7565b60405180910390f35b6105f6610fbd565b6040516106039190614a87565b60405180910390f35b61062660048036038101906106219190614aa2565b610fcc565b005b610630610ffe565b60405161063d9190614b28565b60405180910390f35b610660600480360381019061065b9190614949565b611026565b60405161066d9190614823565b60405180910390f35b610690600480360381019061068b9190614705565b61105d565b60405161069d9190614687565b60405180910390f35b6106c060048036038101906106bb919061491c565b611087565b6040516106cd9190614687565b60405180910390f35b6106f060048036038101906106eb9190614b43565b61109b565b6040516106fd9190614687565b60405180910390f35b610720600480360381019061071b9190614705565b611112565b60405161072d9190614687565b60405180910390f35b610750600480360381019061074b9190614705565b61115b565b005b61076c60048036038101906107679190614705565b61128e565b6040516107799190614687565b60405180910390f35b61078a6112de565b60405161079d9796959493929190614c7c565b60405180910390f35b6107ae6113e0565b6040516107bb9190614b28565b60405180910390f35b6107de60048036038101906107d99190614aa2565b61140a565b6040516107eb9190614823565b60405180910390f35b61080e60048036038101906108099190614b43565b611474565b60405161081b9190614687565b60405180910390f35b61082c6114eb565b60405161083991906148ce565b60405180910390f35b61085c60048036038101906108579190614d00565b61157d565b005b6108666116e4565b6040516108739190614a87565b60405180910390f35b61089660048036038101906108919190614b43565b6116eb565b6040516108a39190614687565b60405180910390f35b6108c660048036038101906108c19190614949565b6118b8565b6040516108d39190614823565b60405180910390f35b6108f660048036038101906108f19190614949565b61192f565b6040516109039190614823565b60405180910390f35b61092660048036038101906109219190614d40565b611952565b005b610942600480360381019061093d919061491c565b6119fc565b60405161094f9190614687565b60405180910390f35b610972600480360381019061096d9190614d93565b611a10565b60405161097f9190614687565b60405180910390f35b6109a2600480360381019061099d9190614d93565b611a75565b6040516109af9190614687565b60405180910390f35b6109d260048036038101906109cd9190614e12565b611ada565b005b6109ee60048036038101906109e99190614705565b611bd3565b6040516109fb9190614687565b60405180910390f35b610a1e6004803603810190610a19919061491c565b611bfd565b604051610a2b9190614687565b60405180910390f35b610a4e6004803603810190610a49919061491c565b611c11565b005b610a6a6004803603810190610a659190614e7e565b611d5f565b005b610a866004803603810190610a819190614705565b611e45565b604051610a939190614687565b60405180910390f35b610ab66004803603810190610ab19190614ed7565b611e61565b005b610ad26004803603810190610acd9190614b43565b611fa3565b604051610adf9190614687565b60405180910390f35b610b026004803603810190610afd9190614aa2565b612170565b005b610b1e6004803603810190610b199190614705565b6121ca565b604051610b2b9190614687565b60405180910390f35b610b4e6004803603810190610b499190614d00565b6121dc565b604051610b5b9190614687565b60405180910390f35b610b6c612263565b604051610b799190614687565b60405180910390f35b610b8a6122b8565b604051610b979190614fd8565b60405180910390f35b610bba6004803603810190610bb5919061491c565b6122de565b604051610bc79190614687565b60405180910390f35b610bea6004803603810190610be59190614705565b6122f2565b005b610c066004803603810190610c019190614e12565b61247c565b005b600d5481565b600f6020528060005260406000206000915090508060000160009054906101000a90046cffffffffffffffffffffffffff16908060010154905082565b6000610c55612263565b610c5d610ffe565b73ffffffffffffffffffffffffffffffffffffffff166370a08231306040518263ffffffff1660e01b8152600401610c959190614b28565b602060405180830381865afa158015610cb2573d6000803e3d6000fd5b505050506040513d601f19601f82011682018060405250810190610cd69190615008565b610ce09190615064565b905090565b60007f7965db0b000000000000000000000000000000000000000000000000000000007bffffffffffffffffffffffffffffffffffffffffffffffffffffffff1916827bffffffffffffffffffffffffffffffffffffffffffffffffffffffff19161480610d585750610d5782612575565b5b9050919050565b606060078054610d6e906150c7565b80601f0160208091040260200160405190810160405280929190818152602001828054610d9a906150c7565b8015610de75780601f10610dbc57610100808354040283529160200191610de7565b820191906000526020600020905b815481529060010190602001808311610dca57829003601f168201915b5050505050905090565b6000610dfe8260006125df565b9050919050565b600080610e10612638565b9050610e1d818585612640565b600191505092915050565b6000610e35826001612809565b9050919050565b600260009054906101000a900473ffffffffffffffffffffffffffffffffffffffff1673ffffffffffffffffffffffffffffffffffffffff163373ffffffffffffffffffffffffffffffffffffffff1614610ec3576040517f058d9a1b00000000000000000000000000000000000000000000000000000000815260040160405180910390fd5b610ed06000801b33612862565b565b6000600654905090565b601060149054906101000a900462ffffff1681565b600e5481565b600080610f02612638565b9050610f0f85828561298c565b610f1a858585612a18565b60019150509392505050565b6000806000838152602001908152602001600020600101549050919050565b6000801b610f5281612c91565b826000801b8103610f8f576040517f6317a0fa00000000000000000000000000000000000000000000000000000000815260040160405180910390fd5b610f998484612862565b50505050565b60006012905090565b601060179054906101000a900462ffffff1681565b6000610fc7612ca5565b905090565b6040517ff50a3b5200000000000000000000000000000000000000000000000000000000815260040160405180910390fd5b60007f0000000000000000000000000000000000000000000000000000000000000000905090565b600080611031612638565b905061105281858561104385896121dc565b61104d91906150f8565b612640565b600191505092915050565b60007fffffffffffffffffffffffffffffffffffffffffffffffffffffffffffffffff9050919050565b60006110948260006125df565b9050919050565b60006110a68261105d565b8311156110e8576040517f08c379a00000000000000000000000000000000000000000000000000000000081526004016110df90615178565b60405180910390fd5b60006110f3846122de565b9050611108611100612638565b848684612d5c565b8091505092915050565b6000600460008373ffffffffffffffffffffffffffffffffffffffff1673ffffffffffffffffffffffffffffffffffffffff168152602001908152602001600020549050919050565b6000801b61116881612c91565b3373ffffffffffffffffffffffffffffffffffffffff168273ffffffffffffffffffffffffffffffffffffffff16036111cd576040517f6317a0fa00000000000000000000000000000000000000000000000000000000815260040160405180910390fd5b81600260006101000a81548173ffffffffffffffffffffffffffffffffffffffff021916908373ffffffffffffffffffffffffffffffffffffffff1602179055508173ffffffffffffffffffffffffffffffffffffffff16600160009054906101000a900473ffffffffffffffffffffffffffffffffffffffff1673ffffffffffffffffffffffffffffffffffffffff167fefdcbba819467e00b0262c12892dda980bac68580b72178e57a162368b80876660405160405180910390a35050565b60006112d7600b60008473ffffffffffffffffffffffffffffffffffffffff1673ffffffffffffffffffffffffffffffffffffffff168152602001908152602001600020612e90565b9050919050565b60006060806000806000606061131e60097f0000000000000000000000000000000000000000000000000000000000000000612e9e90919063ffffffff16565b611352600a7f0000000000000000000000000000000000000000000000000000000000000000612e9e90919063ffffffff16565b46306000801b600067ffffffffffffffff81111561137357611372615198565b5b6040519080825280602002602001820160405280156113a15781602001602082028036833780820191505090505b507f0f00000000000000000000000000000000000000000000000000000000000000959493929190965096509650965096509650965090919293949596565b6000600160009054906101000a900473ffffffffffffffffffffffffffffffffffffffff16905090565b600080600084815260200190815260200160002060000160008373ffffffffffffffffffffffffffffffffffffffff1673ffffffffffffffffffffffffffffffffffffffff16815260200190815260200160002060009054906101000a900460ff16905092915050565b600061147f82611bd3565b8311156114c1576040517f08c379a00000000000000000000000000000000000000000000000000000000081526004016114b890615213565b60405180910390fd5b60006114cc846119fc565b90506114e16114d9612638565b848387612d5c565b8091505092915050565b6060600880546114fa906150c7565b80601f0160208091040260200160405190810160405280929190818152602001828054611526906150c7565b80156115735780601f1061154857610100808354040283529160200191611573565b820191906000526020600020905b81548152906001019060200180831161155657829003601f168201915b5050505050905090565b6000801b61158a81612c91565b6115b47f0a4af4bcc1942295207d9f047442ebdae6170a6e324850f758b14cf99b65c3bd8461140a565b80156115e757506115e57f0a4af4bcc1942295207d9f047442ebdae6170a6e324850f758b14cf99b65c3bd8361140a565b155b156116ad5760006115f784611112565b90506116038482612f4e565b600073ffffffffffffffffffffffffffffffffffffffff168373ffffffffffffffffffffffffffffffffffffffff161461164257611641838261311d565b5b8273ffffffffffffffffffffffffffffffffffffffff168473ffffffffffffffffffffffffffffffffffffffff167fb8ef21f2b52f8ca740012254a6b10f17d2fd6e589f97ebf401fde0e8b92189378360405161169f9190614687565b60405180910390a3506116df565b6040517ff50a3b5200000000000000000000000000000000000000000000000000000000815260040160405180910390fd5b505050565b6000801b81565b600080601060179054906101000a900462ffffff1662ffffff160361173c576040517ff50a3b5200000000000000000000000000000000000000000000000000000000815260040160405180910390fd5b611745826121ca565b83111561177e576040517f6334538800000000000000000000000000000000000000000000000000000000815260040160405180910390fd5b600061178984611087565b9050601060179054906101000a900462ffffff1662ffffff16426117ad9190615233565b600f60008573ffffffffffffffffffffffffffffffffffffffff1673ffffffffffffffffffffffffffffffffffffffff16815260200190815260200160002060000160006101000a8154816cffffffffffffffffffffffffff02191690836cffffffffffffffffffffffffff16021790555080600f60008573ffffffffffffffffffffffffffffffffffffffff1673ffffffffffffffffffffffffffffffffffffffff168152602001908152602001600020600101600082825461187191906150f8565b925050819055506118ae611883612638565b601060009054906101000a900473ffffffffffffffffffffffffffffffffffffffff16858488613274565b8091505092915050565b6000806118c3612638565b905060006118d182866121dc565b905083811015611916576040517f08c379a000000000000000000000000000000000000000000000000000000000815260040161190d906152e6565b60405180910390fd5b6119238286868403612640565b60019250505092915050565b60008061193a612638565b9050611947818585612a18565b600191505092915050565b6000801b61195f81612c91565b611967610ffe565b73ffffffffffffffffffffffffffffffffffffffff168473ffffffffffffffffffffffffffffffffffffffff16036119cb576040517fc1ab6dc100000000000000000000000000000000000000000000000000000000815260040160405180910390fd5b6119f682848673ffffffffffffffffffffffffffffffffffffffff166133aa9092919063ffffffff16565b50505050565b6000611a098260016125df565b9050919050565b600080601060179054906101000a900462ffffff1662ffffff1614611a61576040517ff50a3b5200000000000000000000000000000000000000000000000000000000815260040160405180910390fd5b611a6c848484613430565b90509392505050565b600080601060179054906101000a900462ffffff1662ffffff1614611ac6576040517ff50a3b5200000000000000000000000000000000000000000000000000000000815260040160405180910390fd5b611ad18484846134a9565b90509392505050565b7ff988e4fb62b8e14f4820fed03192306ddf4d7dbfa215595ba1c6ba4b76b369ee611b0481612c91565b82611b0d6113e0565b73ffffffffffffffffffffffffffffffffffffffff168173ffffffffffffffffffffffffffffffffffffffff1603611b71576040517ffe7c574000000000000000000000000000000000000000000000000000000000815260040160405180910390fd5b600083611b9e577f8f7080408a06296c6347c87c115ad99669141ae35eae974c12dff8bd01680cb6611bc0565b7f0a4af4bcc1942295207d9f047442ebdae6170a6e324850f758b14cf99b65c3bd5b9050611bcc8186613522565b5050505050565b60007fffffffffffffffffffffffffffffffffffffffffffffffffffffffffffffffff9050919050565b6000611c0a826000612809565b9050919050565b611c19613603565b7fbeec13769b5f410b0584f69811bfd923818456d5edcf426b0e31cf90eed7a3f6611c4381612c91565b8160008103611c7e576040517f2c5211c600000000000000000000000000000000000000000000000000000000815260040160405180910390fd5b6000611c88612263565b1115611cc0576040517f010133de00000000000000000000000000000000000000000000000000000000815260040160405180910390fd5b6000611cca612263565b84611cd591906150f8565b905080600d8190555042600e81905550611d19333086611cf3610ffe565b73ffffffffffffffffffffffffffffffffffffffff16613652909392919063ffffffff16565b837f61cb44cbea389abb97c617c7d16a62235c51f27da3406d3ec3c9ac87c0d0c82682604051611d499190614687565b60405180910390a2505050611d5c6136db565b50565b6000801b611d6c81612c91565b601060149054906101000a900462ffffff1662ffffff168262ffffff161115611dc1576040517fe8ebb09a00000000000000000000000000000000000000000000000000000000815260040160405180910390fd5b6000601060179054906101000a900462ffffff16905082601060176101000a81548162ffffff021916908362ffffff1602179055507f180eacdf7dbaeecaa983d93173b4285db2f2c0de0044697e1f932bbbb73dcaa681601060179054906101000a900462ffffff16604051611e38929190615306565b60405180910390a1505050565b6000611e5a611e5383611112565b60006125df565b9050919050565b83421115611ea4576040517f08c379a0000000000000000000000000000000000000000000000000000000008152600401611e9b9061537b565b60405180910390fd5b60007f6e71edae12b1b97f4d1f60370fef10105fa2faae0126114a169c64845d6126c9888888611ed38c6136e5565b89604051602001611ee99695949392919061539b565b6040516020818303038152906040528051906020012090506000611f0c82613743565b90506000611f1c8287878761375d565b90508973ffffffffffffffffffffffffffffffffffffffff168173ffffffffffffffffffffffffffffffffffffffff1614611f8c576040517f08c379a0000000000000000000000000000000000000000000000000000000008152600401611f8390615448565b60405180910390fd5b611f978a8a8a612640565b50505050505050505050565b600080601060179054906101000a900462ffffff1662ffffff1603611ff4576040517ff50a3b5200000000000000000000000000000000000000000000000000000000815260040160405180910390fd5b611ffd82611e45565b831115612036576040517fdf53dde200000000000000000000000000000000000000000000000000000000815260040160405180910390fd5b600061204184610e28565b9050601060179054906101000a900462ffffff1662ffffff16426120659190615233565b600f60008573ffffffffffffffffffffffffffffffffffffffff1673ffffffffffffffffffffffffffffffffffffffff16815260200190815260200160002060000160006101000a8154816cffffffffffffffffffffffffff02191690836cffffffffffffffffffffffffff16021790555083600f60008573ffffffffffffffffffffffffffffffffffffffff1673ffffffffffffffffffffffffffffffffffffffff168152602001908152602001600020600101600082825461212991906150f8565b9250508190555061216661213b612638565b601060009054906101000a900473ffffffffffffffffffffffffffffffffffffffff16858785613274565b8091505092915050565b6000801b61217d81612c91565b826000801b81036121ba576040517f6317a0fa00000000000000000000000000000000000000000000000000000000815260040160405180910390fd5b6121c48484613522565b50505050565b60006121d582611112565b9050919050565b6000600560008473ffffffffffffffffffffffffffffffffffffffff1673ffffffffffffffffffffffffffffffffffffffff16815260200190815260200160002060008373ffffffffffffffffffffffffffffffffffffffff1673ffffffffffffffffffffffffffffffffffffffff16815260200190815260200160002054905092915050565b600080600e54426122749190615064565b905061708081106122895760009150506122b5565b617080600d548261708061229d9190615064565b6122a79190615468565b6122b191906154d9565b9150505b90565b601060009054906101000a900473ffffffffffffffffffffffffffffffffffffffff1681565b60006122eb826000612809565b9050919050565b6000600f60003373ffffffffffffffffffffffffffffffffffffffff1673ffffffffffffffffffffffffffffffffffffffff16815260200190815260200160002090506000816001015490508160000160009054906101000a90046cffffffffffffffffffffffffff166cffffffffffffffffffffffffff1642106124455760008260000160006101000a8154816cffffffffffffffffffffffffff02191690836cffffffffffffffffffffffffff16021790555060008260010181905550601060009054906101000a900473ffffffffffffffffffffffffffffffffffffffff1673ffffffffffffffffffffffffffffffffffffffff1663f3fef3a384836040518363ffffffff1660e01b815260040161240e92919061550a565b600060405180830381600087803b15801561242857600080fd5b505af115801561243c573d6000803e3d6000fd5b50505050612477565b6040517fe8ebb09a00000000000000000000000000000000000000000000000000000000815260040160405180910390fd5b505050565b7ff988e4fb62b8e14f4820fed03192306ddf4d7dbfa215595ba1c6ba4b76b369ee6124a681612c91565b826124af6113e0565b73ffffffffffffffffffffffffffffffffffffffff168173ffffffffffffffffffffffffffffffffffffffff1603612513576040517ffe7c574000000000000000000000000000000000000000000000000000000000815260040160405180910390fd5b600083612540577f8f7080408a06296c6347c87c115ad99669141ae35eae974c12dff8bd01680cb6612562565b7f0a4af4bcc1942295207d9f047442ebdae6170a6e324850f758b14cf99b65c3bd5b905061256e8186612862565b5050505050565b60007f01ffc9a7000000000000000000000000000000000000000000000000000000007bffffffffffffffffffffffffffffffffffffffffffffffffffffffff1916827bffffffffffffffffffffffffffffffffffffffffffffffffffffffff1916149050919050565b600061263060016125ee610c4b565b6125f891906150f8565b612600613788565b600a61260c9190615666565b612614610ed2565b61261e91906150f8565b848661378d909392919063ffffffff16565b905092915050565b600033905090565b600073ffffffffffffffffffffffffffffffffffffffff168373ffffffffffffffffffffffffffffffffffffffff16036126af576040517f08c379a00000000000000000000000000000000000000000000000000000000081526004016126a690615723565b60405180910390fd5b600073ffffffffffffffffffffffffffffffffffffffff168273ffffffffffffffffffffffffffffffffffffffff160361271e576040517f08c379a0000000000000000000000000000000000000000000000000000000008152600401612715906157b5565b60405180910390fd5b80600560008573ffffffffffffffffffffffffffffffffffffffff1673ffffffffffffffffffffffffffffffffffffffff16815260200190815260200160002060008473ffffffffffffffffffffffffffffffffffffffff1673ffffffffffffffffffffffffffffffffffffffff168152602001908152602001600020819055508173ffffffffffffffffffffffffffffffffffffffff168373ffffffffffffffffffffffffffffffffffffffff167f8c5be1e5ebec7d5bd14f71427d1e84f3dd0314c0f7b2291e5b200ac8c7c3b925836040516127fc9190614687565b60405180910390a3505050565b600061285a612816613788565b600a6128229190615666565b61282a610ed2565b61283491906150f8565b600161283e610c4b565b61284891906150f8565b848661378d909392919063ffffffff16565b905092915050565b6000801b820361297e578073ffffffffffffffffffffffffffffffffffffffff16600160009054906101000a900473ffffffffffffffffffffffffffffffffffffffff1673ffffffffffffffffffffffffffffffffffffffff167ff8ccb027dfcd135e000e9d45e6cc2d662578a8825d4c45b5e32e0adf67e79ec660405160405180910390a36129176000801b600160009054906101000a900473ffffffffffffffffffffffffffffffffffffffff16613522565b80600160006101000a81548173ffffffffffffffffffffffffffffffffffffffff021916908373ffffffffffffffffffffffffffffffffffffffff160217905550600260006101000a81549073ffffffffffffffffffffffffffffffffffffffff02191690555b6129888282613803565b5050565b600061299884846121dc565b90507fffffffffffffffffffffffffffffffffffffffffffffffffffffffffffffffff8114612a125781811015612a04576040517f08c379a00000000000000000000000000000000000000000000000000000000081526004016129fb90615821565b60405180910390fd5b612a118484848403612640565b5b50505050565b600073ffffffffffffffffffffffffffffffffffffffff168373ffffffffffffffffffffffffffffffffffffffff1603612a87576040517f08c379a0000000000000000000000000000000000000000000000000000000008152600401612a7e906158b3565b60405180910390fd5b600073ffffffffffffffffffffffffffffffffffffffff168273ffffffffffffffffffffffffffffffffffffffff1603612af6576040517f08c379a0000000000000000000000000000000000000000000000000000000008152600401612aed90615945565b60405180910390fd5b612b018383836138e3565b6000600460008573ffffffffffffffffffffffffffffffffffffffff1673ffffffffffffffffffffffffffffffffffffffff16815260200190815260200160002054905081811015612b88576040517f08c379a0000000000000000000000000000000000000000000000000000000008152600401612b7f906159d7565b60405180910390fd5b818103600460008673ffffffffffffffffffffffffffffffffffffffff1673ffffffffffffffffffffffffffffffffffffffff1681526020019081526020016000208190555081600460008573ffffffffffffffffffffffffffffffffffffffff1673ffffffffffffffffffffffffffffffffffffffff168152602001908152602001600020600082825401925050819055508273ffffffffffffffffffffffffffffffffffffffff168473ffffffffffffffffffffffffffffffffffffffff167fddf252ad1be2c89b69c2b068fc378daa952ba7f163c4a11628f55a4df523b3ef84604051612c789190614687565b60405180910390a3612c8b8484846139e3565b50505050565b612ca281612c9d612638565b6139e8565b50565b60007f000000000000000000000000000000000000000000000000000000000000000073ffffffffffffffffffffffffffffffffffffffff163073ffffffffffffffffffffffffffffffffffffffff16148015612d2157507f000000000000000000000000000000000000000000000000000000000000000046145b15612d4e577f00000000000000000000000000000000000000000000000000000000000000009050612d59565b612d56613a6d565b90505b90565b612d64613603565b8160008103612d9f576040517f2c5211c600000000000000000000000000000000000000000000000000000000815260040160405180910390fd5b8160008103612dda576040517f2c5211c600000000000000000000000000000000000000000000000000000000815260040160405180910390fd5b612e047f8f7080408a06296c6347c87c115ad99669141ae35eae974c12dff8bd01680cb68761140a565b80612e355750612e347f8f7080408a06296c6347c87c115ad99669141ae35eae974c12dff8bd01680cb68661140a565b5b15612e6c576040517ff50a3b5200000000000000000000000000000000000000000000000000000000815260040160405180910390fd5b612e7886868686613b03565b612e80613ba6565b5050612e8a6136db565b50505050565b600081600001549050919050565b606060ff60001b8314612ebb57612eb483613c03565b9050612f48565b818054612ec7906150c7565b80601f0160208091040260200160405190810160405280929190818152602001828054612ef3906150c7565b8015612f405780601f10612f1557610100808354040283529160200191612f40565b820191906000526020600020905b815481529060010190602001808311612f2357829003601f168201915b505050505090505b92915050565b600073ffffffffffffffffffffffffffffffffffffffff168273ffffffffffffffffffffffffffffffffffffffff1603612fbd576040517f08c379a0000000000000000000000000000000000000000000000000000000008152600401612fb490615a69565b60405180910390fd5b612fc9826000836138e3565b6000600460008473ffffffffffffffffffffffffffffffffffffffff1673ffffffffffffffffffffffffffffffffffffffff16815260200190815260200160002054905081811015613050576040517f08c379a000000000000000000000000000000000000000000000000000000000815260040161304790615afb565b60405180910390fd5b818103600460008573ffffffffffffffffffffffffffffffffffffffff1673ffffffffffffffffffffffffffffffffffffffff1681526020019081526020016000208190555081600660008282540392505081905550600073ffffffffffffffffffffffffffffffffffffffff168373ffffffffffffffffffffffffffffffffffffffff167fddf252ad1be2c89b69c2b068fc378daa952ba7f163c4a11628f55a4df523b3ef846040516131049190614687565b60405180910390a3613118836000846139e3565b505050565b600073ffffffffffffffffffffffffffffffffffffffff168273ffffffffffffffffffffffffffffffffffffffff160361318c576040517f08c379a000000000000000000000000000000000000000000000000000000000815260040161318390615b67565b60405180910390fd5b613198600083836138e3565b80600660008282546131aa91906150f8565b9250508190555080600460008473ffffffffffffffffffffffffffffffffffffffff1673ffffffffffffffffffffffffffffffffffffffff168152602001908152602001600020600082825401925050819055508173ffffffffffffffffffffffffffffffffffffffff16600073ffffffffffffffffffffffffffffffffffffffff167fddf252ad1be2c89b69c2b068fc378daa952ba7f163c4a11628f55a4df523b3ef8360405161325c9190614687565b60405180910390a3613270600083836139e3565b5050565b61327c613603565b81600081036132b7576040517f2c5211c600000000000000000000000000000000000000000000000000000000815260040160405180910390fd5b81600081036132f2576040517f2c5211c600000000000000000000000000000000000000000000000000000000815260040160405180910390fd5b61331c7f0a4af4bcc1942295207d9f047442ebdae6170a6e324850f758b14cf99b65c3bd8861140a565b8061334d575061334c7f0a4af4bcc1942295207d9f047442ebdae6170a6e324850f758b14cf99b65c3bd8761140a565b5b15613384576040517ff50a3b5200000000000000000000000000000000000000000000000000000000815260040160405180910390fd5b6133918787878787613c77565b613399613ba6565b50506133a36136db565b5050505050565b61342b8363a9059cbb60e01b84846040516024016133c992919061550a565b604051602081830303815290604052907bffffffffffffffffffffffffffffffffffffffffffffffffffffffff19166020820180517bffffffffffffffffffffffffffffffffffffffffffffffffffffffff8381831617835250505050613d70565b505050565b600061343b82611e45565b84111561347d576040517f08c379a000000000000000000000000000000000000000000000000000000000815260040161347490615bd3565b60405180910390fd5b600061348885610e28565b905061349e613495612638565b85858885613274565b809150509392505050565b60006134b4826121ca565b8411156134f6576040517f08c379a00000000000000000000000000000000000000000000000000000000081526004016134ed90615c3f565b60405180910390fd5b600061350185611087565b905061351761350e612638565b85858489613274565b809150509392505050565b61352c828261140a565b156135ff57600080600084815260200190815260200160002060000160008373ffffffffffffffffffffffffffffffffffffffff1673ffffffffffffffffffffffffffffffffffffffff16815260200190815260200160002060006101000a81548160ff0219169083151502179055506135a4612638565b73ffffffffffffffffffffffffffffffffffffffff168173ffffffffffffffffffffffffffffffffffffffff16837ff6391f5c32d9c69d2a47ea670b442974b53935d1edc7fd64eb21e047a839171b60405160405180910390a45b5050565b600260035403613648576040517f08c379a000000000000000000000000000000000000000000000000000000000815260040161363f90615cab565b60405180910390fd5b6002600381905550565b6136d5846323b872dd60e01b85858560405160240161367393929190615ccb565b604051602081830303815290604052907bffffffffffffffffffffffffffffffffffffffffffffffffffffffff19166020820180517bffffffffffffffffffffffffffffffffffffffffffffffffffffffff8381831617835250505050613d70565b50505050565b6001600381905550565b600080600b60008473ffffffffffffffffffffffffffffffffffffffff1673ffffffffffffffffffffffffffffffffffffffff168152602001908152602001600020905061373281612e90565b915061373d81613e38565b50919050565b6000613756613750612ca5565b83613e4e565b9050919050565b600080600061376e87878787613e8f565b9150915061377b81613f71565b8192505050949350505050565b600090565b60008061379b8686866140d7565b9050600160028111156137b1576137b0615d02565b5b8360028111156137c4576137c3615d02565b5b1480156137e25750600084806137dd576137dc6154aa565b5b868809115b156137f7576001816137f491906150f8565b90505b80915050949350505050565b61380d828261140a565b6138df57600160008084815260200190815260200160002060000160008373ffffffffffffffffffffffffffffffffffffffff1673ffffffffffffffffffffffffffffffffffffffff16815260200190815260200160002060006101000a81548160ff021916908315150217905550613884612638565b73ffffffffffffffffffffffffffffffffffffffff168173ffffffffffffffffffffffffffffffffffffffff16837f2f8788117e7eff1d82e926ec794901d17c78024a50270940304540a733656f0d60405160405180910390a45b5050565b61390d7f0a4af4bcc1942295207d9f047442ebdae6170a6e324850f758b14cf99b65c3bd8461140a565b80156139465750600073ffffffffffffffffffffffffffffffffffffffff168273ffffffffffffffffffffffffffffffffffffffff1614155b1561397d576040517ff50a3b5200000000000000000000000000000000000000000000000000000000815260040160405180910390fd5b6139a77f0a4af4bcc1942295207d9f047442ebdae6170a6e324850f758b14cf99b65c3bd8361140a565b156139de576040517ff50a3b5200000000000000000000000000000000000000000000000000000000815260040160405180910390fd5b505050565b505050565b6139f2828261140a565b613a69576139ff816141e8565b613a0d8360001c6020614215565b604051602001613a1e929190615e05565b6040516020818303038152906040526040517f08c379a0000000000000000000000000000000000000000000000000000000008152600401613a6091906148ce565b60405180910390fd5b5050565b60007f8b73c3c69bb8fe3d512ecc4cf759cc79239f7b179b0ffacaa9a75d522b39400f7f00000000000000000000000000000000000000000000000000000000000000007f00000000000000000000000000000000000000000000000000000000000000004630604051602001613ae8959493929190615e3f565b60405160208183030381529060405280519060200120905090565b613b2f7f0000000000000000000000000000000000000000000000000000000000000000853085613652565b613b39838261311d565b8273ffffffffffffffffffffffffffffffffffffffff168473ffffffffffffffffffffffffffffffffffffffff167fdcbc1c05240f31ff3ad067ef1ee35ce4997762752e3a095284754544f4c709d78484604051613b98929190615e92565b60405180910390a350505050565b6000613bb0610ed2565b9050600081118015613bc95750670de0b6b3a764000081105b15613c00576040517fb4b836aa00000000000000000000000000000000000000000000000000000000815260040160405180910390fd5b50565b60606000613c1083614451565b90506000602067ffffffffffffffff811115613c2f57613c2e615198565b5b6040519080825280601f01601f191660200182016040528015613c615781602001600182028036833780820191505090505b5090508181528360208201528092505050919050565b8273ffffffffffffffffffffffffffffffffffffffff168573ffffffffffffffffffffffffffffffffffffffff1614613cb657613cb583868361298c565b5b613cc08382612f4e565b613ceb7f000000000000000000000000000000000000000000000000000000000000000085846133aa565b8273ffffffffffffffffffffffffffffffffffffffff168473ffffffffffffffffffffffffffffffffffffffff168673ffffffffffffffffffffffffffffffffffffffff167ffbde797d201c681b91056529119e0b02407c7bb96a4a2c75c01fc9667232c8db8585604051613d61929190615e92565b60405180910390a45050505050565b6000613dd2826040518060400160405280602081526020017f5361666545524332303a206c6f772d6c6576656c2063616c6c206661696c65648152508573ffffffffffffffffffffffffffffffffffffffff166144a19092919063ffffffff16565b9050600081511480613df4575080806020019051810190613df39190615ed0565b5b613e33576040517f08c379a0000000000000000000000000000000000000000000000000000000008152600401613e2a90615f6f565b60405180910390fd5b505050565b6001816000016000828254019250508190555050565b60006040517f190100000000000000000000000000000000000000000000000000000000000081528360028201528260228201526042812091505092915050565b6000807f7fffffffffffffffffffffffffffffff5d576e7357a4501ddfe92f46681b20a08360001c1115613eca576000600391509150613f68565b600060018787878760405160008152602001604052604051613eef9493929190615f8f565b6020604051602081039080840390855afa158015613f11573d6000803e3d6000fd5b505050602060405103519050600073ffffffffffffffffffffffffffffffffffffffff168173ffffffffffffffffffffffffffffffffffffffff1603613f5f57600060019250925050613f68565b80600092509250505b94509492505050565b60006004811115613f8557613f84615d02565b5b816004811115613f9857613f97615d02565b5b03156140d45760016004811115613fb257613fb1615d02565b5b816004811115613fc557613fc4615d02565b5b03614005576040517f08c379a0000000000000000000000000000000000000000000000000000000008152600401613ffc90616020565b60405180910390fd5b6002600481111561401957614018615d02565b5b81600481111561402c5761402b615d02565b5b0361406c576040517f08c379a00000000000000000000000000000000000000000000000000000000081526004016140639061608c565b60405180910390fd5b600360048111156140805761407f615d02565b5b81600481111561409357614092615d02565b5b036140d3576040517f08c379a00000000000000000000000000000000000000000000000000000000081526004016140ca9061611e565b60405180910390fd5b5b50565b600080600080198587098587029250828110838203039150506000810361411257838281614108576141076154aa565b5b04925050506141e1565b808411614154576040517f08c379a000000000000000000000000000000000000000000000000000000000815260040161414b9061618a565b60405180910390fd5b60008486880990508281118203915080830392506000600186190186169050808604955080840493506001818260000304019050808302841793506000600287600302189050808702600203810290508087026002038102905080870260020381029050808702600203810290508087026002038102905080870260020381029050808502955050505050505b9392505050565b606061420e8273ffffffffffffffffffffffffffffffffffffffff16601460ff16614215565b9050919050565b6060600060028360026142289190615468565b61423291906150f8565b67ffffffffffffffff81111561424b5761424a615198565b5b6040519080825280601f01601f19166020018201604052801561427d5781602001600182028036833780820191505090505b5090507f3000000000000000000000000000000000000000000000000000000000000000816000815181106142b5576142b46161aa565b5b60200101907effffffffffffffffffffffffffffffffffffffffffffffffffffffffffffff1916908160001a9053507f780000000000000000000000000000000000000000000000000000000000000081600181518110614319576143186161aa565b5b60200101907effffffffffffffffffffffffffffffffffffffffffffffffffffffffffffff1916908160001a905350600060018460026143599190615468565b61436391906150f8565b90505b6001811115614403577f3031323334353637383961626364656600000000000000000000000000000000600f8616601081106143a5576143a46161aa565b5b1a60f81b8282815181106143bc576143bb6161aa565b5b60200101907effffffffffffffffffffffffffffffffffffffffffffffffffffffffffffff1916908160001a905350600485901c9450806143fc906161d9565b9050614366565b5060008414614447576040517f08c379a000000000000000000000000000000000000000000000000000000000815260040161443e9061624e565b60405180910390fd5b8091505092915050565b60008060ff8360001c169050601f811115614498576040517fb3512b0c00000000000000000000000000000000000000000000000000000000815260040160405180910390fd5b80915050919050565b60606144b084846000856144b9565b90509392505050565b6060824710156144fe576040517f08c379a00000000000000000000000000000000000000000000000000000000081526004016144f5906162e0565b60405180910390fd5b6000808673ffffffffffffffffffffffffffffffffffffffff1685876040516145279190616347565b60006040518083038185875af1925050503d8060008114614564576040519150601f19603f3d011682016040523d82523d6000602084013e614569565b606091505b509150915061457a87838387614586565b92505050949350505050565b606083156145e85760008351036145e0576145a0856145fb565b6145df576040517f08c379a00000000000000000000000000000000000000000000000000000000081526004016145d6906163aa565b60405180910390fd5b5b8290506145f3565b6145f2838361461e565b5b949350505050565b6000808273ffffffffffffffffffffffffffffffffffffffff163b119050919050565b6000825111156146315781518083602001fd5b806040517f08c379a000000000000000000000000000000000000000000000000000000000815260040161466591906148ce565b60405180910390fd5b6000819050919050565b6146818161466e565b82525050565b600060208201905061469c6000830184614678565b92915050565b600080fd5b600073ffffffffffffffffffffffffffffffffffffffff82169050919050565b60006146d2826146a7565b9050919050565b6146e2816146c7565b81146146ed57600080fd5b50565b6000813590506146ff816146d9565b92915050565b60006020828403121561471b5761471a6146a2565b5b6000614729848285016146f0565b91505092915050565b60006cffffffffffffffffffffffffff82169050919050565b61475481614732565b82525050565b600060408201905061476f600083018561474b565b61477c6020830184614678565b9392505050565b60007fffffffff0000000000000000000000000000000000000000000000000000000082169050919050565b6147b881614783565b81146147c357600080fd5b50565b6000813590506147d5816147af565b92915050565b6000602082840312156147f1576147f06146a2565b5b60006147ff848285016147c6565b91505092915050565b60008115159050919050565b61481d81614808565b82525050565b60006020820190506148386000830184614814565b92915050565b600081519050919050565b600082825260208201905092915050565b60005b8381101561487857808201518184015260208101905061485d565b60008484015250505050565b6000601f19601f8301169050919050565b60006148a08261483e565b6148aa8185614849565b93506148ba81856020860161485a565b6148c381614884565b840191505092915050565b600060208201905081810360008301526148e88184614895565b905092915050565b6148f98161466e565b811461490457600080fd5b50565b600081359050614916816148f0565b92915050565b600060208284031215614932576149316146a2565b5b600061494084828501614907565b91505092915050565b600080604083850312156149605761495f6146a2565b5b600061496e858286016146f0565b925050602061497f85828601614907565b9150509250929050565b600062ffffff82169050919050565b6149a181614989565b82525050565b60006020820190506149bc6000830184614998565b92915050565b6000806000606084860312156149db576149da6146a2565b5b60006149e9868287016146f0565b93505060206149fa868287016146f0565b9250506040614a0b86828701614907565b9150509250925092565b6000819050919050565b614a2881614a15565b8114614a3357600080fd5b50565b600081359050614a4581614a1f565b92915050565b600060208284031215614a6157614a606146a2565b5b6000614a6f84828501614a36565b91505092915050565b614a8181614a15565b82525050565b6000602082019050614a9c6000830184614a78565b92915050565b60008060408385031215614ab957614ab86146a2565b5b6000614ac785828601614a36565b9250506020614ad8858286016146f0565b9150509250929050565b600060ff82169050919050565b614af881614ae2565b82525050565b6000602082019050614b136000830184614aef565b92915050565b614b22816146c7565b82525050565b6000602082019050614b3d6000830184614b19565b92915050565b60008060408385031215614b5a57614b596146a2565b5b6000614b6885828601614907565b9250506020614b79858286016146f0565b9150509250929050565b60007fff0000000000000000000000000000000000000000000000000000000000000082169050919050565b614bb881614b83565b82525050565b600081519050919050565b600082825260208201905092915050565b6000819050602082019050919050565b614bf38161466e565b82525050565b6000614c058383614bea565b60208301905092915050565b6000602082019050919050565b6000614c2982614bbe565b614c338185614bc9565b9350614c3e83614bda565b8060005b83811015614c6f578151614c568882614bf9565b9750614c6183614c11565b925050600181019050614c42565b5085935050505092915050565b600060e082019050614c91600083018a614baf565b8181036020830152614ca38189614895565b90508181036040830152614cb78188614895565b9050614cc66060830187614678565b614cd36080830186614b19565b614ce060a0830185614a78565b81810360c0830152614cf28184614c1e565b905098975050505050505050565b60008060408385031215614d1757614d166146a2565b5b6000614d25858286016146f0565b9250506020614d36858286016146f0565b9150509250929050565b600080600060608486031215614d5957614d586146a2565b5b6000614d67868287016146f0565b9350506020614d7886828701614907565b9250506040614d89868287016146f0565b9150509250925092565b600080600060608486031215614dac57614dab6146a2565b5b6000614dba86828701614907565b9350506020614dcb868287016146f0565b9250506040614ddc868287016146f0565b9150509250925092565b614def81614808565b8114614dfa57600080fd5b50565b600081359050614e0c81614de6565b92915050565b60008060408385031215614e2957614e286146a2565b5b6000614e37858286016146f0565b9250506020614e4885828601614dfd565b9150509250929050565b614e5b81614989565b8114614e6657600080fd5b50565b600081359050614e7881614e52565b92915050565b600060208284031215614e9457614e936146a2565b5b6000614ea284828501614e69565b91505092915050565b614eb481614ae2565b8114614ebf57600080fd5b50565b600081359050614ed181614eab565b92915050565b600080600080600080600060e0888a031215614ef657614ef56146a2565b5b6000614f048a828b016146f0565b9750506020614f158a828b016146f0565b9650506040614f268a828b01614907565b9550506060614f378a828b01614907565b9450506080614f488a828b01614ec2565b93505060a0614f598a828b01614a36565b92505060c0614f6a8a828b01614a36565b91505092959891949750929550565b6000819050919050565b6000614f9e614f99614f94846146a7565b614f79565b6146a7565b9050919050565b6000614fb082614f83565b9050919050565b6000614fc282614fa5565b9050919050565b614fd281614fb7565b82525050565b6000602082019050614fed6000830184614fc9565b92915050565b600081519050615002816148f0565b92915050565b60006020828403121561501e5761501d6146a2565b5b600061502c84828501614ff3565b91505092915050565b7f4e487b7100000000000000000000000000000000000000000000000000000000600052601160045260246000fd5b600061506f8261466e565b915061507a8361466e565b925082820390508181111561509257615091615035565b5b92915050565b7f4e487b7100000000000000000000000000000000000000000000000000000000600052602260045260246000fd5b600060028204905060018216806150df57607f821691505b6020821081036150f2576150f1615098565b5b50919050565b60006151038261466e565b915061510e8361466e565b925082820190508082111561512657615125615035565b5b92915050565b7f455243343632363a206465706f736974206d6f7265207468616e206d61780000600082015250565b6000615162601e83614849565b915061516d8261512c565b602082019050919050565b6000602082019050818103600083015261519181615155565b9050919050565b7f4e487b7100000000000000000000000000000000000000000000000000000000600052604160045260246000fd5b7f455243343632363a206d696e74206d6f7265207468616e206d61780000000000600082015250565b60006151fd601b83614849565b9150615208826151c7565b602082019050919050565b6000602082019050818103600083015261522c816151f0565b9050919050565b600061523e82614732565b915061524983614732565b925082820190506cffffffffffffffffffffffffff81111561526e5761526d615035565b5b92915050565b7f45524332303a2064656372656173656420616c6c6f77616e63652062656c6f7760008201527f207a65726f000000000000000000000000000000000000000000000000000000602082015250565b60006152d0602583614849565b91506152db82615274565b604082019050919050565b600060208201905081810360008301526152ff816152c3565b9050919050565b600060408201905061531b6000830185614998565b6153286020830184614998565b9392505050565b7f45524332305065726d69743a206578706972656420646561646c696e65000000600082015250565b6000615365601d83614849565b91506153708261532f565b602082019050919050565b6000602082019050818103600083015261539481615358565b9050919050565b600060c0820190506153b06000830189614a78565b6153bd6020830188614b19565b6153ca6040830187614b19565b6153d76060830186614678565b6153e46080830185614678565b6153f160a0830184614678565b979650505050505050565b7f45524332305065726d69743a20696e76616c6964207369676e61747572650000600082015250565b6000615432601e83614849565b915061543d826153fc565b602082019050919050565b6000602082019050818103600083015261546181615425565b9050919050565b60006154738261466e565b915061547e8361466e565b925082820261548c8161466e565b915082820484148315176154a3576154a2615035565b5b5092915050565b7f4e487b7100000000000000000000000000000000000000000000000000000000600052601260045260246000fd5b60006154e48261466e565b91506154ef8361466e565b9250826154ff576154fe6154aa565b5b828204905092915050565b600060408201905061551f6000830185614b19565b61552c6020830184614678565b9392505050565b60008160011c9050919050565b6000808291508390505b600185111561558a5780860481111561556657615565615035565b5b60018516156155755780820291505b808102905061558385615533565b945061554a565b94509492505050565b6000826155a3576001905061565f565b816155b1576000905061565f565b81600181146155c757600281146155d157615600565b600191505061565f565b60ff8411156155e3576155e2615035565b5b8360020a9150848211156155fa576155f9615035565b5b5061565f565b5060208310610133831016604e8410600b84101617156156355782820a9050838111156156305761562f615035565b5b61565f565b6156428484846001615540565b9250905081840481111561565957615658615035565b5b81810290505b9392505050565b60006156718261466e565b915061567c83614ae2565b92506156a97fffffffffffffffffffffffffffffffffffffffffffffffffffffffffffffffff8484615593565b905092915050565b7f45524332303a20617070726f76652066726f6d20746865207a65726f2061646460008201527f7265737300000000000000000000000000000000000000000000000000000000602082015250565b600061570d602483614849565b9150615718826156b1565b604082019050919050565b6000602082019050818103600083015261573c81615700565b9050919050565b7f45524332303a20617070726f766520746f20746865207a65726f20616464726560008201527f7373000000000000000000000000000000000000000000000000000000000000602082015250565b600061579f602283614849565b91506157aa82615743565b604082019050919050565b600060208201905081810360008301526157ce81615792565b9050919050565b7f45524332303a20696e73756666696369656e7420616c6c6f77616e6365000000600082015250565b600061580b601d83614849565b9150615816826157d5565b602082019050919050565b6000602082019050818103600083015261583a816157fe565b9050919050565b7f45524332303a207472616e736665722066726f6d20746865207a65726f20616460008201527f6472657373000000000000000000000000000000000000000000000000000000602082015250565b600061589d602583614849565b91506158a882615841565b604082019050919050565b600060208201905081810360008301526158cc81615890565b9050919050565b7f45524332303a207472616e7366657220746f20746865207a65726f206164647260008201527f6573730000000000000000000000000000000000000000000000000000000000602082015250565b600061592f602383614849565b915061593a826158d3565b604082019050919050565b6000602082019050818103600083015261595e81615922565b9050919050565b7f45524332303a207472616e7366657220616d6f756e742065786365656473206260008201527f616c616e63650000000000000000000000000000000000000000000000000000602082015250565b60006159c1602683614849565b91506159cc82615965565b604082019050919050565b600060208201905081810360008301526159f0816159b4565b9050919050565b7f45524332303a206275726e2066726f6d20746865207a65726f2061646472657360008201527f7300000000000000000000000000000000000000000000000000000000000000602082015250565b6000615a53602183614849565b9150615a5e826159f7565b604082019050919050565b60006020820190508181036000830152615a8281615a46565b9050919050565b7f45524332303a206275726e20616d6f756e7420657863656564732062616c616e60008201527f6365000000000000000000000000000000000000000000000000000000000000602082015250565b6000615ae5602283614849565b9150615af082615a89565b604082019050919050565b60006020820190508181036000830152615b1481615ad8565b9050919050565b7f45524332303a206d696e7420746f20746865207a65726f206164647265737300600082015250565b6000615b51601f83614849565b9150615b5c82615b1b565b602082019050919050565b60006020820190508181036000830152615b8081615b44565b9050919050565b7f455243343632363a207769746864726177206d6f7265207468616e206d617800600082015250565b6000615bbd601f83614849565b9150615bc882615b87565b602082019050919050565b60006020820190508181036000830152615bec81615bb0565b9050919050565b7f455243343632363a2072656465656d206d6f7265207468616e206d6178000000600082015250565b6000615c29601d83614849565b9150615c3482615bf3565b602082019050919050565b60006020820190508181036000830152615c5881615c1c565b9050919050565b7f5265656e7472616e637947756172643a207265656e7472616e742063616c6c00600082015250565b6000615c95601f83614849565b9150615ca082615c5f565b602082019050919050565b60006020820190508181036000830152615cc481615c88565b9050919050565b6000606082019050615ce06000830186614b19565b615ced6020830185614b19565b615cfa6040830184614678565b949350505050565b7f4e487b7100000000000000000000000000000000000000000000000000000000600052602160045260246000fd5b600081905092915050565b7f416363657373436f6e74726f6c3a206163636f756e7420000000000000000000600082015250565b6000615d72601783615d31565b9150615d7d82615d3c565b601782019050919050565b6000615d938261483e565b615d9d8185615d31565b9350615dad81856020860161485a565b80840191505092915050565b7f206973206d697373696e6720726f6c6520000000000000000000000000000000600082015250565b6000615def601183615d31565b9150615dfa82615db9565b601182019050919050565b6000615e1082615d65565b9150615e1c8285615d88565b9150615e2782615de2565b9150615e338284615d88565b91508190509392505050565b600060a082019050615e546000830188614a78565b615e616020830187614a78565b615e6e6040830186614a78565b615e7b6060830185614678565b615e886080830184614b19565b9695505050505050565b6000604082019050615ea76000830185614678565b615eb46020830184614678565b9392505050565b600081519050615eca81614de6565b92915050565b600060208284031215615ee657615ee56146a2565b5b6000615ef484828501615ebb565b91505092915050565b7f5361666545524332303a204552433230206f7065726174696f6e20646964206e60008201527f6f74207375636365656400000000000000000000000000000000000000000000602082015250565b6000615f59602a83614849565b9150615f6482615efd565b604082019050919050565b60006020820190508181036000830152615f8881615f4c565b9050919050565b6000608082019050615fa46000830187614a78565b615fb16020830186614aef565b615fbe6040830185614a78565b615fcb6060830184614a78565b95945050505050565b7f45434453413a20696e76616c6964207369676e61747572650000000000000000600082015250565b600061600a601883614849565b915061601582615fd4565b602082019050919050565b6000602082019050818103600083015261603981615ffd565b9050919050565b7f45434453413a20696e76616c6964207369676e6174757265206c656e67746800600082015250565b6000616076601f83614849565b915061608182616040565b602082019050919050565b600060208201905081810360008301526160a581616069565b9050919050565b7f45434453413a20696e76616c6964207369676e6174757265202773272076616c60008201527f7565000000000000000000000000000000000000000000000000000000000000602082015250565b6000616108602283614849565b9150616113826160ac565b604082019050919050565b60006020820190508181036000830152616137816160fb565b9050919050565b7f4d6174683a206d756c446976206f766572666c6f770000000000000000000000600082015250565b6000616174601583614849565b915061617f8261613e565b602082019050919050565b600060208201905081810360008301526161a381616167565b9050919050565b7f4e487b7100000000000000000000000000000000000000000000000000000000600052603260045260246000fd5b60006161e48261466e565b9150600082036161f7576161f6615035565b5b600182039050919050565b7f537472696e67733a20686578206c656e67746820696e73756666696369656e74600082015250565b6000616238602083614849565b915061624382616202565b602082019050919050565b600060208201905081810360008301526162678161622b565b9050919050565b7f416464726573733a20696e73756666696369656e742062616c616e636520666f60008201527f722063616c6c0000000000000000000000000000000000000000000000000000602082015250565b60006162ca602683614849565b91506162d58261626e565b604082019050919050565b600060208201905081810360008301526162f9816162bd565b9050919050565b600081519050919050565b600081905092915050565b600061632182616300565b61632b818561630b565b935061633b81856020860161485a565b80840191505092915050565b60006163538284616316565b915081905092915050565b7f416464726573733a2063616c6c20746f206e6f6e2d636f6e7472616374000000600082015250565b6000616394601d83614849565b915061639f8261635e565b602082019050919050565b600060208201905081810360008301526163c381616387565b905091905056fea2646970667358221220e67981c053e3f7e768f7e0c84da590ff525a1a5f58e4cc663e6a489e025422c564736f6c6343000813003360c060405234801561001057600080fd5b5060405161049638038061049683398181016040528101906100329190610104565b8173ffffffffffffffffffffffffffffffffffffffff1660808173ffffffffffffffffffffffffffffffffffffffff16815250508073ffffffffffffffffffffffffffffffffffffffff1660a08173ffffffffffffffffffffffffffffffffffffffff16815250505050610144565b600080fd5b600073ffffffffffffffffffffffffffffffffffffffff82169050919050565b60006100d1826100a6565b9050919050565b6100e1816100c6565b81146100ec57600080fd5b50565b6000815190506100fe816100d8565b92915050565b6000806040838503121561011b5761011a6100a1565b5b6000610129858286016100ef565b925050602061013a858286016100ef565b9150509250929050565b60805160a05161032f610167600039600060d301526000604e015261032f6000f3fe608060405234801561001057600080fd5b506004361061002b5760003560e01c8063f3fef3a314610030575b600080fd5b61004a6004803603810190610045919061020d565b61004c565b005b7f000000000000000000000000000000000000000000000000000000000000000073ffffffffffffffffffffffffffffffffffffffff163373ffffffffffffffffffffffffffffffffffffffff16146100d1576040517f17dd114500000000000000000000000000000000000000000000000000000000815260040160405180910390fd5b7f000000000000000000000000000000000000000000000000000000000000000073ffffffffffffffffffffffffffffffffffffffff1663a9059cbb83836040518363ffffffff1660e01b815260040161012c92919061026b565b6020604051808303816000875af115801561014b573d6000803e3d6000fd5b505050506040513d601f19601f8201168201806040525081019061016f91906102cc565b505050565b600080fd5b600073ffffffffffffffffffffffffffffffffffffffff82169050919050565b60006101a482610179565b9050919050565b6101b481610199565b81146101bf57600080fd5b50565b6000813590506101d1816101ab565b92915050565b6000819050919050565b6101ea816101d7565b81146101f557600080fd5b50565b600081359050610207816101e1565b92915050565b6000806040838503121561022457610223610174565b5b6000610232858286016101c2565b9250506020610243858286016101f8565b9150509250929050565b61025681610199565b82525050565b610265816101d7565b82525050565b6000604082019050610280600083018561024d565b61028d602083018461025c565b9392505050565b60008115159050919050565b6102a981610294565b81146102b457600080fd5b50565b6000815190506102c6816102a0565b92915050565b6000602082840312156102e2576102e1610174565b5b60006102f0848285016102b7565b9150509291505056fea26469706673582212205cbae78b585d9aa4c82f36455ba3a052b1530a02246245512ad5e27505e4142f64736f6c63430008130033","linkReferences":{}},"methodIdentifiers":{"DEFAULT_ADMIN_ROLE()":"a217fddf","DOMAIN_SEPARATOR()":"3644e515","MAX_COOLDOWN_DURATION()":"1e9049cf","acceptAdmin()":"0e18b681","addToBlacklist(address,bool)":"f298f42c","allowance(address,address)":"dd62ed3e","approve(address,uint256)":"095ea7b3","asset()":"38d52e0f","balanceOf(address)":"70a08231","convertToAssets(uint256)":"07a2d13a","convertToShares(uint256)":"c6e6f592","cooldownAssets(uint256,address)":"d50655b0","cooldownDuration()":"35269315","cooldownShares(uint256,address)":"a2af4900","cooldowns(address)":"01320fe2","decimals()":"313ce567","decreaseAllowance(address,uint256)":"a457c2d7","deposit(uint256,address)":"6e553f65","eip712Domain()":"84b0196e","getRoleAdmin(bytes32)":"248a9ca3","getUnvestedAmount()":"e7c2a608","grantRole(bytes32,address)":"2f2ff15d","hasRole(bytes32,address)":"91d14854","increaseAllowance(address,uint256)":"39509351","lastDistributionTimestamp()":"20950933","maxDeposit(address)":"402d267d","maxMint(address)":"c63d75b6","maxRedeem(address)":"d905777e","maxWithdraw(address)":"ce96cb77","mint(uint256,address)":"94bf804d","name()":"06fdde03","nonces(address)":"7ecebe00","owner()":"8da5cb5b","permit(address,address,uint256,uint256,uint8,bytes32,bytes32)":"d505accf","previewDeposit(uint256)":"ef8b30f7","previewMint(uint256)":"b3d7f6b9","previewRedeem(uint256)":"4cdad506","previewWithdraw(uint256)":"0a28a477","redeem(uint256,address,address)":"ba087652","redistributeLockedAmount(address,address)":"a0776b82","removeFromBlacklist(address,bool)":"c336a084","renounceRole(bytes32,address)":"36568abe","rescueTokens(address,uint256,address)":"b37fd190","revokeRole(bytes32,address)":"d547741f","setCooldownDuration(uint24)":"ce23eb3c","silo()":"eb3beb29","supportsInterface(bytes4)":"01ffc9a7","symbol()":"95d89b41","totalAssets()":"01e1d114","totalSupply()":"18160ddd","transfer(address,uint256)":"a9059cbb","transferAdmin(address)":"75829def","transferFrom(address,address,uint256)":"23b872dd","transferInRewards(uint256)":"c80ef110","unstake(address)":"f2888dbb","vestingAmount()":"00728f76","withdraw(uint256,address,address)":"b460af94"},"id":62}