{"abi":[{"type":"constructor","inputs":[{"name":"_baseURI","type":"string","internalType":"string"}],"stateMutability":"nonpayable"},{"type":"function","name":"approve","inputs":[{"name":"spender","type":"address","internalType":"address"},{"name":"id","type":"uint256","internalType":"uint256"}],"outputs":[],"stateMutability":"nonpayable"},{"type":"function","name":"balanceOf","inputs":[{"name":"owner","type":"address","internalType":"address"}],"outputs":[{"name":"","type":"uint256","internalType":"uint256"}],"stateMutability":"view"},{"type":"function","name":"baseURI","inputs":[],"outputs":[{"name":"","type":"string","internalType":"string"}],"stateMutability":"view"},{"type":"function","name":"currentTokenId","inputs":[],"outputs":[{"name":"","type":"uint256","internalType":"uint256"}],"stateMutability":"view"},{"type":"function","name":"getApproved","inputs":[{"name":"","type":"uint256","internalType":"uint256"}],"outputs":[{"name":"","type":"address","internalType":"address"}],"stateMutability":"view"},{"type":"function","name":"isApprovedForAll","inputs":[{"name":"","type":"address","internalType":"address"},{"name":"","type":"address","internalType":"address"}],"outputs":[{"name":"","type":"bool","internalType":"bool"}],"stateMutability":"view"},{"type":"function","name":"mintBatch","inputs":[{"name":"to","type":"address","internalType":"address"},{"name":"amount","type":"uint256","internalType":"uint256"}],"outputs":[],"stateMutability":"nonpayable"},{"type":"function","name":"name","inputs":[],"outputs":[{"name":"","type":"string","internalType":"string"}],"stateMutability":"view"},{"type":"function","name":"owner","inputs":[],"outputs":[{"name":"","type":"address","internalType":"address"}],"stateMutability":"view"},{"type":"function","name":"ownerOf","inputs":[{"name":"id","type":"uint256","internalType":"uint256"}],"outputs":[{"name":"owner","type":"address","internalType":"address"}],"stateMutability":"view"},{"type":"function","name":"safeTransferFrom","inputs":[{"name":"from","type":"address","internalType":"address"},{"name":"to","type":"address","internalType":"address"},{"name":"id","type":"uint256","internalType":"uint256"}],"outputs":[],"stateMutability":"nonpayable"},{"type":"function","name":"safeTransferFrom","inputs":[{"name":"from","type":"address","internalType":"address"},{"name":"to","type":"address","internalType":"address"},{"name":"id","type":"uint256","internalType":"uint256"},{"name":"data","type":"bytes","internalType":"bytes"}],"outputs":[],"stateMutability":"nonpayable"},{"type":"function","name":"setApprovalForAll","inputs":[{"name":"operator","type":"address","internalType":"address"},{"name":"approved","type":"bool","internalType":"bool"}],"outputs":[],"stateMutability":"nonpayable"},{"type":"function","name":"setBaseURI","inputs":[{"name":"_newBaseURI","type":"string","internalType":"string"}],"outputs":[],"stateMutability":"nonpayable"},{"type":"function","name":"supportsInterface","inputs":[{"name":"interfaceId","type":"bytes4","internalType":"bytes4"}],"outputs":[{"name":"","type":"bool","internalType":"bool"}],"stateMutability":"view"},{"type":"function","name":"symbol","inputs":[],"outputs":[{"name":"","type":"string","internalType":"string"}],"stateMutability":"view"},{"type":"function","name":"tokenURI","inputs":[{"name":"id","type":"uint256","internalType":"uint256"}],"outputs":[{"name":"","type":"string","internalType":"string"}],"stateMutability":"view"},{"type":"function","name":"transferFrom","inputs":[{"name":"from","type":"address","internalType":"address"},{"name":"to","type":"address","internalType":"address"},{"name":"id","type":"uint256","internalType":"uint256"}],"outputs":[],"stateMutability":"nonpayable"},{"type":"function","name":"transferOwnership","inputs":[{"name":"newOwner","type":"address","internalType":"address"}],"outputs":[],"stateMutability":"nonpayable"},{"type":"event","name":"Approval","inputs":[{"name":"owner","type":"address","indexed":true,"internalType":"address"},{"name":"spender","type":"address","indexed":true,"internalType":"address"},{"name":"id","type":"uint256","indexed":true,"internalType":"uint256"}],"anonymous":false},{"type":"event","name":"ApprovalForAll","inputs":[{"name":"owner","type":"address","indexed":true,"internalType":"address"},{"name":"operator","type":"address","indexed":true,"internalType":"address"},{"name":"approved","type":"bool","indexed":false,"internalType":"bool"}],"anonymous":false},{"type":"event","name":"OwnershipTransferred","inputs":[{"name":"user","type":"address","indexed":true,"internalType":"address"},{"name":"newOwner","type":"address","indexed":true,"internalType":"address"}],"anonymous":false},{"type":"event","name":"Transfer","inputs":[{"name":"from","type":"address","indexed":true,"internalType":"address"},{"name":"to","type":"address","indexed":true,"internalType":"address"},{"name":"id","type":"uint256","indexed":true,"internalType":"uint256"}],"anonymous":false},{"type":"error","name":"BatchTooLarge","inputs":[]}],"bytecode":{"object":"0x608060405234801561000f575f5ffd5b50604051612d5f380380612d5f833981810160405281019061003191906102bd565b336040518060400160405280600c81526020017f436f72746578204167656e7400000000000000000000000000000000000000008152506040518060400160405280600681526020017f434f525445580000000000000000000000000000000000000000000000000000815250815f90816100ac9190610525565b5080600190816100bc9190610525565b5050508060065f6101000a81548173ffffffffffffffffffffffffffffffffffffffff021916908373ffffffffffffffffffffffffffffffffffffffff1602179055508073ffffffffffffffffffffffffffffffffffffffff165f73ffffffffffffffffffffffffffffffffffffffff167f8be0079c531659141344cd1fd0a4f28419497f9722a3daafe3b4186f6b6457e060405160405180910390a35080600890816101699190610525565b50506105f4565b5f604051905090565b5f5ffd5b5f5ffd5b5f5ffd5b5f5ffd5b5f601f19601f8301169050919050565b7f4e487b71000000000000000000000000000000000000000000000000000000005f52604160045260245ffd5b6101cf82610189565b810181811067ffffffffffffffff821117156101ee576101ed610199565b5b80604052505050565b5f610200610170565b905061020c82826101c6565b919050565b5f67ffffffffffffffff82111561022b5761022a610199565b5b61023482610189565b9050602081019050919050565b8281835e5f83830152505050565b5f61026161025c84610211565b6101f7565b90508281526020810184848401111561027d5761027c610185565b5b610288848285610241565b509392505050565b5f82601f8301126102a4576102a3610181565b5b81516102b484826020860161024f565b91505092915050565b5f602082840312156102d2576102d1610179565b5b5f82015167ffffffffffffffff8111156102ef576102ee61017d565b5b6102fb84828501610290565b91505092915050565b5f81519050919050565b7f4e487b71000000000000000000000000000000000000000000000000000000005f52602260045260245ffd5b5f600282049050600182168061035257607f821691505b6020821081036103655761036461030e565b5b50919050565b5f819050815f5260205f209050919050565b5f6020601f8301049050919050565b5f82821b905092915050565b5f600883026103c77fffffffffffffffffffffffffffffffffffffffffffffffffffffffffffffffff8261038c565b6103d1868361038c565b95508019841693508086168417925050509392505050565b5f819050919050565b5f819050919050565b5f61041561041061040b846103e9565b6103f2565b6103e9565b9050919050565b5f819050919050565b61042e836103fb565b61044261043a8261041c565b848454610398565b825550505050565b5f5f905090565b61045961044a565b610464818484610425565b505050565b5f5b8281101561048a5761047f5f828401610451565b60018101905061046b565b505050565b601f8211156104dd57828211156104dc576104a98161036b565b6104b28361037d565b6104bb8561037d565b60208610156104c8575f90505b8083016104d782840382610469565b505050505b5b505050565b5f82821c905092915050565b5f6104fd5f19846008026104e2565b1980831691505092915050565b5f61051583836104ee565b9150826002028217905092915050565b61052e82610304565b67ffffffffffffffff81111561054757610546610199565b5b610551825461033b565b61055c82828561048f565b5f60209050601f83116001811461058d575f841561057b578287015190505b610585858261050a565b8655506105ec565b601f19841661059b8661036b565b5f5b828110156105c25784890151825560018201915060208501945060208101905061059d565b868310156105df57848901516105db601f8916826104ee565b8355505b6001600288020188555050505b505050505050565b61275e806106015f395ff3fe608060405234801561000f575f5ffd5b506004361061011e575f3560e01c80636352211e116100ab578063a22cb4651161006f578063a22cb46514610304578063b88d4fde14610320578063c87b56dd1461033c578063e985e9c51461036c578063f2fde38b1461039c5761011e565b80636352211e1461024a5780636c0360eb1461027a57806370a08231146102985780638da5cb5b146102c857806395d89b41146102e65761011e565b8063095ea7b3116100f2578063095ea7b3146101be57806323b872dd146101da578063248b71fc146101f657806342842e0e1461021257806355f804b31461022e5761011e565b80629a9b7b1461012257806301ffc9a71461014057806306fdde0314610170578063081812fc1461018e575b5f5ffd5b61012a6103b8565b60405161013791906117b5565b60405180910390f35b61015a6004803603810190610155919061182b565b6103be565b6040516101679190611870565b60405180910390f35b61017861044f565b60405161018591906118f9565b60405180910390f35b6101a860048036038101906101a39190611943565b6104da565b6040516101b591906119ad565b60405180910390f35b6101d860048036038101906101d391906119f0565b61050a565b005b6101f460048036038101906101ef9190611a2e565b6106e7565b005b610210600480360381019061020b91906119f0565b610ace565b005b61022c60048036038101906102279190611a2e565b610bec565b005b61024860048036038101906102439190611adf565b610d20565b005b610264600480360381019061025f9190611943565b610dc5565b60405161027191906119ad565b60405180910390f35b610282610e6c565b60405161028f91906118f9565b60405180910390f35b6102b260048036038101906102ad9190611b2a565b610ef8565b6040516102bf91906117b5565b60405180910390f35b6102d0610fac565b6040516102dd91906119ad565b60405180910390f35b6102ee610fd1565b6040516102fb91906118f9565b60405180910390f35b61031e60048036038101906103199190611b7f565b61105d565b005b61033a60048036038101906103359190611c12565b611155565b005b61035660048036038101906103519190611943565b61128f565b60405161036391906118f9565b60405180910390f35b61038660048036038101906103819190611c96565b6112c3565b6040516103939190611870565b60405180910390f35b6103b660048036038101906103b19190611b2a565b6112ed565b005b60075481565b5f6301ffc9a760e01b827bffffffffffffffffffffffffffffffffffffffffffffffffffffffff1916148061041857506380ac58cd60e01b827bffffffffffffffffffffffffffffffffffffffffffffffffffffffff1916145b806104485750635b5e139f60e01b827bffffffffffffffffffffffffffffffffffffffffffffffffffffffff1916145b9050919050565b5f805461045b90611d01565b80601f016020809104026020016040519081016040528092919081815260200182805461048790611d01565b80156104d25780601f106104a9576101008083540402835291602001916104d2565b820191905f5260205f20905b8154815290600101906020018083116104b557829003601f168201915b505050505081565b6004602052805f5260405f205f915054906101000a900473ffffffffffffffffffffffffffffffffffffffff1681565b5f60025f8381526020019081526020015f205f9054906101000a900473ffffffffffffffffffffffffffffffffffffffff1690508073ffffffffffffffffffffffffffffffffffffffff163373ffffffffffffffffffffffffffffffffffffffff1614806105f9575060055f8273ffffffffffffffffffffffffffffffffffffffff1673ffffffffffffffffffffffffffffffffffffffff1681526020019081526020015f205f3373ffffffffffffffffffffffffffffffffffffffff1673ffffffffffffffffffffffffffffffffffffffff1681526020019081526020015f205f9054906101000a900460ff165b610638576040517f08c379a000000000000000000000000000000000000000000000000000000000815260040161062f90611d7b565b60405180910390fd5b8260045f8481526020019081526020015f205f6101000a81548173ffffffffffffffffffffffffffffffffffffffff021916908373ffffffffffffffffffffffffffffffffffffffff160217905550818373ffffffffffffffffffffffffffffffffffffffff168273ffffffffffffffffffffffffffffffffffffffff167f8c5be1e5ebec7d5bd14f71427d1e84f3dd0314c0f7b2291e5b200ac8c7c3b92560405160405180910390a4505050565b60025f8281526020019081526020015f205f9054906101000a900473ffffffffffffffffffffffffffffffffffffffff1673ffffffffffffffffffffffffffffffffffffffff168373ffffffffffffffffffffffffffffffffffffffff1614610785576040517f08c379a000000000000000000000000000000000000000000000000000000000815260040161077c90611de3565b60405180910390fd5b5f73ffffffffffffffffffffffffffffffffffffffff168273ffffffffffffffffffffffffffffffffffffffff16036107f3576040517f08c379a00000000000000000000000000000000000000000000000000000000081526004016107ea90611e4b565b60405180910390fd5b8273ffffffffffffffffffffffffffffffffffffffff163373ffffffffffffffffffffffffffffffffffffffff1614806108ae575060055f8473ffffffffffffffffffffffffffffffffffffffff1673ffffffffffffffffffffffffffffffffffffffff1681526020019081526020015f205f3373ffffffffffffffffffffffffffffffffffffffff1673ffffffffffffffffffffffffffffffffffffffff1681526020019081526020015f205f9054906101000a900460ff165b80610914575060045f8281526020019081526020015f205f9054906101000a900473ffffffffffffffffffffffffffffffffffffffff1673ffffffffffffffffffffffffffffffffffffffff163373ffffffffffffffffffffffffffffffffffffffff16145b610953576040517f08c379a000000000000000000000000000000000000000000000000000000000815260040161094a90611d7b565b60405180910390fd5b60035f8473ffffffffffffffffffffffffffffffffffffffff1673ffffffffffffffffffffffffffffffffffffffff1681526020019081526020015f205f81548092919060019003919050555060035f8373ffffffffffffffffffffffffffffffffffffffff1673ffffffffffffffffffffffffffffffffffffffff1681526020019081526020015f205f81548092919060010191905055508160025f8381526020019081526020015f205f6101000a81548173ffffffffffffffffffffffffffffffffffffffff021916908373ffffffffffffffffffffffffffffffffffffffff16021790555060045f8281526020019081526020015f205f6101000a81549073ffffffffffffffffffffffffffffffffffffffff0219169055808273ffffffffffffffffffffffffffffffffffffffff168473ffffffffffffffffffffffffffffffffffffffff167fddf252ad1be2c89b69c2b068fc378daa952ba7f163c4a11628f55a4df523b3ef60405160405180910390a4505050565b60065f9054906101000a900473ffffffffffffffffffffffffffffffffffffffff1673ffffffffffffffffffffffffffffffffffffffff163373ffffffffffffffffffffffffffffffffffffffff1614610b5d576040517f08c379a0000000000000000000000000000000000000000000000000000000008152600401610b5490611eb3565b60405180910390fd5b612710811115610b99576040517f0b7d62e200000000000000000000000000000000000000000000000000000000815260040160405180910390fd5b5f60075490505f5f90505b82811015610bce57610bc1848284610bbc9190611efe565b611419565b8080600101915050610ba4565b508160075f828254610be09190611efe565b92505081905550505050565b610bf78383836106e7565b5f8273ffffffffffffffffffffffffffffffffffffffff163b1480610cdc575063150b7a0260e01b7bffffffffffffffffffffffffffffffffffffffffffffffffffffffff19168273ffffffffffffffffffffffffffffffffffffffff1663150b7a023386856040518463ffffffff1660e01b8152600401610c7b93929190611f64565b6020604051808303815f875af1158015610c97573d5f5f3e3d5ffd5b505050506040513d601f19601f82011682018060405250810190610cbb9190611fc0565b7bffffffffffffffffffffffffffffffffffffffffffffffffffffffff1916145b610d1b576040517f08c379a0000000000000000000000000000000000000000000000000000000008152600401610d1290612035565b60405180910390fd5b505050565b60065f9054906101000a900473ffffffffffffffffffffffffffffffffffffffff1673ffffffffffffffffffffffffffffffffffffffff163373ffffffffffffffffffffffffffffffffffffffff1614610daf576040517f08c379a0000000000000000000000000000000000000000000000000000000008152600401610da690611eb3565b60405180910390fd5b818160089182610dc092919061223b565b505050565b5f5f73ffffffffffffffffffffffffffffffffffffffff1660025f8481526020019081526020015f205f9054906101000a900473ffffffffffffffffffffffffffffffffffffffff1691508173ffffffffffffffffffffffffffffffffffffffff1603610e67576040517f08c379a0000000000000000000000000000000000000000000000000000000008152600401610e5e90612352565b60405180910390fd5b919050565b60088054610e7990611d01565b80601f0160208091040260200160405190810160405280929190818152602001828054610ea590611d01565b8015610ef05780601f10610ec757610100808354040283529160200191610ef0565b820191905f5260205f20905b815481529060010190602001808311610ed357829003601f168201915b505050505081565b5f5f73ffffffffffffffffffffffffffffffffffffffff168273ffffffffffffffffffffffffffffffffffffffff1603610f67576040517f08c379a0000000000000000000000000000000000000000000000000000000008152600401610f5e906123ba565b60405180910390fd5b60035f8373ffffffffffffffffffffffffffffffffffffffff1673ffffffffffffffffffffffffffffffffffffffff1681526020019081526020015f20549050919050565b60065f9054906101000a900473ffffffffffffffffffffffffffffffffffffffff1681565b60018054610fde90611d01565b80601f016020809104026020016040519081016040528092919081815260200182805461100a90611d01565b80156110555780601f1061102c57610100808354040283529160200191611055565b820191905f5260205f20905b81548152906001019060200180831161103857829003601f168201915b505050505081565b8060055f3373ffffffffffffffffffffffffffffffffffffffff1673ffffffffffffffffffffffffffffffffffffffff1681526020019081526020015f205f8473ffffffffffffffffffffffffffffffffffffffff1673ffffffffffffffffffffffffffffffffffffffff1681526020019081526020015f205f6101000a81548160ff0219169083151502179055508173ffffffffffffffffffffffffffffffffffffffff163373ffffffffffffffffffffffffffffffffffffffff167f17307eab39ab6107e8899845ad3d59bd9653f200f220920489ca2b5937696c31836040516111499190611870565b60405180910390a35050565b6111608585856106e7565b5f8473ffffffffffffffffffffffffffffffffffffffff163b1480611249575063150b7a0260e01b7bffffffffffffffffffffffffffffffffffffffffffffffffffffffff19168473ffffffffffffffffffffffffffffffffffffffff1663150b7a0233888787876040518663ffffffff1660e01b81526004016111e8959493929190612412565b6020604051808303815f875af1158015611204573d5f5f3e3d5ffd5b505050506040513d601f19601f820116820180604052508101906112289190611fc0565b7bffffffffffffffffffffffffffffffffffffffffffffffffffffffff1916145b611288576040517f08c379a000000000000000000000000000000000000000000000000000000000815260040161127f90612035565b60405180910390fd5b5050505050565b6060600861129c8361161f565b6040516020016112ad929190612518565b6040516020818303038152906040529050919050565b6005602052815f5260405f20602052805f5260405f205f915091509054906101000a900460ff1681565b60065f9054906101000a900473ffffffffffffffffffffffffffffffffffffffff1673ffffffffffffffffffffffffffffffffffffffff163373ffffffffffffffffffffffffffffffffffffffff161461137c576040517f08c379a000000000000000000000000000000000000000000000000000000000815260040161137390611eb3565b60405180910390fd5b8060065f6101000a81548173ffffffffffffffffffffffffffffffffffffffff021916908373ffffffffffffffffffffffffffffffffffffffff1602179055508073ffffffffffffffffffffffffffffffffffffffff163373ffffffffffffffffffffffffffffffffffffffff167f8be0079c531659141344cd1fd0a4f28419497f9722a3daafe3b4186f6b6457e060405160405180910390a350565b5f73ffffffffffffffffffffffffffffffffffffffff168273ffffffffffffffffffffffffffffffffffffffff1603611487576040517f08c379a000000000000000000000000000000000000000000000000000000000815260040161147e90611e4b565b60405180910390fd5b5f73ffffffffffffffffffffffffffffffffffffffff1660025f8381526020019081526020015f205f9054906101000a900473ffffffffffffffffffffffffffffffffffffffff1673ffffffffffffffffffffffffffffffffffffffff1614611525576040517f08c379a000000000000000000000000000000000000000000000000000000000815260040161151c90612585565b60405180910390fd5b60035f8373ffffffffffffffffffffffffffffffffffffffff1673ffffffffffffffffffffffffffffffffffffffff1681526020019081526020015f205f81548092919060010191905055508160025f8381526020019081526020015f205f6101000a81548173ffffffffffffffffffffffffffffffffffffffff021916908373ffffffffffffffffffffffffffffffffffffffff160217905550808273ffffffffffffffffffffffffffffffffffffffff165f73ffffffffffffffffffffffffffffffffffffffff167fddf252ad1be2c89b69c2b068fc378daa952ba7f163c4a11628f55a4df523b3ef60405160405180910390a45050565b60605f8203611665576040518060400160405280600181526020017f30000000000000000000000000000000000000000000000000000000000000008152509050611798565b5f8290505f5b5f821461169457808061167d906125a3565b915050600a8261168d9190612617565b915061166b565b5f8167ffffffffffffffff8111156116af576116ae61205d565b5b6040519080825280601f01601f1916602001820160405280156116e15781602001600182028036833780820191505090505b5090505f8290505b5f8614611790576001816116fd9190612647565b90505f600a808861170e9190612617565b611718919061267a565b876117239190612647565b603061172f91906126c7565b90505f8160f81b90508084848151811061174c5761174b6126fb565b5b60200101907effffffffffffffffffffffffffffffffffffffffffffffffffffffffffffff191690815f1a905350600a886117879190612617565b975050506116e9565b819450505050505b919050565b5f819050919050565b6117af8161179d565b82525050565b5f6020820190506117c85f8301846117a6565b92915050565b5f5ffd5b5f5ffd5b5f7fffffffff0000000000000000000000000000000000000000000000000000000082169050919050565b61180a816117d6565b8114611814575f5ffd5b50565b5f8135905061182581611801565b92915050565b5f602082840312156118405761183f6117ce565b5b5f61184d84828501611817565b91505092915050565b5f8115159050919050565b61186a81611856565b82525050565b5f6020820190506118835f830184611861565b92915050565b5f81519050919050565b5f82825260208201905092915050565b8281835e5f83830152505050565b5f601f19601f8301169050919050565b5f6118cb82611889565b6118d58185611893565b93506118e58185602086016118a3565b6118ee816118b1565b840191505092915050565b5f6020820190508181035f83015261191181846118c1565b905092915050565b6119228161179d565b811461192c575f5ffd5b50565b5f8135905061193d81611919565b92915050565b5f60208284031215611958576119576117ce565b5b5f6119658482850161192f565b91505092915050565b5f73ffffffffffffffffffffffffffffffffffffffff82169050919050565b5f6119978261196e565b9050919050565b6119a78161198d565b82525050565b5f6020820190506119c05f83018461199e565b92915050565b6119cf8161198d565b81146119d9575f5ffd5b50565b5f813590506119ea816119c6565b92915050565b5f5f60408385031215611a0657611a056117ce565b5b5f611a13858286016119dc565b9250506020611a248582860161192f565b9150509250929050565b5f5f5f60608486031215611a4557611a446117ce565b5b5f611a52868287016119dc565b9350506020611a63868287016119dc565b9250506040611a748682870161192f565b9150509250925092565b5f5ffd5b5f5ffd5b5f5ffd5b5f5f83601f840112611a9f57611a9e611a7e565b5b8235905067ffffffffffffffff811115611abc57611abb611a82565b5b602083019150836001820283011115611ad857611ad7611a86565b5b9250929050565b5f5f60208385031215611af557611af46117ce565b5b5f83013567ffffffffffffffff811115611b1257611b116117d2565b5b611b1e85828601611a8a565b92509250509250929050565b5f60208284031215611b3f57611b3e6117ce565b5b5f611b4c848285016119dc565b91505092915050565b611b5e81611856565b8114611b68575f5ffd5b50565b5f81359050611b7981611b55565b92915050565b5f5f60408385031215611b9557611b946117ce565b5b5f611ba2858286016119dc565b9250506020611bb385828601611b6b565b9150509250929050565b5f5f83601f840112611bd257611bd1611a7e565b5b8235905067ffffffffffffffff811115611bef57611bee611a82565b5b602083019150836001820283011115611c0b57611c0a611a86565b5b9250929050565b5f5f5f5f5f60808688031215611c2b57611c2a6117ce565b5b5f611c38888289016119dc565b9550506020611c49888289016119dc565b9450506040611c5a8882890161192f565b935050606086013567ffffffffffffffff811115611c7b57611c7a6117d2565b5b611c8788828901611bbd565b92509250509295509295909350565b5f5f60408385031215611cac57611cab6117ce565b5b5f611cb9858286016119dc565b9250506020611cca858286016119dc565b9150509250929050565b7f4e487b71000000000000000000000000000000000000000000000000000000005f52602260045260245ffd5b5f6002820490506001821680611d1857607f821691505b602082108103611d2b57611d2a611cd4565b5b50919050565b7f4e4f545f415554484f52495a45440000000000000000000000000000000000005f82015250565b5f611d65600e83611893565b9150611d7082611d31565b602082019050919050565b5f6020820190508181035f830152611d9281611d59565b9050919050565b7f57524f4e475f46524f4d000000000000000000000000000000000000000000005f82015250565b5f611dcd600a83611893565b9150611dd882611d99565b602082019050919050565b5f6020820190508181035f830152611dfa81611dc1565b9050919050565b7f494e56414c49445f524543495049454e540000000000000000000000000000005f82015250565b5f611e35601183611893565b9150611e4082611e01565b602082019050919050565b5f6020820190508181035f830152611e6281611e29565b9050919050565b7f554e415554484f52495a454400000000000000000000000000000000000000005f82015250565b5f611e9d600c83611893565b9150611ea882611e69565b602082019050919050565b5f6020820190508181035f830152611eca81611e91565b9050919050565b7f4e487b71000000000000000000000000000000000000000000000000000000005f52601160045260245ffd5b5f611f088261179d565b9150611f138361179d565b9250828201905080821115611f2b57611f2a611ed1565b5b92915050565b5f82825260208201905092915050565b50565b5f611f4f5f83611f31565b9150611f5a82611f41565b5f82019050919050565b5f608082019050611f775f83018661199e565b611f84602083018561199e565b611f9160408301846117a6565b8181036060830152611fa281611f44565b9050949350505050565b5f81519050611fba81611801565b92915050565b5f60208284031215611fd557611fd46117ce565b5b5f611fe284828501611fac565b91505092915050565b7f554e534146455f524543495049454e54000000000000000000000000000000005f82015250565b5f61201f601083611893565b915061202a82611feb565b602082019050919050565b5f6020820190508181035f83015261204c81612013565b9050919050565b5f82905092915050565b7f4e487b71000000000000000000000000000000000000000000000000000000005f52604160045260245ffd5b5f819050815f5260205f209050919050565b5f6020601f8301049050919050565b5f82821b905092915050565b5f600883026120e67fffffffffffffffffffffffffffffffffffffffffffffffffffffffffffffffff826120ab565b6120f086836120ab565b95508019841693508086168417925050509392505050565b5f819050919050565b5f61212b6121266121218461179d565b612108565b61179d565b9050919050565b5f819050919050565b61214483612111565b61215861215082612132565b8484546120b7565b825550505050565b5f5f905090565b61216f612160565b61217a81848461213b565b505050565b5f5b828110156121a0576121955f828401612167565b600181019050612181565b505050565b601f8211156121f357828211156121f2576121bf8161208a565b6121c88361209c565b6121d18561209c565b60208610156121de575f90505b8083016121ed8284038261217f565b505050505b5b505050565b5f82821c905092915050565b5f6122135f19846008026121f8565b1980831691505092915050565b5f61222b8383612204565b9150826002028217905092915050565b6122458383612053565b67ffffffffffffffff81111561225e5761225d61205d565b5b6122688254611d01565b6122738282856121a5565b5f601f8311600181146122a0575f841561228e578287013590505b6122988582612220565b8655506122ff565b601f1984166122ae8661208a565b5f5b828110156122d5578489013582556001820191506020850194506020810190506122b0565b868310156122f257848901356122ee601f891682612204565b8355505b6001600288020188555050505b50505050505050565b7f4e4f545f4d494e544544000000000000000000000000000000000000000000005f82015250565b5f61233c600a83611893565b915061234782612308565b602082019050919050565b5f6020820190508181035f83015261236981612330565b9050919050565b7f5a45524f5f4144445245535300000000000000000000000000000000000000005f82015250565b5f6123a4600c83611893565b91506123af82612370565b602082019050919050565b5f6020820190508181035f8301526123d181612398565b9050919050565b828183375f83830152505050565b5f6123f18385611f31565b93506123fe8385846123d8565b612407836118b1565b840190509392505050565b5f6080820190506124255f83018861199e565b612432602083018761199e565b61243f60408301866117a6565b81810360608301526124528184866123e6565b90509695505050505050565b5f81905092915050565b5f815461247481611d01565b61247e818661245e565b9450600182165f811461249857600181146124ad576124df565b60ff19831686528115158202860193506124df565b6124b68561208a565b5f5b838110156124d7578154818901526001820191506020810190506124b8565b838801955050505b50505092915050565b5f6124f282611889565b6124fc818561245e565b935061250c8185602086016118a3565b80840191505092915050565b5f6125238285612468565b915061252f82846124e8565b91508190509392505050565b7f414c52454144595f4d494e5445440000000000000000000000000000000000005f82015250565b5f61256f600e83611893565b915061257a8261253b565b602082019050919050565b5f6020820190508181035f83015261259c81612563565b9050919050565b5f6125ad8261179d565b91507fffffffffffffffffffffffffffffffffffffffffffffffffffffffffffffffff82036125df576125de611ed1565b5b600182019050919050565b7f4e487b71000000000000000000000000000000000000000000000000000000005f52601260045260245ffd5b5f6126218261179d565b915061262c8361179d565b92508261263c5761263b6125ea565b5b828204905092915050565b5f6126518261179d565b915061265c8361179d565b925082820390508181111561267457612673611ed1565b5b92915050565b5f6126848261179d565b915061268f8361179d565b925082820261269d8161179d565b915082820484148315176126b4576126b3611ed1565b5b5092915050565b5f60ff82169050919050565b5f6126d1826126bb565b91506126dc836126bb565b9250828201905060ff8111156126f5576126f4611ed1565b5b92915050565b7f4e487b71000000000000000000000000000000000000000000000000000000005f52603260045260245ffdfea2646970667358221220f1ec860792ec4ff0b79070fe1b7feb396595c13b3492f8d20d56903c165451c964736f6c63430008210033","linkReferences":{}},"methodIdentifiers":{"approve(address,uint256)":"095ea7b3","balanceOf(address)":"70a08231","baseURI()":"6c0360eb","currentTokenId()":"009a9b7b","getApproved(uint256)":"081812fc","isApprovedForAll(address,address)":"e985e9c5","mintBatch(address,uint256)":"248b71fc","name()":"06fdde03","owner()":"8da5cb5b","ownerOf(uint256)":"6352211e","safeTransferFrom(address,address,uint256)":"42842e0e","safeTransferFrom(address,address,uint256,bytes)":"b88d4fde","setApprovalForAll(address,bool)":"a22cb465","setBaseURI(string)":"55f804b3","supportsInterface(bytes4)":"01ffc9a7","symbol()":"95d89b41","tokenURI(uint256)":"c87b56dd","transferFrom(address,address,uint256)":"23b872dd","transferOwnership(address)":"f2fde38b"},"id":21}