{"abi":[{"type":"constructor","inputs":[],"stateMutability":"nonpayable"},{"type":"function","name":"complexOperation","inputs":[{"name":"x","type":"uint256","internalType":"uint256"},{"name":"y","type":"uint256","internalType":"uint256"},{"name":"z","type":"uint256","internalType":"uint256"}],"outputs":[],"stateMutability":"nonpayable"},{"type":"function","name":"hasExploded","inputs":[],"outputs":[{"name":"","type":"bool","internalType":"bool"}],"stateMutability":"view"},{"type":"function","name":"lockedValue","inputs":[],"outputs":[{"name":"","type":"uint256","internalType":"uint256"}],"stateMutability":"view"}],"bytecode":{"object":"0x6080604052348015600e575f5ffd5b506103e85f819055505f60015f6101000a81548160ff0219169083151502179055506102108061003d5f395ff3fe608060405234801561000f575f5ffd5b506004361061003f575f3560e01c80635407dc641461004357806396d57cd714610061578063d2c469321461007d575b5f5ffd5b61004b61009b565b6040516100589190610112565b60405180910390f35b61007b60048036038101906100769190610162565b6100ad565b005b6100856100f3565b60405161009291906101c1565b60405180910390f35b60015f9054906101000a900460ff1681565b6305525b8f8183850201036100ee576103e8831080156100ce575061c35082115b156100ed576001805f6101000a81548160ff0219169083151502179055505b5b505050565b5f5481565b5f8115159050919050565b61010c816100f8565b82525050565b5f6020820190506101255f830184610103565b92915050565b5f5ffd5b5f819050919050565b6101418161012f565b811461014b575f5ffd5b50565b5f8135905061015c81610138565b92915050565b5f5f5f606084860312156101795761017861012b565b5b5f6101868682870161014e565b93505060206101978682870161014e565b92505060406101a88682870161014e565b9150509250925092565b6101bb8161012f565b82525050565b5f6020820190506101d45f8301846101b2565b9291505056fea2646970667358221220389557f99617ec082aac98a6cfd48aaa9b4a961e5dedc7d10a833eba28bfde7064736f6c63430008210033","linkReferences":{}},"methodIdentifiers":{"complexOperation(uint256,uint256,uint256)":"96d57cd7","hasExploded()":"5407dc64","lockedValue()":"d2c46932"},"id":20}