{"abi":[{"type":"constructor","inputs":[{"name":"name","type":"string","internalType":"string"},{"name":"symbol","type":"string","internalType":"string"},{"name":"_decimals","type":"uint8","internalType":"uint8"},{"name":"owner","type":"address","internalType":"address"}],"stateMutability":"nonpayable"},{"type":"function","name":"DOMAIN_SEPARATOR","inputs":[],"outputs":[{"name":"","type":"bytes32","internalType":"bytes32"}],"stateMutability":"view"},{"type":"function","name":"allowance","inputs":[{"name":"owner","type":"address","internalType":"address"},{"name":"spender","type":"address","internalType":"address"}],"outputs":[{"name":"","type":"uint256","internalType":"uint256"}],"stateMutability":"view"},{"type":"function","name":"approve","inputs":[{"name":"spender","type":"address","internalType":"address"},{"name":"amount","type":"uint256","internalType":"uint256"}],"outputs":[{"name":"","type":"bool","internalType":"bool"}],"stateMutability":"nonpayable"},{"type":"function","name":"balanceOf","inputs":[{"name":"account","type":"address","internalType":"address"}],"outputs":[{"name":"","type":"uint256","internalType":"uint256"}],"stateMutability":"view"},{"type":"function","name":"decimals","inputs":[],"outputs":[{"name":"","type":"uint8","internalType":"uint8"}],"stateMutability":"view"},{"type":"function","name":"decreaseAllowance","inputs":[{"name":"spender","type":"address","internalType":"address"},{"name":"subtractedValue","type":"uint256","internalType":"uint256"}],"outputs":[{"name":"","type":"bool","internalType":"bool"}],"stateMutability":"nonpayable"},{"type":"function","name":"eip712Domain","inputs":[],"outputs":[{"name":"fields","type":"bytes1","internalType":"bytes1"},{"name":"name","type":"string","internalType":"string"},{"name":"version","type":"string","internalType":"string"},{"name":"chainId","type":"uint256","internalType":"uint256"},{"name":"verifyingContract","type":"address","internalType":"address"},{"name":"salt","type":"bytes32","internalType":"bytes32"},{"name":"extensions","type":"uint256[]","internalType":"uint256[]"}],"stateMutability":"view"},{"type":"function","name":"increaseAllowance","inputs":[{"name":"spender","type":"address","internalType":"address"},{"name":"addedValue","type":"uint256","internalType":"uint256"}],"outputs":[{"name":"","type":"bool","internalType":"bool"}],"stateMutability":"nonpayable"},{"type":"function","name":"mint","inputs":[{"name":"amount","type":"uint256","internalType":"uint256"},{"name":"receiver","type":"address","internalType":"address"}],"outputs":[],"stateMutability":"nonpayable"},{"type":"function","name":"mint","inputs":[{"name":"amount","type":"uint256","internalType":"uint256"}],"outputs":[],"stateMutability":"nonpayable"},{"type":"function","name":"name","inputs":[],"outputs":[{"name":"","type":"string","internalType":"string"}],"stateMutability":"view"},{"type":"function","name":"nonces","inputs":[{"name":"owner","type":"address","internalType":"address"}],"outputs":[{"name":"","type":"uint256","internalType":"uint256"}],"stateMutability":"view"},{"type":"function","name":"permit","inputs":[{"name":"owner","type":"address","internalType":"address"},{"name":"spender","type":"address","internalType":"address"},{"name":"value","type":"uint256","internalType":"uint256"},{"name":"deadline","type":"uint256","internalType":"uint256"},{"name":"v","type":"uint8","internalType":"uint8"},{"name":"r","type":"bytes32","internalType":"bytes32"},{"name":"s","type":"bytes32","internalType":"bytes32"}],"outputs":[],"stateMutability":"nonpayable"},{"type":"function","name":"symbol","inputs":[],"outputs":[{"name":"","type":"string","internalType":"string"}],"stateMutability":"view"},{"type":"function","name":"totalSupply","inputs":[],"outputs":[{"name":"","type":"uint256","internalType":"uint256"}],"stateMutability":"view"},{"type":"function","name":"transfer","inputs":[{"name":"to","type":"address","internalType":"address"},{"name":"amount","type":"uint256","internalType":"uint256"}],"outputs":[{"name":"","type":"bool","internalType":"bool"}],"stateMutability":"nonpayable"},{"type":"function","name":"transferFrom","inputs":[{"name":"from","type":"address","internalType":"address"},{"name":"to","type":"address","internalType":"address"},{"name":"amount","type":"uint256","internalType":"uint256"}],"outputs":[{"name":"","type":"bool","internalType":"bool"}],"stateMutability":"nonpayable"},{"type":"event","name":"Approval","inputs":[{"name":"owner","type":"address","indexed":true,"internalType":"address"},{"name":"spender","type":"address","indexed":true,"internalType":"address"},{"name":"value","type":"uint256","indexed":false,"internalType":"uint256"}],"anonymous":false},{"type":"event","name":"EIP712DomainChanged","inputs":[],"anonymous":false},{"type":"event","name":"Transfer","inputs":[{"name":"from","type":"address","indexed":true,"internalType":"address"},{"name":"to","type":"address","indexed":true,"internalType":"address"},{"name":"value","type":"uint256","indexed":false,"internalType":"uint256"}],"anonymous":false},{"type":"error","name":"InvalidShortString","inputs":[]},{"type":"error","name":"StringTooLong","inputs":[{"name":"str","type":"string","internalType":"string"}]}],"bytecode":{"object":"0x6101606040523480156200001257600080fd5b50604051620034ea380380620034ea8339818101604052810190620000389190620006ea565b83806040518060400160405280600181526020017f310000000000000000000000000000000000000000000000000000000000000081525086868160039081620000839190620009e5565b508060049081620000959190620009e5565b505050620000ae6005836200021160201b90919060201c565b6101208181525050620000cc6006826200021160201b90919060201c565b6101408181525050818051906020012060e08181525050808051906020012061010081815250504660a081815250506200010b6200026960201b60201c565b608081815250503073ffffffffffffffffffffffffffffffffffffffff1660c08173ffffffffffffffffffffffffffffffffffffffff168152505050505081600960006101000a81548160ff021916908360ff160217905550600073ffffffffffffffffffffffffffffffffffffffff168173ffffffffffffffffffffffffffffffffffffffff1603620001d6576040517f08c379a0000000000000000000000000000000000000000000000000000000008152600401620001cd9062000b2d565b60405180910390fd5b620002078183600a620001ea919062000cd2565b6305f5e100620001fb919062000d23565b620002c660201b60201c565b5050505062000fd9565b600060208351101562000237576200022f836200043360201b60201c565b905062000263565b826200024983620004a060201b60201c565b60000190816200025a9190620009e5565b5060ff60001b90505b92915050565b60007f8b73c3c69bb8fe3d512ecc4cf759cc79239f7b179b0ffacaa9a75d522b39400f60e051610100514630604051602001620002ab95949392919062000dab565b60405160208183030381529060405280519060200120905090565b600073ffffffffffffffffffffffffffffffffffffffff168273ffffffffffffffffffffffffffffffffffffffff160362000338576040517f08c379a00000000000000000000000000000000000000000000000000000000081526004016200032f9062000e58565b60405180910390fd5b6200034c60008383620004aa60201b60201c565b806002600082825462000360919062000e7a565b92505081905550806000808473ffffffffffffffffffffffffffffffffffffffff1673ffffffffffffffffffffffffffffffffffffffff168152602001908152602001600020600082825401925050819055508173ffffffffffffffffffffffffffffffffffffffff16600073ffffffffffffffffffffffffffffffffffffffff167fddf252ad1be2c89b69c2b068fc378daa952ba7f163c4a11628f55a4df523b3ef8360405162000413919062000eb5565b60405180910390a36200042f60008383620004af60201b60201c565b5050565b600080829050601f815111156200048357826040517f305a27a90000000000000000000000000000000000000000000000000000000081526004016200047a919062000f13565b60405180910390fd5b805181620004919062000f69565b60001c1760001b915050919050565b6000819050919050565b505050565b505050565b6000604051905090565b600080fd5b600080fd5b600080fd5b600080fd5b6000601f19601f8301169050919050565b7f4e487b7100000000000000000000000000000000000000000000000000000000600052604160045260246000fd5b6200051d82620004d2565b810181811067ffffffffffffffff821117156200053f576200053e620004e3565b5b80604052505050565b600062000554620004b4565b905062000562828262000512565b919050565b600067ffffffffffffffff821115620005855762000584620004e3565b5b6200059082620004d2565b9050602081019050919050565b60005b83811015620005bd578082015181840152602081019050620005a0565b60008484015250505050565b6000620005e0620005da8462000567565b62000548565b905082815260208101848484011115620005ff57620005fe620004cd565b5b6200060c8482856200059d565b509392505050565b600082601f8301126200062c576200062b620004c8565b5b81516200063e848260208601620005c9565b91505092915050565b600060ff82169050919050565b6200065f8162000647565b81146200066b57600080fd5b50565b6000815190506200067f8162000654565b92915050565b600073ffffffffffffffffffffffffffffffffffffffff82169050919050565b6000620006b28262000685565b9050919050565b620006c481620006a5565b8114620006d057600080fd5b50565b600081519050620006e481620006b9565b92915050565b60008060008060808587031215620007075762000706620004be565b5b600085015167ffffffffffffffff811115620007285762000727620004c3565b5b620007368782880162000614565b945050602085015167ffffffffffffffff8111156200075a5762000759620004c3565b5b620007688782880162000614565b93505060406200077b878288016200066e565b92505060606200078e87828801620006d3565b91505092959194509250565b600081519050919050565b7f4e487b7100000000000000000000000000000000000000000000000000000000600052602260045260246000fd5b60006002820490506001821680620007ed57607f821691505b602082108103620008035762000802620007a5565b5b50919050565b60008190508160005260206000209050919050565b60006020601f8301049050919050565b600082821b905092915050565b6000600883026200086d7fffffffffffffffffffffffffffffffffffffffffffffffffffffffffffffffff826200082e565b6200087986836200082e565b95508019841693508086168417925050509392505050565b6000819050919050565b6000819050919050565b6000620008c6620008c0620008ba8462000891565b6200089b565b62000891565b9050919050565b6000819050919050565b620008e283620008a5565b620008fa620008f182620008cd565b8484546200083b565b825550505050565b600090565b6200091162000902565b6200091e818484620008d7565b505050565b5b8181101562000946576200093a60008262000907565b60018101905062000924565b5050565b601f82111562000995576200095f8162000809565b6200096a846200081e565b810160208510156200097a578190505b6200099262000989856200081e565b83018262000923565b50505b505050565b600082821c905092915050565b6000620009ba600019846008026200099a565b1980831691505092915050565b6000620009d58383620009a7565b9150826002028217905092915050565b620009f0826200079a565b67ffffffffffffffff81111562000a0c5762000a0b620004e3565b5b62000a188254620007d4565b62000a258282856200094a565b600060209050601f83116001811462000a5d576000841562000a48578287015190505b62000a548582620009c7565b86555062000ac4565b601f19841662000a6d8662000809565b60005b8281101562000a975784890151825560018201915060208501945060208101905062000a70565b8683101562000ab7578489015162000ab3601f891682620009a7565b8355505b6001600288020188555050505b505050505050565b600082825260208201905092915050565b7f5a65726f2061646472657373206e6f742076616c696400000000000000000000600082015250565b600062000b1560168362000acc565b915062000b228262000add565b602082019050919050565b6000602082019050818103600083015262000b488162000b06565b9050919050565b7f4e487b7100000000000000000000000000000000000000000000000000000000600052601160045260246000fd5b60008160011c9050919050565b6000808291508390505b600185111562000bdd5780860481111562000bb55762000bb462000b4f565b5b600185161562000bc55780820291505b808102905062000bd58562000b7e565b945062000b95565b94509492505050565b60008262000bf8576001905062000ccb565b8162000c08576000905062000ccb565b816001811462000c21576002811462000c2c5762000c62565b600191505062000ccb565b60ff84111562000c415762000c4062000b4f565b5b8360020a91508482111562000c5b5762000c5a62000b4f565b5b5062000ccb565b5060208310610133831016604e8410600b841016171562000c9c5782820a90508381111562000c965762000c9562000b4f565b5b62000ccb565b62000cab848484600162000b8b565b9250905081840481111562000cc55762000cc462000b4f565b5b81810290505b9392505050565b600062000cdf8262000891565b915062000cec8362000647565b925062000d1b7fffffffffffffffffffffffffffffffffffffffffffffffffffffffffffffffff848462000be6565b905092915050565b600062000d308262000891565b915062000d3d8362000891565b925082820262000d4d8162000891565b9150828204841483151762000d675762000d6662000b4f565b5b5092915050565b6000819050919050565b62000d838162000d6e565b82525050565b62000d948162000891565b82525050565b62000da581620006a5565b82525050565b600060a08201905062000dc2600083018862000d78565b62000dd1602083018762000d78565b62000de0604083018662000d78565b62000def606083018562000d89565b62000dfe608083018462000d9a565b9695505050505050565b7f45524332303a206d696e7420746f20746865207a65726f206164647265737300600082015250565b600062000e40601f8362000acc565b915062000e4d8262000e08565b602082019050919050565b6000602082019050818103600083015262000e738162000e31565b9050919050565b600062000e878262000891565b915062000e948362000891565b925082820190508082111562000eaf5762000eae62000b4f565b5b92915050565b600060208201905062000ecc600083018462000d89565b92915050565b600062000edf826200079a565b62000eeb818562000acc565b935062000efd8185602086016200059d565b62000f0881620004d2565b840191505092915050565b6000602082019050818103600083015262000f2f818462000ed2565b905092915050565b600081519050919050565b6000819050602082019050919050565b600062000f60825162000d6e565b80915050919050565b600062000f768262000f37565b8262000f828462000f42565b905062000f8f8162000f52565b9250602082101562000fd25762000fcd7fffffffffffffffffffffffffffffffffffffffffffffffffffffffffffffffff836020036008026200082e565b831692505b5050919050565b60805160a05160c05160e0516101005161012051610140516124b66200103460003960006105c801526000610594015260006112240152600061120301526000610e6a01526000610ec001526000610ee901526124b66000f3fe608060405234801561001057600080fd5b506004361061010b5760003560e01c80637ecebe00116100a2578063a0712d6811610071578063a0712d68146102d6578063a457c2d7146102f2578063a9059cbb14610322578063d505accf14610352578063dd62ed3e1461036e5761010b565b80637ecebe001461024857806384b0196e1461027857806394bf804d1461029c57806395d89b41146102b85761010b565b8063313ce567116100de578063313ce567146101ac5780633644e515146101ca57806339509351146101e857806370a08231146102185761010b565b806306fdde0314610110578063095ea7b31461012e57806318160ddd1461015e57806323b872dd1461017c575b600080fd5b61011861039e565b6040516101259190611667565b60405180910390f35b61014860048036038101906101439190611722565b610430565b604051610155919061177d565b60405180910390f35b610166610453565b60405161017391906117a7565b60405180910390f35b610196600480360381019061019191906117c2565b61045d565b6040516101a3919061177d565b60405180910390f35b6101b461048c565b6040516101c19190611831565b60405180910390f35b6101d26104a3565b6040516101df9190611865565b60405180910390f35b61020260048036038101906101fd9190611722565b6104b2565b60405161020f919061177d565b60405180910390f35b610232600480360381019061022d9190611880565b6104e9565b60405161023f91906117a7565b60405180910390f35b610262600480360381019061025d9190611880565b610531565b60405161026f91906117a7565b60405180910390f35b610280610581565b60405161029397969594939291906119b5565b60405180910390f35b6102b660048036038101906102b19190611a39565b610683565b005b6102c0610691565b6040516102cd9190611667565b60405180910390f35b6102f060048036038101906102eb9190611a79565b610723565b005b61030c60048036038101906103079190611722565b610730565b604051610319919061177d565b60405180910390f35b61033c60048036038101906103379190611722565b6107a7565b604051610349919061177d565b60405180910390f35b61036c60048036038101906103679190611afe565b6107ca565b005b61038860048036038101906103839190611ba0565b61090c565b60405161039591906117a7565b60405180910390f35b6060600380546103ad90611c0f565b80601f01602080910402602001604051908101604052809291908181526020018280546103d990611c0f565b80156104265780601f106103fb57610100808354040283529160200191610426565b820191906000526020600020905b81548152906001019060200180831161040957829003601f168201915b5050505050905090565b60008061043b610993565b905061044881858561099b565b600191505092915050565b6000600254905090565b600080610468610993565b9050610475858285610b64565b610480858585610bf0565b60019150509392505050565b6000600960009054906101000a900460ff16905090565b60006104ad610e66565b905090565b6000806104bd610993565b90506104de8185856104cf858961090c565b6104d99190611c6f565b61099b565b600191505092915050565b60008060008373ffffffffffffffffffffffffffffffffffffffff1673ffffffffffffffffffffffffffffffffffffffff168152602001908152602001600020549050919050565b600061057a600760008473ffffffffffffffffffffffffffffffffffffffff1673ffffffffffffffffffffffffffffffffffffffff168152602001908152602001600020610f1d565b9050919050565b6000606080600080600060606105c160057f0000000000000000000000000000000000000000000000000000000000000000610f2b90919063ffffffff16565b6105f560067f0000000000000000000000000000000000000000000000000000000000000000610f2b90919063ffffffff16565b46306000801b600067ffffffffffffffff81111561061657610615611ca3565b5b6040519080825280602002602001820160405280156106445781602001602082028036833780820191505090505b507f0f00000000000000000000000000000000000000000000000000000000000000959493929190965096509650965096509650965090919293949596565b61068d8183610fdb565b5050565b6060600480546106a090611c0f565b80601f01602080910402602001604051908101604052809291908181526020018280546106cc90611c0f565b80156107195780601f106106ee57610100808354040283529160200191610719565b820191906000526020600020905b8154815290600101906020018083116106fc57829003601f168201915b5050505050905090565b61072d3382610fdb565b50565b60008061073b610993565b90506000610749828661090c565b90508381101561078e576040517f08c379a000000000000000000000000000000000000000000000000000000000815260040161078590611d44565b60405180910390fd5b61079b828686840361099b565b60019250505092915050565b6000806107b2610993565b90506107bf818585610bf0565b600191505092915050565b8342111561080d576040517f08c379a000000000000000000000000000000000000000000000000000000000815260040161080490611db0565b60405180910390fd5b60007f6e71edae12b1b97f4d1f60370fef10105fa2faae0126114a169c64845d6126c988888861083c8c611131565b8960405160200161085296959493929190611dd0565b60405160208183030381529060405280519060200120905060006108758261118f565b90506000610885828787876111a9565b90508973ffffffffffffffffffffffffffffffffffffffff168173ffffffffffffffffffffffffffffffffffffffff16146108f5576040517f08c379a00000000000000000000000000000000000000000000000000000000081526004016108ec90611e7d565b60405180910390fd5b6109008a8a8a61099b565b50505050505050505050565b6000600160008473ffffffffffffffffffffffffffffffffffffffff1673ffffffffffffffffffffffffffffffffffffffff16815260200190815260200160002060008373ffffffffffffffffffffffffffffffffffffffff1673ffffffffffffffffffffffffffffffffffffffff16815260200190815260200160002054905092915050565b600033905090565b600073ffffffffffffffffffffffffffffffffffffffff168373ffffffffffffffffffffffffffffffffffffffff1603610a0a576040517f08c379a0000000000000000000000000000000000000000000000000000000008152600401610a0190611f0f565b60405180910390fd5b600073ffffffffffffffffffffffffffffffffffffffff168273ffffffffffffffffffffffffffffffffffffffff1603610a79576040517f08c379a0000000000000000000000000000000000000000000000000000000008152600401610a7090611fa1565b60405180910390fd5b80600160008573ffffffffffffffffffffffffffffffffffffffff1673ffffffffffffffffffffffffffffffffffffffff16815260200190815260200160002060008473ffffffffffffffffffffffffffffffffffffffff1673ffffffffffffffffffffffffffffffffffffffff168152602001908152602001600020819055508173ffffffffffffffffffffffffffffffffffffffff168373ffffffffffffffffffffffffffffffffffffffff167f8c5be1e5ebec7d5bd14f71427d1e84f3dd0314c0f7b2291e5b200ac8c7c3b92583604051610b5791906117a7565b60405180910390a3505050565b6000610b70848461090c565b90507fffffffffffffffffffffffffffffffffffffffffffffffffffffffffffffffff8114610bea5781811015610bdc576040517f08c379a0000000000000000000000000000000000000000000000000000000008152600401610bd39061200d565b60405180910390fd5b610be9848484840361099b565b5b50505050565b600073ffffffffffffffffffffffffffffffffffffffff168373ffffffffffffffffffffffffffffffffffffffff1603610c5f576040517f08c379a0000000000000000000000000000000000000000000000000000000008152600401610c569061209f565b60405180910390fd5b600073ffffffffffffffffffffffffffffffffffffffff168273ffffffffffffffffffffffffffffffffffffffff1603610cce576040517f08c379a0000000000000000000000000000000000000000000000000000000008152600401610cc590612131565b60405180910390fd5b610cd98383836111d4565b60008060008573ffffffffffffffffffffffffffffffffffffffff1673ffffffffffffffffffffffffffffffffffffffff16815260200190815260200160002054905081811015610d5f576040517f08c379a0000000000000000000000000000000000000000000000000000000008152600401610d56906121c3565b60405180910390fd5b8181036000808673ffffffffffffffffffffffffffffffffffffffff1673ffffffffffffffffffffffffffffffffffffffff16815260200190815260200160002081905550816000808573ffffffffffffffffffffffffffffffffffffffff1673ffffffffffffffffffffffffffffffffffffffff168152602001908152602001600020600082825401925050819055508273ffffffffffffffffffffffffffffffffffffffff168473ffffffffffffffffffffffffffffffffffffffff167fddf252ad1be2c89b69c2b068fc378daa952ba7f163c4a11628f55a4df523b3ef84604051610e4d91906117a7565b60405180910390a3610e608484846111d9565b50505050565b60007f000000000000000000000000000000000000000000000000000000000000000073ffffffffffffffffffffffffffffffffffffffff163073ffffffffffffffffffffffffffffffffffffffff16148015610ee257507f000000000000000000000000000000000000000000000000000000000000000046145b15610f0f577f00000000000000000000000000000000000000000000000000000000000000009050610f1a565b610f176111de565b90505b90565b600081600001549050919050565b606060ff60001b8314610f4857610f4183611274565b9050610fd5565b818054610f5490611c0f565b80601f0160208091040260200160405190810160405280929190818152602001828054610f8090611c0f565b8015610fcd5780601f10610fa257610100808354040283529160200191610fcd565b820191906000526020600020905b815481529060010190602001808311610fb057829003601f168201915b505050505090505b92915050565b600073ffffffffffffffffffffffffffffffffffffffff168273ffffffffffffffffffffffffffffffffffffffff160361104a576040517f08c379a00000000000000000000000000000000000000000000000000000000081526004016110419061222f565b60405180910390fd5b611056600083836111d4565b80600260008282546110689190611c6f565b92505081905550806000808473ffffffffffffffffffffffffffffffffffffffff1673ffffffffffffffffffffffffffffffffffffffff168152602001908152602001600020600082825401925050819055508173ffffffffffffffffffffffffffffffffffffffff16600073ffffffffffffffffffffffffffffffffffffffff167fddf252ad1be2c89b69c2b068fc378daa952ba7f163c4a11628f55a4df523b3ef8360405161111991906117a7565b60405180910390a361112d600083836111d9565b5050565b600080600760008473ffffffffffffffffffffffffffffffffffffffff1673ffffffffffffffffffffffffffffffffffffffff168152602001908152602001600020905061117e81610f1d565b9150611189816112e8565b50919050565b60006111a261119c610e66565b836112fe565b9050919050565b60008060006111ba8787878761133f565b915091506111c781611421565b8192505050949350505050565b505050565b505050565b60007f8b73c3c69bb8fe3d512ecc4cf759cc79239f7b179b0ffacaa9a75d522b39400f7f00000000000000000000000000000000000000000000000000000000000000007f0000000000000000000000000000000000000000000000000000000000000000463060405160200161125995949392919061224f565b60405160208183030381529060405280519060200120905090565b6060600061128183611587565b90506000602067ffffffffffffffff8111156112a05761129f611ca3565b5b6040519080825280601f01601f1916602001820160405280156112d25781602001600182028036833780820191505090505b5090508181528360208201528092505050919050565b6001816000016000828254019250508190555050565b60006040517f190100000000000000000000000000000000000000000000000000000000000081528360028201528260228201526042812091505092915050565b6000807f7fffffffffffffffffffffffffffffff5d576e7357a4501ddfe92f46681b20a08360001c111561137a576000600391509150611418565b60006001878787876040516000815260200160405260405161139f94939291906122a2565b6020604051602081039080840390855afa1580156113c1573d6000803e3d6000fd5b505050602060405103519050600073ffffffffffffffffffffffffffffffffffffffff168173ffffffffffffffffffffffffffffffffffffffff160361140f57600060019250925050611418565b80600092509250505b94509492505050565b60006004811115611435576114346122e7565b5b816004811115611448576114476122e7565b5b03156115845760016004811115611462576114616122e7565b5b816004811115611475576114746122e7565b5b036114b5576040517f08c379a00000000000000000000000000000000000000000000000000000000081526004016114ac90612362565b60405180910390fd5b600260048111156114c9576114c86122e7565b5b8160048111156114dc576114db6122e7565b5b0361151c576040517f08c379a0000000000000000000000000000000000000000000000000000000008152600401611513906123ce565b60405180910390fd5b600360048111156115305761152f6122e7565b5b816004811115611543576115426122e7565b5b03611583576040517f08c379a000000000000000000000000000000000000000000000000000000000815260040161157a90612460565b60405180910390fd5b5b50565b60008060ff8360001c169050601f8111156115ce576040517fb3512b0c00000000000000000000000000000000000000000000000000000000815260040160405180910390fd5b80915050919050565b600081519050919050565b600082825260208201905092915050565b60005b838110156116115780820151818401526020810190506115f6565b60008484015250505050565b6000601f19601f8301169050919050565b6000611639826115d7565b61164381856115e2565b93506116538185602086016115f3565b61165c8161161d565b840191505092915050565b60006020820190508181036000830152611681818461162e565b905092915050565b600080fd5b600073ffffffffffffffffffffffffffffffffffffffff82169050919050565b60006116b98261168e565b9050919050565b6116c9816116ae565b81146116d457600080fd5b50565b6000813590506116e6816116c0565b92915050565b6000819050919050565b6116ff816116ec565b811461170a57600080fd5b50565b60008135905061171c816116f6565b92915050565b6000806040838503121561173957611738611689565b5b6000611747858286016116d7565b92505060206117588582860161170d565b9150509250929050565b60008115159050919050565b61177781611762565b82525050565b6000602082019050611792600083018461176e565b92915050565b6117a1816116ec565b82525050565b60006020820190506117bc6000830184611798565b92915050565b6000806000606084860312156117db576117da611689565b5b60006117e9868287016116d7565b93505060206117fa868287016116d7565b925050604061180b8682870161170d565b9150509250925092565b600060ff82169050919050565b61182b81611815565b82525050565b60006020820190506118466000830184611822565b92915050565b6000819050919050565b61185f8161184c565b82525050565b600060208201905061187a6000830184611856565b92915050565b60006020828403121561189657611895611689565b5b60006118a4848285016116d7565b91505092915050565b60007fff0000000000000000000000000000000000000000000000000000000000000082169050919050565b6118e2816118ad565b82525050565b6118f1816116ae565b82525050565b600081519050919050565b600082825260208201905092915050565b6000819050602082019050919050565b61192c816116ec565b82525050565b600061193e8383611923565b60208301905092915050565b6000602082019050919050565b6000611962826118f7565b61196c8185611902565b935061197783611913565b8060005b838110156119a857815161198f8882611932565b975061199a8361194a565b92505060018101905061197b565b5085935050505092915050565b600060e0820190506119ca600083018a6118d9565b81810360208301526119dc818961162e565b905081810360408301526119f0818861162e565b90506119ff6060830187611798565b611a0c60808301866118e8565b611a1960a0830185611856565b81810360c0830152611a2b8184611957565b905098975050505050505050565b60008060408385031215611a5057611a4f611689565b5b6000611a5e8582860161170d565b9250506020611a6f858286016116d7565b9150509250929050565b600060208284031215611a8f57611a8e611689565b5b6000611a9d8482850161170d565b91505092915050565b611aaf81611815565b8114611aba57600080fd5b50565b600081359050611acc81611aa6565b92915050565b611adb8161184c565b8114611ae657600080fd5b50565b600081359050611af881611ad2565b92915050565b600080600080600080600060e0888a031215611b1d57611b1c611689565b5b6000611b2b8a828b016116d7565b9750506020611b3c8a828b016116d7565b9650506040611b4d8a828b0161170d565b9550506060611b5e8a828b0161170d565b9450506080611b6f8a828b01611abd565b93505060a0611b808a828b01611ae9565b92505060c0611b918a828b01611ae9565b91505092959891949750929550565b60008060408385031215611bb757611bb6611689565b5b6000611bc5858286016116d7565b9250506020611bd6858286016116d7565b9150509250929050565b7f4e487b7100000000000000000000000000000000000000000000000000000000600052602260045260246000fd5b60006002820490506001821680611c2757607f821691505b602082108103611c3a57611c39611be0565b5b50919050565b7f4e487b7100000000000000000000000000000000000000000000000000000000600052601160045260246000fd5b6000611c7a826116ec565b9150611c85836116ec565b9250828201905080821115611c9d57611c9c611c40565b5b92915050565b7f4e487b7100000000000000000000000000000000000000000000000000000000600052604160045260246000fd5b7f45524332303a2064656372656173656420616c6c6f77616e63652062656c6f7760008201527f207a65726f000000000000000000000000000000000000000000000000000000602082015250565b6000611d2e6025836115e2565b9150611d3982611cd2565b604082019050919050565b60006020820190508181036000830152611d5d81611d21565b9050919050565b7f45524332305065726d69743a206578706972656420646561646c696e65000000600082015250565b6000611d9a601d836115e2565b9150611da582611d64565b602082019050919050565b60006020820190508181036000830152611dc981611d8d565b9050919050565b600060c082019050611de56000830189611856565b611df260208301886118e8565b611dff60408301876118e8565b611e0c6060830186611798565b611e196080830185611798565b611e2660a0830184611798565b979650505050505050565b7f45524332305065726d69743a20696e76616c6964207369676e61747572650000600082015250565b6000611e67601e836115e2565b9150611e7282611e31565b602082019050919050565b60006020820190508181036000830152611e9681611e5a565b9050919050565b7f45524332303a20617070726f76652066726f6d20746865207a65726f2061646460008201527f7265737300000000000000000000000000000000000000000000000000000000602082015250565b6000611ef96024836115e2565b9150611f0482611e9d565b604082019050919050565b60006020820190508181036000830152611f2881611eec565b9050919050565b7f45524332303a20617070726f766520746f20746865207a65726f20616464726560008201527f7373000000000000000000000000000000000000000000000000000000000000602082015250565b6000611f8b6022836115e2565b9150611f9682611f2f565b604082019050919050565b60006020820190508181036000830152611fba81611f7e565b9050919050565b7f45524332303a20696e73756666696369656e7420616c6c6f77616e6365000000600082015250565b6000611ff7601d836115e2565b915061200282611fc1565b602082019050919050565b6000602082019050818103600083015261202681611fea565b9050919050565b7f45524332303a207472616e736665722066726f6d20746865207a65726f20616460008201527f6472657373000000000000000000000000000000000000000000000000000000602082015250565b60006120896025836115e2565b91506120948261202d565b604082019050919050565b600060208201905081810360008301526120b88161207c565b9050919050565b7f45524332303a207472616e7366657220746f20746865207a65726f206164647260008201527f6573730000000000000000000000000000000000000000000000000000000000602082015250565b600061211b6023836115e2565b9150612126826120bf565b604082019050919050565b6000602082019050818103600083015261214a8161210e565b9050919050565b7f45524332303a207472616e7366657220616d6f756e742065786365656473206260008201527f616c616e63650000000000000000000000000000000000000000000000000000602082015250565b60006121ad6026836115e2565b91506121b882612151565b604082019050919050565b600060208201905081810360008301526121dc816121a0565b9050919050565b7f45524332303a206d696e7420746f20746865207a65726f206164647265737300600082015250565b6000612219601f836115e2565b9150612224826121e3565b602082019050919050565b600060208201905081810360008301526122488161220c565b9050919050565b600060a0820190506122646000830188611856565b6122716020830187611856565b61227e6040830186611856565b61228b6060830185611798565b61229860808301846118e8565b9695505050505050565b60006080820190506122b76000830187611856565b6122c46020830186611822565b6122d16040830185611856565b6122de6060830184611856565b95945050505050565b7f4e487b7100000000000000000000000000000000000000000000000000000000600052602160045260246000fd5b7f45434453413a20696e76616c6964207369676e61747572650000000000000000600082015250565b600061234c6018836115e2565b915061235782612316565b602082019050919050565b6000602082019050818103600083015261237b8161233f565b9050919050565b7f45434453413a20696e76616c6964207369676e6174757265206c656e67746800600082015250565b60006123b8601f836115e2565b91506123c382612382565b602082019050919050565b600060208201905081810360008301526123e7816123ab565b9050919050565b7f45434453413a20696e76616c6964207369676e6174757265202773272076616c60008201527f7565000000000000000000000000000000000000000000000000000000000000602082015250565b600061244a6022836115e2565b9150612455826123ee565b604082019050919050565b600060208201905081810360008301526124798161243d565b905091905056fea264697066735822122026ecb247a879d40ce6499345e72e8f26ee865a9749e3e7d04caaa69e9a861daa64736f6c63430008130033","linkReferences":{}},"methodIdentifiers":{"DOMAIN_SEPARATOR()":"3644e515","allowance(address,address)":"dd62ed3e","approve(address,uint256)":"095ea7b3","balanceOf(address)":"70a08231","decimals()":"313ce567","decreaseAllowance(address,uint256)":"a457c2d7","eip712Domain()":"84b0196e","increaseAllowance(address,uint256)":"39509351","mint(uint256)":"a0712d68","mint(uint256,address)":"94bf804d","name()":"06fdde03","nonces(address)":"7ecebe00","permit(address,address,uint256,uint256,uint8,bytes32,bytes32)":"d505accf","symbol()":"95d89b41","totalSupply()":"18160ddd","transfer(address,uint256)":"a9059cbb","transferFrom(address,address,uint256)":"23b872dd"},"id":93}