{"abi":[{"type":"constructor","inputs":[{"name":"_usde","type":"address","internalType":"contract IUSDe"},{"name":"_assets","type":"address[]","internalType":"address[]"},{"name":"_custodians","type":"address[]","internalType":"address[]"},{"name":"_admin","type":"address","internalType":"address"},{"name":"_maxMintPerBlock","type":"uint256","internalType":"uint256"},{"name":"_maxRedeemPerBlock","type":"uint256","internalType":"uint256"}],"stateMutability":"nonpayable"},{"type":"receive","stateMutability":"payable"},{"type":"function","name":"DEFAULT_ADMIN_ROLE","inputs":[],"outputs":[{"name":"","type":"bytes32","internalType":"bytes32"}],"stateMutability":"view"},{"type":"function","name":"acceptAdmin","inputs":[],"outputs":[],"stateMutability":"nonpayable"},{"type":"function","name":"addCustodianAddress","inputs":[{"name":"custodian","type":"address","internalType":"address"}],"outputs":[],"stateMutability":"nonpayable"},{"type":"function","name":"addSupportedAsset","inputs":[{"name":"asset","type":"address","internalType":"address"}],"outputs":[],"stateMutability":"nonpayable"},{"type":"function","name":"delegatedSigner","inputs":[{"name":"","type":"address","internalType":"address"},{"name":"","type":"address","internalType":"address"}],"outputs":[{"name":"","type":"bool","internalType":"bool"}],"stateMutability":"view"},{"type":"function","name":"disableMintRedeem","inputs":[],"outputs":[],"stateMutability":"nonpayable"},{"type":"function","name":"encodeOrder","inputs":[{"name":"order","type":"tuple","internalType":"struct IEthenaMinting.Order","components":[{"name":"order_type","type":"uint8","internalType":"enum IEthenaMinting.OrderType"},{"name":"expiry","type":"uint256","internalType":"uint256"},{"name":"nonce","type":"uint256","internalType":"uint256"},{"name":"benefactor","type":"address","internalType":"address"},{"name":"beneficiary","type":"address","internalType":"address"},{"name":"collateral_asset","type":"address","internalType":"address"},{"name":"collateral_amount","type":"uint256","internalType":"uint256"},{"name":"usde_amount","type":"uint256","internalType":"uint256"}]}],"outputs":[{"name":"","type":"bytes","internalType":"bytes"}],"stateMutability":"pure"},{"type":"function","name":"encodeRoute","inputs":[{"name":"route","type":"tuple","internalType":"struct IEthenaMinting.Route","components":[{"name":"addresses","type":"address[]","internalType":"address[]"},{"name":"ratios","type":"uint256[]","internalType":"uint256[]"}]}],"outputs":[{"name":"","type":"bytes","internalType":"bytes"}],"stateMutability":"pure"},{"type":"function","name":"getDomainSeparator","inputs":[],"outputs":[{"name":"","type":"bytes32","internalType":"bytes32"}],"stateMutability":"view"},{"type":"function","name":"getRoleAdmin","inputs":[{"name":"role","type":"bytes32","internalType":"bytes32"}],"outputs":[{"name":"","type":"bytes32","internalType":"bytes32"}],"stateMutability":"view"},{"type":"function","name":"grantRole","inputs":[{"name":"role","type":"bytes32","internalType":"bytes32"},{"name":"account","type":"address","internalType":"address"}],"outputs":[],"stateMutability":"nonpayable"},{"type":"function","name":"hasRole","inputs":[{"name":"role","type":"bytes32","internalType":"bytes32"},{"name":"account","type":"address","internalType":"address"}],"outputs":[{"name":"","type":"bool","internalType":"bool"}],"stateMutability":"view"},{"type":"function","name":"hashOrder","inputs":[{"name":"order","type":"tuple","internalType":"struct IEthenaMinting.Order","components":[{"name":"order_type","type":"uint8","internalType":"enum IEthenaMinting.OrderType"},{"name":"expiry","type":"uint256","internalType":"uint256"},{"name":"nonce","type":"uint256","internalType":"uint256"},{"name":"benefactor","type":"address","internalType":"address"},{"name":"beneficiary","type":"address","internalType":"address"},{"name":"collateral_asset","type":"address","internalType":"address"},{"name":"collateral_amount","type":"uint256","internalType":"uint256"},{"name":"usde_amount","type":"uint256","internalType":"uint256"}]}],"outputs":[{"name":"","type":"bytes32","internalType":"bytes32"}],"stateMutability":"view"},{"type":"function","name":"isSupportedAsset","inputs":[{"name":"asset","type":"address","internalType":"address"}],"outputs":[{"name":"","type":"bool","internalType":"bool"}],"stateMutability":"view"},{"type":"function","name":"maxMintPerBlock","inputs":[],"outputs":[{"name":"","type":"uint256","internalType":"uint256"}],"stateMutability":"view"},{"type":"function","name":"maxRedeemPerBlock","inputs":[],"outputs":[{"name":"","type":"uint256","internalType":"uint256"}],"stateMutability":"view"},{"type":"function","name":"mint","inputs":[{"name":"order","type":"tuple","internalType":"struct IEthenaMinting.Order","components":[{"name":"order_type","type":"uint8","internalType":"enum IEthenaMinting.OrderType"},{"name":"expiry","type":"uint256","internalType":"uint256"},{"name":"nonce","type":"uint256","internalType":"uint256"},{"name":"benefactor","type":"address","internalType":"address"},{"name":"beneficiary","type":"address","internalType":"address"},{"name":"collateral_asset","type":"address","internalType":"address"},{"name":"collateral_amount","type":"uint256","internalType":"uint256"},{"name":"usde_amount","type":"uint256","internalType":"uint256"}]},{"name":"route","type":"tuple","internalType":"struct IEthenaMinting.Route","components":[{"name":"addresses","type":"address[]","internalType":"address[]"},{"name":"ratios","type":"uint256[]","internalType":"uint256[]"}]},{"name":"signature","type":"tuple","internalType":"struct IEthenaMinting.Signature","components":[{"name":"signature_type","type":"uint8","internalType":"enum IEthenaMinting.SignatureType"},{"name":"signature_bytes","type":"bytes","internalType":"bytes"}]}],"outputs":[],"stateMutability":"nonpayable"},{"type":"function","name":"mintedPerBlock","inputs":[{"name":"","type":"uint256","internalType":"uint256"}],"outputs":[{"name":"","type":"uint256","internalType":"uint256"}],"stateMutability":"view"},{"type":"function","name":"owner","inputs":[],"outputs":[{"name":"","type":"address","internalType":"address"}],"stateMutability":"view"},{"type":"function","name":"redeem","inputs":[{"name":"order","type":"tuple","internalType":"struct IEthenaMinting.Order","components":[{"name":"order_type","type":"uint8","internalType":"enum IEthenaMinting.OrderType"},{"name":"expiry","type":"uint256","internalType":"uint256"},{"name":"nonce","type":"uint256","internalType":"uint256"},{"name":"benefactor","type":"address","internalType":"address"},{"name":"beneficiary","type":"address","internalType":"address"},{"name":"collateral_asset","type":"address","internalType":"address"},{"name":"collateral_amount","type":"uint256","internalType":"uint256"},{"name":"usde_amount","type":"uint256","internalType":"uint256"}]},{"name":"signature","type":"tuple","internalType":"struct IEthenaMinting.Signature","components":[{"name":"signature_type","type":"uint8","internalType":"enum IEthenaMinting.SignatureType"},{"name":"signature_bytes","type":"bytes","internalType":"bytes"}]}],"outputs":[],"stateMutability":"nonpayable"},{"type":"function","name":"redeemedPerBlock","inputs":[{"name":"","type":"uint256","internalType":"uint256"}],"outputs":[{"name":"","type":"uint256","internalType":"uint256"}],"stateMutability":"view"},{"type":"function","name":"removeCustodianAddress","inputs":[{"name":"custodian","type":"address","internalType":"address"}],"outputs":[],"stateMutability":"nonpayable"},{"type":"function","name":"removeDelegatedSigner","inputs":[{"name":"_removedSigner","type":"address","internalType":"address"}],"outputs":[],"stateMutability":"nonpayable"},{"type":"function","name":"removeMinterRole","inputs":[{"name":"minter","type":"address","internalType":"address"}],"outputs":[],"stateMutability":"nonpayable"},{"type":"function","name":"removeRedeemerRole","inputs":[{"name":"redeemer","type":"address","internalType":"address"}],"outputs":[],"stateMutability":"nonpayable"},{"type":"function","name":"removeSupportedAsset","inputs":[{"name":"asset","type":"address","internalType":"address"}],"outputs":[],"stateMutability":"nonpayable"},{"type":"function","name":"renounceRole","inputs":[{"name":"role","type":"bytes32","internalType":"bytes32"},{"name":"account","type":"address","internalType":"address"}],"outputs":[],"stateMutability":"nonpayable"},{"type":"function","name":"revokeRole","inputs":[{"name":"role","type":"bytes32","internalType":"bytes32"},{"name":"account","type":"address","internalType":"address"}],"outputs":[],"stateMutability":"nonpayable"},{"type":"function","name":"setDelegatedSigner","inputs":[{"name":"_delegateTo","type":"address","internalType":"address"}],"outputs":[],"stateMutability":"nonpayable"},{"type":"function","name":"setMaxMintPerBlock","inputs":[{"name":"_maxMintPerBlock","type":"uint256","internalType":"uint256"}],"outputs":[],"stateMutability":"nonpayable"},{"type":"function","name":"setMaxRedeemPerBlock","inputs":[{"name":"_maxRedeemPerBlock","type":"uint256","internalType":"uint256"}],"outputs":[],"stateMutability":"nonpayable"},{"type":"function","name":"supportsInterface","inputs":[{"name":"interfaceId","type":"bytes4","internalType":"bytes4"}],"outputs":[{"name":"","type":"bool","internalType":"bool"}],"stateMutability":"view"},{"type":"function","name":"transferAdmin","inputs":[{"name":"newAdmin","type":"address","internalType":"address"}],"outputs":[],"stateMutability":"nonpayable"},{"type":"function","name":"transferToCustody","inputs":[{"name":"wallet","type":"address","internalType":"address"},{"name":"asset","type":"address","internalType":"address"},{"name":"amount","type":"uint256","internalType":"uint256"}],"outputs":[],"stateMutability":"nonpayable"},{"type":"function","name":"usde","inputs":[],"outputs":[{"name":"","type":"address","internalType":"contract IUSDe"}],"stateMutability":"view"},{"type":"function","name":"verifyNonce","inputs":[{"name":"sender","type":"address","internalType":"address"},{"name":"nonce","type":"uint256","internalType":"uint256"}],"outputs":[{"name":"","type":"bool","internalType":"bool"},{"name":"","type":"uint256","internalType":"uint256"},{"name":"","type":"uint256","internalType":"uint256"},{"name":"","type":"uint256","internalType":"uint256"}],"stateMutability":"view"},{"type":"function","name":"verifyOrder","inputs":[{"name":"order","type":"tuple","internalType":"struct IEthenaMinting.Order","components":[{"name":"order_type","type":"uint8","internalType":"enum IEthenaMinting.OrderType"},{"name":"expiry","type":"uint256","internalType":"uint256"},{"name":"nonce","type":"uint256","internalType":"uint256"},{"name":"benefactor","type":"address","internalType":"address"},{"name":"beneficiary","type":"address","internalType":"address"},{"name":"collateral_asset","type":"address","internalType":"address"},{"name":"collateral_amount","type":"uint256","internalType":"uint256"},{"name":"usde_amount","type":"uint256","internalType":"uint256"}]},{"name":"signature","type":"tuple","internalType":"struct IEthenaMinting.Signature","components":[{"name":"signature_type","type":"uint8","internalType":"enum IEthenaMinting.SignatureType"},{"name":"signature_bytes","type":"bytes","internalType":"bytes"}]}],"outputs":[{"name":"","type":"bool","internalType":"bool"},{"name":"","type":"bytes32","internalType":"bytes32"}],"stateMutability":"view"},{"type":"function","name":"verifyRoute","inputs":[{"name":"route","type":"tuple","internalType":"struct IEthenaMinting.Route","components":[{"name":"addresses","type":"address[]","internalType":"address[]"},{"name":"ratios","type":"uint256[]","internalType":"uint256[]"}]},{"name":"orderType","type":"uint8","internalType":"enum IEthenaMinting.OrderType"}],"outputs":[{"name":"","type":"bool","internalType":"bool"}],"stateMutability":"view"},{"type":"event","name":"AdminTransferRequested","inputs":[{"name":"oldAdmin","type":"address","indexed":true,"internalType":"address"},{"name":"newAdmin","type":"address","indexed":true,"internalType":"address"}],"anonymous":false},{"type":"event","name":"AdminTransferred","inputs":[{"name":"oldAdmin","type":"address","indexed":true,"internalType":"address"},{"name":"newAdmin","type":"address","indexed":true,"internalType":"address"}],"anonymous":false},{"type":"event","name":"AssetAdded","inputs":[{"name":"asset","type":"address","indexed":true,"internalType":"address"}],"anonymous":false},{"type":"event","name":"AssetRemoved","inputs":[{"name":"asset","type":"address","indexed":true,"internalType":"address"}],"anonymous":false},{"type":"event","name":"CustodianAddressAdded","inputs":[{"name":"custodian","type":"address","indexed":true,"internalType":"address"}],"anonymous":false},{"type":"event","name":"CustodianAddressRemoved","inputs":[{"name":"custodian","type":"address","indexed":true,"internalType":"address"}],"anonymous":false},{"type":"event","name":"CustodyTransfer","inputs":[{"name":"wallet","type":"address","indexed":true,"internalType":"address"},{"name":"asset","type":"address","indexed":true,"internalType":"address"},{"name":"amount","type":"uint256","indexed":false,"internalType":"uint256"}],"anonymous":false},{"type":"event","name":"CustodyWalletAdded","inputs":[{"name":"wallet","type":"address","indexed":false,"internalType":"address"}],"anonymous":false},{"type":"event","name":"CustodyWalletRemoved","inputs":[{"name":"wallet","type":"address","indexed":false,"internalType":"address"}],"anonymous":false},{"type":"event","name":"DelegatedSignerAdded","inputs":[{"name":"signer","type":"address","indexed":true,"internalType":"address"},{"name":"delegator","type":"address","indexed":true,"internalType":"address"}],"anonymous":false},{"type":"event","name":"DelegatedSignerRemoved","inputs":[{"name":"signer","type":"address","indexed":true,"internalType":"address"},{"name":"delegator","type":"address","indexed":true,"internalType":"address"}],"anonymous":false},{"type":"event","name":"MaxMintPerBlockChanged","inputs":[{"name":"oldMaxMintPerBlock","type":"uint256","indexed":true,"internalType":"uint256"},{"name":"newMaxMintPerBlock","type":"uint256","indexed":true,"internalType":"uint256"}],"anonymous":false},{"type":"event","name":"MaxRedeemPerBlockChanged","inputs":[{"name":"oldMaxRedeemPerBlock","type":"uint256","indexed":true,"internalType":"uint256"},{"name":"newMaxRedeemPerBlock","type":"uint256","indexed":true,"internalType":"uint256"}],"anonymous":false},{"type":"event","name":"Mint","inputs":[{"name":"minter","type":"address","indexed":false,"internalType":"address"},{"name":"benefactor","type":"address","indexed":false,"internalType":"address"},{"name":"beneficiary","type":"address","indexed":false,"internalType":"address"},{"name":"collateral_asset","type":"address","indexed":true,"internalType":"address"},{"name":"collateral_amount","type":"uint256","indexed":true,"internalType":"uint256"},{"name":"usde_amount","type":"uint256","indexed":true,"internalType":"uint256"}],"anonymous":false},{"type":"event","name":"Received","inputs":[{"name":"","type":"address","indexed":false,"internalType":"address"},{"name":"","type":"uint256","indexed":false,"internalType":"uint256"}],"anonymous":false},{"type":"event","name":"Redeem","inputs":[{"name":"redeemer","type":"address","indexed":false,"internalType":"address"},{"name":"benefactor","type":"address","indexed":false,"internalType":"address"},{"name":"beneficiary","type":"address","indexed":false,"internalType":"address"},{"name":"collateral_asset","type":"address","indexed":true,"internalType":"address"},{"name":"collateral_amount","type":"uint256","indexed":true,"internalType":"uint256"},{"name":"usde_amount","type":"uint256","indexed":true,"internalType":"uint256"}],"anonymous":false},{"type":"event","name":"RoleAdminChanged","inputs":[{"name":"role","type":"bytes32","indexed":true,"internalType":"bytes32"},{"name":"previousAdminRole","type":"bytes32","indexed":true,"internalType":"bytes32"},{"name":"newAdminRole","type":"bytes32","indexed":true,"internalType":"bytes32"}],"anonymous":false},{"type":"event","name":"RoleGranted","inputs":[{"name":"role","type":"bytes32","indexed":true,"internalType":"bytes32"},{"name":"account","type":"address","indexed":true,"internalType":"address"},{"name":"sender","type":"address","indexed":true,"internalType":"address"}],"anonymous":false},{"type":"event","name":"RoleRevoked","inputs":[{"name":"role","type":"bytes32","indexed":true,"internalType":"bytes32"},{"name":"account","type":"address","indexed":true,"internalType":"address"},{"name":"sender","type":"address","indexed":true,"internalType":"address"}],"anonymous":false},{"type":"event","name":"USDeSet","inputs":[{"name":"USDe","type":"address","indexed":true,"internalType":"address"}],"anonymous":false},{"type":"error","name":"Duplicate","inputs":[]},{"type":"error","name":"InvalidAddress","inputs":[]},{"type":"error","name":"InvalidAdminChange","inputs":[]},{"type":"error","name":"InvalidAffirmedAmount","inputs":[]},{"type":"error","name":"InvalidAmount","inputs":[]},{"type":"error","name":"InvalidAssetAddress","inputs":[]},{"type":"error","name":"InvalidCustodianAddress","inputs":[]},{"type":"error","name":"InvalidNonce","inputs":[]},{"type":"error","name":"InvalidOrder","inputs":[]},{"type":"error","name":"InvalidRoute","inputs":[]},{"type":"error","name":"InvalidSignature","inputs":[]},{"type":"error","name":"InvalidUSDeAddress","inputs":[]},{"type":"error","name":"InvalidZeroAddress","inputs":[]},{"type":"error","name":"MaxMintPerBlockExceeded","inputs":[]},{"type":"error","name":"MaxRedeemPerBlockExceeded","inputs":[]},{"type":"error","name":"NoAssetsProvided","inputs":[]},{"type":"error","name":"NotPendingAdmin","inputs":[]},{"type":"error","name":"SignatureExpired","inputs":[]},{"type":"error","name":"TransferFailed","inputs":[]},{"type":"error","name":"UnsupportedAsset","inputs":[]}],"bytecode":{"object":"0x60c06040523480156200001157600080fd5b506040516200666b3803806200666b8339818101604052810190620000379190620010da565b6001600381905550600073ffffffffffffffffffffffffffffffffffffffff168673ffffffffffffffffffffffffffffffffffffffff1603620000a6576040517fb2b3c8dc00000000000000000000000000000000000000000000000000000000815260040160405180910390fd5b6000855103620000e2576040517fdde4739400000000000000000000000000000000000000000000000000000000815260040160405180910390fd5b600073ffffffffffffffffffffffffffffffffffffffff168373ffffffffffffffffffffffffffffffffffffffff160362000149576040517ff6b2911f00000000000000000000000000000000000000000000000000000000815260040160405180910390fd5b85600460006101000a81548173ffffffffffffffffffffffffffffffffffffffff021916908373ffffffffffffffffffffffffffffffffffffffff1602179055506200019f6000801b336200031d60201b60201c565b60005b8551811015620001f057620001da868281518110620001c657620001c5620011b4565b5b60200260200101516200045860201b60201c565b8080620001e79062001212565b915050620001a2565b5060005b845181101562000242576200022c858281518110620002185762000217620011b4565b5b60200260200101516200059460201b60201c565b8080620002399062001212565b915050620001f4565b506200025482620006d060201b60201c565b62000265816200071260201b60201c565b8273ffffffffffffffffffffffffffffffffffffffff163373ffffffffffffffffffffffffffffffffffffffff1614620002af57620002ae6000801b846200031d60201b60201c565b5b4660808181525050620002c76200075460201b60201c565b60a081815250508573ffffffffffffffffffffffffffffffffffffffff167f72fb0d31878f6e7247733418a2aeabf201fddda56677167f041e9bb10ffd5c9e60405160405180910390a2505050505050620015f0565b6000801b820362000442578073ffffffffffffffffffffffffffffffffffffffff16600160009054906101000a900473ffffffffffffffffffffffffffffffffffffffff1673ffffffffffffffffffffffffffffffffffffffff167ff8ccb027dfcd135e000e9d45e6cc2d662578a8825d4c45b5e32e0adf67e79ec660405160405180910390a3620003db6000801b600160009054906101000a900473ffffffffffffffffffffffffffffffffffffffff16620007ec60201b60201c565b80600160006101000a81548173ffffffffffffffffffffffffffffffffffffffff021916908373ffffffffffffffffffffffffffffffffffffffff160217905550600260006101000a81549073ffffffffffffffffffffffffffffffffffffffff02191690555b620004548282620008de60201b60201c565b5050565b6000801b6200046d81620009cf60201b60201c565b600073ffffffffffffffffffffffffffffffffffffffff168273ffffffffffffffffffffffffffffffffffffffff161480620004f65750600460009054906101000a900473ffffffffffffffffffffffffffffffffffffffff1673ffffffffffffffffffffffffffffffffffffffff168273ffffffffffffffffffffffffffffffffffffffff16145b8062000515575062000513826005620009f360201b90919060201c565b155b156200054d576040517f3334921400000000000000000000000000000000000000000000000000000000815260040160405180910390fd5b8173ffffffffffffffffffffffffffffffffffffffff167f0e3c58ebfb2e7465fbb1c32e6b4f40c3c4f5ca77e8218a386aff8617831260d760405160405180910390a25050565b6000801b620005a981620009cf60201b60201c565b600073ffffffffffffffffffffffffffffffffffffffff168273ffffffffffffffffffffffffffffffffffffffff161480620006325750600460009054906101000a900473ffffffffffffffffffffffffffffffffffffffff1673ffffffffffffffffffffffffffffffffffffffff168273ffffffffffffffffffffffffffffffffffffffff16145b806200065157506200064f826007620009f360201b90919060201c565b155b1562000689576040517facb80c5e00000000000000000000000000000000000000000000000000000000815260040160405180910390fd5b8173ffffffffffffffffffffffffffffffffffffffff167ffbd30b5bdd51f5de989170dc23d65aac2de0a6099f5d9d200bc5779d883abcd460405160405180910390a25050565b6000600d54905081600d81905550600d54817fb4a832eb73ba0066dc45acd0d1f4454cdee155b17bdb1ccbabb428cc39750ad160405160405180910390a35050565b6000600e54905081600e81905550600e54817f6fd3eacad9328fdc902c323518cfef3a2f6a9da89c40a7b82428adc2370114c360405160405180910390a35050565b60007f8b73c3c69bb8fe3d512ecc4cf759cc79239f7b179b0ffacaa9a75d522b39400f7fdfc7060bb2e53279833759ad83d246a6016adac9d59a3fc1c0c23c3d495e137e7fc89efdaa54c0f20c7adf612882df0950f5a951637e0307cdcb4c672f298b8bc64630604051602001620007d19594939291906200129c565b60405160208183030381529060405280519060200120905090565b620007fe828262000a2b60201b60201c565b15620008da57600080600084815260200190815260200160002060000160008373ffffffffffffffffffffffffffffffffffffffff1673ffffffffffffffffffffffffffffffffffffffff16815260200190815260200160002060006101000a81548160ff0219169083151502179055506200087f62000a9560201b60201c565b73ffffffffffffffffffffffffffffffffffffffff168173ffffffffffffffffffffffffffffffffffffffff16837ff6391f5c32d9c69d2a47ea670b442974b53935d1edc7fd64eb21e047a839171b60405160405180910390a45b5050565b620008f0828262000a2b60201b60201c565b620009cb57600160008084815260200190815260200160002060000160008373ffffffffffffffffffffffffffffffffffffffff1673ffffffffffffffffffffffffffffffffffffffff16815260200190815260200160002060006101000a81548160ff0219169083151502179055506200097062000a9560201b60201c565b73ffffffffffffffffffffffffffffffffffffffff168173ffffffffffffffffffffffffffffffffffffffff16837f2f8788117e7eff1d82e926ec794901d17c78024a50270940304540a733656f0d60405160405180910390a45b5050565b620009f081620009e462000a9560201b60201c565b62000a9d60201b60201c565b50565b600062000a23836000018373ffffffffffffffffffffffffffffffffffffffff1660001b62000b3f60201b60201c565b905092915050565b600080600084815260200190815260200160002060000160008373ffffffffffffffffffffffffffffffffffffffff1673ffffffffffffffffffffffffffffffffffffffff16815260200190815260200160002060009054906101000a900460ff16905092915050565b600033905090565b62000aaf828262000a2b60201b60201c565b62000b3b5762000ac58162000bb960201b60201c565b62000adb8360001c602062000bee60201b60201c565b60405160200162000aee92919062001412565b6040516020818303038152906040526040517f08c379a000000000000000000000000000000000000000000000000000000000815260040162000b329190620014a6565b60405180910390fd5b5050565b600062000b53838362000e4960201b60201c565b62000bae57826000018290806001815401808255809150506001900390600052602060002001600090919091909150558260000180549050836001016000848152602001908152602001600020819055506001905062000bb3565b600090505b92915050565b606062000be78273ffffffffffffffffffffffffffffffffffffffff16601460ff1662000bee60201b60201c565b9050919050565b60606000600283600262000c039190620014ca565b62000c0f919062001515565b67ffffffffffffffff81111562000c2b5762000c2a62000f0f565b5b6040519080825280601f01601f19166020018201604052801562000c5e5781602001600182028036833780820191505090505b5090507f30000000000000000000000000000000000000000000000000000000000000008160008151811062000c995762000c98620011b4565b5b60200101907effffffffffffffffffffffffffffffffffffffffffffffffffffffffffffff1916908160001a9053507f78000000000000000000000000000000000000000000000000000000000000008160018151811062000d005762000cff620011b4565b5b60200101907effffffffffffffffffffffffffffffffffffffffffffffffffffffffffffff1916908160001a9053506000600184600262000d429190620014ca565b62000d4e919062001515565b90505b600181111562000df8577f3031323334353637383961626364656600000000000000000000000000000000600f86166010811062000d945762000d93620011b4565b5b1a60f81b82828151811062000dae5762000dad620011b4565b5b60200101907effffffffffffffffffffffffffffffffffffffffffffffffffffffffffffff1916908160001a905350600485901c94508062000df09062001550565b905062000d51565b506000841462000e3f576040517f08c379a000000000000000000000000000000000000000000000000000000000815260040162000e3690620015ce565b60405180910390fd5b8091505092915050565b600080836001016000848152602001908152602001600020541415905092915050565b6000604051905090565b600080fd5b600080fd5b600073ffffffffffffffffffffffffffffffffffffffff82169050919050565b600062000ead8262000e80565b9050919050565b600062000ec18262000ea0565b9050919050565b62000ed38162000eb4565b811462000edf57600080fd5b50565b60008151905062000ef38162000ec8565b92915050565b600080fd5b6000601f19601f8301169050919050565b7f4e487b7100000000000000000000000000000000000000000000000000000000600052604160045260246000fd5b62000f498262000efe565b810181811067ffffffffffffffff8211171562000f6b5762000f6a62000f0f565b5b80604052505050565b600062000f8062000e6c565b905062000f8e828262000f3e565b919050565b600067ffffffffffffffff82111562000fb15762000fb062000f0f565b5b602082029050602081019050919050565b600080fd5b62000fd28162000ea0565b811462000fde57600080fd5b50565b60008151905062000ff28162000fc7565b92915050565b60006200100f620010098462000f93565b62000f74565b9050808382526020820190506020840283018581111562001035576200103462000fc2565b5b835b818110156200106257806200104d888262000fe1565b84526020840193505060208101905062001037565b5050509392505050565b600082601f83011262001084576200108362000ef9565b5b81516200109684826020860162000ff8565b91505092915050565b6000819050919050565b620010b4816200109f565b8114620010c057600080fd5b50565b600081519050620010d481620010a9565b92915050565b60008060008060008060c08789031215620010fa57620010f962000e76565b5b60006200110a89828a0162000ee2565b965050602087015167ffffffffffffffff8111156200112e576200112d62000e7b565b5b6200113c89828a016200106c565b955050604087015167ffffffffffffffff81111562001160576200115f62000e7b565b5b6200116e89828a016200106c565b94505060606200118189828a0162000fe1565b93505060806200119489828a01620010c3565b92505060a0620011a789828a01620010c3565b9150509295509295509295565b7f4e487b7100000000000000000000000000000000000000000000000000000000600052603260045260246000fd5b7f4e487b7100000000000000000000000000000000000000000000000000000000600052601160045260246000fd5b60006200121f826200109f565b91507fffffffffffffffffffffffffffffffffffffffffffffffffffffffffffffffff8203620012545762001253620011e3565b5b600182019050919050565b6000819050919050565b62001274816200125f565b82525050565b62001285816200109f565b82525050565b620012968162000ea0565b82525050565b600060a082019050620012b3600083018862001269565b620012c2602083018762001269565b620012d1604083018662001269565b620012e060608301856200127a565b620012ef60808301846200128b565b9695505050505050565b600081905092915050565b7f416363657373436f6e74726f6c3a206163636f756e7420000000000000000000600082015250565b60006200133c601783620012f9565b9150620013498262001304565b601782019050919050565b600081519050919050565b60005b838110156200137f57808201518184015260208101905062001362565b60008484015250505050565b6000620013988262001354565b620013a48185620012f9565b9350620013b68185602086016200135f565b80840191505092915050565b7f206973206d697373696e6720726f6c6520000000000000000000000000000000600082015250565b6000620013fa601183620012f9565b91506200140782620013c2565b601182019050919050565b60006200141f826200132d565b91506200142d82856200138b565b91506200143a82620013eb565b91506200144882846200138b565b91508190509392505050565b600082825260208201905092915050565b6000620014728262001354565b6200147e818562001454565b9350620014908185602086016200135f565b6200149b8162000efe565b840191505092915050565b60006020820190508181036000830152620014c2818462001465565b905092915050565b6000620014d7826200109f565b9150620014e4836200109f565b9250828202620014f4816200109f565b915082820484148315176200150e576200150d620011e3565b5b5092915050565b600062001522826200109f565b91506200152f836200109f565b92508282019050808211156200154a5762001549620011e3565b5b92915050565b60006200155d826200109f565b915060008203620015735762001572620011e3565b5b600182039050919050565b7f537472696e67733a20686578206c656e67746820696e73756666696369656e74600082015250565b6000620015b660208362001454565b9150620015c3826200157e565b602082019050919050565b60006020820190508181036000830152620015e981620015a7565b9050919050565b60805160a0516150556200161660003960006122340152600061220d01526150556000f3fe6080604052600436106102295760003560e01c80638da5cb5b11610123578063cf9cc766116100ab578063e0f3fc9f1161006f578063e0f3fc9f1461087a578063ed24911d146108a3578063f4ee2a8b146108ce578063fac09e871461090e578063ffc92f6b1461093757610269565b8063cf9cc76614610785578063d48c03e5146107c2578063d547741f146107eb578063d8369d7514610814578063d8f065bd1461083d57610269565b80639be918e6116100f25780639be918e6146106a05780639cd29136146106dd578063a217fddf14610706578063b6c7806314610731578063c5ff38bd1461076e57610269565b80638da5cb5b146105e457806391d148541461060f578063928907dd1461064c57806395165e8b1461067757610269565b806336568abe116101b1578063532c3f8211610175578063532c3f8214610515578063538636131461053e57806354f1e1261461056757806375829def14610590578063844452fa146105b957610269565b806336568abe14610433578063402a8d371461045c57806340e492161461049a5780634ba87af9146104c35780634be7a64b146104ec57610269565b806319bfcdec116101f857806319bfcdec1461032a5780631c46bc6f14610367578063248a9ca3146103905780632ba32991146103cd5780632f2ff15d1461040a57610269565b806301ffc9a71461026e578063068f3877146102ab5780630e18b681146102e85780630fd761e0146102ff57610269565b36610269577f88a5966d370b9919b20f3e2c13ff65706f196a4e32cc2c12bf57088f88525874333460405161025f929190613aaf565b60405180910390a1005b600080fd5b34801561027a57600080fd5b5061029560048036038101906102909190613b3a565b610974565b6040516102a29190613b82565b60405180910390f35b3480156102b757600080fd5b506102d260048036038101906102cd9190613be6565b6109ee565b6040516102df9190613b82565b60405180910390f35b3480156102f457600080fd5b506102fd610bf6565b005b34801561030b57600080fd5b50610314610c8c565b6040516103219190613ca1565b60405180910390f35b34801561033657600080fd5b50610351600480360381019061034c9190613cdc565b610cb2565b60405161035e9190613d23565b60405180910390f35b34801561037357600080fd5b5061038e60048036038101906103899190613d6a565b610cdb565b005b34801561039c57600080fd5b506103b760048036038101906103b29190613dc3565b610d79565b6040516103c49190613d23565b60405180910390f35b3480156103d957600080fd5b506103f460048036038101906103ef9190613e1c565b610d98565b6040516104019190613e49565b60405180910390f35b34801561041657600080fd5b50610431600480360381019061042c9190613e64565b610db0565b005b34801561043f57600080fd5b5061045a60048036038101906104559190613e64565b610e0a565b005b34801561046857600080fd5b50610483600480360381019061047e9190613ec3565b610e56565b604051610491929190613f21565b60405180910390f35b3480156104a657600080fd5b506104c160048036038101906104bc9190613d6a565b611122565b005b3480156104cf57600080fd5b506104ea60048036038101906104e59190613d6a565b611214565b005b3480156104f857600080fd5b50610513600480360381019061050e9190613d6a565b6112b2565b005b34801561052157600080fd5b5061053c60048036038101906105379190613d6a565b6113e1565b005b34801561054a57600080fd5b5061056560048036038101906105609190613d6a565b611439565b005b34801561057357600080fd5b5061058e60048036038101906105899190613d6a565b61152b565b005b34801561059c57600080fd5b506105b760048036038101906105b29190613d6a565b611583565b005b3480156105c557600080fd5b506105ce6116b6565b6040516105db9190613e49565b60405180910390f35b3480156105f057600080fd5b506105f96116bc565b6040516106069190613f4a565b60405180910390f35b34801561061b57600080fd5b5061063660048036038101906106319190613e64565b6116e6565b6040516106439190613b82565b60405180910390f35b34801561065857600080fd5b50610661611750565b60405161066e9190613e49565b60405180910390f35b34801561068357600080fd5b5061069e60048036038101906106999190613ec3565b611756565b005b3480156106ac57600080fd5b506106c760048036038101906106c29190613d6a565b611a5e565b6040516106d49190613b82565b60405180910390f35b3480156106e957600080fd5b5061070460048036038101906106ff9190613e1c565b611a7b565b005b34801561071257600080fd5b5061071b611a95565b6040516107289190613d23565b60405180910390f35b34801561073d57600080fd5b5061075860048036038101906107539190613e1c565b611a9c565b6040516107659190613e49565b60405180910390f35b34801561077a57600080fd5b50610783611ab4565b005b34801561079157600080fd5b506107ac60048036038101906107a79190613f65565b611af5565b6040516107b99190613b82565b60405180910390f35b3480156107ce57600080fd5b506107e960048036038101906107e49190613fa5565b611b24565b005b3480156107f757600080fd5b50610812600480360381019061080d9190613e64565b611ea0565b005b34801561082057600080fd5b5061083b60048036038101906108369190613e1c565b611efa565b005b34801561084957600080fd5b50610864600480360381019061085f9190613cdc565b611f14565b60405161087191906140c3565b60405180910390f35b34801561088657600080fd5b506108a1600480360381019061089c91906140e5565b611fc5565b005b3480156108af57600080fd5b506108b8612209565b6040516108c59190613d23565b60405180910390f35b3480156108da57600080fd5b506108f560048036038101906108f09190614138565b612268565b6040516109059493929190614178565b60405180910390f35b34801561091a57600080fd5b5061093560048036038101906109309190613d6a565b612381565b005b34801561094357600080fd5b5061095e600480360381019061095991906141bd565b6124b0565b60405161096b91906140c3565b60405180910390f35b60007f7965db0b000000000000000000000000000000000000000000000000000000007bffffffffffffffffffffffffffffffffffffffffffffffffffffffff1916827bffffffffffffffffffffffffffffffffffffffffffffffffffffffff191614806109e757506109e68261251d565b5b9050919050565b6000600180811115610a0357610a02614206565b5b826001811115610a1657610a15614206565b5b03610a245760019050610bf0565b6000838060200190610a369190614244565b9050848060000190610a4891906142a7565b905014610a59576000915050610bf0565b6000848060000190610a6b91906142a7565b905003610a7c576000915050610bf0565b60005b848060000190610a8f91906142a7565b9050811015610bd657610ae1858060000190610aab91906142a7565b83818110610abc57610abb61430a565b5b9050602002016020810190610ad19190613d6a565b600761258790919063ffffffff16565b1580610b4e5750600073ffffffffffffffffffffffffffffffffffffffff16858060000190610b1091906142a7565b83818110610b2157610b2061430a565b5b9050602002016020810190610b369190613d6a565b73ffffffffffffffffffffffffffffffffffffffff16145b80610b8057506000858060200190610b669190614244565b83818110610b7757610b7661430a565b5b90506020020135145b15610b9057600092505050610bf0565b848060200190610ba09190614244565b82818110610bb157610bb061430a565b5b9050602002013582610bc39190614368565b915080610bcf9061439c565b9050610a7f565b506127108114610bea576000915050610bf0565b60019150505b92915050565b600260009054906101000a900473ffffffffffffffffffffffffffffffffffffffff1673ffffffffffffffffffffffffffffffffffffffff163373ffffffffffffffffffffffffffffffffffffffff1614610c7d576040517f058d9a1b00000000000000000000000000000000000000000000000000000000815260040160405180910390fd5b610c8a6000801b336125b7565b565b600460009054906101000a900473ffffffffffffffffffffffffffffffffffffffff1681565b6000610cd4610cbf612209565b610cc884611f14565b805190602001206126e1565b9050919050565b6000801b610ce881612722565b610cfc82600561273690919063ffffffff16565b610d32576040517f3334921400000000000000000000000000000000000000000000000000000000815260040160405180910390fd5b8173ffffffffffffffffffffffffffffffffffffffff167f37803e2125c48ee96c38ddf04e826daf335b0e1603579040fd275aba6d06b6fc60405160405180910390a25050565b6000806000838152602001908152602001600020600101549050919050565b600a6020528060005260406000206000915090505481565b6000801b610dbd81612722565b826000801b8103610dfa576040517f6317a0fa00000000000000000000000000000000000000000000000000000000815260040160405180910390fd5b610e0484846125b7565b50505050565b816000801b8103610e47576040517f6317a0fa00000000000000000000000000000000000000000000000000000000815260040160405180910390fd5b610e518383612766565b505050565b6000806000610e6485610cb2565b90506000610ec482868060200190610e7c91906143e4565b8080601f016020809104026020016040519081016040528093929190818152602001838380828437600081840152601f19601f820116905080830192505050505050506127e9565b9050856060016020810190610ed99190613d6a565b73ffffffffffffffffffffffffffffffffffffffff168173ffffffffffffffffffffffffffffffffffffffff161480610faa5750600c60008273ffffffffffffffffffffffffffffffffffffffff1673ffffffffffffffffffffffffffffffffffffffff1681526020019081526020016000206000876060016020810190610f619190613d6a565b73ffffffffffffffffffffffffffffffffffffffff1673ffffffffffffffffffffffffffffffffffffffff16815260200190815260200160002060009054906101000a900460ff165b610fe0576040517f8baa579f00000000000000000000000000000000000000000000000000000000815260040160405180910390fd5b600073ffffffffffffffffffffffffffffffffffffffff1686608001602081019061100b9190613d6a565b73ffffffffffffffffffffffffffffffffffffffff1603611058576040517f2c5211c600000000000000000000000000000000000000000000000000000000815260040160405180910390fd5b60008660c0013503611096576040517f2c5211c600000000000000000000000000000000000000000000000000000000815260040160405180910390fd5b60008660e00135036110d4576040517f2c5211c600000000000000000000000000000000000000000000000000000000815260040160405180910390fd5b8560200135421115611112576040517f0819bdcd00000000000000000000000000000000000000000000000000000000815260040160405180910390fd5b6001829350935050509250929050565b6000600c60008373ffffffffffffffffffffffffffffffffffffffff1673ffffffffffffffffffffffffffffffffffffffff16815260200190815260200160002060003373ffffffffffffffffffffffffffffffffffffffff1673ffffffffffffffffffffffffffffffffffffffff16815260200190815260200160002060006101000a81548160ff0219169083151502179055503373ffffffffffffffffffffffffffffffffffffffff168173ffffffffffffffffffffffffffffffffffffffff167f97b59d736dc70ae61c6b68295c19a1311cc4a48cbb9eb25c4dabf18c7f650a8a60405160405180910390a350565b6000801b61122181612722565b61123582600761273690919063ffffffff16565b61126b576040517facb80c5e00000000000000000000000000000000000000000000000000000000815260040160405180910390fd5b8173ffffffffffffffffffffffffffffffffffffffff167f75567811df62a6b68bd5ee394d5808ad7282e19541858be466bc789cad9d4dfb60405160405180910390a25050565b6000801b6112bf81612722565b600073ffffffffffffffffffffffffffffffffffffffff168273ffffffffffffffffffffffffffffffffffffffff1614806113475750600460009054906101000a900473ffffffffffffffffffffffffffffffffffffffff1673ffffffffffffffffffffffffffffffffffffffff168273ffffffffffffffffffffffffffffffffffffffff16145b80611363575061136182600761281090919063ffffffff16565b155b1561139a576040517facb80c5e00000000000000000000000000000000000000000000000000000000815260040160405180910390fd5b8173ffffffffffffffffffffffffffffffffffffffff167ffbd30b5bdd51f5de989170dc23d65aac2de0a6099f5d9d200bc5779d883abcd460405160405180910390a25050565b7f3c63e605be3290ab6b04cfc46c6e1516e626d43236b034f09d7ede1d017beb0c61140b81612722565b6114357f44ac9762eec3a11893fefb11d028bb3102560094137c3ed4518712475b2577cc83612840565b5050565b6001600c60008373ffffffffffffffffffffffffffffffffffffffff1673ffffffffffffffffffffffffffffffffffffffff16815260200190815260200160002060003373ffffffffffffffffffffffffffffffffffffffff1673ffffffffffffffffffffffffffffffffffffffff16815260200190815260200160002060006101000a81548160ff0219169083151502179055503373ffffffffffffffffffffffffffffffffffffffff168173ffffffffffffffffffffffffffffffffffffffff167fed6a1f03e365a374bf7e9fe68b09cf74960528af699108cb461241efc5ded90960405160405180910390a350565b7f3c63e605be3290ab6b04cfc46c6e1516e626d43236b034f09d7ede1d017beb0c61155581612722565b61157f7f9f2df0fed2c77648de5860a4cc508cd0818c85b8b8a1ab4ceeef8d981c8956a683612840565b5050565b6000801b61159081612722565b3373ffffffffffffffffffffffffffffffffffffffff168273ffffffffffffffffffffffffffffffffffffffff16036115f5576040517f6317a0fa00000000000000000000000000000000000000000000000000000000815260040160405180910390fd5b81600260006101000a81548173ffffffffffffffffffffffffffffffffffffffff021916908373ffffffffffffffffffffffffffffffffffffffff1602179055508173ffffffffffffffffffffffffffffffffffffffff16600160009054906101000a900473ffffffffffffffffffffffffffffffffffffffff1673ffffffffffffffffffffffffffffffffffffffff167fefdcbba819467e00b0262c12892dda980bac68580b72178e57a162368b80876660405160405180910390a35050565b600e5481565b6000600160009054906101000a900473ffffffffffffffffffffffffffffffffffffffff16905090565b600080600084815260200190815260200160002060000160008373ffffffffffffffffffffffffffffffffffffffff1673ffffffffffffffffffffffffffffffffffffffff16815260200190815260200160002060009054906101000a900460ff16905092915050565b600d5481565b61175e612921565b7f44ac9762eec3a11893fefb11d028bb3102560094137c3ed4518712475b2577cc61178881612722565b8260e00135600e5481600b6000438152602001908152602001600020546117af9190614368565b11156117e7576040517f4d4ea7ce00000000000000000000000000000000000000000000000000000000815260040160405180910390fd5b6001808111156117fa576117f9614206565b5b84600001602081019061180d9190614447565b600181111561181f5761181e614206565b5b14611856576040517faf61069300000000000000000000000000000000000000000000000000000000815260040160405180910390fd5b6118608484610e56565b50506118828460600160208101906118789190613d6a565b8560400135612970565b6118b8576040517f1b29ea7400000000000000000000000000000000000000000000000000000000815260040160405180910390fd5b8360e00135600b600043815260200190815260200160002060008282546118df9190614368565b92505081905550600460009054906101000a900473ffffffffffffffffffffffffffffffffffffffff1673ffffffffffffffffffffffffffffffffffffffff166379cc67908560600160208101906119379190613d6a565b8660e001356040518363ffffffff1660e01b8152600401611959929190613aaf565b600060405180830381600087803b15801561197357600080fd5b505af1158015611987573d6000803e3d6000fd5b505050506119be8460800160208101906119a19190613d6a565b8560a00160208101906119b49190613d6a565b8660c001356129f4565b8360e001358460c001358560a00160208101906119db9190613d6a565b73ffffffffffffffffffffffffffffffffffffffff167f18fd144d7dbcbaa6f00fd47a84adc7dc3cc64a326ffa2dc7691a25e3837dba0333886060016020810190611a269190613d6a565b896080016020810190611a399190613d6a565b604051611a4893929190614474565b60405180910390a45050611a5a612b99565b5050565b6000611a7482600561258790919063ffffffff16565b9050919050565b6000801b611a8881612722565b611a9182612ba3565b5050565b6000801b81565b600b6020528060005260406000206000915090505481565b7f3c63e605be3290ab6b04cfc46c6e1516e626d43236b034f09d7ede1d017beb0c611ade81612722565b611ae86000612ba3565b611af26000612be5565b50565b600c6020528160005260406000206020528060005260406000206000915091509054906101000a900460ff1681565b611b2c612921565b7f9f2df0fed2c77648de5860a4cc508cd0818c85b8b8a1ab4ceeef8d981c8956a6611b5681612722565b8360e00135600d5481600a600043815260200190815260200160002054611b7d9190614368565b1115611bb5576040517f0fbf0bc900000000000000000000000000000000000000000000000000000000815260040160405180910390fd5b60006001811115611bc957611bc8614206565b5b856000016020810190611bdc9190614447565b6001811115611bee57611bed614206565b5b14611c25576040517faf61069300000000000000000000000000000000000000000000000000000000815260040160405180910390fd5b611c2f8584610e56565b5050611c4d84866000016020810190611c489190614447565b6109ee565b611c83576040517f84e505d200000000000000000000000000000000000000000000000000000000815260040160405180910390fd5b611ca3856060016020810190611c999190613d6a565b8660400135612970565b611cd9576040517f1b29ea7400000000000000000000000000000000000000000000000000000000815260040160405180910390fd5b8460e00135600a60004381526020019081526020016000206000828254611d009190614368565b92505081905550611d5a8560c001358660a0016020810190611d229190613d6a565b876060016020810190611d359190613d6a565b878060000190611d4591906142a7565b898060200190611d559190614244565b612c27565b600460009054906101000a900473ffffffffffffffffffffffffffffffffffffffff1673ffffffffffffffffffffffffffffffffffffffff166340c10f19866080016020810190611dab9190613d6a565b8760e001356040518363ffffffff1660e01b8152600401611dcd929190613aaf565b600060405180830381600087803b158015611de757600080fd5b505af1158015611dfb573d6000803e3d6000fd5b505050508460e001358560c001358660a0016020810190611e1c9190613d6a565b73ffffffffffffffffffffffffffffffffffffffff167ff114ca9eb82947af39f957fa726280fd3d5d81c3d7635a4aeb5c302962856eba33896060016020810190611e679190613d6a565b8a6080016020810190611e7a9190613d6a565b604051611e8993929190614474565b60405180910390a45050611e9b612b99565b505050565b6000801b611ead81612722565b826000801b8103611eea576040517f6317a0fa00000000000000000000000000000000000000000000000000000000815260040160405180910390fd5b611ef48484612840565b50505050565b6000801b611f0781612722565b611f1082612be5565b5050565b60607fadd81430b566ae2d49ebbbd6d0bbf5717dd8781caa842362ba2b8bf25c0288b5826000016020810190611f4a9190614447565b83602001358460400135856060016020810190611f679190613d6a565b866080016020810190611f7a9190613d6a565b8760a0016020810190611f8d9190613d6a565b8860c001358960e00135604051602001611faf999897969594939291906144f3565b6040516020818303038152906040529050919050565b611fcd612921565b7f9f2df0fed2c77648de5860a4cc508cd0818c85b8b8a1ab4ceeef8d981c8956a6611ff781612722565b600073ffffffffffffffffffffffffffffffffffffffff168473ffffffffffffffffffffffffffffffffffffffff161480612043575061204184600761258790919063ffffffff16565b155b1561207a576040517fe6c4247b00000000000000000000000000000000000000000000000000000000815260040160405180910390fd5b73eeeeeeeeeeeeeeeeeeeeeeeeeeeeeeeeeeeeeeee73ffffffffffffffffffffffffffffffffffffffff168373ffffffffffffffffffffffffffffffffffffffff160361216a5760008473ffffffffffffffffffffffffffffffffffffffff16836040516120e7906145b1565b60006040518083038185875af1925050503d8060008114612124576040519150601f19603f3d011682016040523d82523d6000602084013e612129565b606091505b5050905080612164576040517f90b8ec1800000000000000000000000000000000000000000000000000000000815260040160405180910390fd5b50612196565b61219584838573ffffffffffffffffffffffffffffffffffffffff16612e059092919063ffffffff16565b5b8273ffffffffffffffffffffffffffffffffffffffff168473ffffffffffffffffffffffffffffffffffffffff167f90c5d8794dcf7c60ab2d20912d5228389b28f74d32af01e40894a784a90b9ac2846040516121f39190613e49565b60405180910390a350612204612b99565b505050565b60007f0000000000000000000000000000000000000000000000000000000000000000460361225a577f00000000000000000000000000000000000000000000000000000000000000009050612265565b612262612e8b565b90505b90565b600080600080600085036122a8576040517f756688fe00000000000000000000000000000000000000000000000000000000815260040160405180910390fd5b600060088667ffffffffffffffff16901c67ffffffffffffffff16905060008660ff166001901b90506000600960008a73ffffffffffffffffffffffffffffffffffffffff1673ffffffffffffffffffffffffffffffffffffffff16815260200190815260200160002090506000816000858152602001908152602001600020549050600083821614612367576040517f756688fe00000000000000000000000000000000000000000000000000000000815260040160405180910390fd5b600184828597509750975097505050505092959194509250565b6000801b61238e81612722565b600073ffffffffffffffffffffffffffffffffffffffff168273ffffffffffffffffffffffffffffffffffffffff1614806124165750600460009054906101000a900473ffffffffffffffffffffffffffffffffffffffff1673ffffffffffffffffffffffffffffffffffffffff168273ffffffffffffffffffffffffffffffffffffffff16145b80612432575061243082600561281090919063ffffffff16565b155b15612469576040517f3334921400000000000000000000000000000000000000000000000000000000815260040160405180910390fd5b8173ffffffffffffffffffffffffffffffffffffffff167f0e3c58ebfb2e7465fbb1c32e6b4f40c3c4f5ca77e8218a386aff8617831260d760405160405180910390a25050565b60607f39a103cb1f6bbcbbc2861a37eea5beb4ee817caf9963b8481d6ad1d956e953ee8280600001906124e391906142a7565b8480602001906124f39190614244565b604051602001612507959493929190614704565b6040516020818303038152906040529050919050565b60007f01ffc9a7000000000000000000000000000000000000000000000000000000007bffffffffffffffffffffffffffffffffffffffffffffffffffffffff1916827bffffffffffffffffffffffffffffffffffffffffffffffffffffffff1916149050919050565b60006125af836000018373ffffffffffffffffffffffffffffffffffffffff1660001b612f21565b905092915050565b6000801b82036126d3578073ffffffffffffffffffffffffffffffffffffffff16600160009054906101000a900473ffffffffffffffffffffffffffffffffffffffff1673ffffffffffffffffffffffffffffffffffffffff167ff8ccb027dfcd135e000e9d45e6cc2d662578a8825d4c45b5e32e0adf67e79ec660405160405180910390a361266c6000801b600160009054906101000a900473ffffffffffffffffffffffffffffffffffffffff16612840565b80600160006101000a81548173ffffffffffffffffffffffffffffffffffffffff021916908373ffffffffffffffffffffffffffffffffffffffff160217905550600260006101000a81549073ffffffffffffffffffffffffffffffffffffffff02191690555b6126dd8282612f44565b5050565b60006040517f190100000000000000000000000000000000000000000000000000000000000081528360028201528260228201526042812091505092915050565b6127338161272e613024565b61302c565b50565b600061275e836000018373ffffffffffffffffffffffffffffffffffffffff1660001b6130b1565b905092915050565b61276e613024565b73ffffffffffffffffffffffffffffffffffffffff168173ffffffffffffffffffffffffffffffffffffffff16146127db576040517f08c379a00000000000000000000000000000000000000000000000000000000081526004016127d2906147d0565b60405180910390fd5b6127e58282612840565b5050565b60008060006127f885856131c5565b9150915061280581613216565b819250505092915050565b6000612838836000018373ffffffffffffffffffffffffffffffffffffffff1660001b61337c565b905092915050565b61284a82826116e6565b1561291d57600080600084815260200190815260200160002060000160008373ffffffffffffffffffffffffffffffffffffffff1673ffffffffffffffffffffffffffffffffffffffff16815260200190815260200160002060006101000a81548160ff0219169083151502179055506128c2613024565b73ffffffffffffffffffffffffffffffffffffffff168173ffffffffffffffffffffffffffffffffffffffff16837ff6391f5c32d9c69d2a47ea670b442974b53935d1edc7fd64eb21e047a839171b60405160405180910390a45b5050565b600260035403612966576040517f08c379a000000000000000000000000000000000000000000000000000000000815260040161295d9061483c565b60405180910390fd5b6002600381905550565b60008060008060006129828787612268565b93509350935093506000600960008973ffffffffffffffffffffffffffffffffffffffff1673ffffffffffffffffffffffffffffffffffffffff168152602001908152602001600020905081831781600086815260200190815260200160002081905550849550505050505092915050565b73eeeeeeeeeeeeeeeeeeeeeeeeeeeeeeeeeeeeeeee73ffffffffffffffffffffffffffffffffffffffff168273ffffffffffffffffffffffffffffffffffffffff1603612b1e5780471015612a75576040517f2c5211c600000000000000000000000000000000000000000000000000000000815260040160405180910390fd5b60008373ffffffffffffffffffffffffffffffffffffffff1682604051612a9b906145b1565b60006040518083038185875af1925050503d8060008114612ad8576040519150601f19603f3d011682016040523d82523d6000602084013e612add565b606091505b5050905080612b18576040517f90b8ec1800000000000000000000000000000000000000000000000000000000815260040160405180910390fd5b50612b94565b612b3282600561258790919063ffffffff16565b612b68576040517f24a0114400000000000000000000000000000000000000000000000000000000815260040160405180910390fd5b612b9383828473ffffffffffffffffffffffffffffffffffffffff16612e059092919063ffffffff16565b5b505050565b6001600381905550565b6000600d54905081600d81905550600d54817fb4a832eb73ba0066dc45acd0d1f4454cdee155b17bdb1ccbabb428cc39750ad160405160405180910390a35050565b6000600e54905081600e81905550600e54817f6fd3eacad9328fdc902c323518cfef3a2f6a9da89c40a7b82428adc2370114c360405160405180910390a35050565b612c3b86600561258790919063ffffffff16565b1580612c86575073eeeeeeeeeeeeeeeeeeeeeeeeeeeeeeeeeeeeeeee73ffffffffffffffffffffffffffffffffffffffff168673ffffffffffffffffffffffffffffffffffffffff16145b15612cbd576040517f24a0114400000000000000000000000000000000000000000000000000000000815260040160405180910390fd5b60008690506000805b86869050811015612d7b576000612710868684818110612ce957612ce861430a565b5b905060200201358c612cfb919061485c565b612d0591906148cd565b9050612d5b89898985818110612d1e57612d1d61430a565b5b9050602002016020810190612d339190613d6a565b838773ffffffffffffffffffffffffffffffffffffffff166133ec909392919063ffffffff16565b8083612d679190614368565b92505080612d749061439c565b9050612cc6565b506000818a612d8a91906148fe565b90506000811115612df957612df888888860018b8b9050612dab91906148fe565b818110612dbb57612dba61430a565b5b9050602002016020810190612dd09190613d6a565b838673ffffffffffffffffffffffffffffffffffffffff166133ec909392919063ffffffff16565b5b50505050505050505050565b612e868363a9059cbb60e01b8484604051602401612e24929190613aaf565b604051602081830303815290604052907bffffffffffffffffffffffffffffffffffffffffffffffffffffffff19166020820180517bffffffffffffffffffffffffffffffffffffffffffffffffffffffff8381831617835250505050613475565b505050565b60007f8b73c3c69bb8fe3d512ecc4cf759cc79239f7b179b0ffacaa9a75d522b39400f7fdfc7060bb2e53279833759ad83d246a6016adac9d59a3fc1c0c23c3d495e137e7fc89efdaa54c0f20c7adf612882df0950f5a951637e0307cdcb4c672f298b8bc64630604051602001612f06959493929190614932565b60405160208183030381529060405280519060200120905090565b600080836001016000848152602001908152602001600020541415905092915050565b612f4e82826116e6565b61302057600160008084815260200190815260200160002060000160008373ffffffffffffffffffffffffffffffffffffffff1673ffffffffffffffffffffffffffffffffffffffff16815260200190815260200160002060006101000a81548160ff021916908315150217905550612fc5613024565b73ffffffffffffffffffffffffffffffffffffffff168173ffffffffffffffffffffffffffffffffffffffff16837f2f8788117e7eff1d82e926ec794901d17c78024a50270940304540a733656f0d60405160405180910390a45b5050565b600033905090565b61303682826116e6565b6130ad576130438161353d565b6130518360001c602061356a565b604051602001613062929190614a64565b6040516020818303038152906040526040517f08c379a00000000000000000000000000000000000000000000000000000000081526004016130a49190614ad7565b60405180910390fd5b5050565b600080836001016000848152602001908152602001600020549050600081146131b95760006001826130e391906148fe565b90506000600186600001805490506130fb91906148fe565b905081811461316a57600086600001828154811061311c5761311b61430a565b5b90600052602060002001549050808760000184815481106131405761313f61430a565b5b90600052602060002001819055508387600101600083815260200190815260200160002081905550505b8560000180548061317e5761317d614af9565b5b6001900381819060005260206000200160009055905585600101600086815260200190815260200160002060009055600193505050506131bf565b60009150505b92915050565b60008060418351036132065760008060006020860151925060408601519150606086015160001a90506131fa878285856137a6565b9450945050505061320f565b60006002915091505b9250929050565b6000600481111561322a57613229614206565b5b81600481111561323d5761323c614206565b5b0315613379576001600481111561325757613256614206565b5b81600481111561326a57613269614206565b5b036132aa576040517f08c379a00000000000000000000000000000000000000000000000000000000081526004016132a190614b74565b60405180910390fd5b600260048111156132be576132bd614206565b5b8160048111156132d1576132d0614206565b5b03613311576040517f08c379a000000000000000000000000000000000000000000000000000000000815260040161330890614be0565b60405180910390fd5b6003600481111561332557613324614206565b5b81600481111561333857613337614206565b5b03613378576040517f08c379a000000000000000000000000000000000000000000000000000000000815260040161336f90614c72565b60405180910390fd5b5b50565b60006133888383612f21565b6133e15782600001829080600181540180825580915050600190039060005260206000200160009091909190915055826000018054905083600101600084815260200190815260200160002081905550600190506133e6565b600090505b92915050565b61346f846323b872dd60e01b85858560405160240161340d93929190614c92565b604051602081830303815290604052907bffffffffffffffffffffffffffffffffffffffffffffffffffffffff19166020820180517bffffffffffffffffffffffffffffffffffffffffffffffffffffffff8381831617835250505050613475565b50505050565b60006134d7826040518060400160405280602081526020017f5361666545524332303a206c6f772d6c6576656c2063616c6c206661696c65648152508573ffffffffffffffffffffffffffffffffffffffff166138889092919063ffffffff16565b90506000815114806134f95750808060200190518101906134f89190614cf5565b5b613538576040517f08c379a000000000000000000000000000000000000000000000000000000000815260040161352f90614d94565b60405180910390fd5b505050565b60606135638273ffffffffffffffffffffffffffffffffffffffff16601460ff1661356a565b9050919050565b60606000600283600261357d919061485c565b6135879190614368565b67ffffffffffffffff8111156135a05761359f614db4565b5b6040519080825280601f01601f1916602001820160405280156135d25781602001600182028036833780820191505090505b5090507f30000000000000000000000000000000000000000000000000000000000000008160008151811061360a5761360961430a565b5b60200101907effffffffffffffffffffffffffffffffffffffffffffffffffffffffffffff1916908160001a9053507f78000000000000000000000000000000000000000000000000000000000000008160018151811061366e5761366d61430a565b5b60200101907effffffffffffffffffffffffffffffffffffffffffffffffffffffffffffff1916908160001a905350600060018460026136ae919061485c565b6136b89190614368565b90505b6001811115613758577f3031323334353637383961626364656600000000000000000000000000000000600f8616601081106136fa576136f961430a565b5b1a60f81b8282815181106137115761371061430a565b5b60200101907effffffffffffffffffffffffffffffffffffffffffffffffffffffffffffff1916908160001a905350600485901c94508061375190614de3565b90506136bb565b506000841461379c576040517f08c379a000000000000000000000000000000000000000000000000000000000815260040161379390614e58565b60405180910390fd5b8091505092915050565b6000807f7fffffffffffffffffffffffffffffff5d576e7357a4501ddfe92f46681b20a08360001c11156137e157600060039150915061387f565b6000600187878787604051600081526020016040526040516138069493929190614e94565b6020604051602081039080840390855afa158015613828573d6000803e3d6000fd5b505050602060405103519050600073ffffffffffffffffffffffffffffffffffffffff168173ffffffffffffffffffffffffffffffffffffffff16036138765760006001925092505061387f565b80600092509250505b94509492505050565b606061389784846000856138a0565b90509392505050565b6060824710156138e5576040517f08c379a00000000000000000000000000000000000000000000000000000000081526004016138dc90614f4b565b60405180910390fd5b6000808673ffffffffffffffffffffffffffffffffffffffff16858760405161390e9190614f9c565b60006040518083038185875af1925050503d806000811461394b576040519150601f19603f3d011682016040523d82523d6000602084013e613950565b606091505b50915091506139618783838761396d565b92505050949350505050565b606083156139cf5760008351036139c757613987856139e2565b6139c6576040517f08c379a00000000000000000000000000000000000000000000000000000000081526004016139bd90614fff565b60405180910390fd5b5b8290506139da565b6139d98383613a05565b5b949350505050565b6000808273ffffffffffffffffffffffffffffffffffffffff163b119050919050565b600082511115613a185781518083602001fd5b806040517f08c379a0000000000000000000000000000000000000000000000000000000008152600401613a4c9190614ad7565b60405180910390fd5b600073ffffffffffffffffffffffffffffffffffffffff82169050919050565b6000613a8082613a55565b9050919050565b613a9081613a75565b82525050565b6000819050919050565b613aa981613a96565b82525050565b6000604082019050613ac46000830185613a87565b613ad16020830184613aa0565b9392505050565b600080fd5b600080fd5b60007fffffffff0000000000000000000000000000000000000000000000000000000082169050919050565b613b1781613ae2565b8114613b2257600080fd5b50565b600081359050613b3481613b0e565b92915050565b600060208284031215613b5057613b4f613ad8565b5b6000613b5e84828501613b25565b91505092915050565b60008115159050919050565b613b7c81613b67565b82525050565b6000602082019050613b976000830184613b73565b92915050565b600080fd5b600060408284031215613bb857613bb7613b9d565b5b81905092915050565b60028110613bce57600080fd5b50565b600081359050613be081613bc1565b92915050565b60008060408385031215613bfd57613bfc613ad8565b5b600083013567ffffffffffffffff811115613c1b57613c1a613add565b5b613c2785828601613ba2565b9250506020613c3885828601613bd1565b9150509250929050565b6000819050919050565b6000613c67613c62613c5d84613a55565b613c42565b613a55565b9050919050565b6000613c7982613c4c565b9050919050565b6000613c8b82613c6e565b9050919050565b613c9b81613c80565b82525050565b6000602082019050613cb66000830184613c92565b92915050565b60006101008284031215613cd357613cd2613b9d565b5b81905092915050565b60006101008284031215613cf357613cf2613ad8565b5b6000613d0184828501613cbc565b91505092915050565b6000819050919050565b613d1d81613d0a565b82525050565b6000602082019050613d386000830184613d14565b92915050565b613d4781613a75565b8114613d5257600080fd5b50565b600081359050613d6481613d3e565b92915050565b600060208284031215613d8057613d7f613ad8565b5b6000613d8e84828501613d55565b91505092915050565b613da081613d0a565b8114613dab57600080fd5b50565b600081359050613dbd81613d97565b92915050565b600060208284031215613dd957613dd8613ad8565b5b6000613de784828501613dae565b91505092915050565b613df981613a96565b8114613e0457600080fd5b50565b600081359050613e1681613df0565b92915050565b600060208284031215613e3257613e31613ad8565b5b6000613e4084828501613e07565b91505092915050565b6000602082019050613e5e6000830184613aa0565b92915050565b60008060408385031215613e7b57613e7a613ad8565b5b6000613e8985828601613dae565b9250506020613e9a85828601613d55565b9150509250929050565b600060408284031215613eba57613eb9613b9d565b5b81905092915050565b6000806101208385031215613edb57613eda613ad8565b5b6000613ee985828601613cbc565b92505061010083013567ffffffffffffffff811115613f0b57613f0a613add565b5b613f1785828601613ea4565b9150509250929050565b6000604082019050613f366000830185613b73565b613f436020830184613d14565b9392505050565b6000602082019050613f5f6000830184613a87565b92915050565b60008060408385031215613f7c57613f7b613ad8565b5b6000613f8a85828601613d55565b9250506020613f9b85828601613d55565b9150509250929050565b60008060006101408486031215613fbf57613fbe613ad8565b5b6000613fcd86828701613cbc565b93505061010084013567ffffffffffffffff811115613fef57613fee613add565b5b613ffb86828701613ba2565b92505061012084013567ffffffffffffffff81111561401d5761401c613add565b5b61402986828701613ea4565b9150509250925092565b600081519050919050565b600082825260208201905092915050565b60005b8381101561406d578082015181840152602081019050614052565b60008484015250505050565b6000601f19601f8301169050919050565b600061409582614033565b61409f818561403e565b93506140af81856020860161404f565b6140b881614079565b840191505092915050565b600060208201905081810360008301526140dd818461408a565b905092915050565b6000806000606084860312156140fe576140fd613ad8565b5b600061410c86828701613d55565b935050602061411d86828701613d55565b925050604061412e86828701613e07565b9150509250925092565b6000806040838503121561414f5761414e613ad8565b5b600061415d85828601613d55565b925050602061416e85828601613e07565b9150509250929050565b600060808201905061418d6000830187613b73565b61419a6020830186613aa0565b6141a76040830185613aa0565b6141b46060830184613aa0565b95945050505050565b6000602082840312156141d3576141d2613ad8565b5b600082013567ffffffffffffffff8111156141f1576141f0613add565b5b6141fd84828501613ba2565b91505092915050565b7f4e487b7100000000000000000000000000000000000000000000000000000000600052602160045260246000fd5b600080fd5b600080fd5b600080fd5b6000808335600160200384360303811261426157614260614235565b5b80840192508235915067ffffffffffffffff8211156142835761428261423a565b5b60208301925060208202360383131561429f5761429e61423f565b5b509250929050565b600080833560016020038436030381126142c4576142c3614235565b5b80840192508235915067ffffffffffffffff8211156142e6576142e561423a565b5b6020830192506020820236038313156143025761430161423f565b5b509250929050565b7f4e487b7100000000000000000000000000000000000000000000000000000000600052603260045260246000fd5b7f4e487b7100000000000000000000000000000000000000000000000000000000600052601160045260246000fd5b600061437382613a96565b915061437e83613a96565b925082820190508082111561439657614395614339565b5b92915050565b60006143a782613a96565b91507fffffffffffffffffffffffffffffffffffffffffffffffffffffffffffffffff82036143d9576143d8614339565b5b600182019050919050565b6000808335600160200384360303811261440157614400614235565b5b80840192508235915067ffffffffffffffff8211156144235761442261423a565b5b60208301925060018202360383131561443f5761443e61423f565b5b509250929050565b60006020828403121561445d5761445c613ad8565b5b600061446b84828501613bd1565b91505092915050565b60006060820190506144896000830186613a87565b6144966020830185613a87565b6144a36040830184613a87565b949350505050565b600281106144bc576144bb614206565b5b50565b60008190506144cd826144ab565b919050565b60006144dd826144bf565b9050919050565b6144ed816144d2565b82525050565b600061012082019050614509600083018c613d14565b614516602083018b6144e4565b614523604083018a613aa0565b6145306060830189613aa0565b61453d6080830188613a87565b61454a60a0830187613a87565b61455760c0830186613a87565b61456460e0830185613aa0565b614572610100830184613aa0565b9a9950505050505050505050565b600081905092915050565b50565b600061459b600083614580565b91506145a68261458b565b600082019050919050565b60006145bc8261458e565b9150819050919050565b600082825260208201905092915050565b6000819050919050565b6145ea81613a75565b82525050565b60006145fc83836145e1565b60208301905092915050565b60006146176020840184613d55565b905092915050565b6000602082019050919050565b600061463883856145c6565b9350614643826145d7565b8060005b8581101561467c576146598284614608565b61466388826145f0565b975061466e8361461f565b925050600181019050614647565b5085925050509392505050565b600082825260208201905092915050565b600080fd5b82818337505050565b60006146b48385614689565b93507f07ffffffffffffffffffffffffffffffffffffffffffffffffffffffffffffff8311156146e7576146e661469a565b5b6020830292506146f883858461469f565b82840190509392505050565b60006060820190506147196000830188613d14565b818103602083015261472c81868861462c565b905081810360408301526147418184866146a8565b90509695505050505050565b600082825260208201905092915050565b7f416363657373436f6e74726f6c3a2063616e206f6e6c792072656e6f756e636560008201527f20726f6c657320666f722073656c660000000000000000000000000000000000602082015250565b60006147ba602f8361474d565b91506147c58261475e565b604082019050919050565b600060208201905081810360008301526147e9816147ad565b9050919050565b7f5265656e7472616e637947756172643a207265656e7472616e742063616c6c00600082015250565b6000614826601f8361474d565b9150614831826147f0565b602082019050919050565b6000602082019050818103600083015261485581614819565b9050919050565b600061486782613a96565b915061487283613a96565b925082820261488081613a96565b9150828204841483151761489757614896614339565b5b5092915050565b7f4e487b7100000000000000000000000000000000000000000000000000000000600052601260045260246000fd5b60006148d882613a96565b91506148e383613a96565b9250826148f3576148f261489e565b5b828204905092915050565b600061490982613a96565b915061491483613a96565b925082820390508181111561492c5761492b614339565b5b92915050565b600060a0820190506149476000830188613d14565b6149546020830187613d14565b6149616040830186613d14565b61496e6060830185613aa0565b61497b6080830184613a87565b9695505050505050565b600081905092915050565b7f416363657373436f6e74726f6c3a206163636f756e7420000000000000000000600082015250565b60006149c6601783614985565b91506149d182614990565b601782019050919050565b600081519050919050565b60006149f2826149dc565b6149fc8185614985565b9350614a0c81856020860161404f565b80840191505092915050565b7f206973206d697373696e6720726f6c6520000000000000000000000000000000600082015250565b6000614a4e601183614985565b9150614a5982614a18565b601182019050919050565b6000614a6f826149b9565b9150614a7b82856149e7565b9150614a8682614a41565b9150614a9282846149e7565b91508190509392505050565b6000614aa9826149dc565b614ab3818561474d565b9350614ac381856020860161404f565b614acc81614079565b840191505092915050565b60006020820190508181036000830152614af18184614a9e565b905092915050565b7f4e487b7100000000000000000000000000000000000000000000000000000000600052603160045260246000fd5b7f45434453413a20696e76616c6964207369676e61747572650000000000000000600082015250565b6000614b5e60188361474d565b9150614b6982614b28565b602082019050919050565b60006020820190508181036000830152614b8d81614b51565b9050919050565b7f45434453413a20696e76616c6964207369676e6174757265206c656e67746800600082015250565b6000614bca601f8361474d565b9150614bd582614b94565b602082019050919050565b60006020820190508181036000830152614bf981614bbd565b9050919050565b7f45434453413a20696e76616c6964207369676e6174757265202773272076616c60008201527f7565000000000000000000000000000000000000000000000000000000000000602082015250565b6000614c5c60228361474d565b9150614c6782614c00565b604082019050919050565b60006020820190508181036000830152614c8b81614c4f565b9050919050565b6000606082019050614ca76000830186613a87565b614cb46020830185613a87565b614cc16040830184613aa0565b949350505050565b614cd281613b67565b8114614cdd57600080fd5b50565b600081519050614cef81614cc9565b92915050565b600060208284031215614d0b57614d0a613ad8565b5b6000614d1984828501614ce0565b91505092915050565b7f5361666545524332303a204552433230206f7065726174696f6e20646964206e60008201527f6f74207375636365656400000000000000000000000000000000000000000000602082015250565b6000614d7e602a8361474d565b9150614d8982614d22565b604082019050919050565b60006020820190508181036000830152614dad81614d71565b9050919050565b7f4e487b7100000000000000000000000000000000000000000000000000000000600052604160045260246000fd5b6000614dee82613a96565b915060008203614e0157614e00614339565b5b600182039050919050565b7f537472696e67733a20686578206c656e67746820696e73756666696369656e74600082015250565b6000614e4260208361474d565b9150614e4d82614e0c565b602082019050919050565b60006020820190508181036000830152614e7181614e35565b9050919050565b600060ff82169050919050565b614e8e81614e78565b82525050565b6000608082019050614ea96000830187613d14565b614eb66020830186614e85565b614ec36040830185613d14565b614ed06060830184613d14565b95945050505050565b7f416464726573733a20696e73756666696369656e742062616c616e636520666f60008201527f722063616c6c0000000000000000000000000000000000000000000000000000602082015250565b6000614f3560268361474d565b9150614f4082614ed9565b604082019050919050565b60006020820190508181036000830152614f6481614f28565b9050919050565b6000614f7682614033565b614f808185614580565b9350614f9081856020860161404f565b80840191505092915050565b6000614fa88284614f6b565b915081905092915050565b7f416464726573733a2063616c6c20746f206e6f6e2d636f6e7472616374000000600082015250565b6000614fe9601d8361474d565b9150614ff482614fb3565b602082019050919050565b6000602082019050818103600083015261501881614fdc565b905091905056fea2646970667358221220f6afd3f36faf238e8c0ad4eea4ed17599af636366a167e5da708a7142b612b3a64736f6c63430008130033","linkReferences":{}},"methodIdentifiers":{"DEFAULT_ADMIN_ROLE()":"a217fddf","acceptAdmin()":"0e18b681","addCustodianAddress(address)":"4be7a64b","addSupportedAsset(address)":"fac09e87","delegatedSigner(address,address)":"cf9cc766","disableMintRedeem()":"c5ff38bd","encodeOrder((uint8,uint256,uint256,address,address,address,uint256,uint256))":"d8f065bd","encodeRoute((address[],uint256[]))":"ffc92f6b","getDomainSeparator()":"ed24911d","getRoleAdmin(bytes32)":"248a9ca3","grantRole(bytes32,address)":"2f2ff15d","hasRole(bytes32,address)":"91d14854","hashOrder((uint8,uint256,uint256,address,address,address,uint256,uint256))":"19bfcdec","isSupportedAsset(address)":"9be918e6","maxMintPerBlock()":"928907dd","maxRedeemPerBlock()":"844452fa","mint((uint8,uint256,uint256,address,address,address,uint256,uint256),(address[],uint256[]),(uint8,bytes))":"d48c03e5","mintedPerBlock(uint256)":"2ba32991","owner()":"8da5cb5b","redeem((uint8,uint256,uint256,address,address,address,uint256,uint256),(uint8,bytes))":"95165e8b","redeemedPerBlock(uint256)":"b6c78063","removeCustodianAddress(address)":"4ba87af9","removeDelegatedSigner(address)":"40e49216","removeMinterRole(address)":"54f1e126","removeRedeemerRole(address)":"532c3f82","removeSupportedAsset(address)":"1c46bc6f","renounceRole(bytes32,address)":"36568abe","revokeRole(bytes32,address)":"d547741f","setDelegatedSigner(address)":"53863613","setMaxMintPerBlock(uint256)":"9cd29136","setMaxRedeemPerBlock(uint256)":"d8369d75","supportsInterface(bytes4)":"01ffc9a7","transferAdmin(address)":"75829def","transferToCustody(address,address,uint256)":"e0f3fc9f","usde()":"0fd761e0","verifyNonce(address,uint256)":"f4ee2a8b","verifyOrder((uint8,uint256,uint256,address,address,address,uint256,uint256),(uint8,bytes))":"402a8d37","verifyRoute((address[],uint256[]),uint8)":"068f3877"},"id":59}