{"abi":[{"type":"constructor","inputs":[{"name":"admin","type":"address","internalType":"address"}],"stateMutability":"nonpayable"},{"type":"function","name":"DOMAIN_SEPARATOR","inputs":[],"outputs":[{"name":"","type":"bytes32","internalType":"bytes32"}],"stateMutability":"view"},{"type":"function","name":"acceptOwnership","inputs":[],"outputs":[],"stateMutability":"nonpayable"},{"type":"function","name":"allowance","inputs":[{"name":"owner","type":"address","internalType":"address"},{"name":"spender","type":"address","internalType":"address"}],"outputs":[{"name":"","type":"uint256","internalType":"uint256"}],"stateMutability":"view"},{"type":"function","name":"approve","inputs":[{"name":"spender","type":"address","internalType":"address"},{"name":"amount","type":"uint256","internalType":"uint256"}],"outputs":[{"name":"","type":"bool","internalType":"bool"}],"stateMutability":"nonpayable"},{"type":"function","name":"balanceOf","inputs":[{"name":"account","type":"address","internalType":"address"}],"outputs":[{"name":"","type":"uint256","internalType":"uint256"}],"stateMutability":"view"},{"type":"function","name":"burn","inputs":[{"name":"amount","type":"uint256","internalType":"uint256"}],"outputs":[],"stateMutability":"nonpayable"},{"type":"function","name":"burnFrom","inputs":[{"name":"account","type":"address","internalType":"address"},{"name":"amount","type":"uint256","internalType":"uint256"}],"outputs":[],"stateMutability":"nonpayable"},{"type":"function","name":"decimals","inputs":[],"outputs":[{"name":"","type":"uint8","internalType":"uint8"}],"stateMutability":"view"},{"type":"function","name":"decreaseAllowance","inputs":[{"name":"spender","type":"address","internalType":"address"},{"name":"subtractedValue","type":"uint256","internalType":"uint256"}],"outputs":[{"name":"","type":"bool","internalType":"bool"}],"stateMutability":"nonpayable"},{"type":"function","name":"eip712Domain","inputs":[],"outputs":[{"name":"fields","type":"bytes1","internalType":"bytes1"},{"name":"name","type":"string","internalType":"string"},{"name":"version","type":"string","internalType":"string"},{"name":"chainId","type":"uint256","internalType":"uint256"},{"name":"verifyingContract","type":"address","internalType":"address"},{"name":"salt","type":"bytes32","internalType":"bytes32"},{"name":"extensions","type":"uint256[]","internalType":"uint256[]"}],"stateMutability":"view"},{"type":"function","name":"increaseAllowance","inputs":[{"name":"spender","type":"address","internalType":"address"},{"name":"addedValue","type":"uint256","internalType":"uint256"}],"outputs":[{"name":"","type":"bool","internalType":"bool"}],"stateMutability":"nonpayable"},{"type":"function","name":"mint","inputs":[{"name":"to","type":"address","internalType":"address"},{"name":"amount","type":"uint256","internalType":"uint256"}],"outputs":[],"stateMutability":"nonpayable"},{"type":"function","name":"minter","inputs":[],"outputs":[{"name":"","type":"address","internalType":"address"}],"stateMutability":"view"},{"type":"function","name":"name","inputs":[],"outputs":[{"name":"","type":"string","internalType":"string"}],"stateMutability":"view"},{"type":"function","name":"nonces","inputs":[{"name":"owner","type":"address","internalType":"address"}],"outputs":[{"name":"","type":"uint256","internalType":"uint256"}],"stateMutability":"view"},{"type":"function","name":"owner","inputs":[],"outputs":[{"name":"","type":"address","internalType":"address"}],"stateMutability":"view"},{"type":"function","name":"pendingOwner","inputs":[],"outputs":[{"name":"","type":"address","internalType":"address"}],"stateMutability":"view"},{"type":"function","name":"permit","inputs":[{"name":"owner","type":"address","internalType":"address"},{"name":"spender","type":"address","internalType":"address"},{"name":"value","type":"uint256","internalType":"uint256"},{"name":"deadline","type":"uint256","internalType":"uint256"},{"name":"v","type":"uint8","internalType":"uint8"},{"name":"r","type":"bytes32","internalType":"bytes32"},{"name":"s","type":"bytes32","internalType":"bytes32"}],"outputs":[],"stateMutability":"nonpayable"},{"type":"function","name":"renounceOwnership","inputs":[],"outputs":[],"stateMutability":"view"},{"type":"function","name":"setMinter","inputs":[{"name":"newMinter","type":"address","internalType":"address"}],"outputs":[],"stateMutability":"nonpayable"},{"type":"function","name":"symbol","inputs":[],"outputs":[{"name":"","type":"string","internalType":"string"}],"stateMutability":"view"},{"type":"function","name":"totalSupply","inputs":[],"outputs":[{"name":"","type":"uint256","internalType":"uint256"}],"stateMutability":"view"},{"type":"function","name":"transfer","inputs":[{"name":"to","type":"address","internalType":"address"},{"name":"amount","type":"uint256","internalType":"uint256"}],"outputs":[{"name":"","type":"bool","internalType":"bool"}],"stateMutability":"nonpayable"},{"type":"function","name":"transferFrom","inputs":[{"name":"from","type":"address","internalType":"address"},{"name":"to","type":"address","internalType":"address"},{"name":"amount","type":"uint256","internalType":"uint256"}],"outputs":[{"name":"","type":"bool","internalType":"bool"}],"stateMutability":"nonpayable"},{"type":"function","name":"transferOwnership","inputs":[{"name":"newOwner","type":"address","internalType":"address"}],"outputs":[],"stateMutability":"nonpayable"},{"type":"event","name":"Approval","inputs":[{"name":"owner","type":"address","indexed":true,"internalType":"address"},{"name":"spender","type":"address","indexed":true,"internalType":"address"},{"name":"value","type":"uint256","indexed":false,"internalType":"uint256"}],"anonymous":false},{"type":"event","name":"EIP712DomainChanged","inputs":[],"anonymous":false},{"type":"event","name":"MinterUpdated","inputs":[{"name":"newMinter","type":"address","indexed":true,"internalType":"address"},{"name":"oldMinter","type":"address","indexed":true,"internalType":"address"}],"anonymous":false},{"type":"event","name":"OwnershipTransferStarted","inputs":[{"name":"previousOwner","type":"address","indexed":true,"internalType":"address"},{"name":"newOwner","type":"address","indexed":true,"internalType":"address"}],"anonymous":false},{"type":"event","name":"OwnershipTransferred","inputs":[{"name":"previousOwner","type":"address","indexed":true,"internalType":"address"},{"name":"newOwner","type":"address","indexed":true,"internalType":"address"}],"anonymous":false},{"type":"event","name":"Transfer","inputs":[{"name":"from","type":"address","indexed":true,"internalType":"address"},{"name":"to","type":"address","indexed":true,"internalType":"address"},{"name":"value","type":"uint256","indexed":false,"internalType":"uint256"}],"anonymous":false},{"type":"error","name":"CantRenounceOwnership","inputs":[]},{"type":"error","name":"InvalidShortString","inputs":[]},{"type":"error","name":"OnlyMinter","inputs":[]},{"type":"error","name":"StringTooLong","inputs":[{"name":"str","type":"string","internalType":"string"}]},{"type":"error","name":"ZeroAddressException","inputs":[]}],"bytecode":{"object":"0x6101606040523480156200001257600080fd5b506040516200397838038062003978833981810160405281019062000038919062000522565b6040518060400160405280600481526020017f5553446500000000000000000000000000000000000000000000000000000000815250806040518060400160405280600181526020017f31000000000000000000000000000000000000000000000000000000000000008152506040518060400160405280600481526020017f55534465000000000000000000000000000000000000000000000000000000008152506040518060400160405280600481526020017f555344650000000000000000000000000000000000000000000000000000000081525062000131620001256200028760201b60201c565b6200028f60201b60201c565b8160059081620001429190620007ce565b508060069081620001549190620007ce565b5050506200016d600783620002c860201b90919060201c565b61012081815250506200018b600882620002c860201b90919060201c565b6101408181525050818051906020012060e08181525050808051906020012061010081815250504660a08181525050620001ca6200032060201b60201c565b608081815250503073ffffffffffffffffffffffffffffffffffffffff1660c08173ffffffffffffffffffffffffffffffffffffffff1681525050505050600073ffffffffffffffffffffffffffffffffffffffff168173ffffffffffffffffffffffffffffffffffffffff16036200026f576040517fb2335f2e00000000000000000000000000000000000000000000000000000000815260040160405180910390fd5b62000280816200028f60201b60201c565b5062000aa4565b600033905090565b600160006101000a81549073ffffffffffffffffffffffffffffffffffffffff0219169055620002c5816200037d60201b60201c565b50565b6000602083511015620002ee57620002e6836200044160201b60201c565b90506200031a565b826200030083620004ae60201b60201c565b6000019081620003119190620007ce565b5060ff60001b90505b92915050565b60007f8b73c3c69bb8fe3d512ecc4cf759cc79239f7b179b0ffacaa9a75d522b39400f60e05161010051463060405160200162000362959493929190620008f2565b60405160208183030381529060405280519060200120905090565b60008060009054906101000a900473ffffffffffffffffffffffffffffffffffffffff169050816000806101000a81548173ffffffffffffffffffffffffffffffffffffffff021916908373ffffffffffffffffffffffffffffffffffffffff1602179055508173ffffffffffffffffffffffffffffffffffffffff168173ffffffffffffffffffffffffffffffffffffffff167f8be0079c531659141344cd1fd0a4f28419497f9722a3daafe3b4186f6b6457e060405160405180910390a35050565b600080829050601f815111156200049157826040517f305a27a9000000000000000000000000000000000000000000000000000000008152600401620004889190620009de565b60405180910390fd5b8051816200049f9062000a34565b60001c1760001b915050919050565b6000819050919050565b600080fd5b600073ffffffffffffffffffffffffffffffffffffffff82169050919050565b6000620004ea82620004bd565b9050919050565b620004fc81620004dd565b81146200050857600080fd5b50565b6000815190506200051c81620004f1565b92915050565b6000602082840312156200053b576200053a620004b8565b5b60006200054b848285016200050b565b91505092915050565b600081519050919050565b7f4e487b7100000000000000000000000000000000000000000000000000000000600052604160045260246000fd5b7f4e487b7100000000000000000000000000000000000000000000000000000000600052602260045260246000fd5b60006002820490506001821680620005d657607f821691505b602082108103620005ec57620005eb6200058e565b5b50919050565b60008190508160005260206000209050919050565b60006020601f8301049050919050565b600082821b905092915050565b600060088302620006567fffffffffffffffffffffffffffffffffffffffffffffffffffffffffffffffff8262000617565b62000662868362000617565b95508019841693508086168417925050509392505050565b6000819050919050565b6000819050919050565b6000620006af620006a9620006a3846200067a565b62000684565b6200067a565b9050919050565b6000819050919050565b620006cb836200068e565b620006e3620006da82620006b6565b84845462000624565b825550505050565b600090565b620006fa620006eb565b62000707818484620006c0565b505050565b5b818110156200072f5762000723600082620006f0565b6001810190506200070d565b5050565b601f8211156200077e576200074881620005f2565b620007538462000607565b8101602085101562000763578190505b6200077b620007728562000607565b8301826200070c565b50505b505050565b600082821c905092915050565b6000620007a36000198460080262000783565b1980831691505092915050565b6000620007be838362000790565b9150826002028217905092915050565b620007d98262000554565b67ffffffffffffffff811115620007f557620007f46200055f565b5b620008018254620005bd565b6200080e82828562000733565b600060209050601f83116001811462000846576000841562000831578287015190505b6200083d8582620007b0565b865550620008ad565b601f1984166200085686620005f2565b60005b82811015620008805784890151825560018201915060208501945060208101905062000859565b86831015620008a057848901516200089c601f89168262000790565b8355505b6001600288020188555050505b505050505050565b6000819050919050565b620008ca81620008b5565b82525050565b620008db816200067a565b82525050565b620008ec81620004dd565b82525050565b600060a082019050620009096000830188620008bf565b620009186020830187620008bf565b620009276040830186620008bf565b620009366060830185620008d0565b620009456080830184620008e1565b9695505050505050565b600082825260208201905092915050565b60005b838110156200098057808201518184015260208101905062000963565b60008484015250505050565b6000601f19601f8301169050919050565b6000620009aa8262000554565b620009b681856200094f565b9350620009c881856020860162000960565b620009d3816200098c565b840191505092915050565b60006020820190508181036000830152620009fa81846200099d565b905092915050565b600081519050919050565b6000819050602082019050919050565b600062000a2b8251620008b5565b80915050919050565b600062000a418262000a02565b8262000a4d8462000a0d565b905062000a5a8162000a1d565b9250602082101562000a9d5762000a987fffffffffffffffffffffffffffffffffffffffffffffffffffffffffffffffff8360200360080262000617565b831692505b5050919050565b60805160a05160c05160e051610100516101205161014051612e7962000aff600039600061089b015260006108670152600061192601526000611905015260006112ed015260006113430152600061136c0152612e796000f3fe608060405234801561001057600080fd5b50600436106101735760003560e01c806379ba5097116100de578063a457c2d711610097578063dd62ed3e11610071578063dd62ed3e14610442578063e30c397814610472578063f2fde38b14610490578063fca3b5aa146104ac57610173565b8063a457c2d7146103c6578063a9059cbb146103f6578063d505accf1461042657610173565b806379ba50971461031057806379cc67901461031a5780637ecebe001461033657806384b0196e146103665780638da5cb5b1461038a57806395d89b41146103a857610173565b80633644e515116101305780633644e51514610250578063395093511461026e57806340c10f191461029e57806342966c68146102ba57806370a08231146102d6578063715018a61461030657610173565b806306fdde03146101785780630754617214610196578063095ea7b3146101b457806318160ddd146101e457806323b872dd14610202578063313ce56714610232575b600080fd5b6101806104c8565b60405161018d9190611e2d565b60405180910390f35b61019e61055a565b6040516101ab9190611e90565b60405180910390f35b6101ce60048036038101906101c99190611f12565b610580565b6040516101db9190611f6d565b60405180910390f35b6101ec6105a3565b6040516101f99190611f97565b60405180910390f35b61021c60048036038101906102179190611fb2565b6105ad565b6040516102299190611f6d565b60405180910390f35b61023a6105dc565b6040516102479190612021565b60405180910390f35b6102586105e5565b6040516102659190612055565b60405180910390f35b61028860048036038101906102839190611f12565b6105f4565b6040516102959190611f6d565b60405180910390f35b6102b860048036038101906102b39190611f12565b61062b565b005b6102d460048036038101906102cf9190612070565b6106c0565b005b6102f060048036038101906102eb919061209d565b6106d4565b6040516102fd9190611f97565b60405180910390f35b61030e61071d565b005b610318610757565b005b610334600480360381019061032f9190611f12565b6107e4565b005b610350600480360381019061034b919061209d565b610804565b60405161035d9190611f97565b60405180910390f35b61036e610854565b60405161038197969594939291906121c3565b60405180910390f35b610392610956565b60405161039f9190611e90565b60405180910390f35b6103b061097f565b6040516103bd9190611e2d565b60405180910390f35b6103e060048036038101906103db9190611f12565b610a11565b6040516103ed9190611f6d565b60405180910390f35b610410600480360381019061040b9190611f12565b610a88565b60405161041d9190611f6d565b60405180910390f35b610440600480360381019061043b919061229f565b610aab565b005b61045c60048036038101906104579190612341565b610bed565b6040516104699190611f97565b60405180910390f35b61047a610c74565b6040516104879190611e90565b60405180910390f35b6104aa60048036038101906104a5919061209d565b610c9e565b005b6104c660048036038101906104c1919061209d565b610d4b565b005b6060600580546104d7906123b0565b80601f0160208091040260200160405190810160405280929190818152602001828054610503906123b0565b80156105505780601f1061052557610100808354040283529160200191610550565b820191906000526020600020905b81548152906001019060200180831161053357829003601f168201915b5050505050905090565b600b60009054906101000a900473ffffffffffffffffffffffffffffffffffffffff1681565b60008061058b610e13565b9050610598818585610e1b565b600191505092915050565b6000600454905090565b6000806105b8610e13565b90506105c5858285610fe4565b6105d0858585611070565b60019150509392505050565b60006012905090565b60006105ef6112e9565b905090565b6000806105ff610e13565b90506106208185856106118589610bed565b61061b9190612410565b610e1b565b600191505092915050565b600b60009054906101000a900473ffffffffffffffffffffffffffffffffffffffff1673ffffffffffffffffffffffffffffffffffffffff163373ffffffffffffffffffffffffffffffffffffffff16146106b2576040517f9cdc2ed500000000000000000000000000000000000000000000000000000000815260040160405180910390fd5b6106bc82826113a0565b5050565b6106d16106cb610e13565b826114f7565b50565b6000600260008373ffffffffffffffffffffffffffffffffffffffff1673ffffffffffffffffffffffffffffffffffffffff168152602001908152602001600020549050919050565b6107256116c6565b6040517f185b73b100000000000000000000000000000000000000000000000000000000815260040160405180910390fd5b6000610761610e13565b90508073ffffffffffffffffffffffffffffffffffffffff16610782610c74565b73ffffffffffffffffffffffffffffffffffffffff16146107d8576040517f08c379a00000000000000000000000000000000000000000000000000000000081526004016107cf906124b6565b60405180910390fd5b6107e181611744565b50565b6107f6826107f0610e13565b83610fe4565b61080082826114f7565b5050565b600061084d600960008473ffffffffffffffffffffffffffffffffffffffff1673ffffffffffffffffffffffffffffffffffffffff168152602001908152602001600020611775565b9050919050565b60006060806000806000606061089460077f000000000000000000000000000000000000000000000000000000000000000061178390919063ffffffff16565b6108c860087f000000000000000000000000000000000000000000000000000000000000000061178390919063ffffffff16565b46306000801b600067ffffffffffffffff8111156108e9576108e86124d6565b5b6040519080825280602002602001820160405280156109175781602001602082028036833780820191505090505b507f0f00000000000000000000000000000000000000000000000000000000000000959493929190965096509650965096509650965090919293949596565b60008060009054906101000a900473ffffffffffffffffffffffffffffffffffffffff16905090565b60606006805461098e906123b0565b80601f01602080910402602001604051908101604052809291908181526020018280546109ba906123b0565b8015610a075780601f106109dc57610100808354040283529160200191610a07565b820191906000526020600020905b8154815290600101906020018083116109ea57829003601f168201915b5050505050905090565b600080610a1c610e13565b90506000610a2a8286610bed565b905083811015610a6f576040517f08c379a0000000000000000000000000000000000000000000000000000000008152600401610a6690612577565b60405180910390fd5b610a7c8286868403610e1b565b60019250505092915050565b600080610a93610e13565b9050610aa0818585611070565b600191505092915050565b83421115610aee576040517f08c379a0000000000000000000000000000000000000000000000000000000008152600401610ae5906125e3565b60405180910390fd5b60007f6e71edae12b1b97f4d1f60370fef10105fa2faae0126114a169c64845d6126c9888888610b1d8c611833565b89604051602001610b3396959493929190612603565b6040516020818303038152906040528051906020012090506000610b5682611891565b90506000610b66828787876118ab565b90508973ffffffffffffffffffffffffffffffffffffffff168173ffffffffffffffffffffffffffffffffffffffff1614610bd6576040517f08c379a0000000000000000000000000000000000000000000000000000000008152600401610bcd906126b0565b60405180910390fd5b610be18a8a8a610e1b565b50505050505050505050565b6000600360008473ffffffffffffffffffffffffffffffffffffffff1673ffffffffffffffffffffffffffffffffffffffff16815260200190815260200160002060008373ffffffffffffffffffffffffffffffffffffffff1673ffffffffffffffffffffffffffffffffffffffff16815260200190815260200160002054905092915050565b6000600160009054906101000a900473ffffffffffffffffffffffffffffffffffffffff16905090565b610ca66116c6565b80600160006101000a81548173ffffffffffffffffffffffffffffffffffffffff021916908373ffffffffffffffffffffffffffffffffffffffff1602179055508073ffffffffffffffffffffffffffffffffffffffff16610d06610956565b73ffffffffffffffffffffffffffffffffffffffff167f38d16b8cac22d99fc7c124b9cd0de2d3fa1faef420bfe791d8c362d765e2270060405160405180910390a350565b610d536116c6565b600b60009054906101000a900473ffffffffffffffffffffffffffffffffffffffff1673ffffffffffffffffffffffffffffffffffffffff168173ffffffffffffffffffffffffffffffffffffffff167f1cf2de25c5bf439ac0287061c3a0fa69b3b02867d0ccfd2ded34e42577050b7360405160405180910390a380600b60006101000a81548173ffffffffffffffffffffffffffffffffffffffff021916908373ffffffffffffffffffffffffffffffffffffffff16021790555050565b600033905090565b600073ffffffffffffffffffffffffffffffffffffffff168373ffffffffffffffffffffffffffffffffffffffff1603610e8a576040517f08c379a0000000000000000000000000000000000000000000000000000000008152600401610e8190612742565b60405180910390fd5b600073ffffffffffffffffffffffffffffffffffffffff168273ffffffffffffffffffffffffffffffffffffffff1603610ef9576040517f08c379a0000000000000000000000000000000000000000000000000000000008152600401610ef0906127d4565b60405180910390fd5b80600360008573ffffffffffffffffffffffffffffffffffffffff1673ffffffffffffffffffffffffffffffffffffffff16815260200190815260200160002060008473ffffffffffffffffffffffffffffffffffffffff1673ffffffffffffffffffffffffffffffffffffffff168152602001908152602001600020819055508173ffffffffffffffffffffffffffffffffffffffff168373ffffffffffffffffffffffffffffffffffffffff167f8c5be1e5ebec7d5bd14f71427d1e84f3dd0314c0f7b2291e5b200ac8c7c3b92583604051610fd79190611f97565b60405180910390a3505050565b6000610ff08484610bed565b90507fffffffffffffffffffffffffffffffffffffffffffffffffffffffffffffffff811461106a578181101561105c576040517f08c379a000000000000000000000000000000000000000000000000000000000815260040161105390612840565b60405180910390fd5b6110698484848403610e1b565b5b50505050565b600073ffffffffffffffffffffffffffffffffffffffff168373ffffffffffffffffffffffffffffffffffffffff16036110df576040517f08c379a00000000000000000000000000000000000000000000000000000000081526004016110d6906128d2565b60405180910390fd5b600073ffffffffffffffffffffffffffffffffffffffff168273ffffffffffffffffffffffffffffffffffffffff160361114e576040517f08c379a000000000000000000000000000000000000000000000000000000000815260040161114590612964565b60405180910390fd5b6111598383836118d6565b6000600260008573ffffffffffffffffffffffffffffffffffffffff1673ffffffffffffffffffffffffffffffffffffffff168152602001908152602001600020549050818110156111e0576040517f08c379a00000000000000000000000000000000000000000000000000000000081526004016111d7906129f6565b60405180910390fd5b818103600260008673ffffffffffffffffffffffffffffffffffffffff1673ffffffffffffffffffffffffffffffffffffffff1681526020019081526020016000208190555081600260008573ffffffffffffffffffffffffffffffffffffffff1673ffffffffffffffffffffffffffffffffffffffff168152602001908152602001600020600082825401925050819055508273ffffffffffffffffffffffffffffffffffffffff168473ffffffffffffffffffffffffffffffffffffffff167fddf252ad1be2c89b69c2b068fc378daa952ba7f163c4a11628f55a4df523b3ef846040516112d09190611f97565b60405180910390a36112e38484846118db565b50505050565b60007f000000000000000000000000000000000000000000000000000000000000000073ffffffffffffffffffffffffffffffffffffffff163073ffffffffffffffffffffffffffffffffffffffff1614801561136557507f000000000000000000000000000000000000000000000000000000000000000046145b15611392577f0000000000000000000000000000000000000000000000000000000000000000905061139d565b61139a6118e0565b90505b90565b600073ffffffffffffffffffffffffffffffffffffffff168273ffffffffffffffffffffffffffffffffffffffff160361140f576040517f08c379a000000000000000000000000000000000000000000000000000000000815260040161140690612a62565b60405180910390fd5b61141b600083836118d6565b806004600082825461142d9190612410565b9250508190555080600260008473ffffffffffffffffffffffffffffffffffffffff1673ffffffffffffffffffffffffffffffffffffffff168152602001908152602001600020600082825401925050819055508173ffffffffffffffffffffffffffffffffffffffff16600073ffffffffffffffffffffffffffffffffffffffff167fddf252ad1be2c89b69c2b068fc378daa952ba7f163c4a11628f55a4df523b3ef836040516114df9190611f97565b60405180910390a36114f3600083836118db565b5050565b600073ffffffffffffffffffffffffffffffffffffffff168273ffffffffffffffffffffffffffffffffffffffff1603611566576040517f08c379a000000000000000000000000000000000000000000000000000000000815260040161155d90612af4565b60405180910390fd5b611572826000836118d6565b6000600260008473ffffffffffffffffffffffffffffffffffffffff1673ffffffffffffffffffffffffffffffffffffffff168152602001908152602001600020549050818110156115f9576040517f08c379a00000000000000000000000000000000000000000000000000000000081526004016115f090612b86565b60405180910390fd5b818103600260008573ffffffffffffffffffffffffffffffffffffffff1673ffffffffffffffffffffffffffffffffffffffff1681526020019081526020016000208190555081600460008282540392505081905550600073ffffffffffffffffffffffffffffffffffffffff168373ffffffffffffffffffffffffffffffffffffffff167fddf252ad1be2c89b69c2b068fc378daa952ba7f163c4a11628f55a4df523b3ef846040516116ad9190611f97565b60405180910390a36116c1836000846118db565b505050565b6116ce610e13565b73ffffffffffffffffffffffffffffffffffffffff166116ec610956565b73ffffffffffffffffffffffffffffffffffffffff1614611742576040517f08c379a000000000000000000000000000000000000000000000000000000000815260040161173990612bf2565b60405180910390fd5b565b600160006101000a81549073ffffffffffffffffffffffffffffffffffffffff021916905561177281611976565b50565b600081600001549050919050565b606060ff60001b83146117a05761179983611a3a565b905061182d565b8180546117ac906123b0565b80601f01602080910402602001604051908101604052809291908181526020018280546117d8906123b0565b80156118255780601f106117fa57610100808354040283529160200191611825565b820191906000526020600020905b81548152906001019060200180831161180857829003601f168201915b505050505090505b92915050565b600080600960008473ffffffffffffffffffffffffffffffffffffffff1673ffffffffffffffffffffffffffffffffffffffff168152602001908152602001600020905061188081611775565b915061188b81611aae565b50919050565b60006118a461189e6112e9565b83611ac4565b9050919050565b60008060006118bc87878787611b05565b915091506118c981611be7565b8192505050949350505050565b505050565b505050565b60007f8b73c3c69bb8fe3d512ecc4cf759cc79239f7b179b0ffacaa9a75d522b39400f7f00000000000000000000000000000000000000000000000000000000000000007f0000000000000000000000000000000000000000000000000000000000000000463060405160200161195b959493929190612c12565b60405160208183030381529060405280519060200120905090565b60008060009054906101000a900473ffffffffffffffffffffffffffffffffffffffff169050816000806101000a81548173ffffffffffffffffffffffffffffffffffffffff021916908373ffffffffffffffffffffffffffffffffffffffff1602179055508173ffffffffffffffffffffffffffffffffffffffff168173ffffffffffffffffffffffffffffffffffffffff167f8be0079c531659141344cd1fd0a4f28419497f9722a3daafe3b4186f6b6457e060405160405180910390a35050565b60606000611a4783611d4d565b90506000602067ffffffffffffffff811115611a6657611a656124d6565b5b6040519080825280601f01601f191660200182016040528015611a985781602001600182028036833780820191505090505b5090508181528360208201528092505050919050565b6001816000016000828254019250508190555050565b60006040517f190100000000000000000000000000000000000000000000000000000000000081528360028201528260228201526042812091505092915050565b6000807f7fffffffffffffffffffffffffffffff5d576e7357a4501ddfe92f46681b20a08360001c1115611b40576000600391509150611bde565b600060018787878760405160008152602001604052604051611b659493929190612c65565b6020604051602081039080840390855afa158015611b87573d6000803e3d6000fd5b505050602060405103519050600073ffffffffffffffffffffffffffffffffffffffff168173ffffffffffffffffffffffffffffffffffffffff1603611bd557600060019250925050611bde565b80600092509250505b94509492505050565b60006004811115611bfb57611bfa612caa565b5b816004811115611c0e57611c0d612caa565b5b0315611d4a5760016004811115611c2857611c27612caa565b5b816004811115611c3b57611c3a612caa565b5b03611c7b576040517f08c379a0000000000000000000000000000000000000000000000000000000008152600401611c7290612d25565b60405180910390fd5b60026004811115611c8f57611c8e612caa565b5b816004811115611ca257611ca1612caa565b5b03611ce2576040517f08c379a0000000000000000000000000000000000000000000000000000000008152600401611cd990612d91565b60405180910390fd5b60036004811115611cf657611cf5612caa565b5b816004811115611d0957611d08612caa565b5b03611d49576040517f08c379a0000000000000000000000000000000000000000000000000000000008152600401611d4090612e23565b60405180910390fd5b5b50565b60008060ff8360001c169050601f811115611d94576040517fb3512b0c00000000000000000000000000000000000000000000000000000000815260040160405180910390fd5b80915050919050565b600081519050919050565b600082825260208201905092915050565b60005b83811015611dd7578082015181840152602081019050611dbc565b60008484015250505050565b6000601f19601f8301169050919050565b6000611dff82611d9d565b611e098185611da8565b9350611e19818560208601611db9565b611e2281611de3565b840191505092915050565b60006020820190508181036000830152611e478184611df4565b905092915050565b600073ffffffffffffffffffffffffffffffffffffffff82169050919050565b6000611e7a82611e4f565b9050919050565b611e8a81611e6f565b82525050565b6000602082019050611ea56000830184611e81565b92915050565b600080fd5b611eb981611e6f565b8114611ec457600080fd5b50565b600081359050611ed681611eb0565b92915050565b6000819050919050565b611eef81611edc565b8114611efa57600080fd5b50565b600081359050611f0c81611ee6565b92915050565b60008060408385031215611f2957611f28611eab565b5b6000611f3785828601611ec7565b9250506020611f4885828601611efd565b9150509250929050565b60008115159050919050565b611f6781611f52565b82525050565b6000602082019050611f826000830184611f5e565b92915050565b611f9181611edc565b82525050565b6000602082019050611fac6000830184611f88565b92915050565b600080600060608486031215611fcb57611fca611eab565b5b6000611fd986828701611ec7565b9350506020611fea86828701611ec7565b9250506040611ffb86828701611efd565b9150509250925092565b600060ff82169050919050565b61201b81612005565b82525050565b60006020820190506120366000830184612012565b92915050565b6000819050919050565b61204f8161203c565b82525050565b600060208201905061206a6000830184612046565b92915050565b60006020828403121561208657612085611eab565b5b600061209484828501611efd565b91505092915050565b6000602082840312156120b3576120b2611eab565b5b60006120c184828501611ec7565b91505092915050565b60007fff0000000000000000000000000000000000000000000000000000000000000082169050919050565b6120ff816120ca565b82525050565b600081519050919050565b600082825260208201905092915050565b6000819050602082019050919050565b61213a81611edc565b82525050565b600061214c8383612131565b60208301905092915050565b6000602082019050919050565b600061217082612105565b61217a8185612110565b935061218583612121565b8060005b838110156121b657815161219d8882612140565b97506121a883612158565b925050600181019050612189565b5085935050505092915050565b600060e0820190506121d8600083018a6120f6565b81810360208301526121ea8189611df4565b905081810360408301526121fe8188611df4565b905061220d6060830187611f88565b61221a6080830186611e81565b61222760a0830185612046565b81810360c08301526122398184612165565b905098975050505050505050565b61225081612005565b811461225b57600080fd5b50565b60008135905061226d81612247565b92915050565b61227c8161203c565b811461228757600080fd5b50565b60008135905061229981612273565b92915050565b600080600080600080600060e0888a0312156122be576122bd611eab565b5b60006122cc8a828b01611ec7565b97505060206122dd8a828b01611ec7565b96505060406122ee8a828b01611efd565b95505060606122ff8a828b01611efd565b94505060806123108a828b0161225e565b93505060a06123218a828b0161228a565b92505060c06123328a828b0161228a565b91505092959891949750929550565b6000806040838503121561235857612357611eab565b5b600061236685828601611ec7565b925050602061237785828601611ec7565b9150509250929050565b7f4e487b7100000000000000000000000000000000000000000000000000000000600052602260045260246000fd5b600060028204905060018216806123c857607f821691505b6020821081036123db576123da612381565b5b50919050565b7f4e487b7100000000000000000000000000000000000000000000000000000000600052601160045260246000fd5b600061241b82611edc565b915061242683611edc565b925082820190508082111561243e5761243d6123e1565b5b92915050565b7f4f776e61626c6532537465703a2063616c6c6572206973206e6f74207468652060008201527f6e6577206f776e65720000000000000000000000000000000000000000000000602082015250565b60006124a0602983611da8565b91506124ab82612444565b604082019050919050565b600060208201905081810360008301526124cf81612493565b9050919050565b7f4e487b7100000000000000000000000000000000000000000000000000000000600052604160045260246000fd5b7f45524332303a2064656372656173656420616c6c6f77616e63652062656c6f7760008201527f207a65726f000000000000000000000000000000000000000000000000000000602082015250565b6000612561602583611da8565b915061256c82612505565b604082019050919050565b6000602082019050818103600083015261259081612554565b9050919050565b7f45524332305065726d69743a206578706972656420646561646c696e65000000600082015250565b60006125cd601d83611da8565b91506125d882612597565b602082019050919050565b600060208201905081810360008301526125fc816125c0565b9050919050565b600060c0820190506126186000830189612046565b6126256020830188611e81565b6126326040830187611e81565b61263f6060830186611f88565b61264c6080830185611f88565b61265960a0830184611f88565b979650505050505050565b7f45524332305065726d69743a20696e76616c6964207369676e61747572650000600082015250565b600061269a601e83611da8565b91506126a582612664565b602082019050919050565b600060208201905081810360008301526126c98161268d565b9050919050565b7f45524332303a20617070726f76652066726f6d20746865207a65726f2061646460008201527f7265737300000000000000000000000000000000000000000000000000000000602082015250565b600061272c602483611da8565b9150612737826126d0565b604082019050919050565b6000602082019050818103600083015261275b8161271f565b9050919050565b7f45524332303a20617070726f766520746f20746865207a65726f20616464726560008201527f7373000000000000000000000000000000000000000000000000000000000000602082015250565b60006127be602283611da8565b91506127c982612762565b604082019050919050565b600060208201905081810360008301526127ed816127b1565b9050919050565b7f45524332303a20696e73756666696369656e7420616c6c6f77616e6365000000600082015250565b600061282a601d83611da8565b9150612835826127f4565b602082019050919050565b600060208201905081810360008301526128598161281d565b9050919050565b7f45524332303a207472616e736665722066726f6d20746865207a65726f20616460008201527f6472657373000000000000000000000000000000000000000000000000000000602082015250565b60006128bc602583611da8565b91506128c782612860565b604082019050919050565b600060208201905081810360008301526128eb816128af565b9050919050565b7f45524332303a207472616e7366657220746f20746865207a65726f206164647260008201527f6573730000000000000000000000000000000000000000000000000000000000602082015250565b600061294e602383611da8565b9150612959826128f2565b604082019050919050565b6000602082019050818103600083015261297d81612941565b9050919050565b7f45524332303a207472616e7366657220616d6f756e742065786365656473206260008201527f616c616e63650000000000000000000000000000000000000000000000000000602082015250565b60006129e0602683611da8565b91506129eb82612984565b604082019050919050565b60006020820190508181036000830152612a0f816129d3565b9050919050565b7f45524332303a206d696e7420746f20746865207a65726f206164647265737300600082015250565b6000612a4c601f83611da8565b9150612a5782612a16565b602082019050919050565b60006020820190508181036000830152612a7b81612a3f565b9050919050565b7f45524332303a206275726e2066726f6d20746865207a65726f2061646472657360008201527f7300000000000000000000000000000000000000000000000000000000000000602082015250565b6000612ade602183611da8565b9150612ae982612a82565b604082019050919050565b60006020820190508181036000830152612b0d81612ad1565b9050919050565b7f45524332303a206275726e20616d6f756e7420657863656564732062616c616e60008201527f6365000000000000000000000000000000000000000000000000000000000000602082015250565b6000612b70602283611da8565b9150612b7b82612b14565b604082019050919050565b60006020820190508181036000830152612b9f81612b63565b9050919050565b7f4f776e61626c653a2063616c6c6572206973206e6f7420746865206f776e6572600082015250565b6000612bdc602083611da8565b9150612be782612ba6565b602082019050919050565b60006020820190508181036000830152612c0b81612bcf565b9050919050565b600060a082019050612c276000830188612046565b612c346020830187612046565b612c416040830186612046565b612c4e6060830185611f88565b612c5b6080830184611e81565b9695505050505050565b6000608082019050612c7a6000830187612046565b612c876020830186612012565b612c946040830185612046565b612ca16060830184612046565b95945050505050565b7f4e487b7100000000000000000000000000000000000000000000000000000000600052602160045260246000fd5b7f45434453413a20696e76616c6964207369676e61747572650000000000000000600082015250565b6000612d0f601883611da8565b9150612d1a82612cd9565b602082019050919050565b60006020820190508181036000830152612d3e81612d02565b9050919050565b7f45434453413a20696e76616c6964207369676e6174757265206c656e67746800600082015250565b6000612d7b601f83611da8565b9150612d8682612d45565b602082019050919050565b60006020820190508181036000830152612daa81612d6e565b9050919050565b7f45434453413a20696e76616c6964207369676e6174757265202773272076616c60008201527f7565000000000000000000000000000000000000000000000000000000000000602082015250565b6000612e0d602283611da8565b9150612e1882612db1565b604082019050919050565b60006020820190508181036000830152612e3c81612e00565b905091905056fea2646970667358221220b2ca881c56425aa36bb57655e9c822f50d54aa8d4dff3e0353aa77eca850cbab64736f6c63430008130033","linkReferences":{}},"methodIdentifiers":{"DOMAIN_SEPARATOR()":"3644e515","acceptOwnership()":"79ba5097","allowance(address,address)":"dd62ed3e","approve(address,uint256)":"095ea7b3","balanceOf(address)":"70a08231","burn(uint256)":"42966c68","burnFrom(address,uint256)":"79cc6790","decimals()":"313ce567","decreaseAllowance(address,uint256)":"a457c2d7","eip712Domain()":"84b0196e","increaseAllowance(address,uint256)":"39509351","mint(address,uint256)":"40c10f19","minter()":"07546172","name()":"06fdde03","nonces(address)":"7ecebe00","owner()":"8da5cb5b","pendingOwner()":"e30c3978","permit(address,address,uint256,uint256,uint8,bytes32,bytes32)":"d505accf","renounceOwnership()":"715018a6","setMinter(address)":"fca3b5aa","symbol()":"95d89b41","totalSupply()":"18160ddd","transfer(address,uint256)":"a9059cbb","transferFrom(address,address,uint256)":"23b872dd","transferOwnership(address)":"f2fde38b"},"id":64}