{"abi":[{"type":"constructor","inputs":[],"stateMutability":"nonpayable"},{"type":"function","name":"agentPublicKeys","inputs":[{"name":"","type":"address","internalType":"address"}],"outputs":[{"name":"","type":"bytes","internalType":"bytes"}],"stateMutability":"view"},{"type":"function","name":"getAgentPublicKey","inputs":[{"name":"agent","type":"address","internalType":"address"}],"outputs":[{"name":"","type":"bytes","internalType":"bytes"}],"stateMutability":"view"},{"type":"function","name":"isVerified","inputs":[{"name":"telemetryHash","type":"bytes32","internalType":"bytes32"}],"outputs":[{"name":"","type":"bool","internalType":"bool"}],"stateMutability":"view"},{"type":"function","name":"oracle","inputs":[],"outputs":[{"name":"","type":"address","internalType":"address"}],"stateMutability":"view"},{"type":"function","name":"overrideVerification","inputs":[{"name":"telemetryHash","type":"bytes32","internalType":"bytes32"},{"name":"verified","type":"bool","internalType":"bool"}],"outputs":[],"stateMutability":"nonpayable"},{"type":"function","name":"owner","inputs":[],"outputs":[{"name":"","type":"address","internalType":"address"}],"stateMutability":"view"},{"type":"function","name":"records","inputs":[{"name":"","type":"bytes32","internalType":"bytes32"}],"outputs":[{"name":"telemetryHash","type":"bytes32","internalType":"bytes32"},{"name":"timestamp","type":"uint256","internalType":"uint256"},{"name":"verified","type":"bool","internalType":"bool"},{"name":"verifiedBy","type":"address","internalType":"address"}],"stateMutability":"view"},{"type":"function","name":"registerRecord","inputs":[{"name":"telemetryHash","type":"bytes32","internalType":"bytes32"},{"name":"verified","type":"bool","internalType":"bool"}],"outputs":[],"stateMutability":"nonpayable"},{"type":"function","name":"registerRequest","inputs":[{"name":"telemetryHash","type":"bytes32","internalType":"bytes32"}],"outputs":[],"stateMutability":"nonpayable"},{"type":"function","name":"requestTimestamps","inputs":[{"name":"","type":"bytes32","internalType":"bytes32"}],"outputs":[{"name":"","type":"uint256","internalType":"uint256"}],"stateMutability":"view"},{"type":"function","name":"setAgentPublicKey","inputs":[{"name":"agent","type":"address","internalType":"address"},{"name":"publicKey","type":"bytes","internalType":"bytes"}],"outputs":[],"stateMutability":"nonpayable"},{"type":"function","name":"setOracle","inputs":[{"name":"_oracle","type":"address","internalType":"address"}],"outputs":[],"stateMutability":"nonpayable"},{"type":"event","name":"AgentPublicKeyUpdated","inputs":[{"name":"agent","type":"address","indexed":true,"internalType":"address"},{"name":"publicKey","type":"bytes","indexed":false,"internalType":"bytes"}],"anonymous":false},{"type":"event","name":"OracleUpdated","inputs":[{"name":"oldOracle","type":"address","indexed":true,"internalType":"address"},{"name":"newOracle","type":"address","indexed":true,"internalType":"address"}],"anonymous":false},{"type":"event","name":"RecordRegistered","inputs":[{"name":"telemetryHash","type":"bytes32","indexed":true,"internalType":"bytes32"},{"name":"verified","type":"bool","indexed":true,"internalType":"bool"},{"name":"verifiedBy","type":"address","indexed":true,"internalType":"address"}],"anonymous":false},{"type":"event","name":"RequestRegistered","inputs":[{"name":"telemetryHash","type":"bytes32","indexed":true,"internalType":"bytes32"},{"name":"timestamp","type":"uint256","indexed":false,"internalType":"uint256"}],"anonymous":false},{"type":"event","name":"VerificationOverridden","inputs":[{"name":"telemetryHash","type":"bytes32","indexed":true,"internalType":"bytes32"},{"name":"verified","type":"bool","indexed":false,"internalType":"bool"},{"name":"overriddenBy","type":"address","indexed":true,"internalType":"address"}],"anonymous":false}],"bytecode":{"object":"0x6080604052348015600e575f5ffd5b503360015f6101000a81548173ffffffffffffffffffffffffffffffffffffffff021916908373ffffffffffffffffffffffffffffffffffffffff16021790555061145e8061005c5f395ff3fe608060405234801561000f575f5ffd5b50600436106100b2575f3560e01c80638b755ebf1161006f5780638b755ebf1461018b5780638da5cb5b146101a7578063aee62038146101c5578063c181b273146101f5578063ddd6c72a14610225578063ee4c16f414610255576100b2565b806301e64725146100b65780633ea3504a146100e9578063744ee7e5146101195780637adbf973146101355780637dc0d1d01461015157806380a4c4601461016f575b5f5ffd5b6100d060048036038101906100cb9190610b66565b610271565b6040516100e09493929190610c11565b60405180910390f35b61010360048036038101906100fe9190610c7e565b6102c9565b6040516101109190610d19565b60405180910390f35b610133600480360381019061012e9190610d9a565b610396565b005b61014f600480360381019061014a9190610c7e565b610440565b005b610159610504565b6040516101669190610df7565b60405180910390f35b61018960048036038101906101849190610e3a565b610528565b005b6101a560048036038101906101a09190610b66565b610744565b005b6101af61079d565b6040516101bc9190610df7565b60405180910390f35b6101df60048036038101906101da9190610c7e565b6107c2565b6040516101ec9190610d19565b60405180910390f35b61020f600480360381019061020a9190610b66565b61085d565b60405161021c9190610e78565b60405180910390f35b61023f600480360381019061023a9190610b66565b610886565b60405161024c9190610e91565b60405180910390f35b61026f600480360381019061026a9190610e3a565b61089b565b005b6002602052805f5260405f205f91509050805f015490806001015490806002015f9054906101000a900460ff16908060020160019054906101000a900473ffffffffffffffffffffffffffffffffffffffff16905084565b606060035f8373ffffffffffffffffffffffffffffffffffffffff1673ffffffffffffffffffffffffffffffffffffffff1681526020019081526020015f20805461031390610ed7565b80601f016020809104026020016040519081016040528092919081815260200182805461033f90610ed7565b801561038a5780601f106103615761010080835404028352916020019161038a565b820191905f5260205f20905b81548152906001019060200180831161036d57829003601f168201915b50505050509050919050565b61039e6109b3565b818160035f8673ffffffffffffffffffffffffffffffffffffffff1673ffffffffffffffffffffffffffffffffffffffff1681526020019081526020015f2091826103ea9291906110ef565b508273ffffffffffffffffffffffffffffffffffffffff167f64e426ed921fb90301743c1034730220d3443b636632ceb61f868d49b7efd25283836040516104339291906111f6565b60405180910390a2505050565b6104486109b3565b8073ffffffffffffffffffffffffffffffffffffffff165f5f9054906101000a900473ffffffffffffffffffffffffffffffffffffffff1673ffffffffffffffffffffffffffffffffffffffff167f078c3b417dadf69374a59793b829c52001247130433427049317bde56607b1b760405160405180910390a3805f5f6101000a81548173ffffffffffffffffffffffffffffffffffffffff021916908373ffffffffffffffffffffffffffffffffffffffff16021790555050565b5f5f9054906101000a900473ffffffffffffffffffffffffffffffffffffffff1681565b6105306109b3565b5f60045f8481526020019081526020015f205403610583576040517f08c379a000000000000000000000000000000000000000000000000000000000815260040161057a90611272565b60405180910390fd5b6201518060045f8481526020019081526020015f20546105a391906112bd565b4210156105e5576040517f08c379a00000000000000000000000000000000000000000000000000000000081526004016105dc9061133a565b60405180910390fd5b604051806080016040528083815260200142815260200182151581526020013373ffffffffffffffffffffffffffffffffffffffff1681525060025f8481526020019081526020015f205f820151815f0155602082015181600101556040820151816002015f6101000a81548160ff02191690831515021790555060608201518160020160016101000a81548173ffffffffffffffffffffffffffffffffffffffff021916908373ffffffffffffffffffffffffffffffffffffffff1602179055509050503373ffffffffffffffffffffffffffffffffffffffff16827fc4371ae1b07aa3167ed1b89677f1322c7bbaa4232a0df2ffe72ebede8f0af3a3836040516106f19190610e78565b60405180910390a33373ffffffffffffffffffffffffffffffffffffffff16811515837feb71a6903e1b64c90b49638c8a32a06fa13be1f7c005d848da356d5f261f928860405160405180910390a45050565b61074c610a44565b4260045f8381526020019081526020015f2081905550807f29091e4a3ac02cfa8e688e67daa7011d11572ce722480bf0efa6cd75202981a2426040516107929190610e91565b60405180910390a250565b60015f9054906101000a900473ffffffffffffffffffffffffffffffffffffffff1681565b6003602052805f5260405f205f9150905080546107de90610ed7565b80601f016020809104026020016040519081016040528092919081815260200182805461080a90610ed7565b80156108555780601f1061082c57610100808354040283529160200191610855565b820191905f5260205f20905b81548152906001019060200180831161083857829003601f168201915b505050505081565b5f60025f8381526020019081526020015f206002015f9054906101000a900460ff169050919050565b6004602052805f5260405f205f915090505481565b6108a3610a44565b604051806080016040528083815260200142815260200182151581526020013373ffffffffffffffffffffffffffffffffffffffff1681525060025f8481526020019081526020015f205f820151815f0155602082015181600101556040820151816002015f6101000a81548160ff02191690831515021790555060608201518160020160016101000a81548173ffffffffffffffffffffffffffffffffffffffff021916908373ffffffffffffffffffffffffffffffffffffffff1602179055509050503373ffffffffffffffffffffffffffffffffffffffff16811515837feb71a6903e1b64c90b49638c8a32a06fa13be1f7c005d848da356d5f261f928860405160405180910390a45050565b60015f9054906101000a900473ffffffffffffffffffffffffffffffffffffffff1673ffffffffffffffffffffffffffffffffffffffff163373ffffffffffffffffffffffffffffffffffffffff1614610a42576040517f08c379a0000000000000000000000000000000000000000000000000000000008152600401610a39906113a2565b60405180910390fd5b565b5f5f9054906101000a900473ffffffffffffffffffffffffffffffffffffffff1673ffffffffffffffffffffffffffffffffffffffff163373ffffffffffffffffffffffffffffffffffffffff161480610aea575060015f9054906101000a900473ffffffffffffffffffffffffffffffffffffffff1673ffffffffffffffffffffffffffffffffffffffff163373ffffffffffffffffffffffffffffffffffffffff16145b610b29576040517f08c379a0000000000000000000000000000000000000000000000000000000008152600401610b209061140a565b60405180910390fd5b565b5f5ffd5b5f5ffd5b5f819050919050565b610b4581610b33565b8114610b4f575f5ffd5b50565b5f81359050610b6081610b3c565b92915050565b5f60208284031215610b7b57610b7a610b2b565b5b5f610b8884828501610b52565b91505092915050565b610b9a81610b33565b82525050565b5f819050919050565b610bb281610ba0565b82525050565b5f8115159050919050565b610bcc81610bb8565b82525050565b5f73ffffffffffffffffffffffffffffffffffffffff82169050919050565b5f610bfb82610bd2565b9050919050565b610c0b81610bf1565b82525050565b5f608082019050610c245f830187610b91565b610c316020830186610ba9565b610c3e6040830185610bc3565b610c4b6060830184610c02565b95945050505050565b610c5d81610bf1565b8114610c67575f5ffd5b50565b5f81359050610c7881610c54565b92915050565b5f60208284031215610c9357610c92610b2b565b5b5f610ca084828501610c6a565b91505092915050565b5f81519050919050565b5f82825260208201905092915050565b8281835e5f83830152505050565b5f601f19601f8301169050919050565b5f610ceb82610ca9565b610cf58185610cb3565b9350610d05818560208601610cc3565b610d0e81610cd1565b840191505092915050565b5f6020820190508181035f830152610d318184610ce1565b905092915050565b5f5ffd5b5f5ffd5b5f5ffd5b5f5f83601f840112610d5a57610d59610d39565b5b8235905067ffffffffffffffff811115610d7757610d76610d3d565b5b602083019150836001820283011115610d9357610d92610d41565b5b9250929050565b5f5f5f60408486031215610db157610db0610b2b565b5b5f610dbe86828701610c6a565b935050602084013567ffffffffffffffff811115610ddf57610dde610b2f565b5b610deb86828701610d45565b92509250509250925092565b5f602082019050610e0a5f830184610c02565b92915050565b610e1981610bb8565b8114610e23575f5ffd5b50565b5f81359050610e3481610e10565b92915050565b5f5f60408385031215610e5057610e4f610b2b565b5b5f610e5d85828601610b52565b9250506020610e6e85828601610e26565b9150509250929050565b5f602082019050610e8b5f830184610bc3565b92915050565b5f602082019050610ea45f830184610ba9565b92915050565b7f4e487b71000000000000000000000000000000000000000000000000000000005f52602260045260245ffd5b5f6002820490506001821680610eee57607f821691505b602082108103610f0157610f00610eaa565b5b50919050565b5f82905092915050565b7f4e487b71000000000000000000000000000000000000000000000000000000005f52604160045260245ffd5b5f819050815f5260205f209050919050565b5f6020601f8301049050919050565b5f82821b905092915050565b5f60088302610f9a7fffffffffffffffffffffffffffffffffffffffffffffffffffffffffffffffff82610f5f565b610fa48683610f5f565b95508019841693508086168417925050509392505050565b5f819050919050565b5f610fdf610fda610fd584610ba0565b610fbc565b610ba0565b9050919050565b5f819050919050565b610ff883610fc5565b61100c61100482610fe6565b848454610f6b565b825550505050565b5f5f905090565b611023611014565b61102e818484610fef565b505050565b5f5b82811015611054576110495f82840161101b565b600181019050611035565b505050565b601f8211156110a757828211156110a65761107381610f3e565b61107c83610f50565b61108585610f50565b6020861015611092575f90505b8083016110a182840382611033565b505050505b5b505050565b5f82821c905092915050565b5f6110c75f19846008026110ac565b1980831691505092915050565b5f6110df83836110b8565b9150826002028217905092915050565b6110f98383610f07565b67ffffffffffffffff81111561111257611111610f11565b5b61111c8254610ed7565b611127828285611059565b5f601f831160018114611154575f8415611142578287013590505b61114c85826110d4565b8655506111b3565b601f19841661116286610f3e565b5f5b8281101561118957848901358255600182019150602085019450602081019050611164565b868310156111a657848901356111a2601f8916826110b8565b8355505b6001600288020188555050505b50505050505050565b828183375f83830152505050565b5f6111d58385610cb3565b93506111e28385846111bc565b6111eb83610cd1565b840190509392505050565b5f6020820190508181035f83015261120f8184866111ca565b90509392505050565b5f82825260208201905092915050565b7f52656769737472793a2052657175657374206e6f7420666f756e6400000000005f82015250565b5f61125c601b83611218565b915061126782611228565b602082019050919050565b5f6020820190508181035f83015261128981611250565b9050919050565b7f4e487b71000000000000000000000000000000000000000000000000000000005f52601160045260245ffd5b5f6112c782610ba0565b91506112d283610ba0565b92508282019050808211156112ea576112e9611290565b5b92915050565b7f52656769737472793a20436f6f6c646f776e20616374697665000000000000005f82015250565b5f611324601983611218565b915061132f826112f0565b602082019050919050565b5f6020820190508181035f83015261135181611318565b9050919050565b7f436f7274657852656769737472793a204f6e6c79206f776e65720000000000005f82015250565b5f61138c601a83611218565b915061139782611358565b602082019050919050565b5f6020820190508181035f8301526113b981611380565b9050919050565b7f436f7274657852656769737472793a204e6f7420617574686f72697a656400005f82015250565b5f6113f4601e83611218565b91506113ff826113c0565b602082019050919050565b5f6020820190508181035f830152611421816113e8565b905091905056fea2646970667358221220574895aa5789a55f000524e1460e3d4894a8787ab1c9b2b33618beb63e3deece64736f6c63430008210033","linkReferences":{}},"methodIdentifiers":{"agentPublicKeys(address)":"aee62038","getAgentPublicKey(address)":"3ea3504a","isVerified(bytes32)":"c181b273","oracle()":"7dc0d1d0","overrideVerification(bytes32,bool)":"80a4c460","owner()":"8da5cb5b","records(bytes32)":"01e64725","registerRecord(bytes32,bool)":"ee4c16f4","registerRequest(bytes32)":"8b755ebf","requestTimestamps(bytes32)":"ddd6c72a","setAgentPublicKey(address,bytes)":"744ee7e5","setOracle(address)":"7adbf973"},"id":28}