{"abi":[{"type":"constructor","inputs":[{"name":"name","type":"string","internalType":"string"},{"name":"symbol","type":"string","internalType":"string"},{"name":"owner","type":"address","internalType":"address"}],"stateMutability":"nonpayable"},{"type":"function","name":"DOMAIN_SEPARATOR","inputs":[],"outputs":[{"name":"","type":"bytes32","internalType":"bytes32"}],"stateMutability":"view"},{"type":"function","name":"EIP712_REVISION","inputs":[],"outputs":[{"name":"","type":"bytes","internalType":"bytes"}],"stateMutability":"view"},{"type":"function","name":"PERMIT_TYPEHASH","inputs":[],"outputs":[{"name":"","type":"bytes32","internalType":"bytes32"}],"stateMutability":"view"},{"type":"function","name":"allowance","inputs":[{"name":"owner","type":"address","internalType":"address"},{"name":"spender","type":"address","internalType":"address"}],"outputs":[{"name":"","type":"uint256","internalType":"uint256"}],"stateMutability":"view"},{"type":"function","name":"approve","inputs":[{"name":"spender","type":"address","internalType":"address"},{"name":"amount","type":"uint256","internalType":"uint256"}],"outputs":[{"name":"","type":"bool","internalType":"bool"}],"stateMutability":"nonpayable"},{"type":"function","name":"balanceOf","inputs":[{"name":"account","type":"address","internalType":"address"}],"outputs":[{"name":"","type":"uint256","internalType":"uint256"}],"stateMutability":"view"},{"type":"function","name":"decimals","inputs":[],"outputs":[{"name":"","type":"uint8","internalType":"uint8"}],"stateMutability":"view"},{"type":"function","name":"decreaseAllowance","inputs":[{"name":"spender","type":"address","internalType":"address"},{"name":"subtractedValue","type":"uint256","internalType":"uint256"}],"outputs":[{"name":"","type":"bool","internalType":"bool"}],"stateMutability":"nonpayable"},{"type":"function","name":"increaseAllowance","inputs":[{"name":"spender","type":"address","internalType":"address"},{"name":"addedValue","type":"uint256","internalType":"uint256"}],"outputs":[{"name":"","type":"bool","internalType":"bool"}],"stateMutability":"nonpayable"},{"type":"function","name":"mint","inputs":[{"name":"account","type":"address","internalType":"address"},{"name":"value","type":"uint256","internalType":"uint256"}],"outputs":[{"name":"","type":"bool","internalType":"bool"}],"stateMutability":"nonpayable"},{"type":"function","name":"mint","inputs":[{"name":"value","type":"uint256","internalType":"uint256"}],"outputs":[{"name":"","type":"bool","internalType":"bool"}],"stateMutability":"nonpayable"},{"type":"function","name":"name","inputs":[],"outputs":[{"name":"","type":"string","internalType":"string"}],"stateMutability":"view"},{"type":"function","name":"nonces","inputs":[{"name":"owner","type":"address","internalType":"address"}],"outputs":[{"name":"","type":"uint256","internalType":"uint256"}],"stateMutability":"view"},{"type":"function","name":"owner","inputs":[],"outputs":[{"name":"","type":"address","internalType":"address"}],"stateMutability":"view"},{"type":"function","name":"permit","inputs":[{"name":"owner","type":"address","internalType":"address"},{"name":"spender","type":"address","internalType":"address"},{"name":"value","type":"uint256","internalType":"uint256"},{"name":"deadline","type":"uint256","internalType":"uint256"},{"name":"v","type":"uint8","internalType":"uint8"},{"name":"r","type":"bytes32","internalType":"bytes32"},{"name":"s","type":"bytes32","internalType":"bytes32"}],"outputs":[],"stateMutability":"nonpayable"},{"type":"function","name":"renounceOwnership","inputs":[],"outputs":[],"stateMutability":"nonpayable"},{"type":"function","name":"symbol","inputs":[],"outputs":[{"name":"","type":"string","internalType":"string"}],"stateMutability":"view"},{"type":"function","name":"totalSupply","inputs":[],"outputs":[{"name":"","type":"uint256","internalType":"uint256"}],"stateMutability":"view"},{"type":"function","name":"transfer","inputs":[{"name":"to","type":"address","internalType":"address"},{"name":"amount","type":"uint256","internalType":"uint256"}],"outputs":[{"name":"","type":"bool","internalType":"bool"}],"stateMutability":"nonpayable"},{"type":"function","name":"transferFrom","inputs":[{"name":"from","type":"address","internalType":"address"},{"name":"to","type":"address","internalType":"address"},{"name":"amount","type":"uint256","internalType":"uint256"}],"outputs":[{"name":"","type":"bool","internalType":"bool"}],"stateMutability":"nonpayable"},{"type":"function","name":"transferOwnership","inputs":[{"name":"newOwner","type":"address","internalType":"address"}],"outputs":[],"stateMutability":"nonpayable"},{"type":"event","name":"Approval","inputs":[{"name":"owner","type":"address","indexed":true,"internalType":"address"},{"name":"spender","type":"address","indexed":true,"internalType":"address"},{"name":"value","type":"uint256","indexed":false,"internalType":"uint256"}],"anonymous":false},{"type":"event","name":"OwnershipTransferred","inputs":[{"name":"previousOwner","type":"address","indexed":true,"internalType":"address"},{"name":"newOwner","type":"address","indexed":true,"internalType":"address"}],"anonymous":false},{"type":"event","name":"Transfer","inputs":[{"name":"from","type":"address","indexed":true,"internalType":"address"},{"name":"to","type":"address","indexed":true,"internalType":"address"},{"name":"value","type":"uint256","indexed":false,"internalType":"uint256"}],"anonymous":false}],"bytecode":{"object":"0x60806040523480156200001157600080fd5b5060405162002c0138038062002c0183398181016040528101906200003791906200058a565b828281600390816200004a91906200086f565b5080600490816200005c91906200086f565b5050506200007f620000736200017360201b60201c565b6200017b60201b60201c565b60004690507f8b73c3c69bb8fe3d512ecc4cf759cc79239f7b179b0ffacaa9a75d522b39400f84805190602001206040518060400160405280600181526020017f31000000000000000000000000000000000000000000000000000000000000008152508051906020012083306040516020016200010295949392919062000993565b60405160208183030381529060405280519060200120600781905550600073ffffffffffffffffffffffffffffffffffffffff168273ffffffffffffffffffffffffffffffffffffffff16036200015857600080fd5b62000169826200024160201b60201c565b5050505062000b0b565b600033905090565b6000600560009054906101000a900473ffffffffffffffffffffffffffffffffffffffff16905081600560006101000a81548173ffffffffffffffffffffffffffffffffffffffff021916908373ffffffffffffffffffffffffffffffffffffffff1602179055508173ffffffffffffffffffffffffffffffffffffffff168173ffffffffffffffffffffffffffffffffffffffff167f8be0079c531659141344cd1fd0a4f28419497f9722a3daafe3b4186f6b6457e060405160405180910390a35050565b62000251620002d760201b60201c565b600073ffffffffffffffffffffffffffffffffffffffff168173ffffffffffffffffffffffffffffffffffffffff1603620002c3576040517f08c379a0000000000000000000000000000000000000000000000000000000008152600401620002ba9062000a77565b60405180910390fd5b620002d4816200017b60201b60201c565b50565b620002e76200017360201b60201c565b73ffffffffffffffffffffffffffffffffffffffff166200030d6200036860201b60201c565b73ffffffffffffffffffffffffffffffffffffffff161462000366576040517f08c379a00000000000000000000000000000000000000000000000000000000081526004016200035d9062000ae9565b60405180910390fd5b565b6000600560009054906101000a900473ffffffffffffffffffffffffffffffffffffffff16905090565b6000604051905090565b600080fd5b600080fd5b600080fd5b600080fd5b6000601f19601f8301169050919050565b7f4e487b7100000000000000000000000000000000000000000000000000000000600052604160045260246000fd5b620003fb82620003b0565b810181811067ffffffffffffffff821117156200041d576200041c620003c1565b5b80604052505050565b60006200043262000392565b9050620004408282620003f0565b919050565b600067ffffffffffffffff821115620004635762000462620003c1565b5b6200046e82620003b0565b9050602081019050919050565b60005b838110156200049b5780820151818401526020810190506200047e565b60008484015250505050565b6000620004be620004b88462000445565b62000426565b905082815260208101848484011115620004dd57620004dc620003ab565b5b620004ea8482856200047b565b509392505050565b600082601f8301126200050a5762000509620003a6565b5b81516200051c848260208601620004a7565b91505092915050565b600073ffffffffffffffffffffffffffffffffffffffff82169050919050565b6000620005528262000525565b9050919050565b620005648162000545565b81146200057057600080fd5b50565b600081519050620005848162000559565b92915050565b600080600060608486031215620005a657620005a56200039c565b5b600084015167ffffffffffffffff811115620005c757620005c6620003a1565b5b620005d586828701620004f2565b935050602084015167ffffffffffffffff811115620005f957620005f8620003a1565b5b6200060786828701620004f2565b92505060406200061a8682870162000573565b9150509250925092565b600081519050919050565b7f4e487b7100000000000000000000000000000000000000000000000000000000600052602260045260246000fd5b600060028204905060018216806200067757607f821691505b6020821081036200068d576200068c6200062f565b5b50919050565b60008190508160005260206000209050919050565b60006020601f8301049050919050565b600082821b905092915050565b600060088302620006f77fffffffffffffffffffffffffffffffffffffffffffffffffffffffffffffffff82620006b8565b620007038683620006b8565b95508019841693508086168417925050509392505050565b6000819050919050565b6000819050919050565b6000620007506200074a62000744846200071b565b62000725565b6200071b565b9050919050565b6000819050919050565b6200076c836200072f565b620007846200077b8262000757565b848454620006c5565b825550505050565b600090565b6200079b6200078c565b620007a881848462000761565b505050565b5b81811015620007d057620007c460008262000791565b600181019050620007ae565b5050565b601f8211156200081f57620007e98162000693565b620007f484620006a8565b8101602085101562000804578190505b6200081c6200081385620006a8565b830182620007ad565b50505b505050565b600082821c905092915050565b6000620008446000198460080262000824565b1980831691505092915050565b60006200085f838362000831565b9150826002028217905092915050565b6200087a8262000624565b67ffffffffffffffff811115620008965762000895620003c1565b5b620008a282546200065e565b620008af828285620007d4565b600060209050601f831160018114620008e75760008415620008d2578287015190505b620008de858262000851565b8655506200094e565b601f198416620008f78662000693565b60005b828110156200092157848901518255600182019150602085019450602081019050620008fa565b868310156200094157848901516200093d601f89168262000831565b8355505b6001600288020188555050505b505050505050565b6000819050919050565b6200096b8162000956565b82525050565b6200097c816200071b565b82525050565b6200098d8162000545565b82525050565b600060a082019050620009aa600083018862000960565b620009b9602083018762000960565b620009c8604083018662000960565b620009d7606083018562000971565b620009e6608083018462000982565b9695505050505050565b600082825260208201905092915050565b7f4f776e61626c653a206e6577206f776e657220697320746865207a65726f206160008201527f6464726573730000000000000000000000000000000000000000000000000000602082015250565b600062000a5f602683620009f0565b915062000a6c8262000a01565b604082019050919050565b6000602082019050818103600083015262000a928162000a50565b9050919050565b7f4f776e61626c653a2063616c6c6572206973206e6f7420746865206f776e6572600082015250565b600062000ad1602083620009f0565b915062000ade8262000a99565b602082019050919050565b6000602082019050818103600083015262000b048162000ac2565b9050919050565b6120e68062000b1b6000396000f3fe608060405234801561001057600080fd5b50600436106101375760003560e01c8063715018a6116100b8578063a0712d681161007c578063a0712d6814610356578063a457c2d714610386578063a9059cbb146103b6578063d505accf146103e6578063dd62ed3e14610402578063f2fde38b1461043257610137565b8063715018a6146102c257806378160376146102cc5780637ecebe00146102ea5780638da5cb5b1461031a57806395d89b411461033857610137565b8063313ce567116100ff578063313ce567146101f65780633644e51514610214578063395093511461023257806340c10f191461026257806370a082311461029257610137565b806306fdde031461013c578063095ea7b31461015a57806318160ddd1461018a57806323b872dd146101a857806330adf81f146101d8575b600080fd5b61014461044e565b60405161015191906113c4565b60405180910390f35b610174600480360381019061016f919061147f565b6104e0565b60405161018191906114da565b60405180910390f35b610192610503565b60405161019f9190611504565b60405180910390f35b6101c260048036038101906101bd919061151f565b61050d565b6040516101cf91906114da565b60405180910390f35b6101e061053c565b6040516101ed919061158b565b60405180910390f35b6101fe610560565b60405161020b91906115c2565b60405180910390f35b61021c610569565b604051610229919061158b565b60405180910390f35b61024c6004803603810190610247919061147f565b61056f565b60405161025991906114da565b60405180910390f35b61027c6004803603810190610277919061147f565b6105a6565b60405161028991906114da565b60405180910390f35b6102ac60048036038101906102a791906115dd565b6105c4565b6040516102b99190611504565b60405180910390f35b6102ca61060c565b005b6102d4610620565b6040516102e1919061165f565b60405180910390f35b61030460048036038101906102ff91906115dd565b610659565b6040516103119190611504565b60405180910390f35b6103226106a2565b60405161032f9190611690565b60405180910390f35b6103406106cc565b60405161034d91906113c4565b60405180910390f35b610370600480360381019061036b91906116ab565b61075e565b60405161037d91906114da565b60405180910390f35b6103a0600480360381019061039b919061147f565b610782565b6040516103ad91906114da565b60405180910390f35b6103d060048036038101906103cb919061147f565b6107f9565b6040516103dd91906114da565b60405180910390f35b61040060048036038101906103fb9190611730565b61081c565b005b61041c600480360381019061041791906117d2565b610ab3565b6040516104299190611504565b60405180910390f35b61044c600480360381019061044791906115dd565b610b3a565b005b60606003805461045d90611841565b80601f016020809104026020016040519081016040528092919081815260200182805461048990611841565b80156104d65780601f106104ab576101008083540402835291602001916104d6565b820191906000526020600020905b8154815290600101906020018083116104b957829003601f168201915b5050505050905090565b6000806104eb610bbd565b90506104f8818585610bc5565b600191505092915050565b6000600254905090565b600080610518610bbd565b9050610525858285610d8e565b610530858585610e1a565b60019150509392505050565b7f6e71edae12b1b97f4d1f60370fef10105fa2faae0126114a169c64845d6126c981565b60006012905090565b60075481565b60008061057a610bbd565b905061059b81858561058c8589610ab3565b61059691906118a1565b610bc5565b600191505092915050565b60006105b0611090565b6105ba838361110e565b6001905092915050565b60008060008373ffffffffffffffffffffffffffffffffffffffff1673ffffffffffffffffffffffffffffffffffffffff168152602001908152602001600020549050919050565b610614611090565b61061e6000611264565b565b6040518060400160405280600181526020017f310000000000000000000000000000000000000000000000000000000000000081525081565b6000600660008373ffffffffffffffffffffffffffffffffffffffff1673ffffffffffffffffffffffffffffffffffffffff168152602001908152602001600020549050919050565b6000600560009054906101000a900473ffffffffffffffffffffffffffffffffffffffff16905090565b6060600480546106db90611841565b80601f016020809104026020016040519081016040528092919081815260200182805461070790611841565b80156107545780601f1061072957610100808354040283529160200191610754565b820191906000526020600020905b81548152906001019060200180831161073757829003601f168201915b5050505050905090565b6000610768611090565b610779610773610bbd565b8361110e565b60019050919050565b60008061078d610bbd565b9050600061079b8286610ab3565b9050838110156107e0576040517f08c379a00000000000000000000000000000000000000000000000000000000081526004016107d790611947565b60405180910390fd5b6107ed8286868403610bc5565b60019250505092915050565b600080610804610bbd565b9050610811818585610e1a565b600191505092915050565b600073ffffffffffffffffffffffffffffffffffffffff168773ffffffffffffffffffffffffffffffffffffffff160361088b576040517f08c379a0000000000000000000000000000000000000000000000000000000008152600401610882906119b3565b60405180910390fd5b834211156108ce576040517f08c379a00000000000000000000000000000000000000000000000000000000081526004016108c590611a1f565b60405180910390fd5b6000600660008973ffffffffffffffffffffffffffffffffffffffff1673ffffffffffffffffffffffffffffffffffffffff16815260200190815260200160002054905060006007547f6e71edae12b1b97f4d1f60370fef10105fa2faae0126114a169c64845d6126c98a8a8a868b60405160200161095296959493929190611a3f565b60405160208183030381529060405280519060200120604051602001610979929190611b18565b604051602081830303815290604052805190602001209050600181868686604051600081526020016040526040516109b49493929190611b4f565b6020604051602081039080840390855afa1580156109d6573d6000803e3d6000fd5b5050506020604051035173ffffffffffffffffffffffffffffffffffffffff168973ffffffffffffffffffffffffffffffffffffffff1614610a4d576040517f08c379a0000000000000000000000000000000000000000000000000000000008152600401610a4490611be0565b60405180910390fd5b600182610a5a91906118a1565b600660008b73ffffffffffffffffffffffffffffffffffffffff1673ffffffffffffffffffffffffffffffffffffffff16815260200190815260200160002081905550610aa8898989610bc5565b505050505050505050565b6000600160008473ffffffffffffffffffffffffffffffffffffffff1673ffffffffffffffffffffffffffffffffffffffff16815260200190815260200160002060008373ffffffffffffffffffffffffffffffffffffffff1673ffffffffffffffffffffffffffffffffffffffff16815260200190815260200160002054905092915050565b610b42611090565b600073ffffffffffffffffffffffffffffffffffffffff168173ffffffffffffffffffffffffffffffffffffffff1603610bb1576040517f08c379a0000000000000000000000000000000000000000000000000000000008152600401610ba890611c72565b60405180910390fd5b610bba81611264565b50565b600033905090565b600073ffffffffffffffffffffffffffffffffffffffff168373ffffffffffffffffffffffffffffffffffffffff1603610c34576040517f08c379a0000000000000000000000000000000000000000000000000000000008152600401610c2b90611d04565b60405180910390fd5b600073ffffffffffffffffffffffffffffffffffffffff168273ffffffffffffffffffffffffffffffffffffffff1603610ca3576040517f08c379a0000000000000000000000000000000000000000000000000000000008152600401610c9a90611d96565b60405180910390fd5b80600160008573ffffffffffffffffffffffffffffffffffffffff1673ffffffffffffffffffffffffffffffffffffffff16815260200190815260200160002060008473ffffffffffffffffffffffffffffffffffffffff1673ffffffffffffffffffffffffffffffffffffffff168152602001908152602001600020819055508173ffffffffffffffffffffffffffffffffffffffff168373ffffffffffffffffffffffffffffffffffffffff167f8c5be1e5ebec7d5bd14f71427d1e84f3dd0314c0f7b2291e5b200ac8c7c3b92583604051610d819190611504565b60405180910390a3505050565b6000610d9a8484610ab3565b90507fffffffffffffffffffffffffffffffffffffffffffffffffffffffffffffffff8114610e145781811015610e06576040517f08c379a0000000000000000000000000000000000000000000000000000000008152600401610dfd90611e02565b60405180910390fd5b610e138484848403610bc5565b5b50505050565b600073ffffffffffffffffffffffffffffffffffffffff168373ffffffffffffffffffffffffffffffffffffffff1603610e89576040517f08c379a0000000000000000000000000000000000000000000000000000000008152600401610e8090611e94565b60405180910390fd5b600073ffffffffffffffffffffffffffffffffffffffff168273ffffffffffffffffffffffffffffffffffffffff1603610ef8576040517f08c379a0000000000000000000000000000000000000000000000000000000008152600401610eef90611f26565b60405180910390fd5b610f0383838361132a565b60008060008573ffffffffffffffffffffffffffffffffffffffff1673ffffffffffffffffffffffffffffffffffffffff16815260200190815260200160002054905081811015610f89576040517f08c379a0000000000000000000000000000000000000000000000000000000008152600401610f8090611fb8565b60405180910390fd5b8181036000808673ffffffffffffffffffffffffffffffffffffffff1673ffffffffffffffffffffffffffffffffffffffff16815260200190815260200160002081905550816000808573ffffffffffffffffffffffffffffffffffffffff1673ffffffffffffffffffffffffffffffffffffffff168152602001908152602001600020600082825401925050819055508273ffffffffffffffffffffffffffffffffffffffff168473ffffffffffffffffffffffffffffffffffffffff167fddf252ad1be2c89b69c2b068fc378daa952ba7f163c4a11628f55a4df523b3ef846040516110779190611504565b60405180910390a361108a84848461132f565b50505050565b611098610bbd565b73ffffffffffffffffffffffffffffffffffffffff166110b66106a2565b73ffffffffffffffffffffffffffffffffffffffff161461110c576040517f08c379a000000000000000000000000000000000000000000000000000000000815260040161110390612024565b60405180910390fd5b565b600073ffffffffffffffffffffffffffffffffffffffff168273ffffffffffffffffffffffffffffffffffffffff160361117d576040517f08c379a000000000000000000000000000000000000000000000000000000000815260040161117490612090565b60405180910390fd5b6111896000838361132a565b806002600082825461119b91906118a1565b92505081905550806000808473ffffffffffffffffffffffffffffffffffffffff1673ffffffffffffffffffffffffffffffffffffffff168152602001908152602001600020600082825401925050819055508173ffffffffffffffffffffffffffffffffffffffff16600073ffffffffffffffffffffffffffffffffffffffff167fddf252ad1be2c89b69c2b068fc378daa952ba7f163c4a11628f55a4df523b3ef8360405161124c9190611504565b60405180910390a36112606000838361132f565b5050565b6000600560009054906101000a900473ffffffffffffffffffffffffffffffffffffffff16905081600560006101000a81548173ffffffffffffffffffffffffffffffffffffffff021916908373ffffffffffffffffffffffffffffffffffffffff1602179055508173ffffffffffffffffffffffffffffffffffffffff168173ffffffffffffffffffffffffffffffffffffffff167f8be0079c531659141344cd1fd0a4f28419497f9722a3daafe3b4186f6b6457e060405160405180910390a35050565b505050565b505050565b600081519050919050565b600082825260208201905092915050565b60005b8381101561136e578082015181840152602081019050611353565b60008484015250505050565b6000601f19601f8301169050919050565b600061139682611334565b6113a0818561133f565b93506113b0818560208601611350565b6113b98161137a565b840191505092915050565b600060208201905081810360008301526113de818461138b565b905092915050565b600080fd5b600073ffffffffffffffffffffffffffffffffffffffff82169050919050565b6000611416826113eb565b9050919050565b6114268161140b565b811461143157600080fd5b50565b6000813590506114438161141d565b92915050565b6000819050919050565b61145c81611449565b811461146757600080fd5b50565b60008135905061147981611453565b92915050565b60008060408385031215611496576114956113e6565b5b60006114a485828601611434565b92505060206114b58582860161146a565b9150509250929050565b60008115159050919050565b6114d4816114bf565b82525050565b60006020820190506114ef60008301846114cb565b92915050565b6114fe81611449565b82525050565b600060208201905061151960008301846114f5565b92915050565b600080600060608486031215611538576115376113e6565b5b600061154686828701611434565b935050602061155786828701611434565b92505060406115688682870161146a565b9150509250925092565b6000819050919050565b61158581611572565b82525050565b60006020820190506115a0600083018461157c565b92915050565b600060ff82169050919050565b6115bc816115a6565b82525050565b60006020820190506115d760008301846115b3565b92915050565b6000602082840312156115f3576115f26113e6565b5b600061160184828501611434565b91505092915050565b600081519050919050565b600082825260208201905092915050565b60006116318261160a565b61163b8185611615565b935061164b818560208601611350565b6116548161137a565b840191505092915050565b600060208201905081810360008301526116798184611626565b905092915050565b61168a8161140b565b82525050565b60006020820190506116a56000830184611681565b92915050565b6000602082840312156116c1576116c06113e6565b5b60006116cf8482850161146a565b91505092915050565b6116e1816115a6565b81146116ec57600080fd5b50565b6000813590506116fe816116d8565b92915050565b61170d81611572565b811461171857600080fd5b50565b60008135905061172a81611704565b92915050565b600080600080600080600060e0888a03121561174f5761174e6113e6565b5b600061175d8a828b01611434565b975050602061176e8a828b01611434565b965050604061177f8a828b0161146a565b95505060606117908a828b0161146a565b94505060806117a18a828b016116ef565b93505060a06117b28a828b0161171b565b92505060c06117c38a828b0161171b565b91505092959891949750929550565b600080604083850312156117e9576117e86113e6565b5b60006117f785828601611434565b925050602061180885828601611434565b9150509250929050565b7f4e487b7100000000000000000000000000000000000000000000000000000000600052602260045260246000fd5b6000600282049050600182168061185957607f821691505b60208210810361186c5761186b611812565b5b50919050565b7f4e487b7100000000000000000000000000000000000000000000000000000000600052601160045260246000fd5b60006118ac82611449565b91506118b783611449565b92508282019050808211156118cf576118ce611872565b5b92915050565b7f45524332303a2064656372656173656420616c6c6f77616e63652062656c6f7760008201527f207a65726f000000000000000000000000000000000000000000000000000000602082015250565b600061193160258361133f565b915061193c826118d5565b604082019050919050565b6000602082019050818103600083015261196081611924565b9050919050565b7f494e56414c49445f4f574e455200000000000000000000000000000000000000600082015250565b600061199d600d8361133f565b91506119a882611967565b602082019050919050565b600060208201905081810360008301526119cc81611990565b9050919050565b7f494e56414c49445f45585049524154494f4e0000000000000000000000000000600082015250565b6000611a0960128361133f565b9150611a14826119d3565b602082019050919050565b60006020820190508181036000830152611a38816119fc565b9050919050565b600060c082019050611a54600083018961157c565b611a616020830188611681565b611a6e6040830187611681565b611a7b60608301866114f5565b611a8860808301856114f5565b611a9560a08301846114f5565b979650505050505050565b600081905092915050565b7f1901000000000000000000000000000000000000000000000000000000000000600082015250565b6000611ae1600283611aa0565b9150611aec82611aab565b600282019050919050565b6000819050919050565b611b12611b0d82611572565b611af7565b82525050565b6000611b2382611ad4565b9150611b2f8285611b01565b602082019150611b3f8284611b01565b6020820191508190509392505050565b6000608082019050611b64600083018761157c565b611b7160208301866115b3565b611b7e604083018561157c565b611b8b606083018461157c565b95945050505050565b7f494e56414c49445f5349474e4154555245000000000000000000000000000000600082015250565b6000611bca60118361133f565b9150611bd582611b94565b602082019050919050565b60006020820190508181036000830152611bf981611bbd565b9050919050565b7f4f776e61626c653a206e6577206f776e657220697320746865207a65726f206160008201527f6464726573730000000000000000000000000000000000000000000000000000602082015250565b6000611c5c60268361133f565b9150611c6782611c00565b604082019050919050565b60006020820190508181036000830152611c8b81611c4f565b9050919050565b7f45524332303a20617070726f76652066726f6d20746865207a65726f2061646460008201527f7265737300000000000000000000000000000000000000000000000000000000602082015250565b6000611cee60248361133f565b9150611cf982611c92565b604082019050919050565b60006020820190508181036000830152611d1d81611ce1565b9050919050565b7f45524332303a20617070726f766520746f20746865207a65726f20616464726560008201527f7373000000000000000000000000000000000000000000000000000000000000602082015250565b6000611d8060228361133f565b9150611d8b82611d24565b604082019050919050565b60006020820190508181036000830152611daf81611d73565b9050919050565b7f45524332303a20696e73756666696369656e7420616c6c6f77616e6365000000600082015250565b6000611dec601d8361133f565b9150611df782611db6565b602082019050919050565b60006020820190508181036000830152611e1b81611ddf565b9050919050565b7f45524332303a207472616e736665722066726f6d20746865207a65726f20616460008201527f6472657373000000000000000000000000000000000000000000000000000000602082015250565b6000611e7e60258361133f565b9150611e8982611e22565b604082019050919050565b60006020820190508181036000830152611ead81611e71565b9050919050565b7f45524332303a207472616e7366657220746f20746865207a65726f206164647260008201527f6573730000000000000000000000000000000000000000000000000000000000602082015250565b6000611f1060238361133f565b9150611f1b82611eb4565b604082019050919050565b60006020820190508181036000830152611f3f81611f03565b9050919050565b7f45524332303a207472616e7366657220616d6f756e742065786365656473206260008201527f616c616e63650000000000000000000000000000000000000000000000000000602082015250565b6000611fa260268361133f565b9150611fad82611f46565b604082019050919050565b60006020820190508181036000830152611fd181611f95565b9050919050565b7f4f776e61626c653a2063616c6c6572206973206e6f7420746865206f776e6572600082015250565b600061200e60208361133f565b915061201982611fd8565b602082019050919050565b6000602082019050818103600083015261203d81612001565b9050919050565b7f45524332303a206d696e7420746f20746865207a65726f206164647265737300600082015250565b600061207a601f8361133f565b915061208582612044565b602082019050919050565b600060208201905081810360008301526120a98161206d565b905091905056fea2646970667358221220f377ee0c6eed2f3adfd6a3778434e0bf0b1387877f4cd147939efc1d97737e3864736f6c63430008130033","linkReferences":{}},"methodIdentifiers":{"DOMAIN_SEPARATOR()":"3644e515","EIP712_REVISION()":"78160376","PERMIT_TYPEHASH()":"30adf81f","allowance(address,address)":"dd62ed3e","approve(address,uint256)":"095ea7b3","balanceOf(address)":"70a08231","decimals()":"313ce567","decreaseAllowance(address,uint256)":"a457c2d7","increaseAllowance(address,uint256)":"39509351","mint(address,uint256)":"40c10f19","mint(uint256)":"a0712d68","name()":"06fdde03","nonces(address)":"7ecebe00","owner()":"8da5cb5b","permit(address,address,uint256,uint256,uint8,bytes32,bytes32)":"d505accf","renounceOwnership()":"715018a6","symbol()":"95d89b41","totalSupply()":"18160ddd","transfer(address,uint256)":"a9059cbb","transferFrom(address,address,uint256)":"23b872dd","transferOwnership(address)":"f2fde38b"},"id":63}