{"abi":[{"type":"constructor","inputs":[{"name":"_functionsRouter","type":"address","internalType":"address"},{"name":"_donId","type":"bytes32","internalType":"bytes32"},{"name":"_registry","type":"address","internalType":"address"}],"stateMutability":"nonpayable"},{"type":"function","name":"DON_ID","inputs":[],"outputs":[{"name":"","type":"bytes32","internalType":"bytes32"}],"stateMutability":"view"},{"type":"function","name":"bytes32ToHexString","inputs":[{"name":"value","type":"bytes32","internalType":"bytes32"}],"outputs":[{"name":"","type":"string","internalType":"string"}],"stateMutability":"pure"},{"type":"function","name":"bytesToHexString","inputs":[{"name":"data","type":"bytes","internalType":"bytes"}],"outputs":[{"name":"","type":"string","internalType":"string"}],"stateMutability":"pure"},{"type":"function","name":"handleOracleFulfillment","inputs":[{"name":"requestId","type":"bytes32","internalType":"bytes32"},{"name":"response","type":"bytes","internalType":"bytes"},{"name":"err","type":"bytes","internalType":"bytes"}],"outputs":[],"stateMutability":"nonpayable"},{"type":"function","name":"lastTelemetryHash","inputs":[],"outputs":[{"name":"","type":"bytes32","internalType":"bytes32"}],"stateMutability":"view"},{"type":"function","name":"lastVerificationResult","inputs":[],"outputs":[{"name":"","type":"bool","internalType":"bool"}],"stateMutability":"view"},{"type":"function","name":"owner","inputs":[],"outputs":[{"name":"","type":"address","internalType":"address"}],"stateMutability":"view"},{"type":"function","name":"registry","inputs":[],"outputs":[{"name":"","type":"address","internalType":"address"}],"stateMutability":"view"},{"type":"function","name":"requestTelemetryVerification","inputs":[{"name":"agent","type":"address","internalType":"address"},{"name":"source","type":"string","internalType":"string"},{"name":"telemetryHash","type":"bytes32","internalType":"bytes32"},{"name":"subscriptionId","type":"uint64","internalType":"uint64"},{"name":"gasLimit","type":"uint32","internalType":"uint32"}],"outputs":[{"name":"requestId","type":"bytes32","internalType":"bytes32"}],"stateMutability":"nonpayable"},{"type":"function","name":"setRegistry","inputs":[{"name":"_registry","type":"address","internalType":"address"}],"outputs":[],"stateMutability":"nonpayable"},{"type":"function","name":"verifyLineage","inputs":[{"name":"rootHash","type":"bytes32","internalType":"bytes32"},{"name":"proof","type":"bytes","internalType":"bytes"}],"outputs":[{"name":"","type":"bool","internalType":"bool"}],"stateMutability":"view"},{"type":"function","name":"verifyTelemetry","inputs":[{"name":"telemetryHash","type":"bytes32","internalType":"bytes32"},{"name":"proof","type":"bytes","internalType":"bytes"}],"outputs":[{"name":"","type":"bool","internalType":"bool"}],"stateMutability":"view"},{"type":"event","name":"RegistryUpdated","inputs":[{"name":"oldRegistry","type":"address","indexed":true,"internalType":"address"},{"name":"newRegistry","type":"address","indexed":true,"internalType":"address"}],"anonymous":false},{"type":"event","name":"RequestFulfilled","inputs":[{"name":"id","type":"bytes32","indexed":true,"internalType":"bytes32"}],"anonymous":false},{"type":"event","name":"RequestSent","inputs":[{"name":"id","type":"bytes32","indexed":true,"internalType":"bytes32"}],"anonymous":false},{"type":"event","name":"TelemetryVerificationCompleted","inputs":[{"name":"requestId","type":"bytes32","indexed":true,"internalType":"bytes32"},{"name":"success","type":"bool","indexed":false,"internalType":"bool"}],"anonymous":false},{"type":"event","name":"TelemetryVerificationFailed","inputs":[{"name":"requestId","type":"bytes32","indexed":true,"internalType":"bytes32"},{"name":"error","type":"bytes","indexed":false,"internalType":"bytes"}],"anonymous":false},{"type":"event","name":"TelemetryVerificationRequested","inputs":[{"name":"requestId","type":"bytes32","indexed":true,"internalType":"bytes32"},{"name":"telemetryHash","type":"bytes32","indexed":true,"internalType":"bytes32"}],"anonymous":false},{"type":"error","name":"EmptyArgs","inputs":[]},{"type":"error","name":"EmptySource","inputs":[]},{"type":"error","name":"NoInlineSecrets","inputs":[]},{"type":"error","name":"OnlyRouterCanFulfill","inputs":[]}],"bytecode":{"object":"0x60c060405234801561000f575f5ffd5b50604051612af0380380612af083398181016040528101906100319190610188565b828073ffffffffffffffffffffffffffffffffffffffff1660808173ffffffffffffffffffffffffffffffffffffffff1681525050508160a08181525050336001806101000a81548173ffffffffffffffffffffffffffffffffffffffff021916908373ffffffffffffffffffffffffffffffffffffffff1602179055508060025f6101000a81548173ffffffffffffffffffffffffffffffffffffffff021916908373ffffffffffffffffffffffffffffffffffffffff1602179055505050506101d8565b5f5ffd5b5f73ffffffffffffffffffffffffffffffffffffffff82169050919050565b5f610124826100fb565b9050919050565b6101348161011a565b811461013e575f5ffd5b50565b5f8151905061014f8161012b565b92915050565b5f819050919050565b61016781610155565b8114610171575f5ffd5b50565b5f815190506101828161015e565b92915050565b5f5f5f6060848603121561019f5761019e6100f7565b5b5f6101ac86828701610141565b93505060206101bd86828701610174565b92505060406101ce86828701610141565b9150509250925092565b60805160a0516128e96102075f395f81816103380152610b7301525f818161027601526114bd01526128e95ff3fe608060405234801561000f575f5ffd5b50600436106100b2575f3560e01c80637d520c221161006f5780637d520c221461017a5780638da5cb5b146101aa57806390db3890146101c8578063a91ee0dc146101f8578063c167959314610214578063c68b378714610244576100b2565b80630ca76175146100b65780630cde9f3c146100d25780632309220d146100f05780632fd5c2471461012057806359b2005e1461013e5780637b1039991461015c575b5f5ffd5b6100d060048036038101906100cb9190611dbf565b610274565b005b6100da610336565b6040516100e79190611e56565b60405180910390f35b61010a60048036038101906101059190611ecc565b61035a565b6040516101179190611f43565b60405180910390f35b610128610473565b6040516101359190611f43565b60405180910390f35b610146610485565b6040516101539190611e56565b60405180910390f35b61016461048a565b6040516101719190611f9b565b60405180910390f35b610194600480360381019061018f9190611fb4565b6104af565b6040516101a1919061205b565b60405180910390f35b6101b26106c1565b6040516101bf9190611f9b565b60405180910390f35b6101e260048036038101906101dd9190611ecc565b6106e5565b6040516101ef9190611f43565b60405180910390f35b610212600480360381019061020d91906120a5565b6107fe565b005b61022e6004803603810190610229919061219b565b6108c4565b60405161023b9190611e56565b60405180910390f35b61025e60048036038101906102599190612231565b610bda565b60405161026b919061205b565b60405180910390f35b7f000000000000000000000000000000000000000000000000000000000000000073ffffffffffffffffffffffffffffffffffffffff163373ffffffffffffffffffffffffffffffffffffffff16146102f9576040517fc6829f8300000000000000000000000000000000000000000000000000000000815260040160405180910390fd5b610304838383610dd2565b827f85e1543bf2f84fe80c6badbce3648c8539ad1df4d2b3d822938ca0538be727e660405160405180910390a2505050565b7f000000000000000000000000000000000000000000000000000000000000000081565b5f5f73ffffffffffffffffffffffffffffffffffffffff1660025f9054906101000a900473ffffffffffffffffffffffffffffffffffffffff1673ffffffffffffffffffffffffffffffffffffffff161461044f5760025f9054906101000a900473ffffffffffffffffffffffffffffffffffffffff1673ffffffffffffffffffffffffffffffffffffffff1663c181b273856040518263ffffffff1660e01b81526004016104099190611e56565b602060405180830381865afa158015610424573d5f5f3e3d5ffd5b505050506040513d601f19601f820116820180604052508101906104489190612286565b905061046c565b828260405161045f9291906122df565b6040518091039020841490505b9392505050565b60015f9054906101000a900460ff1681565b5f5481565b60025f9054906101000a900473ffffffffffffffffffffffffffffffffffffffff1681565b60605f6040518060400160405280601081526020017f303132333435363738396162636465660000000000000000000000000000000081525090505f600284516104f9919061232d565b67ffffffffffffffff81111561051257610511611c9b565b5b6040519080825280601f01601f1916602001820160405280156105445781602001600182028036833780820191505090505b5090505f5f90505b84518110156106b65782600486838151811061056b5761056a61236e565b5b602001015160f81c60f81b7effffffffffffffffffffffffffffffffffffffffffffffffffffffffffffff1916901c60f81c60ff16815181106105b1576105b061236e565b5b602001015160f81c60f81b826002836105ca919061232d565b815181106105db576105da61236e565b5b60200101907effffffffffffffffffffffffffffffffffffffffffffffffffffffffffffff191690815f1a90535082600f60f81b8683815181106106225761062161236e565b5b602001015160f81c60f81b1660f81c60ff16815181106106455761064461236e565b5b602001015160f81c60f81b826001600284610660919061232d565b61066a919061239b565b8151811061067b5761067a61236e565b5b60200101907effffffffffffffffffffffffffffffffffffffffffffffffffffffffffffff191690815f1a905350808060010191505061054c565b508092505050919050565b60018054906101000a900473ffffffffffffffffffffffffffffffffffffffff1681565b5f5f73ffffffffffffffffffffffffffffffffffffffff1660025f9054906101000a900473ffffffffffffffffffffffffffffffffffffffff1673ffffffffffffffffffffffffffffffffffffffff16146107da5760025f9054906101000a900473ffffffffffffffffffffffffffffffffffffffff1673ffffffffffffffffffffffffffffffffffffffff1663c181b273856040518263ffffffff1660e01b81526004016107949190611e56565b602060405180830381865afa1580156107af573d5f5f3e3d5ffd5b505050506040513d601f19601f820116820180604052508101906107d39190612286565b90506107f7565b82826040516107ea9291906122df565b6040518091039020841490505b9392505050565b610806610fc7565b8073ffffffffffffffffffffffffffffffffffffffff1660025f9054906101000a900473ffffffffffffffffffffffffffffffffffffffff1673ffffffffffffffffffffffffffffffffffffffff167f482b97c53e48ffa324a976e2738053e9aff6eee04d8aac63b10e19411d869b8260405160405180910390a38060025f6101000a81548173ffffffffffffffffffffffffffffffffffffffff021916908373ffffffffffffffffffffffffffffffffffffffff16021790555050565b5f5f60405180602001604052805f81525090505f73ffffffffffffffffffffffffffffffffffffffff1660025f9054906101000a900473ffffffffffffffffffffffffffffffffffffffff1673ffffffffffffffffffffffffffffffffffffffff1614610a515760025f9054906101000a900473ffffffffffffffffffffffffffffffffffffffff1673ffffffffffffffffffffffffffffffffffffffff16633ea3504a896040518263ffffffff1660e01b81526004016109859190611f9b565b5f60405180830381865afa15801561099f573d5f5f3e3d5ffd5b505050506040513d5f823e3d601f19601f820116820180604052508101906109c7919061243c565b905060025f9054906101000a900473ffffffffffffffffffffffffffffffffffffffff1673ffffffffffffffffffffffffffffffffffffffff16638b755ebf866040518263ffffffff1660e01b8152600401610a239190611e56565b5f604051808303815f87803b158015610a3a575f5ffd5b505af1158015610a4c573d5f5f3e3d5ffd5b505050505b610a59611b98565b610aaf88888080601f0160208091040260200160405190810160405280939291908181526020018383808284375f81840152601f19601f820116905080830192505050505050508261105790919063ffffffff16565b5f600267ffffffffffffffff811115610acb57610aca611c9b565b5b604051908082528060200260200182016040528015610afe57816020015b6060815260200190600190039081610ae95790505b509050610b0a87610bda565b815f81518110610b1d57610b1c61236e565b5b6020026020010181905250610b31836104af565b81600181518110610b4557610b4461236e565b5b6020026020010181905250610b63818361106790919063ffffffff16565b610b97610b6f836110ae565b87877f00000000000000000000000000000000000000000000000000000000000000006114b9565b9350865f8190555086847fb431258a2101f369e8c2af171dad3e286739a95289b2c3f87e6e7cf500b6999060405160405180910390a35050509695505050505050565b60605f6040518060400160405280601081526020017f303132333435363738396162636465660000000000000000000000000000000081525090505f604067ffffffffffffffff811115610c3157610c30611c9b565b5b6040519080825280601f01601f191660200182016040528015610c635781602001600182028036833780820191505090505b5090505f5f90505b6020811015610dc757826004868360208110610c8a57610c8961236e565b5b1a60f81b7effffffffffffffffffffffffffffffffffffffffffffffffffffffffffffff1916901c60f81c60ff1681518110610cc957610cc861236e565b5b602001015160f81c60f81b82600283610ce2919061232d565b81518110610cf357610cf261236e565b5b60200101907effffffffffffffffffffffffffffffffffffffffffffffffffffffffffffff191690815f1a90535082600f60f81b868360208110610d3a57610d3961236e565b5b1a60f81b1660f81c60ff1681518110610d5657610d5561236e565b5b602001015160f81c60f81b826001600284610d71919061232d565b610d7b919061239b565b81518110610d8c57610d8b61236e565b5b60200101907effffffffffffffffffffffffffffffffffffffffffffffffffffffffffffff191690815f1a9053508080600101915050610c6b565b508092505050919050565b5f5f90505f825103610e90575f8351118015610e305750600160f81b835f81518110610e0157610e0061236e565b5b602001015160f81c60f81b7effffffffffffffffffffffffffffffffffffffffffffffffffffffffffffff1916145b15610e3a57600190505b8060015f6101000a81548160ff021916908315150217905550837f708dd78803c106357d241027b90548e24247ab6b1aff87750383ca3a2efb1d8682604051610e839190611f43565b60405180910390a2610ee2565b5f60015f6101000a81548160ff021916908315150217905550837fd94cda4a6ff327fd0fa159cf7d1e1c927b3b087ec1aaffbbac8c4cbe564d184d83604051610ed991906124d5565b60405180910390a25b5f73ffffffffffffffffffffffffffffffffffffffff1660025f9054906101000a900473ffffffffffffffffffffffffffffffffffffffff1673ffffffffffffffffffffffffffffffffffffffff1614610fc15760025f9054906101000a900473ffffffffffffffffffffffffffffffffffffffff1673ffffffffffffffffffffffffffffffffffffffff1663ee4c16f45f54836040518363ffffffff1660e01b8152600401610f939291906124f5565b5f604051808303815f87803b158015610faa575f5ffd5b505af1158015610fbc573d5f5f3e3d5ffd5b505050505b50505050565b60018054906101000a900473ffffffffffffffffffffffffffffffffffffffff1673ffffffffffffffffffffffffffffffffffffffff163373ffffffffffffffffffffffffffffffffffffffff1614611055576040517f08c379a000000000000000000000000000000000000000000000000000000000815260040161104c90612566565b60405180910390fd5b565b611063825f5f84611598565b5050565b5f8151036110a1576040517ffe936cb700000000000000000000000000000000000000000000000000000000815260040160405180910390fd5b808260a001819052505050565b60605f6110bc61010061163e565b90506111066040518060400160405280600c81526020017f636f64654c6f636174696f6e00000000000000000000000000000000000000008152508261166390919063ffffffff16565b61112e835f0151600281111561111f5761111e612584565b5b8261168b90919063ffffffff16565b6111766040518060400160405280600881526020017f6c616e67756167650000000000000000000000000000000000000000000000008152508261166390919063ffffffff16565b61119e83604001515f81111561118f5761118e612584565b5b8261168b90919063ffffffff16565b6111e66040518060400160405280600681526020017f736f7572636500000000000000000000000000000000000000000000000000008152508261166390919063ffffffff16565b6111fd83606001518261166390919063ffffffff16565b5f8360a001515111156112b4576112526040518060400160405280600481526020017f61726773000000000000000000000000000000000000000000000000000000008152508261166390919063ffffffff16565b61125b816116da565b5f5f90505b8360a00151518110156112a95761129e8460a0015182815181106112875761128661236e565b5b60200260200101518361166390919063ffffffff16565b806001019050611260565b506112b381611702565b5b5f83608001515111156113f3575f60028111156112d4576112d3612584565b5b836020015160028111156112eb576112ea612584565b5b03611322576040517fa80d31f700000000000000000000000000000000000000000000000000000000815260040160405180910390fd5b61136a6040518060400160405280600f81526020017f736563726574734c6f636174696f6e00000000000000000000000000000000008152508261166390919063ffffffff16565b6113938360200151600281111561138457611383612584565b5b8261168b90919063ffffffff16565b6113db6040518060400160405280600781526020017f73656372657473000000000000000000000000000000000000000000000000008152508261166390919063ffffffff16565b6113f283608001518261172a90919063ffffffff16565b5b5f8360c001515111156114aa576114486040518060400160405280600981526020017f62797465734172677300000000000000000000000000000000000000000000008152508261166390919063ffffffff16565b611451816116da565b5f5f90505b8360c001515181101561149f576114948460c00151828151811061147d5761147c61236e565b5b60200260200101518361172a90919063ffffffff16565b806001019050611456565b506114a981611702565b5b805f01515f0151915050919050565b5f5f7f000000000000000000000000000000000000000000000000000000000000000073ffffffffffffffffffffffffffffffffffffffff1663461d27628688600188886040518663ffffffff1660e01b815260040161151d9594939291906125eb565b6020604051808303815f875af1158015611539573d5f5f3e3d5ffd5b505050506040513d601f19601f8201168201806040525081019061155d9190612657565b9050807f1131472297a800fee664d1d89cfa8f7676ff07189ecc53f80bbb5f4969099db860405160405180910390a280915050949350505050565b5f8151036115d2576040517f22ce3edd00000000000000000000000000000000000000000000000000000000815260040160405180910390fd5b82845f019060028111156115e9576115e8612584565b5b908160028111156115fd576115fc612584565b5b815250508184604001905f81111561161857611617612584565b5b90815f81111561162b5761162a612584565b5b8152505080846060018190525050505050565b611646611c07565b611653815f015183611752565b505f816020018181525050919050565b61167082600383516117c8565b61168681835f015161196890919063ffffffff16565b505050565b6116ac60026005600660ff16901b17835f015161198490919063ffffffff16565b506116d682826040516020016116c29190612691565b60405160208183030381529060405261172a565b5050565b6116e58160046119eb565b6001816020018181516116f8919061239b565b9150818152505050565b61170d8160076119eb565b60018160200181815161172091906126aa565b9150818152505050565b61173782600283516117c8565b61174d81835f015161196890919063ffffffff16565b505050565b61175a611c26565b5f602083611768919061270a565b146117945760208261177a919061270a565b602061178691906126aa565b82611791919061239b565b91505b818360200181815250506040518084525f8152828101602001818110156117b9575f5ffd5b80604052505082905092915050565b60178167ffffffffffffffff1611611802576117fc8160058460ff16901b60ff1617845f015161198490919063ffffffff16565b50611963565b60ff8167ffffffffffffffff161161185e57611834601860058460ff16901b17845f015161198490919063ffffffff16565b506118588167ffffffffffffffff166001855f0151611a109092919063ffffffff16565b50611962565b61ffff8167ffffffffffffffff16116118bb57611891601960058460ff16901b17845f015161198490919063ffffffff16565b506118b58167ffffffffffffffff166002855f0151611a109092919063ffffffff16565b50611961565b63ffffffff8167ffffffffffffffff161161191a576118f0601a60058460ff16901b17845f015161198490919063ffffffff16565b506119148167ffffffffffffffff166004855f0151611a109092919063ffffffff16565b50611960565b61193a601b60058460ff16901b17845f015161198490919063ffffffff16565b5061195e8167ffffffffffffffff166008855f0151611a109092919063ffffffff16565b505b5b5b5b505050565b611970611c26565b61197c83838451611a99565b905092915050565b61198c611c26565b5f835f01515190505f6001826119a2919061239b565b9050846020015182106119c6576119c5856002836119c0919061232d565b611b76565b5b845160208382010185815381518311156119de578282525b5050849250505092915050565b611a0b601f60058360ff16901b17835f015161198490919063ffffffff16565b505050565b611a18611c26565b5f845f01515190505f8184611a2d919061239b565b90508560200151811115611a5257611a5186600283611a4c919061232d565b611b76565b5b5f600185610100611a639190612869565b611a6d91906126aa565b905086518281018783198251161781528151841115611a8a578382525b50508693505050509392505050565b611aa1611c26565b8251821115611aae575f5ffd5b5f845f01515190505f8382611ac3919061239b565b90508560200151811115611ae857611ae786600283611ae2919061232d565b611b76565b5b5f5f87518051856020830101935080851115611b02578482525b60208901925050505b60208610611b495780518252602082611b24919061239b565b9150602081611b33919061239b565b9050602086611b4291906126aa565b9550611b0b565b5f6001876020036101000a0390508019825116818451168181178552505050879450505050509392505050565b5f825f01519050611b878383611752565b50611b928382611968565b50505050565b6040518060e001604052805f6002811115611bb657611bb5612584565b5b81526020015f6002811115611bce57611bcd612584565b5b81526020015f5f811115611be557611be4612584565b5b8152602001606081526020016060815260200160608152602001606081525090565b6040518060400160405280611c1a611c26565b81526020015f81525090565b6040518060400160405280606081526020015f81525090565b5f604051905090565b5f5ffd5b5f5ffd5b5f819050919050565b611c6281611c50565b8114611c6c575f5ffd5b50565b5f81359050611c7d81611c59565b92915050565b5f5ffd5b5f5ffd5b5f601f19601f8301169050919050565b7f4e487b71000000000000000000000000000000000000000000000000000000005f52604160045260245ffd5b611cd182611c8b565b810181811067ffffffffffffffff82111715611cf057611cef611c9b565b5b80604052505050565b5f611d02611c3f565b9050611d0e8282611cc8565b919050565b5f67ffffffffffffffff821115611d2d57611d2c611c9b565b5b611d3682611c8b565b9050602081019050919050565b828183375f83830152505050565b5f611d63611d5e84611d13565b611cf9565b905082815260208101848484011115611d7f57611d7e611c87565b5b611d8a848285611d43565b509392505050565b5f82601f830112611da657611da5611c83565b5b8135611db6848260208601611d51565b91505092915050565b5f5f5f60608486031215611dd657611dd5611c48565b5b5f611de386828701611c6f565b935050602084013567ffffffffffffffff811115611e0457611e03611c4c565b5b611e1086828701611d92565b925050604084013567ffffffffffffffff811115611e3157611e30611c4c565b5b611e3d86828701611d92565b9150509250925092565b611e5081611c50565b82525050565b5f602082019050611e695f830184611e47565b92915050565b5f5ffd5b5f5ffd5b5f5f83601f840112611e8c57611e8b611c83565b5b8235905067ffffffffffffffff811115611ea957611ea8611e6f565b5b602083019150836001820283011115611ec557611ec4611e73565b5b9250929050565b5f5f5f60408486031215611ee357611ee2611c48565b5b5f611ef086828701611c6f565b935050602084013567ffffffffffffffff811115611f1157611f10611c4c565b5b611f1d86828701611e77565b92509250509250925092565b5f8115159050919050565b611f3d81611f29565b82525050565b5f602082019050611f565f830184611f34565b92915050565b5f73ffffffffffffffffffffffffffffffffffffffff82169050919050565b5f611f8582611f5c565b9050919050565b611f9581611f7b565b82525050565b5f602082019050611fae5f830184611f8c565b92915050565b5f60208284031215611fc957611fc8611c48565b5b5f82013567ffffffffffffffff811115611fe657611fe5611c4c565b5b611ff284828501611d92565b91505092915050565b5f81519050919050565b5f82825260208201905092915050565b8281835e5f83830152505050565b5f61202d82611ffb565b6120378185612005565b9350612047818560208601612015565b61205081611c8b565b840191505092915050565b5f6020820190508181035f8301526120738184612023565b905092915050565b61208481611f7b565b811461208e575f5ffd5b50565b5f8135905061209f8161207b565b92915050565b5f602082840312156120ba576120b9611c48565b5b5f6120c784828501612091565b91505092915050565b5f5f83601f8401126120e5576120e4611c83565b5b8235905067ffffffffffffffff81111561210257612101611e6f565b5b60208301915083600182028301111561211e5761211d611e73565b5b9250929050565b5f67ffffffffffffffff82169050919050565b61214181612125565b811461214b575f5ffd5b50565b5f8135905061215c81612138565b92915050565b5f63ffffffff82169050919050565b61217a81612162565b8114612184575f5ffd5b50565b5f8135905061219581612171565b92915050565b5f5f5f5f5f5f60a087890312156121b5576121b4611c48565b5b5f6121c289828a01612091565b965050602087013567ffffffffffffffff8111156121e3576121e2611c4c565b5b6121ef89828a016120d0565b9550955050604061220289828a01611c6f565b935050606061221389828a0161214e565b925050608061222489828a01612187565b9150509295509295509295565b5f6020828403121561224657612245611c48565b5b5f61225384828501611c6f565b91505092915050565b61226581611f29565b811461226f575f5ffd5b50565b5f815190506122808161225c565b92915050565b5f6020828403121561229b5761229a611c48565b5b5f6122a884828501612272565b91505092915050565b5f81905092915050565b5f6122c683856122b1565b93506122d3838584611d43565b82840190509392505050565b5f6122eb8284866122bb565b91508190509392505050565b5f819050919050565b7f4e487b71000000000000000000000000000000000000000000000000000000005f52601160045260245ffd5b5f612337826122f7565b9150612342836122f7565b9250828202612350816122f7565b9150828204841483151761236757612366612300565b5b5092915050565b7f4e487b71000000000000000000000000000000000000000000000000000000005f52603260045260245ffd5b5f6123a5826122f7565b91506123b0836122f7565b92508282019050808211156123c8576123c7612300565b5b92915050565b5f6123e06123db84611d13565b611cf9565b9050828152602081018484840111156123fc576123fb611c87565b5b612407848285612015565b509392505050565b5f82601f83011261242357612422611c83565b5b81516124338482602086016123ce565b91505092915050565b5f6020828403121561245157612450611c48565b5b5f82015167ffffffffffffffff81111561246e5761246d611c4c565b5b61247a8482850161240f565b91505092915050565b5f81519050919050565b5f82825260208201905092915050565b5f6124a782612483565b6124b1818561248d565b93506124c1818560208601612015565b6124ca81611c8b565b840191505092915050565b5f6020820190508181035f8301526124ed818461249d565b905092915050565b5f6040820190506125085f830185611e47565b6125156020830184611f34565b9392505050565b7f436f727465784f7261636c653a204f6e6c79206f776e657200000000000000005f82015250565b5f612550601883612005565b915061255b8261251c565b602082019050919050565b5f6020820190508181035f83015261257d81612544565b9050919050565b7f4e487b71000000000000000000000000000000000000000000000000000000005f52602160045260245ffd5b6125ba81612125565b82525050565b5f61ffff82169050919050565b6125d6816125c0565b82525050565b6125e581612162565b82525050565b5f60a0820190506125fe5f8301886125b1565b8181036020830152612610818761249d565b905061261f60408301866125cd565b61262c60608301856125dc565b6126396080830184611e47565b9695505050505050565b5f8151905061265181611c59565b92915050565b5f6020828403121561266c5761266b611c48565b5b5f61267984828501612643565b91505092915050565b61268b816122f7565b82525050565b5f6020820190506126a45f830184612682565b92915050565b5f6126b4826122f7565b91506126bf836122f7565b92508282039050818111156126d7576126d6612300565b5b92915050565b7f4e487b71000000000000000000000000000000000000000000000000000000005f52601260045260245ffd5b5f612714826122f7565b915061271f836122f7565b92508261272f5761272e6126dd565b5b828206905092915050565b5f8160011c9050919050565b5f5f8291508390505b600185111561278f5780860481111561276b5761276a612300565b5b600185161561277a5780820291505b80810290506127888561273a565b945061274f565b94509492505050565b5f826127a75760019050612862565b816127b4575f9050612862565b81600181146127ca57600281146127d457612803565b6001915050612862565b60ff8411156127e6576127e5612300565b5b8360020a9150848211156127fd576127fc612300565b5b50612862565b5060208310610133831016604e8410600b84101617156128385782820a90508381111561283357612832612300565b5b612862565b6128458484846001612746565b9250905081840481111561285c5761285b612300565b5b81810290505b9392505050565b5f612873826122f7565b915061287e836122f7565b92506128ab7fffffffffffffffffffffffffffffffffffffffffffffffffffffffffffffffff8484612798565b90509291505056fea2646970667358221220dc251a5e59868fa5f9b089ed9b26fd6e489dc0920dcea2bbbf6815712329f49864736f6c63430008210033","linkReferences":{}},"methodIdentifiers":{"DON_ID()":"0cde9f3c","bytes32ToHexString(bytes32)":"c68b3787","bytesToHexString(bytes)":"7d520c22","handleOracleFulfillment(bytes32,bytes,bytes)":"0ca76175","lastTelemetryHash()":"59b2005e","lastVerificationResult()":"2fd5c247","owner()":"8da5cb5b","registry()":"7b103999","requestTelemetryVerification(address,string,bytes32,uint64,uint32)":"c1679593","setRegistry(address)":"a91ee0dc","verifyLineage(bytes32,bytes)":"2309220d","verifyTelemetry(bytes32,bytes)":"90db3890"},"id":29}