{"abi":[{"type":"function","name":"anchorTrace","inputs":[{"name":"_traceHash","type":"bytes32","internalType":"bytes32"},{"name":"_agentId","type":"string","internalType":"string"},{"name":"_domain","type":"string","internalType":"string"}],"outputs":[],"stateMutability":"nonpayable"},{"type":"function","name":"traces","inputs":[{"name":"","type":"bytes32","internalType":"bytes32"}],"outputs":[{"name":"agentId","type":"string","internalType":"string"},{"name":"domain","type":"string","internalType":"string"},{"name":"timestamp","type":"uint256","internalType":"uint256"},{"name":"submitter","type":"address","internalType":"address"}],"stateMutability":"view"},{"type":"function","name":"verifyTrace","inputs":[{"name":"_traceHash","type":"bytes32","internalType":"bytes32"}],"outputs":[{"name":"","type":"bool","internalType":"bool"}],"stateMutability":"view"},{"type":"event","name":"TraceAnchored","inputs":[{"name":"traceHash","type":"bytes32","indexed":true,"internalType":"bytes32"},{"name":"agentId","type":"string","indexed":false,"internalType":"string"},{"name":"domain","type":"string","indexed":false,"internalType":"string"},{"name":"timestamp","type":"uint256","indexed":false,"internalType":"uint256"},{"name":"submitter","type":"address","indexed":true,"internalType":"address"}],"anonymous":false}],"bytecode":{"object":"0x6080604052348015600e575f5ffd5b50610b008061001c5f395ff3fe608060405234801561000f575f5ffd5b506004361061003f575f3560e01c80631d76493614610043578063804981511461005f578063d955ec221461008f575b5f5ffd5b61005d600480360381019061005891906104d0565b6100c2565b005b61007960048036038101906100749190610561565b6102bf565b60405161008691906105a6565b60405180910390f35b6100a960048036038101906100a49190610561565b6102de565b6040516100b99493929190610686565b60405180910390f35b5f5f5f8781526020019081526020015f206002015414610117576040517f08c379a000000000000000000000000000000000000000000000000000000000815260040161010e90610721565b60405180910390fd5b604051806080016040528085858080601f0160208091040260200160405190810160405280939291908181526020018383808284375f81840152601f19601f82011690508083019250505050505050815260200183838080601f0160208091040260200160405190810160405280939291908181526020018383808284375f81840152601f19601f8201169050808301925050505050505081526020014281526020013373ffffffffffffffffffffffffffffffffffffffff168152505f5f8781526020019081526020015f205f820151815f0190816101f7919061097a565b50602082015181600101908161020d919061097a565b50604082015181600201556060820151816003015f6101000a81548173ffffffffffffffffffffffffffffffffffffffff021916908373ffffffffffffffffffffffffffffffffffffffff1602179055509050503373ffffffffffffffffffffffffffffffffffffffff16857faff14a727861bd683f8c732b4795d761c99fa5d77dd561bc91ff708895c472ca86868686426040516102b0959493929190610a83565b60405180910390a35050505050565b5f5f5f5f8481526020019081526020015f206002015414159050919050565b5f602052805f5260405f205f91509050805f0180546102fc90610799565b80601f016020809104026020016040519081016040528092919081815260200182805461032890610799565b80156103735780601f1061034a57610100808354040283529160200191610373565b820191905f5260205f20905b81548152906001019060200180831161035657829003601f168201915b50505050509080600101805461038890610799565b80601f01602080910402602001604051908101604052809291908181526020018280546103b490610799565b80156103ff5780601f106103d6576101008083540402835291602001916103ff565b820191905f5260205f20905b8154815290600101906020018083116103e257829003601f168201915b505050505090806002015490806003015f9054906101000a900473ffffffffffffffffffffffffffffffffffffffff16905084565b5f5ffd5b5f5ffd5b5f819050919050565b61044e8161043c565b8114610458575f5ffd5b50565b5f8135905061046981610445565b92915050565b5f5ffd5b5f5ffd5b5f5ffd5b5f5f83601f8401126104905761048f61046f565b5b8235905067ffffffffffffffff8111156104ad576104ac610473565b5b6020830191508360018202830111156104c9576104c8610477565b5b9250929050565b5f5f5f5f5f606086880312156104e9576104e8610434565b5b5f6104f68882890161045b565b955050602086013567ffffffffffffffff81111561051757610516610438565b5b6105238882890161047b565b9450945050604086013567ffffffffffffffff81111561054657610545610438565b5b6105528882890161047b565b92509250509295509295909350565b5f6020828403121561057657610575610434565b5b5f6105838482850161045b565b91505092915050565b5f8115159050919050565b6105a08161058c565b82525050565b5f6020820190506105b95f830184610597565b92915050565b5f81519050919050565b5f82825260208201905092915050565b8281835e5f83830152505050565b5f601f19601f8301169050919050565b5f610601826105bf565b61060b81856105c9565b935061061b8185602086016105d9565b610624816105e7565b840191505092915050565b5f819050919050565b6106418161062f565b82525050565b5f73ffffffffffffffffffffffffffffffffffffffff82169050919050565b5f61067082610647565b9050919050565b61068081610666565b82525050565b5f6080820190508181035f83015261069e81876105f7565b905081810360208301526106b281866105f7565b90506106c16040830185610638565b6106ce6060830184610677565b95945050505050565b7f547261636520616c726561647920616e63686f726564000000000000000000005f82015250565b5f61070b6016836105c9565b9150610716826106d7565b602082019050919050565b5f6020820190508181035f830152610738816106ff565b9050919050565b7f4e487b71000000000000000000000000000000000000000000000000000000005f52604160045260245ffd5b7f4e487b71000000000000000000000000000000000000000000000000000000005f52602260045260245ffd5b5f60028204905060018216806107b057607f821691505b6020821081036107c3576107c261076c565b5b50919050565b5f819050815f5260205f209050919050565b5f6020601f8301049050919050565b5f82821b905092915050565b5f600883026108257fffffffffffffffffffffffffffffffffffffffffffffffffffffffffffffffff826107ea565b61082f86836107ea565b95508019841693508086168417925050509392505050565b5f819050919050565b5f61086a6108656108608461062f565b610847565b61062f565b9050919050565b5f819050919050565b61088383610850565b61089761088f82610871565b8484546107f6565b825550505050565b5f5f905090565b6108ae61089f565b6108b981848461087a565b505050565b5f5b828110156108df576108d45f8284016108a6565b6001810190506108c0565b505050565b601f8211156109325782821115610931576108fe816107c9565b610907836107db565b610910856107db565b602086101561091d575f90505b80830161092c828403826108be565b505050505b5b505050565b5f82821c905092915050565b5f6109525f1984600802610937565b1980831691505092915050565b5f61096a8383610943565b9150826002028217905092915050565b610983826105bf565b67ffffffffffffffff81111561099c5761099b61073f565b5b6109a68254610799565b6109b18282856108e4565b5f60209050601f8311600181146109e2575f84156109d0578287015190505b6109da858261095f565b865550610a41565b601f1984166109f0866107c9565b5f5b82811015610a17578489015182556001820191506020850194506020810190506109f2565b86831015610a345784890151610a30601f891682610943565b8355505b6001600288020188555050505b505050505050565b828183375f83830152505050565b5f610a6283856105c9565b9350610a6f838584610a49565b610a78836105e7565b840190509392505050565b5f6060820190508181035f830152610a9c818789610a57565b90508181036020830152610ab1818587610a57565b9050610ac06040830184610638565b969550505050505056fea264697066735822122027c50df32f1e8eab11a9dd6c570a88c5c198f938bceef84ab594facd1b8934f564736f6c63430008210033","linkReferences":{}},"methodIdentifiers":{"anchorTrace(bytes32,string,string)":"1d764936","traces(bytes32)":"d955ec22","verifyTrace(bytes32)":"80498151"},"id":0}